:020000040800F2
:1000000000300020BD570008F1570008F1570008E4
:10001000F1570008F1570008F157000800000000F0
:1000200000000000000000000000000081560008F1
:10003000F157000800000000275700088757000804
:10004000F1570008F1570008F1570008F157000870
:10005000F1570008F1570008F1570008F157000860
:10006000F1570008F1570008F1570008F157000850
:10007000F1570008F1570008F1570008F157000840
:10008000F1570008F1570008F1570008BD35000886
:10009000C1350008F1570008BD340008F1570008C9
:1000A000F1570008F1570008F1570008F157000810
:1000B000F1570008F157000800000000F157000850
:1000C000F15700080000000000000000F157000890
:1000D00000000000F1570008F1570008F157000830
:1000E000F1570008F1570008000000000000000070
:1000F0000000000000000000000000000000000000
:1001000000000000000000000000000000000000EF
:100110000000000000000000F1570008F15700083F
:1001200000000000000000000000000000000000CF
:1001300000000000000000000000000000000000BF
:10014000F1570008F157000800000000000000000F
:10015000000000000000000000000000000000009F
:10016000000000000000000000000000000000008F
:10017000000000000000000000000000000000007F
:1001800000000000F157000810B5054C237833B982
:10019000044B13B10448AFF300800123237010BD5A
:1001A0003802002000000000447500080C4B43B1E9
:1001B0000C480D4910B5AFF300800C48036823B913
:1001C00010BD0A48036833B97047094B002BF7D0BC
:1001D000BDE810401847064B002BF5D0184700BF6C
:1001E00000000000447500083C020020300200209E
:1001F0000000000043680B7043681B0A4B70C38803
:100200008B70C379CB7083680B7183681B0A4B7149
:1002100043898B71C37ACB71082070470B78436098
:100220004A7843EA022343608A7843EA0243436000
:10023000CA7843EA026343600B7983604A7943EAF0
:10024000022383608A7943EA02438360CA7943EADE
:10025000026383600820704700487047C66F00083B
:1002600000487047A56F000800487047376F0008C6
:1002700000487047166F000800487047036F000879
:1002800000487047E26E000800487047506F000851
:1002900000487047C16E000800207047002070477A
:1002A00000487047F56F000800487047D46F000899
:1002B000002070470020704700487047F56F000825
:1002C00000487047D46F0008002070470020704736
:1002D00000487047A26E000800487047D46F0008BD
:1002E0008268C3680A7010B5140A4C70140C120EA0
:1002F000CA701A0A0B714A711A0C1B0E8C708A7123
:10030000CB71026943690A72140A4C72140C120E02
:10031000CA721A0A0B734A731A0C1B0E8C728A73F8
:10032000CB738269C3690A74100A4874100C120EE8
:10033000CA741A0A0B754A751A0C1B0E88748A75D2
:10034000CB75182010BD0A684B68C0E902238A6883
:10035000CB68C0E904230A694B69C0E90623182069
:100360007047000000487047A26E000800487047C0
:10037000816E000803790B7083684B701A0A8A70CB
:100380001A0C1B0ECA700B71C3684B711A0A8A7162
:100390001A0C1B0ECA710B7203694B721A0A8A720D
:1003A0001A0C1B0ECA720B7343694B731A0A8A73B9
:1003B0001A0C1B0ECA730B7483694B741A0A8A7465
:1003C0001A0C1B0ECA740B75152070470B7803713D
:1003D000D1F801308360D1F80530C360D1F809301D
:1003E0000361D1F80D304361D1F8113083611520DC
:1003F0007047000000487047226E000800487047B0
:10040000016E000803790B7083684B701A0A8A70BA
:100410001A0C1B0ECA700B71C3684B711A0A8A71D1
:100420001A0C1B0ECA710B7203694B721A0A8A727C
:100430001A0C1B0ECA720B730D2070470B780371D8
:10044000D1F801308360D1F80530C360D1F80930AC
:1004500003610D207047000000487047616E00087E
:1004600000487047406E00080320704700487047FE
:10047000F56F000800487047D46F000803207047EC
:1004800000487047A26E000800487047D46F00080B
:1004900070B5054600F10C042046FFF797FFAB6AE4
:1004A0002046BDE870401847C06A70470048704752
:1004B000226E000800487047016E000890F8780529
:1004C000704700000121014801F014B954020020D6
:1004D000C3681A6810B414680A468168184623462F
:1004E0005DF8044B184738B500F11005836A0446DF
:1004F00029460C309847294604F11400FFF7E8FF1D
:1005000038BD38B500F11005436C044629460C305F
:100510009847294604F13000FFF7DAFF38BD10B5DF
:1005200010220446002105F0A8FE082323730023AF
:100530006360A360204610BD30B587B0044602ADAD
:100540002846FFF7ECFF2379E268A16801330293A4
:10055000A3690193636900932846236901F0F2F8C7
:10056000059B009395E80E00024804F00CFE07B0CE
:1005700030BD00BF5402002030B58DB008AC20461D
:100580000D46FFF7CCFF0121154801F08CF80A2039
:1005900004F0EAFE00222146114804F013FEE8B1FF
:1005A000089BDBB907AB039306AB029305AB019342
:1005B0000DF11303009394E80F0001F03DF9059845
:1005C00005F0C6FBC5E90201069805F0C1FBC5E9C7
:1005D0000401079805F0BCFBC5E906010DB030BD6C
:1005E0005402002030B58DB008AC20460D46FFF710
:1005F00096FF01211B4801F02FF80A2004F0B4FEF9
:1006000000222146174804F0DDFD002827D0089B72
:100610002BBB07AB039306AB029305AB01930DF124
:100620001303009394E80F0001F006F9059C20469F
:1006300005F08EFBC5E90201069805F089FBC5E9C6
:100640000401079805F084FB074B5A68C5E90601C9
:100650001460DA69069911605B6B079A1A600DB035
:1006600030BD00BF54020020980300200138002351
:1006700021FA03F20833202B00F8012FF8D170473C
:1006800043682DE9F0410B7043681B0A4B70C38827
:100690008B70C379CB700D460A1D0446002160683B
:1006A0008142A2EB050302F104020FD2E36853F882
:1006B000213002F8043C180A02F8030C180C1B0E37
:1006C00002F8020C02F8013C0131E8E72269EA5421
:1006D0002169EA18090A5170618A9170E17CD17030
:1006E00004332B44002122699142A3EB050603F158
:1006F00004030FD2A26952F8212003F8042C100A37
:1007000003F8030C100C120E03F8020C03F8012C72
:100710000131E8E7E369AB55E269AB19120A5A7097
:10072000E28B9A70E27FDA7004360027E3699F4219
:1007300014D2636A53F8270006F06BF8804601462E
:10074000A819FFF793FF636A043653F82710A81916
:10075000424605F06DFD46440137E7E73046BDE807
:10076000F081F8B50E46037906F8013B054680682E
:100770000F4606F04EF8044601463046FFF776FF76
:100780002246A968781D05F053FD601DF8BD8388D9
:100790002DE9F0410B7083881B0A4B700546806879
:1007A0000C4606F036F807460146A01CFFF75EFF30
:1007B0003A46A968A01D05F03BFDE86806F029F857
:1007C00007F10608064601460A3704EB0800FFF762
:1007D0004DFF3246E968E01905F02AFD286906F068
:1007E00018F83E4401460746A0190436FFF73EFFBD
:1007F0003A46A01929693E4405F01AFD6B69A355D4
:1008000034441A0A62701A0C1B0EA270E370301D79
:10081000BDE8F08110B500230360013911F8012F04
:1008200002FA03F4026808332243202B0260F5D158
:1008300010BD37B50C4611F8013B0371054601A800
:10084000FFF7E8FF019B621D581D111B884204D968
:1008500012F8011B02F8021CF7E7234400220434BB
:100860001A71AC6003B030BDF0B50B7883804A7864
:1008700085B043EA022383800C460646023101A874
:10088000FFF7C8FF019FA31DBD1D1A1B954204D988
:1008900013F8012B03F8022CF7E7E31900225A7131
:1008A000631DB360611902A8FFF7B4FF2B1D029D01
:1008B00007F10A021D442244111B8D4204D912F88B
:1008C000011B02F8021CF7E76119013B23440022D7
:1008D00001F8012C03A8F360FFF79CFF039804358F
:1008E000284463191A1B904204D913F8012B03F80A
:1008F000022CF7E72218013D0023254402F8013CB1
:10090000356193785178D2781B0443EA0123215C46
:100910000B4343EA02630430736105B0F0BD2DE977
:10092000F34143680D689D4204460E4604D9A90070
:10093000C06805F013FFE0606560321D002160684B
:100940008142A2EB060302F1040213D212F8023C28
:1009500012F8030C1B0443EA002312F8040C0343AF
:1009600012F8010C43EA0063E068A36040F821300C
:100970000131E4E7F218F15C95785078D2782D04D3
:1009800045EA00250D431F1D236945EA02659D4286
:1009900004D9A900A06905F0E1FEA0612561F31961
:1009A000002122699142A3EB060503F1040313D24F
:1009B00013F8022C13F8030C120442EA002213F875
:1009C000040C024313F8010C42EA0062A069626160
:1009D00040F821200131E4E77319725D9F7859785E
:1009E000DB783F0447EA0127174347EA0367E369D7
:1009F0009F4205F1040504D9B900606A05F0AEFE16
:100A00006062E7610027B846E3699F421AD2711914
:100A100001A8FFF7FFFE2B1D019DF2181D44911B3D
:100A2000A94204D212F8011B02F8021CF7E772195E
:100A3000013B02F8018C626A3344236242F827309A
:100A40000137E1E7284602B0BDE8F08110B500F2B9
:100A50009C42002352F8044B44B900EB83027D33DF
:100A6000C2F89C14C8608B60012010BD0133192BA3
:100A7000F0D1002010BD10B500F5A062002352F89F
:100A8000044B3CB903F5A072643340F822104B606C
:100A9000012010BD0133192BF1D1002010BD70B51C
:100AA0000C4630310646FFF7D1FF21460546304659
:100AB000FFF7E1FF002D08BF002070BD30B585B005
:100AC0000446094B019300230293039354F87C3BA3
:100AD00001AA1B680A2105469847204604F00CFB32
:100AE000C5F88C0005B030BD706C00082DE9F041F0
:100AF00086B02B4B009300222A4BADF8042005460C
:100B0000029303930493059200F29C4400F5A066BF
:100B10004FF400772368BBB158689A68ADF8042099
:100B20001A68036802929B68984723680390586884
:100B30000368DB68984721682B68049005971B6859
:100B400009696A46284698470434B442E2D105F25E
:100B500064564FF400772068C8B14368ADF804309C
:100B60008368029303689B68984703902068036832
:100B7000DB6898472B6804902068D3F800800368EE
:100B800005975B6898476A4601462846C047043483
:100B9000A642E0D1012385F8783506B0BDE8F081A2
:100BA000886C00088A700008F0B585B000F17C05FB
:100BB0001E4B0193044600232846029303930E46DE
:100BC00004F09AFAD4F88C203146871A01A8FFF76E
:100BD00025FB029B4FF47A76B7FBF6F2134402939F
:100BE00006FB1272039B124F284607FB0232039248
:100BF00004F082FA029AB0FBF6F3013AD21AC4F872
:100C0000902003990B4A06FB13030A44214607FB75
:100C1000132341F8943F04F1900000F041FB284673
:100C200004F06AFAC4F8800505B0F0BD706C0008E5
:100C300040420F0000CA9A3B10B50446006808B154
:100C400004F0BEFC204610BD10B504464030FFF74E
:100C5000F3FF04F13400FFF7EFFF04F12800FFF782
:100C6000EBFF04F11C00FFF7E7FF04F11000FFF7B2
:100C7000E3FF201DFFF7E0FF204610BDF7B5734CE2
:100C8000734F0C220B21204604F0DCFA2046714CF5
:100C900071493A4604F06AFC204600F045FE2046C1
:100CA0006E4C6F493A4604F061FC1C22002120463C
:100CB00005F0E3FA20466B4C132100F0F4FE2046C9
:100CC000694B40F8043B002504238DE828000F22DF
:100CD000022104F17C064FF4807300F0B5FB30462E
:100CE00004F020FA4FF46143A36730464FF40076D6
:100CF00004F0D6F93246294604F19C00C4F88C5021
:100D0000C4F89050C4F89450C4F8985005F0B5FA5F
:100D100032462946642604F5277005F0AEFA3246BD
:100D2000294604F29C4005F0A8FA3246294604F50B
:100D3000A06005F0A2FA4D4BC4F88C3504F5B463FD
:100D40000026C4F89055C4F89455C4F89855C4F8D2
:100D50009C551E60C4F8A455C4F8A855C4F8AC55F9
:100D6000C4F8B0553A464249C4F864552046C4F820
:100D70006855C4F86C55C4F87055C4F8745584F8B7
:100D80007855C4F87C55C4F88055C4F8845584F867
:100D9000885504F0EBFB374B374A1A603749384A1D
:100DA000DE609E601E6182E80A001D71354B156190
:100DB000354A1A60354ADA60354A9A620122DA62A7
:100DC000344A1D749E61DE611E625E629A605E61DD
:100DD000314B324F324E334D334C1F6303F110020F
:100DE000002000215A639F600222304F1E60DD60A8
:100DF000C3E90601C3E90801C3E90A011C611A64D9
:100E00005F642B4B1E60DD601C61C3E90601C3E912
:100E10000801C3E90A0127499960196303F1100029
:100E2000254958631A645964244B2549196025499A
:100E3000D960254919615A622449254A596103F14B
:100E40001000986199609A6203B0F0BD54020020CE
:100E50008801002098030020F15100083C04002084
:100E6000490C000858040020606D0008B86C0008A8
:100E70005912000814040020486D0008B46D0008E1
:100E800028040020E4030020746D0008306D000881
:100E900039050008C06D000808030020CA6D00086D
:100EA0008C6D0008006D0008186D0008E50500084D
:100EB00050030020DD6D0008790500080C0A0020B1
:100EC000A46D0008D06C0008E86C0008EF6D000805
:100ED000C5040008F0B5632985B004460E4603DD5D
:100EE00090F87855002D4DD0136804F2A3211B68AB
:100EF00010469847FF2384F89C32FE23C0F3072254
:100F000084F89D32C3B284F89E321344DB4384F8E4
:100F1000A16246F3072684F89F2284F8A03284F861
:100F2000A26204F2A12105220023861DB24204DC44
:100F300011F8015B01322B44F8E700F10805204469
:100F4000DB43B5F5007F80F8A3320CDC04F527778E
:100F50003E460434F31B9D4214DD16F8011B204667
:100F600000F0DFFAF6E7094B019303238DF8083010
:100F7000074B0393236801AA1B6807212046984763
:100F80004FF0FF35284605B0F0BD00BFA06C00084B
:100F90006C6F00082DE9F04700F17C0804464046DC
:100FA00004F0AAF8D4F8803542F6F822C31A934226
:100FB00084BF002384F87835D4F86435054633B10E
:100FC000D4F8843583423CBF0023C4F8643504F16F
:100FD0000409002604F19C07D4F89830ABB94846C0
:100FE00000F06CF9E8B994F8780560B1D4F87C3574
:100FF00040F6C412EB1A934204D92046FFF75EFD77
:10100000C4F87C550020BDE8F087404604F074F831
:10101000D4F89830401B9842E1D96FF00100BDE848
:10102000F087484600F052F90028DCDBD4F874352C
:10103000D4F864A50344BAF1070FC4F8743512D18B
:10104000D4F870355A1C2344C4F8702583F89C00EA
:10105000D4F86835013BC4F86835002BBCD10823AF
:10106000C4F86435B8E7BAF1000F14D1FF2807D1EE
:101070000123C4F8643505F11403C4F88435ABE7E3
:10108000404604F039F841F28833401B9842A3D916
:1010900084F878A5C1E7BAF1010F0DD1FE2801D17E
:1010A0000223DDE794F87835C4F86465002B93D10A
:1010B0002046FFF703FD8FE7BAF1020F09D1C4F80C
:1010C0006805C4F870650323C4F86435C4F8740572
:1010D00082E7BAF1030F07D1D4F8683503EB00209B
:1010E000C4F868050423BBE7BAF1040F0BD15A42D8
:1010F000D2B2DBB258BF5342FF2B01D10523AFE779
:10110000C4F8646568E7BAF1050F03D1C4F86C054B
:101110000623D9E7BAF1060F0BD1D4F86C3503EBEF
:1011200000200723C4F86435C4F86C05D4F868358A
:1011300093E7BAF1080F7FF44FAF5A42D2B2DBB255
:1011400058BF5342FF2BC4F864657FF445AFD4F811
:101150006C356BB92046FFF7B1FC2046FFF7C6FCA3
:10116000C4F87C55C4F880554FF0FF30BDE8F087D7
:101170000A2B04D139462046FFF716FD2CE7062B33
:1011800008D1394604F28C50FFF7C9FB012384F8DB
:10119000883521E70B2B02D184F878651CE7DC3316
:1011A00054F8230000283FF417AF036839461B6842
:1011B000984711E708B51D4B1D4CDA681B68136092
:1011C0004FF4E131201DA16703F0ABFE00230121A4
:1011D0001848C4F86435C4F86835C4F87035C4F8E4
:1011E0006C3500F01DFC14492046FFF758FC1349EC
:1011F0002046FFF754FC12492046FFF727FC11490F
:101200002046FFF738FC10492046FFF71FFC0F4926
:101210002046FFF730FC0E490E4803F0A1FF2046A0
:10122000FFF7B8FE0A2004F09FF8F8E73C0400201E
:1012300058040020980300200803002050030020D9
:10124000200A00200C0A002028040020E4030020CB
:1012500040420F005402002010B5044B044640F8F1
:10126000043B00F07DF8204610BD00BF606D000813
:101270000748084A08B5121A002104F0FEFF04F0DE
:1012800033F904F04DFF04F036F904F071F900BFB2
:10129000380200202820002008B5012004F068F959
:1012A00030B502680D68044CB5FBF4F31A4404FB36
:1012B000135302600B6030BD00CA9A3B026D406D53
:1012C000101A18BF012070470120704710B5426DF9
:1012D000C16C0346501C5865885C9A6D5C6D013A80
:1012E000B4FBF2F102FB11425A6510BD034610B186
:1012F00007C983E807007047704742688168036840
:1013000012F0010F4FEA62021CBF8858C3588818B8
:101310001847C36810B504460BB19B689847204630
:1013200010BD000070B50546074B45F8283B064642
:1013300045B100F14804AC4204D0103C2046FFF710
:10134000E8FFF8E7304670BD0874000810B50446A1
:10135000FFF7E8FF204604F033F9204610BD0000F7
:1013600030B5134B036085B000252A466946044614
:10137000039503F03FFE6846FFF7CBFF0122694665
:101380002046039503F036FE6846FFF7C2FF04F1DE
:101390005C0000F045F904F14C0000F041F9054B08
:1013A00023602046FFF7BEFF204605B030BD00BFDA
:1013B000947000082074000810B50446FFF7D0FFB1
:1013C000204604F0FDF8204610BD30B5044685B037
:1013D000051D284602F082FDF0B1226E636E9A422E
:1013E00010D0636EE26D591C6166D15CA36E606EB5
:1013F000013BB0FBF3F203FB12036366284602F0E5
:1014000079FDE6E70023204601226946039303F0B5
:10141000F1FD6846FFF77DFF05B030BD10B586B021
:101420008DE80C00019B029203930491054B9DF8FB
:101430002020059302A903F0DDFD02A8FFF769FF54
:1014400006B010BD047000087FB504461D464FF479
:101450001653089E03F01AFE20460E4B40F84C3BF4
:10146000294600F0ECF806FB05F104F15C0000F001
:10147000E6F8094B029300230393009304AB204644
:1014800013E90C002146FFF7C9FF2046E5662667F1
:1014900004B070BD947000080315000870B50446D0
:1014A00086B0043002F01AFDC0B102AD0122294617
:1014B00000262046059603F09DFD2846FFF729FFEC
:1014C0002046FFF782FF064B029301230396009309
:1014D00095E80C0021462046FFF7A0FF06B070BD3E
:1014E000CB1300084368026810B55C1C4460D154FB
:1014F000C3684168013BB1FBF3F203FB1213436085
:1015000010BD38B5051D0446284602F0C5FC38B1AB
:10151000284602F0CDFCC1B204F14C00FFF7E2FF17
:1015200038BD38B505460C465C30C9B2FFF7DAFF66
:101530002846FFF7B3FF204638BD2DE9F0410746A6
:101540000C46B1B10D4600F15C082E4616F8011BA1
:1015500021B14046FFF7C6FF3546F6E70A2140466F
:10156000FFF7C0FF2C1B3846FFF798FF601CBDE853
:10157000F0810846BDE8F0812DE9F04107460D46AF
:1015800091B1A2B18C180E4600F15C08B44205D0AE
:1015900016F8011B4046FFF7A5FFF7E73846FFF7AF
:1015A0007DFF601BBDE8F0810846BDE8F081104674
:1015B000BDE8F0810EB42DE9F04185B0C26E02AFF6
:1015C000D31D23F0070307F12404ADEB030D54F8FA
:1015D000048B02AE05460021304604F04EFE224642
:1015E000414630467C6005F035F9EB6E8342024699
:1015F0000CD200905D220848084900F00DFB002045
:101600000C37BD46BDE8F04103B07047314628466F
:10161000FFF7B2FFF4E700BF517000081070000838
:1016200010B50446006808B103F0C6FF204610BD9F
:1016300000214160C2688160006804F01EBE38B5B8
:10164000044608460D4603F0ABFFE56020602046E7
:10165000FFF7EEFF204638BD70B586B002AC0546F8
:1016600020460E46FEF75BFF08238DF81430FF235B
:101670008DF80C308DF80D308DF80E308DF80F3060
:101680008DF810308DF811308DF81230FC238DF864
:101690001330059B0296009394E80E00284603F051
:1016A00072FD06B070BD70B586B002AC054620462E
:1016B0000E46FEF734FF08238DF81430FF238DF813
:1016C0000C308DF80D308DF80E308DF80F308DF810
:1016D00010308DF811308DF81230FD238DF8133055
:1016E000059B0296009394E80E00284603F04BFDFC
:1016F00006B070BD70B586B002AC054620460E46F9
:10170000FEF70DFF08238DF81430FF238DF80C3001
:101710008DF80D308DF80E308DF80F308DF81030BB
:101720008DF811308DF81230FE238DF81330059BA3
:101730000296009394E80E00284603F024FD06B0BC
:1017400070BD00002DE9F74F334F044638461E4662
:10175000154605F027FA314A0192114605F040FA84
:10176000294683462E4805F01DFA2E4905F038FA21
:10177000002531462C4E8246284605F013FA3146A4
:1017800005F02EFA0C998146284605F00BFA2749F8
:1017900005F026FA0D998046254805F003FA2549FB
:1017A00005F01EFA019A009039461023584600F0C1
:1017B00085F80C2307461B4A1949504600F07EF86D
:1017C0003246824629460C23484600F077F82946DF
:1017D00006460C23154A404600F070F80C230546D7
:1017E000144A1349009800F069F83B1223714FEA3C
:1017F0002A13A371331243EA0A13E3712B116372A4
:10180000031243EA0513E072012067712672A37286
:1018100003B0BDE8F08F00BF0000BFC20000BF42B0
:101820000000F0C10000F0410000FA430000A040B9
:10183000000090C1000090417FB504AC04E90F00A6
:10184000089A9DF808309DF8041011709DF8056005
:101850009DF807209DF8060012491D111C029DF8F5
:10186000093004F4706445EA02151C430E4A102343
:1018700040EA062000F03DF8099B0C4A18600C492C
:101880000C23284600F035F80A9B0A4A18600A49DA
:101890000C23204600F02DF80B9B1860012004B0AB
:1018A00070BD00BF0000BFC20000BF420000F04199
:1018B0000000F0C100009041000090C107EE101A36
:1018C000012101FA03F3013B07EE903A06EE900A7C
:1018D000F8EEE77A76EEC76A67EEA67A06EE902A09
:1018E00036EEC77AC7EE876AFDEEE67A17EE900A03
:1018F000704706EE901A07EE902A37EEE67A07EE6A
:10190000900A0122F8EEE77A02FA03F3013B27EE90
:10191000277A07EE903AF8EEE77A87EE276A76EEB6
:10192000267A17EE900A7047002242608260C260F9
:10193000026142618261C261026242628262C2628B
:10194000026342638263C2630264426482647047DA
:101950002DE9F84305460F4600294DD043688268BB
:10196000D21AB1EBA20F4FF000090AD819463A4635
:10197000013A41F8049BFBD103EB87036B60BDE8A0
:10198000F88302689B1A9B106FF04042D11A8F4275
:1019900002D91A4803F02DFF9F422CBFDC19DC1836
:1019A000A34202D8B4F1804F22D31446A00003F022
:1019B000EBFD804695E84200761AB30803D0324624
:1019C000404604F040FC464432463B46013B42F868
:1019D000049BFBD1286806EB870608B103F0F0FDF5
:1019E00008EB8404C5F800806E60AC60BDE8F88345
:1019F000002CDBD1A046DDE7BDE8F883C07000080D
:101A000090E80C009B1A9B10994210B503D9C91A93
:101A1000FFF79EFF10BD3CBF02EB8102426010BD8C
:101A200010B5044600F8041BFFF7EAFF204610F843
:101A3000101BFFF7E5FF204610F81C1BFFF7E0FF27
:101A4000204610F8281BFFF7DBFF204610F8341B58
:101A5000FFF7D6FF204610F8401BFFF7D1FF10BD5F
:101A600038B504460D4603685AB1826813602046B3
:101A7000012101F0EFFC29462046BDE8384001F085
:101A8000E5BCC268F2E770B50E460446154601F0A3
:101A9000BBFC013606D02A4620460021BDE8704036
:101AA000FFF7DEBF70BD0022FFF7EDBF00487047B3
:101AB000DC700008014800F003B800BFDC700008CB
:101AC000036870B5DB680446984763685A68236802
:101AD0001AB99B68BDE8704018475B68156898475D
:101AE0006368281A00285A6807DC916859601B68E7
:101AF000002BEAD050689847E7E7236810681B6915
:101B0000BDE87040184703685B68184710B5044685
:101B100001300DD110BD9C4209D12046896801F0E9
:101B200065FF20460021BDE8104001F0E1BF0C3107
:101B3000B1F900305A1CEED10248BDE8104000F067
:101B40006BB800BF29710008884208B508D0431C53
:101B500006D0013106D0044800F05EF84FF0FF31A6
:101B6000084608BD0146FBE7F8700008B1F90030EF
:101B70005A1C01D118467047834201D1486870470A
:101B80000C31F3E7421C10B5044607D0FFF7EEFF17
:101B9000431C044602D1024800F03EF8204610BD26
:101BA0000971000808B500F00DF8962003F0DCFB81
:101BB000962003F0D9FBF8E7EFF31080C04300F064
:101BC0000100704708B5FFF7F7FF72B6064B1A68B9
:101BD00022B980F00100054AC0B210701A681A6874
:101BE00001321A6008BD00BF440A0020400A0020EC
:101BF00008B5074B1A6852B1FFF7DEFF1A68013AC1
:101C00001A601B681BB9034B1B7803B962B608BD89
:101C1000440A0020400A00200FB4012008B503F058
:101C2000A7FC01F040BC000008B5024C23689847AF
:101C3000FCE700BF8C01002030B502788C78436847
:101C4000013AD2B213B19D78A54207D2022A4B6065
:101C5000416006D803B19960886030BD18465B6862
:101C6000F0E700238B6030BD02784368013A596881
:101C70004160022A4FF0000205D809B188605A601D
:101C80009A60184670475A60FBE70000034B5A6899
:101C90004260002282605860704700BF74170020C5
:101CA000104BDA6810B58AB19A8ADC688A420CD384
:101CB000C460D860C468036104B12061521A92B252
:101CC0008282998A8A1A9A8210BD3CB900248A1AA3
:101CD000C460D86003619A82848210BDA38A1A44CA
:101CE0002346E2E78C1700202DE9F041174DEB6801
:101CF00053B1AB8A164FDFF85C80013BAB82002604
:101D0000AA8A0AB9EC680CB9BDE8F081A36833B1BE
:101D100061685960616809B18B606260A6602146A4
:101D20003846FFF789FFA38AAB826378042B01BF93
:101D3000D8F80030E28A9B18A38201236370E3681D
:101D4000EB600BB11D61E6602661D9E78C170020BE
:101D500074170020B81F002083682BB142685A60B6
:101D600042685AB193607047054B5A68904202D15D
:101D700042685A6070471346002AF6D1704700BF88
:101D80007417002010B5846801462CB94378012BE4
:101D90000DD1074C03E0A4682378002BFBD0084644
:101DA000FFF7DAFF2046BDE81040FFF745BF10BD42
:101DB00074170020036910B563B1C268DA60C268A5
:101DC0004AB1998A848A2144998213610023C360AD
:101DD0000023036110BD9A82FAE7000070B4114B32
:101DE000DD78EFF31086EFF3108272B69A789542A1
:101DF00011D901329A701A78541CA54208BF0024E8
:101E00001C7006B962B6954207D903EBC20370BCD9
:101E1000586099607047002EF4D0022070BC00F02A
:101E200029B800BFF81C002008B50B4800F0B2FC30
:101E30000A4B18600A4800F0ADFC0A4B18600A48CB
:101E400000F0A8FC094B186004F06AF9002108466C
:101E5000BDE8084003F04FBB887100084C1F00200C
:101E600084710008500A002080710008480A002090
:101E7000FFF7DABE10B5044600F0ECFB214602463F
:101E8000BDE810400148FFF7C7BE00BF4871000819
:101E900003F098BB0B4A0C4B0C4830B41A60C2F1EB
:101EA000005303F54053B3F5E07F194628BF4FF4C4
:101EB000E071074D074C01605B1A1A442A602360E9
:101EC00030BC704728200020C4160020540A00208F
:101ED000580A0020C016002000F040FDFFF7DAFF8E
:101EE0000348002100F0DEFC00F036FBFEE70000B6
:101EF00090010020024B4FF0FF31186800F068BCE1
:101F0000500A0020014B186800F08ABC500A0020DB
:101F1000836A9B0804BF224B1B88F0B5056B08BF82
:101F20009B0805EB8302540748BF043A4FF08076C4
:101F300002E94200A2F14004A2F14406A2F10C071A
:101F40004FF0000E46F804EFBE42FBD1C66942F8DE
:101F5000206C41631249C4620968C90017D5112B6E
:101F600015D9103B6FF007015B084B43A3F1380113
:101F70000A444FF0CC30214691420BD108331C4427
:101F8000231F9D423CBF4FF0CC3344F8043C054B2B
:101F90002B60F0BD41F8040C41F8080DECE700BFE0
:101FA00090710008A52E5AE290F82520C36A12B15C
:101FB0006033196070472033FBE710B590F8254077
:101FC000C36A1CB1603383E8060010BD2033FAE712
:101FD000054B1B7823B9054B4FF080521A607047B0
:101FE000034B01221A707047AC12002004ED00E090
:101FF000AD12002038B51A4B1A4C186801234370F3
:10200000FFF744FE6578A3783BB917486570FFF782
:102010002BFEBDE8384000F07BBD04EBC5035868DB
:1020200002789AB9198900F0BBF9E37801359D422D
:1020300008BF0025EFF31083EFF3108272B6A27889
:10204000013AA270002BDED162B6DCE7012A03D18F
:10205000996800F033F9E8E701F0B8F8E5E700BF68
:10206000701F0020F81C002074170020084B1A680D
:10207000084B1A6000225A60072243F8042C064AD3
:10208000136843F07F4313604FF0FF30704700BF89
:10209000A871000814E000E020ED00E070470000A7
:1020A00008B50B4B186801234370FFF7EFFD00F0F4
:1020B000ADF9084A136801331360FFF715FE00F00D
:1020C000AFFC0548FFF7D0FDBDE8084000F020BD9B
:1020D000701F0020B81F002074170020064B1A68DC
:1020E000136BD26A934203D81A68044B9A4202D007
:1020F0000120FFF7BFBE7047701F0020A52E5AE2D7
:10210000002ABBBF22F000420732033222F007024E
:10211000A8BF22F0030210B5B4BF10230C2392B164
:10212000D4188C420FD801440344544241600360E8
:10213000826021449818814202D300510346F9E796
:102140000020186010BD012010BDEFF3108372B69F
:10215000026803F001030AB11168016003B962B6B5
:102160001046704781420DD3436899420AD2EFF37B
:10217000108372B602680A60016013F0010003D197
:1021800062B6704701207047002070470123103964
:102190000370890800234370837043600381438187
:1021A0008381C1817047000070B585890446164659
:1021B000002D38D043891A1D013350F822200A60BF
:1021C000C2899BB29A42438104BF00234381436882
:1021D000F3B14378022B1BD1FFF746FD00210546E2
:1021E000FFF7E2FE2389E9691A1D013344F8221042
:1021F000E2899BB29A42238108BF0023284608BF88
:102200002381FFF7D7FD284600F09CFC002070BD1D
:10221000EFF31080EFF3108372B6013DA581002823
:10222000F4D162B670BD4AB14268094B42B1196837
:10223000FFF702FD0821304600F0A8FC012070BD28
:102240001B6843605A60986001234370F2E700BF47
:10225000701F0020C2898089101A704708B5FFF7E7
:10226000BDFDBDE80840FFF7B3BE838910B5044645
:102270000BB34389043350F823300B604378022BAF
:1022800004D10021FFF7AAFDFFF7A2FEEFF31083B0
:10229000EFF3108272B6A289013AA28103B962B645
:1022A0006389E28901339BB29A42638101D10023A1
:1022B0006381042010BD184610BD0000436870B54E
:1022C00004460E46002B4BD04578022D20D0032D1E
:1022D0000AD0012D61D1FFF7C7FC04463246102118
:1022E000FFF76BFE65700EE00846FFF72EFF054610
:1022F000002852D02046FFF7B7FC29460446FFF7D6
:1023000053FE012363702046FFF754FD214622E06F
:10231000FFF7AAFC00210546FFF746FE2389E9697D
:102320001A1D44F82210EFF31082EFF3108172B6F9
:10233000A1890131A18102B962B6E28901339BB260
:102340009A42238104BF0023238101236B70284616
:10235000FFF730FD29461148BDE87040FFF76CBC1F
:102360008089E189884213D223891A1D44F82260AA
:10237000EFF31082EFF3108572B60130A08102B93D
:1023800062B601339BB2994208BF0023238170BD1E
:102390000320BDE87040FFF76DBD70BD74170020CD
:1023A00010B5038B42781943062A04460183438BF8
:1023B00015D133EA010219D121EA03012183204614
:1023C000FFF7F8FC012320466370628B0821FFF7BA
:1023D000F4FD21460648BDE81040FFF72DBC052A54
:1023E00004D111EA030201D04283E5E710BD00BF2A
:1023F00074170020034B00221A60034A1268DA8027
:10240000704700BF581F00208C71000808B50E4BA4
:102410005A680E4B196891420D4905D01A60DA8846
:102420000868013A02449A8098880A8890420AD142
:10243000002205481A60FFF717FCBDE80840014676
:102440000148FFF7F9BB08BD74170020581F002092
:10245000B81F00200B4A136830B5002443B903604D
:10246000816013B19D68691A996044B1206030BDE4
:102470009D68A942F3D31C46491B1B68EEE7106018
:1024800030BD00BF681F0020C0B1431C11D00C4BF1
:10249000984211D80B4B1B684FF47A715A1E01FBFE
:1024A0000020B0FBF3F34FF6FE70834206D898B2DB
:1024B00070474FF6FF7070474FF6FE70704700BFD1
:1024C00000093D004471000838B1830704D1037846
:1024D000002B18BF0020704700207047B0B50E4D8C
:1024E000287800AFA8B90D4C236893F8241000F0A9
:1024F0006FFB2368DA78FF2A03D1DA6A203282F38D
:10250000098862680AB984E80C0000F019FD01230B
:102510002B700020B0BD00BF6C1F0020701F00207A
:10252000014B1878704700BF6C1F002010B5EFF307
:10253000108434B9EFF305841CB9EFF31484E40775
:1025400002D4034B187810BDDFF808C000DF10BDBF
:102550006C1F00202125000890B589B000AFEFF373
:102560001083002B37D1EFF30583002B33D1FFF716
:10257000DDFF28B9194C246814B1646804B1A04780
:10258000EFF3148404F00304022C18D0032C1CD0A5
:10259000012C1ED007F1200484F30988104C247804
:1025A000E40710D5022484F31488BFF34F8FBFF3E0
:1025B0006F8FDFF830C000DF2437BD4690BD084C78
:1025C0002478E407F5D40324EDE7054C2478E407E8
:1025D000EFD5FF20F0E78220EEE700BF541F002078
:1025E00072710008DD24000870B50B4616460246DD
:1025F00010B90024204670BD00680028F9D0B2F957
:102600000440E51CADB2062DF3D8D168C1B1126902
:10261000043444EA012100F019FB0028E9D00A4BF8
:102620000A4A013853F82040E36A5A63084B1B6892
:1026300043B19B6833B13146E0789847E063D9E70E
:102640000A46E5E7E663D5E7CC1A0020F127000843
:10265000541F002008B500F0B3FA18B10138024B3E
:1026600053F8200008BD00BFCC1A002010B5FFF7BA
:102670002BFF044670B1084B1B681BB1DB680BB124
:10268000C06B9847E07800F037FBFF280CBF812033
:10269000002010BD802010BD541F002008B528B1B7
:1026A000FFF7F2FE00F08EFD402008BD08BD0000DF
:1026B00010B5EFF3108434B9EFF305841CB9DFF8DB
:1026C0000CC000DF10BD822010BD00009D26000858
:1026D000830705D138B1436901691B681846704703
:1026E00000231946FAE70346FBE7000010B504464D
:1026F0000846DFF80CC000DF84E80300204610BD68
:10270000D126000810B548B1046824B1237823B954
:10271000204600F05BFC204610BD002010BD70B5C7
:1027200010F0030405460E4611D180B10378032B47
:102730000DD10846FFF7A8FE0146284600F014FD1B
:10274000012806D1002E14BFC120812070BD802039
:1027500070BD204670BD820708B50AD148B1037824
:10276000032B06D100F090FCFF280CBF8120002035
:1027700008BD802008BD10B510F0030407D130B1AA
:102780000378032B03D100F029FC204610BD8020E4
:1027900010BD000070B50546EFF3108494B9EFF357
:1027A00005867EB9EFF31484E40706D4064C24783A
:1027B0001CB9BDE87040FFF7A5BF2846DFF80CC084
:1027C00000DF70BD002070BD6C1F002005270008D1
:1027D00010B5EFF3108434B9EFF305841CB9DFF8BA
:1027E0000CC000DF10BD822010BD00001F270008B4
:1027F000084808B54FF0FF310068FFF7E9FFDFF840
:1028000018C000DF0446FFF743FB2046DFF80CC08A
:1028100000DFFEE7641F0020552600086D26000833
:1028200010B5EFF3108434B9EFF305841CB9DFF869
:102830000CC000DF10BD822010BD0000572700082B
:102840002DE9F04180460F461646EFF3108404BB95
:10285000EFF30583D3B9EFF31483DB0706D40E4BF4
:102860001B781BB9BDE8F041FFF7BEBE0B4D4FF022
:10287000FF312868FFF7ACFF404639463246DFF8A3
:1028800020C000DF04462868FFF7CAFF2046BDE8E5
:10289000F0810024FAE700BF6C1F0020641F0020B5
:1028A000E92500080022FFF7CBBF000010B5EFF3C9
:1028B000108434B9EFF305841CB9DFF80CC000DFD5
:1028C00010BD822010BD00007727000810B5044617
:1028D00060B1016851B1406848B1037833B904313F
:1028E000890089B2FFF752FC606810BD002010BD5E
:1028F00038B5114C23780BB900F0A8FA0F4B2578A6
:102900001B68FF229A708DB929460D48FFF7DEFF3C
:102910000C4B2A46186029460B48FFF765FE0B4B07
:1029200018600B48FFF736FF0A4B1860012323702D
:10293000094B0020187038BD601F0020701F002058
:1029400078710008C81A0020947100087C1D0020CE
:10295000AC710008641F00206C1F002010B5EFF35D
:10296000108474B9EFF305845CB9EFF31484E407C1
:1029700003D4BDE81040FFF7BBBFDFF80CC000DF99
:1029800010BD822010BD0000F12800082DE9FF4194
:102990000C46804618B30378012B25D10846FFF773
:1029A00073FD02A902464046FFF7FEFB012811D144
:1029B0000020002C0246034618BF4020029904461E
:1029C0000D4616461F462046294632463B4604B071
:1029D000BDE8F0810020024603461020EEE7802487
:1029E000054606460746EEE7002580242E462F467C
:1029F000E9E770B50E461446054660B15AB903784A
:102A0000012B08D1FFF726FC38B128463146FFF7E5
:102A100025FC204670BD802070BD812070BD000067
:102A2000F8B5114E34682CB1A368104F013BA36078
:102A3000A26802B1F8BD2568386835602146FFF705
:102A4000D8FF10B10420FFF715FA6379012B07D1E5
:102A5000E1682046FFF7FEFC002DEBD02C46E7E7AF
:102A600001232371F8E700BF681F0020C81A002067
:102A70007FB504461646084601B122B18023236083
:102A8000204604B070BD0B78012BF7D102A9FFF7E7
:102A9000ECFB042808BF102301AD14BF019601937D
:102AA00095E8070084E80700EAE7000038B5044627
:102AB0001546EFF3108010B9EFF3058028B12A46D0
:102AC0002046FFF7D5FF204638BD08461146DFF8FF
:102AD0000CC000DF84E80700F5E700008D2900083E
:102AE0007FB50A4C21684FF0FF3203A8FFF7DEFFE5
:102AF000039B102BF6D1049901A8FFF7F7FD019B6A
:102B0000002BEFD002989847ECE700BFC81A0020CE
:102B1000054B586002234370044B1B681BB11B69B3
:102B20000BB1C06B18477047701F0020541F002066
:102B300008B50348FFF798F8BDE80840FFF7E8BF7D
:102B40007417002070B5044618B9BDE87040FFF74F
:102B5000EFBF0C4EA278306883789A424FF001059F
:102B600008D9FFF793F833685D702046BDE87040E0
:102B7000FFF7CEBF657021460348BDE87040FFF700
:102B80005BB800BF701F00207417002038B50D46D9
:102B9000014680B14FF6FF739842074C02D020687F
:102BA000FFF77EF8236805485D70FFF75DF8BDE824
:102BB0003840FFF7ADBF38BD701F002074170020EC
:102BC000024B186800B1C078704700BF701F00202A
:102BD00010B5A8B9194B1B68997083F824101848D0
:102BE00043689B788B4201D8002010BD134C2168AC
:102BF000FFF722F8236801225A70FFF799FFF3E7E5
:102C0000104B1B88984217D801380F4B53F82040BF
:102C100094B10A4BA1701B6884F824109C42DED04A
:102C20002046FFF7AFF86378012BDDD10448FFF7AA
:102C30001BF8FFF787FFD7E7FF2010BD701F0020AC
:102C40007417002074710008CC1A00202DE9F04799
:102C500011F0FF0F0D468046234816469A4608BFDE
:102C60000135FFF772FA044620B94FF000094846D3
:102C7000BDE8F0871D4B06631B881D4E280AA06225
:102C800000218B4201F10109EFD006EB89020F46CA
:102C900052F8042C4946002AF3D1EDB2012384F8FE
:102CA0000390C4F81CA0C4F838A022706370A5700B
:102CB00084F824506260A260E26022612262A282F3
:102CC000E2822283628384F8252018B90948FFF73D
:102CD0003CFA206320464146FFF71AF9204646F8A1
:102CE0002740FFF72FFFC2E7801D00207471000806
:102CF000CC1A0020E81A00202DE9F84F4D4D18B1EC
:102D00002B68DB78984241D12C68DFF83C810023A6
:102D1000637002F08AFCE062FFF7E0F92B681C6A3E
:102D20000127A4B92A684449D3784448013B41F8B3
:102D30002340116BFFF716FA296841480C63FFF72F
:102D400011FA2C60FFF7F4FE2046BDE8F88F6368A7
:102D5000B3B12046FEF788FF00210646FFF724F9AD
:102D60003046FFF727F8777031464046FEF764FF9C
:102D7000E368326A6780A660E26034621C46D0E78E
:102D8000E2686380A360E3601446CAE72D4B1B88AA
:102D900098424DD8284B471E994653F82760002E7D
:102DA00046D03046FEF7D8FF3046FFF703F8DFF88D
:102DB00098B0346A4FF0010AB4B9316B1F4849F832
:102DC0002740FFF7CFF9314634631D48FFF7CAF9B2
:102DD0001D48296843689A788B789A42B4D90123B0
:102DE0004B70FEF729FFADE76368DBB12046FEF7C5
:102DF0003BFF00218046FFF7D7F84046FEF7DAFF99
:102E000088F801A041465846FEF716FFE368D8F857
:102E10002020A4F802A0C4F80880E260C8F820408E
:102E20001C46C9E7E2686380A360E3601446C3E719
:102E3000FF2489E7701F0020CC1A0020E81A002028
:102E4000801D0020747100087417002038B52C4BC9
:102E50002C491A880023184693424DD32A4B2B48FD
:102E600019882B4C4022FFF74BF92A4B2A481A8825
:102E70002A4B42F000421968FFF742F9284B1988A3
:102E8000284B08221868FFF73BF9FF230025E37061
:102E90002148A562012363702570A57084F8245031
:102EA0006560A560E56025612562A582E5822583D0
:102EB000658384F82550FFF748F91B4920632046B5
:102EC000FFF726F8194B04221A705D60184B1A7030
:102ED000DD601D619D82174B20461C6002236370DC
:102EE000FFF716FE144A154B12781D705D70DA70EC
:102EF000BDE83840FFF77EBA41F823000133ABE765
:102F000074710008CC1A002040710008801D002058
:102F1000781F002090710008E81A00203C7100081A
:102F2000427100084C0A0020711E0008741700202E
:102F30008C170020701F002071710008F81C002001
:102F400008B51E4B1A6842F47F021A601B681B0208
:102F500003F07F43DB43B3FA83F3194A194812683D
:102F60000168DBB2C3F10803C2F30222934298BFA7
:102F7000531C6FF0807202FA03F303F07F4321F0D9
:102F80007F4213430360FFF771F80F4B002818606E
:102F900012DB00F1604000F56440FF2202701A6805
:102FA00053099B0003F1604303F5614302F01F02E4
:102FB000012101FA02F21A6008BD00BF20ED00E015
:102FC0000CED00E01CED00E0501F00200323037017
:102FD0000023438043608360C3607047F8B5438833
:102FE00004469BB18068036A9C4228D1E36803626F
:102FF00090F82430026A52BB82789A4206D08370DD
:103000001F4B1B68984201D0FEF7BCFE1D4F0126E6
:10301000656825BB1B4843686BB1194E9A783168C7
:103020008B789A4207D9FEF707FE336801225A705F
:103030002846FFF787FD00202070F8BD1346002BBF
:10304000D6D0DA689442F9D1E268DA60D0E7516804
:1030500019B189788B4238BF0B46D268CBE720463E
:10306000FEF702FE00210546FEF79EFF2846FEF70A
:10307000A1FE6E7029463846FEF7DEFDC8E700BFA8
:10308000701F0020741700202DE9F843438805467F
:10309000002B63D0324F81683A6891425ED1013B88
:1030A0009BB243801BB100242046BDE8F8830B6A25
:1030B000984229D1C3680B6291F824300C6A5CBB3A
:1030C0008B706A68DFF89C80002A3BD02846FEF7A8
:1030D000CBFD21460646FEF767FF3046FEF76AFE47
:1030E000336AEB604FF001093968D8F80430A5F86D
:1030F0000290AE6035628A789B789A4214D330464B
:10310000FFF720FDD0E71346002BD5D0DA689542B3
:10311000F9D1EA68DA60CFE762681AB1927893422F
:1031200038BF1346E468CAE74046FEF785FD3146DE
:103130004046FEF781FD3B6883F8019086F80190D8
:103140002046DDE7D8F8042092789A42ABD9404671
:10315000FEF772FD3B6801225A70F1E7FF24A3E7F6
:10316000701F002074170020438870B504460E4677
:10317000134D43B92A688260116AC160106201333D
:103180006380002070BD80682A689042F7D081B1CA
:10319000937882789A4202D28370FEF7F3FD6268D8
:1031A0004AB129682046FEF747FD09213046FFF75E
:1031B000EDFC012070BD2B6863605A609C60F4E7F1
:1031C000701F00200321FFF7E1BC0000426810B52A
:1031D0007AB1FEF749FD0446FEF7ECFD012161706E
:1031E0002046FEF7E1FE21460448BDE81040FEF708
:1031F00023BD42880132428010BD00BF74170020F9
:1032000070B5134C23681A69950707D5DA689007DB
:1032100004D56FF002021A61FEF74CFC23681A69AC
:10322000510713D5DA68520710D56FF00402094E22
:103230001A615D6A3368EB1AB3F57A7F06D300F042
:10324000FBFF236805F57A729A63356070BD00BF95
:10325000BC1F0020C012002030B589B001A903A80E
:1032600001F016FE01F0E4FD244B0190DA69244CD4
:1032700042F00102DA61DA6902F001020292029A76
:103280001A6942F001021A611A6922F001021A61F8
:10329000069A4FF0804323604FF0FF33E360194BF1
:1032A0004ABBB0FBF3F0013800256060144825618B
:1032B000A560656100F062FF13491C2000F0E2FE8A
:1032C000124B0F484FF080521A60294600F09EFFC3
:1032D00004210B4800F09AFF23680D4A596A1160D7
:1032E000126802F57A729A63DA68284642F004029C
:1032F000DA6009B030BD4000D3E700BF00100240E3
:10330000BC1F002040420F000132000800E100E035
:10331000C01200204FF08043034A1360DA6822F0A5
:103320000402DA60704700BFBC1F00204FF08043EA
:10333000034A1360DA6842F00402DA60704700BFA3
:10334000BC1F00207FB5052843D8DFE800F003123A
:103350001E2A4236214B5A6942F400325A615B6997
:1033600003F400330193019B4FF0904007B05DF8E8
:1033700004FB1A4B1A485A6942F480225A615B696D
:1033800003F480230293029BF0E7144B15485A691B
:1033900042F400225A615B6903F400230393039B08
:1033A000E4E70E4B10485A6942F480125A615B6997
:1033B00003F480130493049BD8E7084B0B485A6925
:1033C00042F480025A615B6903F480030593059B14
:1033D000CCE70748FEF720FC0020C7E700100240BA
:1033E0000004004800080048000C00480014004891
:1033F000B071000810B50021044604F00F0400F07D
:10340000F5FA0120A04010BD70B504464B1C0E46D5
:10341000218218D0C1F30310FFF794FF0546304610
:10342000FFF7E8FF238A084A656103F00F03206075
:1034300052F82330A36105F11003636005F118030E
:103440002835A360E56070BDA0720008B0F91000D7
:1034500000F04EBB10B58369446971B9216893FAD5
:10346000A3F2B2FA82F20320520000FA02F221EA39
:10347000020293FAA3F3226010BD226893FAA3F12B
:10348000B1FA81F193FAA3F30320490000FA01F1A4
:10349000B3FA83F322EA01025B00012101FA03F38C
:1034A0001343236010BD08B5FFF734FF012100204E
:1034B00000F008FEBDE80840FFF738BF384B5A69F6
:1034C0002DE9F041374CD20723602AD59868364F52
:1034D0009968364E9A68364D3840B84201EA06017E
:1034E00004BF01279F60B14208BF2D4B02EA0502CD
:1034F00004BF4FF480769E60AA4202BF284B4FF46F
:1035000080359D60284B984205D0284B994202D0C7
:10351000274B9A4205D1274B274A1B681068012187
:1035200098472368DA685B69970707D09E0705D537
:10353000204B214A1B68106800219847236899692D
:103540005A695B698D0709D5900507D5190405D51A
:10355000184B194A1B68106805219847226896691C
:103560005569526916F0040605F4806508D03DB12E
:10357000120405D50F4B104A1B68106807219847A5
:1035800023685B6956B14DB11B0407D5094B0A4A44
:103590001B6810680221BDE8F0411847BDE8F081C2
:1035A00000640040C412002003000004000300086F
:1035B000000003100813002004130020FFF77EBF53
:1035C000FFF77CBF034B19604168034B43F8212090
:1035D000704700BF081300200413002002685369DD
:1035E00023F4064323F013035361024B002143F8F5
:1035F00022107047041300200268094B9A420DD133
:1036000003F5D6331A6942F000721A611A6922F082
:1036100000721A61DA6922F00072DA61704700BF45
:1036200000640040F8B50D46044601F001FC182383
:10363000B0FBF5F01921B0FBF3F386089BB2B3425F
:1036400015D34FF0FF33002B22681CDD116841F0C9
:10365000010111605168C907FCD5D361136823F0DB
:10366000010313605368DB07FCD40120F8BD01336C
:103670009BB2DF4303FB01121625904205D0013DAA
:103680003A44FAD1DBE70020F8BD084901EBC50256
:1036900051F8351052680904120502F4E00201F4F1
:1036A00070210A43C3F309031343CCE7E871000810
:1036B00084B030B504AC84E80E0004689DF81E2088
:1036C000A36858013AD4A3681B0139D4A06810F04C
:1036D00080502FD0022000012318D3F8805105F02C
:1036E0000105C3F880519DF81D505DBBD3F8805192
:1036F00042EA41512943C3F88011D3F8841121F0E3
:103700000F01C3F884119DF81C10D3F8842101F037
:103710000F0111432218C3F884110599C2F88811CA
:103720000699C2F88C11D3F8802142F00102C3F847
:1037300080210120BDE8304004B070470020CAE776
:103740000120C8E742EAC101D3F8805141F00401E9
:10375000D0E730B50468E06810F003003AD01301F8
:10376000E018D0F8B051C5F380054D739DBBD0F87B
:10377000B0516D0D0D60D0F8B051D0F8B4012344B4
:1037800000F00F000873D3F8B8010871D3F8B8013E
:10379000000A4871D3F8B801000C8871D3F8B80159
:1037A000000EC871D3F8BC010872D3F8BC01000A3E
:1037B0004872D3F8BC01000C8872D3F8BC31C5F351
:1037C00040051B0E8D73CB724AB9E36843F02003AA
:1037D000E360012030BDD0F8B051ED08CAE723699D
:1037E00043F020032361F4E730B58BB0012B0E9C2E
:1037F0002BD8056816480594056000200690012026
:1038000007909BB949018DE80A0052010292039387
:103810000023049301230893694604F10E030C4826
:10382000099300F017FD20460BB030BD4B0B009301
:10383000C900530BD200C9B2D2B241F0040142F028
:103840000402019102930392E2E70020ECE700BF3B
:10385000C4120020F0B50E4685B004462F4930460C
:103860001546FEF78FF92E4907462846FEF78AF9D6
:1038700001463846FEF768F92A4B206098424BD142
:1038800003F5D6332549DA6942F00072DA61DB6963
:1038900003F000730393039B002363603046FEF73D
:1038A00035F91F492846FEF731F9721C03D0012172
:1038B000304600F01DF96B1C03D00121284600F0B2
:1038C00017F919482368036000238361C361036209
:1038D00043628362C3628360C3604FF4A0230361C9
:1038E0004FF4E00343610223436000F014FD10B184
:1038F0000E48FEF791F90E492046FFF793FE094A5C
:103900002368934214BF0E230023009300231A461A
:1039100019462046FFF768FF05B0F0BDF8720008B1
:103920001073000800640040C4120020D171000828
:10393000A0860100054B186838B901221A60044BB3
:103940004FF080421A60FFF787BC70470C130020CD
:10395000BC1F002008B5044B1B680BB9FFF7EAFF3A
:103960004FF08043586A08BD0C1300204FF080438D
:10397000034A13605863DA6842F00202DA60704763
:10398000BC1F00204FF08043034A1360DA6822F026
:103990000202DA60704700BFBC1F0020034A4FF0EC
:1039A000804313606FF002021A617047BC1F002051
:1039B00030B5C36891FAA1F4B4FA84F491FAA1F194
:1039C0000325B1FA81F1640005FA04F4490023EA01
:1039D000040302FA01F11943C16030BD012A02D08B
:1039E000022A18BF0022FFF7E3BF00002DE9F041D3
:1039F0003E4B00F00F08C0F303100E4601F0070520
:103A000053F82840FFF79EFC826894FAA4F3B3FAB7
:103A100083F394FAA4F103275B00B1FA81F107FA6A
:103A200003F322EA03034A0007FA02F21343022DCA
:103A3000836028D0BD4241D0012D3FD000230268D1
:103A400094FAA4F7B7FA87F794FAA4F14FF0030EAB
:103A5000B1FA81F17F000EFA07F7490022EA070266
:103A60008B40013D1343012D036005D843683207A5
:103A70004CBF2343A3434360C6F301122146BDE874
:103A8000F041FFF7ABBFB8F1070FC6F3032717D913
:103A9000426A230A93FAA3F1B1FA81F193FAA3F3EC
:103AA0004FF00F0EB3FA83F389000EFA01F19B0079
:103AB00022EA010207FA03F3134343622B46BEE7EF
:103AC000026A94FAA4F3B3FA83F394FAA4F14FF0E0
:103AD0000F0EB1FA81F19B000EFA03F3890022EA7E
:103AE000030207FA01F313430362E7E7A072000839
:103AF00000F00F021C4B70B5C0F303100D4653F8D5
:103B00002240FFF71FFC066894FAA4F1B1FA81F392
:103B100094FAA4F259000323B2FA82F28B403340A4
:103B20005200D340013B012B05D8EB1E022B43680A
:103B300009D823434360032D08D101222146BDE863
:103B40007040FFF74BBF23EA04034360012DF4D01C
:103B5000052D01D0022D01D10222EFE721460022DE
:103B6000BDE87040FFF724BFA07200084368184901
:103B700070225A4310B58B1804688C5082685A60C2
:103B8000C2689A600269DA6042691A61C2699A6120
:103B90000022A3F85220A3F85020A3F85A20A3F83B
:103BA0005820B0F91A2001320AD108225A61184669
:103BB00000F0A5FD58B10748BDE81040FEF72CB84D
:103BC000B0F9182001320CBF04220C22EEE710BD20
:103BD0002C130020E0720008F7B51C4F054657F87B
:103BE000200000282FD07026194C6E43A359DA69A3
:103BF000520609D51B68590606D5164B01211B68CC
:103C00009847A35940221A6270266E43A359DA6975
:103C100092060DD51B6898060AD50E4B57F825005D
:103C20001B6800219847A3599B8C9BB20193019B71
:103C300070235D436359DA69110704D59A68D20786
:103C400044BF08221A6203B0F0BD00BF1413002065
:103C50002C130020101300200020FFF7BDBF01200F
:103C6000FFF7BABF0220FFF7B7BF0000F0B50E465E
:103C700085B00446494930461546FDF783FF48495B
:103C800007462846FDF77EFF01463846FDF75CFFF4
:103C9000444B2060984251D103F55843DA6842F40E
:103CA0008042DA60DA6822F48042DA609A6942F48B
:103CB00080429A619A6902F480420192019A1A6BD9
:103CC00022F0030242F001021A63002363603349C9
:103CD0003046FDF71BFF32492846FDF717FF721CDF
:103CE00003D001213046FFF703FF6B1C03D00121F5
:103CF0002846FFF7FDFE4FF41653A3600023E36050
:103D000023616361E361268365832046FFF72EFF0D
:103D10002268254B9A420FD1244B01221A60244B72
:103D200004F12005206861681A4603C20834AC42D9
:103D30001346F7D12068106005B0F0BD1A4B9842C9
:103D400014D103F5E6331A6942F400321A611A6994
:103D500022F400321A61DA6942F40032DA61DB6976
:103D600003F400330293029B0123AFE7114B984207
:103D7000ADD103F5E4331A6942F480221A611A695D
:103D800022F480221A61DA6942F48022DA61DB6966
:103D900003F480230393039B022397E770730008C7
:103DA0002873000800380140004400402813002018
:103DB000FC1F0020004800408160FFF7D7BE0000D4
:103DC000034B19604168034B43F82120704700BF43
:103DD000101300201413002070B590E828000E4640
:103DE00025498B4218D125492524702324486B434B
:103DF0001AB3C2581368EEB943F02003136020468B
:103E000000F040F96209012304F0070403FA04F406
:103E10001C4B43F8224070BD1B498B4202D11B4909
:103E20002624E2E71A498B4213BF002119492724AF
:103E30000C46DAE743F04003E0E7C3581A6836B9A6
:103E400022F020021A601B681A0606D570BD22F007
:103E500040021A601B689B060DD46309012204F01E
:103E6000070402FA04F42033064A42F82340BFF361
:103E70004F8FBFF36F8F70BD00380140593C000871
:103E80002C13002000E100E0004400405F3C0008EB
:103E900000480040653C0008426870235343034AD1
:103EA000D358D869C0F34010704700BF2C130020CE
:103EB00010B5446801460846FFF7EEFF0028FAD027
:103EC0007023054AC9686343D358988C09B9C0B2B6
:103ED00010BDC0F3080010BD2C13002042687023F1
:103EE0005343034AD358D869C0F3C010704700BF8A
:103EF0002C13002038B5456804462046FFF7EEFF36
:103F00000028FAD07023054AE0686B43D35810B9F3
:103F1000C9B2198538BDC1F30801FAE72C13002096
:103F200008B500F005F8BDE8084000F073B90000DE
:103F3000144A1549536803F00C03042B10B501D043
:103F4000082B0AD0114B0B605368114AC3F30313BB
:103F5000D25C0B68D3400B6010BD53685068C0033F
:103F600049BFD06A0B48094C00F00F00C3F38343EC
:103F700048BF013003F1020348BFB4FBF0F04343F4
:103F8000E1E700BF00100240A401002000127A0007
:103F9000B873000800093D0030B591B003230693C3
:103FA00001230A93102300240B9302254FF460137E
:103FB00006A807940D950E940F9300F0D3FB80B9DB
:103FC0000F23019303904FF480630590294601A8C5
:103FD0000295049300F06AFEB0FA80F0400911B037
:103FE00030BD2046FBE708B5FFF7D6FF00B9FEE776
:103FF00008BD00001D4AD2F8883010B543F47003A4
:104000001B4CC2F88830236843F0010323606168C9
:10401000184B0B406360236823F0847323F48033D0
:104020002360236823F480232360636823F4FE0362
:104030006360E36A23F00F03E362216B0E4B0B40D6
:1040400023630023A3604FF0006393600B4B0C4A83
:104050001A6000F0DFF8FFF7C6FF236943F00103A1
:104060002361236923F00103236110BD00ED00E00B
:10407000001002400CC07FF8CCFC00FFA40100201F
:1040800000127A0030B50C4CA268A468B4F1006F3D
:1040900013460CD1131F094C094A53F8045F42F828
:1040A000045FA242F9D1044A4FF0005393601030EC
:1040B00043F8201030BD00BF00ED00E08401002077
:1040C000FCFFFF1F064A1369012923F00403136153
:1040D00001D130BF704740BF20BF20BF704700BF35
:1040E00000ED00E070470000214A0368904210B5DF
:1040F00005D0B0F1804F02D01E4CA0420CD14C68CC
:1041000023F07003904243EA040310D0B0F1804FD3
:104110000DD0184A90420AD0174A904207D002F5B3
:104120008062904203D002F58062904203D1CA6857
:1041300023F4407313434A6923F08003134303605D
:104140008B68C3620B688362094B98420BD003F5FE
:10415000A053984207D003F58063984203D003F53B
:104160008063984201D10B6903630123436110BD51
:10417000002C0140000400400040014010B50446FE
:10418000A0B190F83D3003F0FF021BB980F83C204D
:10419000FFF7A8FF022384F83D302068211DFFF7B8
:1041A000A3FF012384F83D30002010BD012010BD85
:1041B000036A10B501248C4023EA04030362036AF6
:1041C0008A401A43026210BD10B5044601220068FD
:1041D000FFF7EEFF23680C4A93420BD002F5A05282
:1041E000934207D002F58062934203D002F58062C9
:1041F000934203D15A6C42F400425A641A6842F066
:1042000001021A60002010BD002C0140FFF7DCBF46
:1042100070470000074A08B5136843F010031360A5
:10422000032000F053FE0F20FFF716F8FFF7F0FF12
:10423000002008BD00200240024A136801331360C9
:10424000704700BF20200020014B1868704700BF56
:10425000202000200368D3F8000270B540F0010070
:104260004C69C3F800020122D3F81C52A240D0438B
:104270000540C3F81C52CD6985BBD3F80C52CE68FB
:104280000540C3F80C528D8803EBC40445EA06458B
:10429000C4F840528E680D8845EA0645C4F8445279
:1042A0008C696CBBD3F804420440C3F804420C6927
:1042B00054BBD3F814422040C3F81402096A012900
:1042C00002BFD3F81C120A43C3F81C22D3F8002201
:1042D00022F00102C3F80022002070BD012DDFD1C1
:1042E000D3F80C520E681543C3F80C528D8803EBBB
:1042F000C40445EA0645C4F840528E688D89CBE770
:10430000D3F804421443D0E7012CD7D1D3F81402D8
:104310001043D1E7704770B50446002872D090F87A
:10432000393003F0FF021BB980F83820FFF7F2FFA5
:10433000022384F8393023681A6822F002021A60D6
:104340001A6842F001021A60FFF77EFF06462368F2
:104350005D6815F0010557D05A68D1074FD5A2699D
:10436000012A1A680CBF42F0800222F080021A6013
:10437000E269012A1A680CBF42F0400222F04002B2
:104380001A60226A012A1A680CBF42F0200222F049
:1043900020021A60626A012A1A680CBF42F01002F9
:1043A00022F010021A60A26A012A1A680CBF42F0B9
:1043B000080222F008021A60E26A012A1A680CBF99
:1043C00042F0040222F004021A60E168A2680A4383
:1043D00021690A4361690A43616801390A43DA6164
:1043E0001A6822F001021A60FFF72EFF05462368C3
:1043F0005A68D20713D4586810F001001BD0042368
:1044000084F83930012070BDFFF71EFF801B0A2899
:104410009DD9032084F8390084F8385070BDFFF727
:1044200013FF401B0A28E2D90320002384F8390037
:1044300084F8383070BD0123E06384F8393070BDF2
:104440007047000038B5044605682169A368C26951
:1044500028680B4361690B434949134301400B43EF
:104460002B606B68E168206A23F440530B436B6058
:10447000A968A36921F4306103430B43AB60414B4E
:104480009D4212D103F558433F491B6B03F00303D0
:10449000B2F5004FCB5C3BD1082B36D8DFE803F0F8
:1044A0000F2124352D3535353000384B9D4203D052
:1044B00003F580639D425ED1B2F5004F31D100F02B
:1044C000B7FC61684A0802EB4003B3FBF1F39BB20F
:1044D000002023F00F022168C3F342031343CB6093
:1044E00038BD00F0BDFCECE76068430803F57403D9
:1044F00003F51053B3FBF0F3E9E700F0A5FBE0E7A9
:104500006068430803F58033F4E701200023E0E707
:10451000082B33D8DFE803F005101B322732323284
:104520002A0000F085FC636800EB5300B0FBF3F059
:1045300080B2E860002038BD00F092FC636800EBB8
:104540005300B0FBF3F00F4B80B2D860F2E7626823
:10455000530803F5F40303F59053B3FBF2F3094A50
:104560009BB2D360E6E700F06FFBE7E762685308B1
:1045700003F50043F1E7B2F5004FC6D0012038BD86
:10458000F369FFEF00380140D07300080044004099
:10459000436ADA0710B506D50168846A4A6822F4CE
:1045A000003222434A609C0706D50168C46A4A6803
:1045B00022F4803222434A60590706D50168046B11
:1045C0004A6822F4802222434A601A0706D501680D
:1045D000446B4A6822F4004222434A60DC0606D556
:1045E0000168846B8A6822F4805222438A609906AB
:1045F00006D50168C46B8A6822F4005222438A609F
:104600005A060FD50168046C4A6822F480122243CE
:10461000B4F5801F4A6005D14A68446C22F4C00298
:1046200022434A601B0606D50268816C536823F456
:1046300000230B43536010BD2DE9F041069D044655
:104640000F46164698462168CA6937EA02030CBF2E
:1046500001220022B24202D00020BDE8F0816B1C92
:10466000F2D09DB923681A6822F4D0721A609A6851
:1046700022F001029A60202384F8693084F86A30BD
:10468000002384F868300320BDE8F081FFF7DCFDEB
:10469000A0EB08008542D6D2E4E773B504460026B5
:1046A000C666FFF7D1FD23681B681A07054617D4B5
:1046B00023681B685B070AD56FF07E4300930022D6
:1046C0002B464FF480012046FFF7B6FFA0B9202308
:1046D000002084F8693084F8680084F86A300CE0BF
:1046E0006FF07E430093324603464FF4001120469C
:1046F000FFF7A2FF0028DBD0032002B070BD10B589
:10470000044660B390F8693003F0FF021BB980F8EB
:104710006820FFF795FE2268242384F86930136827
:1047200023F0010313602046FFF78CFE012816D00A
:10473000636A13B12046FFF72BFF23685A6822F4FF
:1047400090425A609A6822F02A029A601A6842F0EF
:10475000010220461A60BDE81040FFF79EBF01200D
:1047600010BD00000368DA072DE9F347054611D4B0
:104770002B689B0700F188802B681C0700F1F880EC
:104780002B68580700F14181EA69002A40F0D7817F
:10479000002021E0BA4C636803F00C03042B07D01F
:1047A000636803F00C03082B19D16368DF0316D587
:1047B0004FF4003393FAA3F2216893FAA3F3B3FA08
:1047C00083F303F01F03012202FA03F30B42CFD05D
:1047D0006B68002BCCD1012002B0BDE8F0876A687D
:1047E000B2F5803F25D1236843F480332360E36A28
:1047F000A96823F00F030B43E36252B3FFF724FDD4
:104800004FF400368046012796FAA6F3226896FAFE
:10481000A6F3B3FA83F303F01F0307FA03F313427B
:10482000A6D1FFF711FDA0EB08006428ECD9032006
:10483000D2E7236832B923F480332360236823F45A
:104840008023D3E7B2F5A02FF5D143F48023236072
:10485000C9E7FFF7F9FC4FF400368046012796FAC6
:10486000A6F3226896FAA6F3B3FA83F303F01F03C4
:1048700007FA03F313423FF47BAFFFF7E5FCA0EB2D
:1048800008006428EBD9D2E77D4C636813F00C0F65
:1048900007D0636803F00C03082B21D16368DE03A3
:1048A0001ED4022393FAA3F2216893FAA3F3B3FA76
:1048B00083F303F01F03012202FA03F30B4202D039
:1048C0002B69934287D12168F82393FAA3F3B3FAB3
:1048D00083F26B69934021F0F802134323604BE7A6
:1048E0002A6901260AB396FAA6F3B3FA83F303F111
:1048F000845303F584139B0002271E60FFF7A4FC7A
:10490000804697FAA7F3226897FAA7F3B3FA83F3DE
:1049100003F01F0306FA03F31342D4D1FFF794FC0C
:10492000A0EB08000228ECD981E796FAA6F3B3FAC7
:1049300083F303F1845303F584139B0002271A6069
:10494000FFF782FC804697FAA7F3226897FAA7F34D
:10495000B3FA83F303F01F0306FA03F313423FF4A1
:104960000BAFFFF771FCA0EB08000228EBD95EE764
:10497000AA69434E434901241AB394FAA4F3B3FA43
:1049800083F30B449B0002271C60FFF75DFC80460D
:1049900097FAA7F397FAA7F397FAA7F3726A97FA29
:1049A000A7F3B3FA83F303F01F0304FA03F31342EC
:1049B0007FF4E6AEFFF748FCA0EB08000228E7D939
:1049C00035E794FAA4F3B3FA83F30B449B00022770
:1049D0001A60FFF739FC804697FAA7F397FAA7F316
:1049E00097FAA7F3726A97FAA7F3B3FA83F303F07F
:1049F0001F0304FA03F313423FF4C2AEFFF724FC93
:104A0000A0EB08000228E7D911E71D4CE369D900A3
:104A100034D4E36943F08053E361E36903F08053E6
:104A20000193019B0126184F3B68DA052ED5EB68F0
:104A3000012B3CD1236A43F001032362FFF704FCFE
:104A400002278246B9464FF0010897FAA7F397FA72
:104A5000A7F3002B6BD0226A99FAA9F3B3FA83F378
:104A600003F01F0308FA03F3134257D0002E3FF45C
:104A70008BAEE36923F08053E36185E60026D2E73D
:104A80000010024020819010007000403B6843F409
:104A900080733B60FFF7D8FB80463B68DB05C6D4DC
:104AA000FFF7D2FBA0EB08006428F6D9BFE63BBBBA
:104AB000236A23F001032362236A23F004032362A1
:104AC000FFF7C2FB02278246B9464FF0010897FA6A
:104AD000A7F397FAA7F373B3226A99FAA9F3B3FA83
:104AE00083F303F01F0308FA03F31342BED0FFF76A
:104AF000ABFB41F28833A0EB0A009842E7D996E677
:104B0000052B236A03D143F00403236292E723F0C9
:104B100001032362236A23F004038EE7FFF794FB6B
:104B200041F28833A0EB0A0098428ED97FE697FACB
:104B3000A7F3626A90E797FAA7F3626ACDE7414C60
:104B4000636803F00C03082B3FF445AE022A4FF0D4
:104B5000807352D193FAA3F3B3FA83F303F184532E
:104B600003F584139B0000221A60FFF76DFB4FF0E2
:104B700000778046012697FAA7F3226897FAA7F3F1
:104B8000B3FA83F303F01F0306FA03F313422DD1A4
:104B900062686B6A296A22F474120B4313436360E0
:104BA0004FF0807393FAA3F3B3FA83F303F18453C2
:104BB00003F584139B004FF000751E60FFF744FB64
:104BC0000126074695FAA5F3226895FAA5F3B3FAEC
:104BD00083F303F01F0306FA03F313427FF4D8AD07
:104BE000FFF732FBC01B0228ECD920E6FFF72CFBB5
:104BF000A0EB08000228BED919E693FAA3F3B3FA92
:104C000083F303F1845303F584139B0000221A609D
:104C1000FFF71AFB4FF000750746012695FAA5F33A
:104C2000226895FAA5F3B3FA83F303F01F0306FA9B
:104C300003F313423FF4ACADFFF706FBC01B0228A1
:104C4000ECD9F4E50010024010B5134C616801F096
:104C50000C03082B1ED14FF4701393FAA3F301F445
:104C60007012B3FA83F322FA03F30C4AD05CE36ABE
:104C70000F2292FAA2F2B2FA82F203F00F03D340AB
:104C8000074AD25CCB034ABF064B074BB3FBF2F398
:104C9000584310BD034810BD00100240D4730008F3
:104CA000E473000800127A0000093D005C4A1368B2
:104CB00003F007038B422DE9F04106460D4630D341
:104CC000326891073AD4D20740D4554A136803F0AA
:104CD00007039D42C0F092803268524C12F0040FDC
:104CE00040F09780130706D56368326923F4605358
:104CF00043EAC2036360FFF7A7FF6368F02292FAFA
:104D0000A2F2B2FA82F203F0F003D340464AD35C37
:104D1000D840464B18600F20FEF79EFA0020BDE8F1
:104D2000F081136823F007030B431360136803F04B
:104D300007039942C4D00120BDE8F0813949B06829
:104D40004B6823F0F00303434B60BCE77268354CBB
:104D5000012A28D14FF4003393FAA3F1216893FA82
:104D6000A3F3B3FA83F303F01F0302FA03F30B4236
:104D7000E1D0636823F003031A436260FFF764FA2B
:104D80007368012B074641F288381FD1636803F02E
:104D90000C03042B99D0FFF757FAC01B4045F5D9F7
:104DA0000320BDE8F081022A0CBF4FF000730223FC
:104DB00093FAA3F1206893FAA3F3B3FA83F303F011
:104DC0001F03012101FA03F30342D1E7022B10D1A3
:104DD000636803F00C03082B3FF477AFFFF734FA56
:104DE000C01B4045F4D9DBE7FFF72EFAC01B404556
:104DF000D6D8636813F00C0FF6D166E7136823F07A
:104E000007032B431360136803F007039D4292D1FD
:104E100062E76368F16823F4E0630B43636061E772
:104E20000020024000100240B8730008A4010020D6
:104E3000084B4FF4E0625B6892FAA2F2B2FA82F297
:104E400003F4E063D340044AD35C044A1068D840BA
:104E5000704700BF00100240C8730008A401002082
:104E6000084B4FF460525B6892FAA2F2B2FA82F2F7
:104E700003F46053D340044AD35C044A1068D8401A
:104E8000704700BF00100240C8730008A401002052
:104E90000F2303600B4B5A6802F0030242605A680A
:104EA00002F0F00282605A6802F4E062C2605B685D
:104EB000DB0803F4E0630361034B1B6803F00703A3
:104EC0000B6070470010024000200240074AD36880
:104ED00023F4E0631B041B0C43F0BF63000243F4A4
:104EE000003300F4E0600343D360704700ED00E05E
:104EF000C36810B504460BB19B689847204610BDA7
:104F000070477047704700EB011202F12800536BA5
:104F10001B6818470368184708B10B68036070479F
:104F2000704770B50546044655F8043B0E461B68AD
:104F3000984728463146FEF73FFF2368A66420467F
:104F40005B68BDE870401847884238B504460D4696
:104F50000AD0FCF7DEF93CB1EB681BB15B6829466F
:104F600020469847EB68E360204638BD2DE9F043C2
:104F700005461E461B4B45F8043B85B00446884653
:104F8000914600212422284601F077F9002262632D
:104F900062646946A664144F144E009704F1280019
:104FA0000396FFF7D1FF6846FCF7B3F9694604F1B1
:104FB000380000970396FFF7C7FF6846FCF7A9F98A
:104FC0004A4641462846FEF751FEA16C2846FEF7A8
:104FD000F3FE284622460649FEF7F2FE204605B0BB
:104FE000BDE8F08308740008014F0008F47300085E
:104FF000074F00082DE9FF410546884655F8043B58
:105000001B68044616469847FCF7DCFDD8F80C7080
:10501000300197B1283041462044FFF795FF012227
:1050200031462846FEF7D8FEFCF7E2FD236820460D
:105030005B68984704B0BDE8F081074B00932830C7
:10504000064B039369462044FFF77EFF6846FCF752
:1050500060F93A46E4E700BF014F0008F473000826
:105060007047000010B5034B03600446FCF75AF983
:10507000204610BD2074000810B50446FFF7F2FF6B
:10508000204600F09DFA204610BD000010B50446F1
:10509000FFF76CFF014B2360204610BD2074000811
:1050A00010B50446FCF78EFD23682BB9E068FCF7C9
:1050B0002AFD012360602360BDE81040FCF798BD25
:1050C00038B50546FCF77EFD2C6824B1E868FCF78E
:1050D0001AFD6C68041BFCF78BFD204638BD38B503
:1050E0000546FCF76FFD2846AC68FFF7E9FF04446E
:1050F000FCF77EFD204638BD08B5FFF7F0FF4FF402
:105100007A7390FBF3F008BD10B50446FCF75AFD26
:10511000E068FCF7F8FC00236060A360BDE8104085
:10512000FCF766BD002310B503604360836004464E
:10513000FCF7BCFCE0602046FFF7E6FF204610BD10
:10514000704700EB011202F10C0093691B681847CD
:105150004FF0FF319C3000F057BA9C3000F057BA46
:1051600070B505460E4655F8043B9B6804469847C3
:1051700031462846FEF756FA23680546DB68204686
:105180009847284670BD84B073B5064607AC84E8DE
:105190000E0056F8043B9B68054698470023019390
:1051A0000A9B009394E80E003046FEF781FA2B68C4
:1051B0000446DB6828469847204602B0BDE87040A8
:1051C00004B07047F8B505460E4655F8043B17463F
:1051D0009B68044698473A4631462846FEF7B9FA96
:1051E00023680546DB68204698472846F8BD00003E
:1051F00070B504460D4B44F8043B05462046FEF7C7
:10520000EDF9204605F19C04FEF7F6F9204600F082
:1052100001FA15F10C0606D0B44204D0103C204629
:10522000FCF777F8F8E7284670BD00BF387400082F
:1052300010B50446FFF7DCFF204600F0C1F9204618
:1052400010BD00002DE9FF471A4B0360174600F11F
:105250000C03002204460E464260826000F19C0866
:105260001D46DA6010334345FBD1404600F0B4F9E7
:10527000DFF848A0DFF8489045450CD0694628463D
:10528000CDF800A0CDF80C90FFF75EFE6846FCF765
:1052900040F81035F0E7251D3A4631462846FEF71E
:1052A000D9FA284622460449FEF78CF9204604B074
:1052B000BDE8F087387400084351000841510008E8
:1052C000F473000838B5044648B15830A04206D0FF
:1052D000A0F12C051438FFF70BFE2846F6E7204610
:1052E00038BD000070B50E4C2046002528263246F9
:1052F000294640F8045B00F0C0FF3246294604F11D
:105300003000E56200F0B9FFA5652046E565054A75
:1053100084F860500449BDE8704000F027B900BF30
:105320005C15002088010020C552000800F0FCBF79
:1053300001F058B800F0AABF70B50546FEF70AFBA9
:105340004FF47A7495FBF4F4002C064602DDFCF76A
:1053500033FC28B9FEF7FEFA801BA842FAD370BDD1
:10536000204600F037F9F5E74FF47A735843FFF71A
:10537000E3BF000008B5084B1B685BB90221074872
:105380000F22FEF773FC4FF416510448BDE80840A5
:10539000FEF712BD08BD00BF28130020FC1F00202F
:1053A000022810B5044601DC002010BD00F024FDE9
:1053B00009230360033C094B53F82400002243F8FF
:1053C000242040B103681B699847041EECDA00F002
:1053D00013FD644204604FF0FF3010BDC015002083
:1053E000F8B505460E46144600F006FD0923022DC9
:1053F00003600FDC124B1B680BB9FFF7BBFF354690
:105400003719104EBD4215D015F8011B3046FEF776
:1054100071FDF7E7033D0C4B53F8250060B10368BD
:105420002246DB6831469847041E03DA00F0E4FCAC
:10543000634203602046F8BD4FF0FF34FAE700BF37
:1054400028130020FC1F0020C015002070B5044662
:105450000D46164600F0D0FC0923022C03600BDC3D
:105460000F4B1B680BB9FFF785FF0E48FEF720FDB9
:1054700001242870204670BD033C0B4B53F82400D8
:1054800058B1036832469B6829469847041EF1DAF2
:1054900000F0B2FC63420360ECE74FF0FF34E9E751
:1054A00028130020FC1F0020C015002070B5044602
:1054B0000D46164600F0A0FC0923022C03600BDD0C
:1054C000033C084B53F8240040B103683246294698
:1054D000DB69BDE870401847002070BD4FF0FF3019
:1054E00070BD00BFC015002008B5FEF719FDFCF720
:1054F000F3FC08BD704708B5FFF7FCFFBDE80840A6
:10550000FBF758BE0C4A136810B51844EFF3088136
:10551000884205D3094B0C221A604FF0FF3010BDB2
:1055200007490C6824B10749096821448842F1D22F
:105530001060184610BD00BFA801002024200020E4
:10554000C0160020C4160020074C08B52368054685
:10555000986800F009FD2368D86800F005FD0DB1DA
:10556000FCF720FBFEE700BFAC01002001207047E4
:1055700008B5FFF7E9FF08B5FCF7BCFC08BD08B5A6
:10558000FCF7C0FC08BD000010B500F0EDFD0446BE
:1055900010B90248FCF740FB204610BD67740008B4
:1055A00010B500F0E1FD044610B90248FCF734FBE9
:1055B000204610BD4874000808B100F0DDBD7047FA
:1055C000FFF7FABF024B1B6803B11847704700BFD3
:1055D000C8160020FDF76CB838B500F10805044680
:1055E00010220021284600F048FE204640F8045FC3
:1055F000FDF7D0F8206010B90248FCF70DFB2046FB
:1056000038BD00BF847400080068FDF7E1B8006889
:10561000FDF706B910B504460068FDF747F92046C6
:1056200010BD000080F309887047EFF309807047D0
:10563000684680F309885A480078C00714BF0220E2
:10564000032080F314887047DFF858C1EFF3058317
:105650001B0618BF6047EFF31483DB0708BF6047E2
:1056600000DF7047DFF840C1EFF305831B0618BF6A
:105670006047EFF31483DB0708BF604700DF704724
:10568000EFF30980816911F8021CE1BB90E80F106B
:1056900010B5E047BDE81040EFF3098C8CE8070037
:1056A000424B93E80600914208BF704741B91EF093
:1056B000100F16D13E49086820F00100086010E084
:1056C0001EF0100F06BF2CED108A0120002081F87B
:1056D00025002CE9F00FC1F82CC00CB4FCF7FEFC3F
:1056E0000CBC1A60D2F82CC0BCE8F00F92F8250070
:1056F00000280EBF6FF0020E6FF0120EBCEC108A85
:105700008CF30988704710B52A4A1268914209D86B
:10571000294C54F8214090E80F10A047EFF3098C72
:105720008CE80F0010BD10B5FCF764FCBDE810401C
:105730001E4B93E80600914208BF7047EFF3098CB7
:105740001EF0100F06BF2CED108A0120002081F8FA
:1057500025002CE9F00FC1F82CC00CB4FCF7BEFCFE
:105760000CBC1A60D2F82CC0BCE8F00F92F82500EF
:1057700000280EBF6FF0020E6FF0120EBCEC108A04
:105780008CF30988704710B5FCF78AFCFFF7CEBF91
:1057900010B5FCF783FCFCF783FCFFF7C7BF0000E4
:1057A000727100084B21000865210008701F00205D
:1057B00034EF00E000000000FCFFFFFFDFF820D026
:1057C000002103E0074B5B58435004310648074B68
:1057D00042189A42F6D3FEF70DFCFBF749FDFEE7AF
:1057E000003000205075000888010020340200209D
:1057F000FEE708B5FBF750FD244B1A68D0075CBFE5
:1058000001221A60224B1A68D1075CBF01221A607C
:10581000204B1A68D2075CBF01221A601E4B1A681F
:10582000D0075CBF01221A601C4B1A68D1075CBF0D
:1058300001221A601A4B1A68D2075CBF01221A6053
:10584000184B1A68D0075CBF01221A60164B1A6801
:10585000D1075CBF01221A60144B1A68D2075CBFE3
:1058600001221A60124B1A68D0075CBF01221A602D
:10587000104B1A68D1075CBF01221A600E4B1A68E0
:10588000D2075CBF01221A60704700BFF8160020E3
:10589000F4160020F0160020EC160020E816002078
:1058A000E4160020E0160020DC160020D8160020A8
:1058B000D4160020D0160020CC160020244B1A68E5
:1058C000D0075CBF01221A60224B1A68D1075CBF67
:1058D00001221A60204B1A68D2075CBF01221A60AD
:1058E0001E4B1A68D0075CBF01221A601C4B1A6855
:1058F000D1075CBF01221A601A4B1A68D2075CBF3D
:1059000001221A60184B1A68D0075CBF01221A6086
:10591000164B1A68D1075CBF01221A60144B1A6833
:10592000D2075CBF01221A60124B1A68D0075CBF15
:1059300001221A60104B1A68D1075CBF01221A605D
:105940000E4B1A68D2075CBF01221A60704700BF75
:105950002817002024170020201700201C170020E3
:105960001817002014170020101700200C17002013
:10597000081700200417002000170020FC16002044
:10598000184B1A68D1075CBF01221A60164B1A68BF
:10599000D2075CBF01221A60144B1A68D0075CBFA3
:1059A00001221A60124B1A68D1075CBF01221A60EB
:1059B000104B1A68D2075CBF01221A600E4B1A689E
:1059C000D0075CBF01221A600C4B1A68D1075CBF7C
:1059D00001221A600A4B1A68D2075CBF01221A60C2
:1059E000704700BF481700204417002040170020D0
:1059F0003C170020381700203417002030170020F3
:105A00002C170020184B1A68D1075CBF01221A60BE
:105A1000164B1A68D2075CBF01221A60144B1A6831
:105A2000D0075CBF01221A60124B1A68D1075CBF15
:105A300001221A60104B1A68D2075CBF01221A605B
:105A40000E4B1A68D0075CBF01221A600C4B1A6813
:105A5000D1075CBF01221A600A4B1A68D2075CBFEB
:105A600001221A60704700BF6817002064170020E9
:105A7000601700205C1700205817002054170020E2
:105A8000501700204C17002081F0004102E000BFB9
:105A900083F0004330B54FEA41044FEA430594EAEE
:105AA000050F08BF90EA020F1FBF54EA000C55EA29
:105AB000020C7FEA645C7FEA655C00F0E2804FEAFA
:105AC0005454D4EB5555B8BF6D420CDD2C4480EADC
:105AD000020281EA030382EA000083EA010180EA0C
