:020000040800F2
:1000000000300020D15600080557000805570008A9
:1000100005570008055700080557000800000000B4
:1000200000000000000000000000000095550008DE
:1000300005570008000000003B5600089B560008CA
:100040000557000805570008055700080557000820
:100050000557000805570008055700080557000810
:100060000557000805570008055700080557000800
:1000700005570008055700080557000805570008F0
:1000800005570008055700080557000819340008EF
:100090001D340008055700081933000805570008EB
:1000A00005570008055700080557000805570008C0
:1000B0000557000805570008000000000557000814
:1000C0000557000800000000000000000557000868
:1000D00000000000055700080557000805570008F4
:1000E0000557000805570008000000000000000048
:1000F0000000000000000000000000000000000000
:1001000000000000000000000000000000000000EF
:100110000000000000000000055700080557000817
:1001200000000000000000000000000000000000CF
:1001300000000000000000000000000000000000BF
:1001400005570008055700080000000000000000E7
:10015000000000000000000000000000000000009F
:10016000000000000000000000000000000000008F
:10017000000000000000000000000000000000007F
:10018000000000000557000810B5054C237833B96E
:10019000044B13B10448AFF300800123237010BD5A
:1001A0002802002000000000847100080C4B43B1BD
:1001B0000C480D4910B5AFF300800C48036823B913
:1001C00010BD0A48036833B97047094B002BF7D0BC
:1001D000BDE810401847064B002BF5D0184700BF6C
:1001E00000000000847100082C0200202002002082
:1001F0000000000043680B7043681B0A4B70C38803
:100200008B70C379CB7083680B7183681B0A4B7149
:1002100043898B71C37ACB71082070470B78436098
:100220004A7843EA022343608A7843EA0243436000
:10023000CA7843EA026343600B7983604A7943EAF0
:10024000022383608A7943EA02438360CA7943EADE
:10025000026383600820704700487047526C0008B2
:1002600000487047316C000800487047C36B0008B5
:1002700000487047A26B0008004870478F6B000869
:10028000004870476E6B000800487047DC6B000840
:10029000004870474D6B00080020704700207047F1
:1002A00000487047816C000800487047606C000887
:1002B000002070470020704700487047816C00089C
:1002C00000487047606C00080020704700207047AD
:1002D000004870472E6B000800487047606C0008AB
:1002E0008268C3680A7010B5140A4C70140C120EA0
:1002F000CA701A0A0B714A711A0C1B0E8C708A7123
:10030000CB71026943690A72140A4C72140C120E02
:10031000CA721A0A0B734A731A0C1B0E8C728A73F8
:10032000CB738269C3690A74100A4874100C120EE8
:10033000CA741A0A0B754A751A0C1B0E88748A75D2
:10034000CB75182010BD0A684B68C0E902238A6883
:10035000CB68C0E904230A694B69C0E90623182069
:1003600070470000004870472E6B00080048704737
:100370000D6B000803790B7083684B701A0A8A7042
:100380001A0C1B0ECA700B71C3684B711A0A8A7162
:100390001A0C1B0ECA710B7203694B721A0A8A720D
:1003A0001A0C1B0ECA720B7343694B731A0A8A73B9
:1003B0001A0C1B0ECA730B7483694B741A0A8A7465
:1003C0001A0C1B0ECA740B75152070470B7803713D
:1003D000D1F801308360D1F80530C360D1F809301D
:1003E0000361D1F80D304361D1F8113083611520DC
:1003F0007047000000487047AE6A00080048704728
:100400008D6A000803790B7083684B701A0A8A7032
:100410001A0C1B0ECA700B71C3684B711A0A8A71D1
:100420001A0C1B0ECA710B7203694B721A0A8A727C
:100430001A0C1B0ECA720B730D2070470B780371D8
:10044000D1F801308360D1F80530C360D1F80930AC
:1004500003610D207047000000487047ED6A0008F6
:1004600000487047CC6A00080368184708B10B6859
:1004700003607047704703207047000000487047D2
:10048000816C000800487047606C000803207047CA
:10049000004870472E6B000800487047606C0008E9
:1004A00070B5054600F10C042046FFF78FFFAB6ADC
:1004B0002046BDE870401847C06A70470048704742
:1004C000AE6A0008004870478D6A000890F8780509
:1004D000704700000121014801F0AFB8440200203C
:1004E0000121014801F0D0B844020020C3681A6815
:1004F00010B414680A468168184623465DF8044B18
:10050000184738B500F11005836A044629460C30B7
:100510009847294604F11400FFF7E8FF38BD38B5C5
:1005200000F11005436C044629460C3098472946D3
:1005300004F13000FFF7DAFF38BD10B51022044691
:10054000002105F0DAFC0823237300236360A36015
:10055000204610BD30B587B0044602AD2846FFF7EF
:10056000ECFF2379E268A16801330293A369019348
:10057000636900932846236901F0AEF8059B009358
:1005800095E80E00024804F0B0FC07B030BD00BF93
:100590004402002010B58CB008AC2046FFF7CDFF18
:1005A000002221460F4804F0BFFCC8B1089BBBB92C
:1005B00007AB039306AB029305AB01930DF1130355
:1005C000009394E80F0001F001F99DF81320064B09
:1005D000013A1A71059A9A60069ADA60079A1A61C6
:1005E0000CB010BD440200209C03002070B590B0F8
:1005F00008AC20460E46FFF7A0FF01211C4800F082
:10060000F5FF0A2004F046FE00222146184804F0B7
:100610008BFC0CADE0B1089BD3B907AB029306ABE2
:1006200001930DF117030395009394E80F0001F077
:10063000CDF8069805F0CCF9C6E90201079805F057
:10064000C7F9C6E904010C9805F0C2F9C6E906012C
:10065000084B0C930022084B05480F93294604F0E1
:10066000F5FC0F9B13B19B682846984710B070BDEE
:100670004402002095050008346A00080138002370
:1006800021FA03F20833202B00F8012FF8D170472C
:1006900043682DE9F0410B7043681B0A4B70C38817
:1006A0008B70C379CB700D460A1D0446002160682B
:1006B0008142A2EB050302F104020FD2E36853F872
:1006C000213002F8043C180A02F8030C180C1B0E27
:1006D00002F8020C02F8013C0131E8E72269EA5411
:1006E0002169EA18090A5170618A9170E17CD17020
:1006F00004332B44002122699142A3EB050603F148
:1007000004030FD2A26952F8212003F8042C100A26
:1007100003F8030C100C120E03F8020C03F8012C62
:100720000131E8E7E369AB55E269AB19120A5A7087
:10073000E28B9A70E27FDA7004360027E3699F4209
:1007400014D2636A53F8270005F0A3FE80460146E1
:10075000A819FFF793FF636A043653F82710A81906
:10076000424605F0A5FB46440137E7E73046BDE8C1
:10077000F081F8B50E46037906F8013B054680681E
:100780000F4605F086FE044601463046FFF776FF29
:100790002246A968781D05F08BFB601DF8BD838893
:1007A0002DE9F0410B7083881B0A4B700546806869
:1007B0000C4605F06EFE07460146A01CFFF75EFFE3
:1007C0003A46A968A01D05F073FBE86805F061FED4
:1007D00007F10608064601460A3704EB0800FFF752
:1007E0004DFF3246E968E01905F062FB286905F023
:1007F00050FE3E4401460746A0190436FFF73EFF6F
:100800003A46A01929693E4405F052FB6B69A3558D
:1008100034441A0A62701A0C1B0EA270E370301D69
:10082000BDE8F08110B500230360013911F8012FF4
:1008300002FA03F4026808332243202B0260F5D148
:1008400010BD37B50C4611F8013B0371054601A8F0
:10085000FFF7E8FF019B621D581D111B884204D958
:1008600012F8011B02F8021CF7E7234400220434AB
:100870001A71AC6003B030BDF0B50B7883804A7854
:1008800085B043EA022383800C460646023101A864
:10089000FFF7C8FF019FA31DBD1D1A1B954204D978
:1008A00013F8012B03F8022CF7E7E31900225A7121
:1008B000631DB360611902A8FFF7B4FF2B1D029DF1
:1008C00007F10A021D442244111B8D4204D912F87B
:1008D000011B02F8021CF7E76119013B23440022C7
:1008E00001F8012C03A8F360FFF79CFF039804357F
:1008F000284463191A1B904204D913F8012B03F8FA
:10090000022CF7E72218013D0023254402F8013CA0
:10091000356193785178D2781B0443EA0123215C36
:100920000B4343EA02630430736105B0F0BD2DE967
:10093000F34143680D689D4204460E4604D9A90060
:10094000C06805F04BFDE0606560321D0021606805
:100950008142A2EB060302F1040213D212F8023C18
:1009600012F8030C1B0443EA002312F8040C03439F
:1009700012F8010C43EA0063E068A36040F82130FC
:100980000131E4E7F218F15C95785078D2782D04C3
:1009900045EA00250D431F1D236945EA02659D4276
:1009A00004D9A900A06905F019FDA0612561F3191A
:1009B000002122699142A3EB060503F1040313D23F
:1009C00013F8022C13F8030C120442EA002213F865
:1009D000040C024313F8010C42EA0062A069626150
:1009E00040F821200131E4E77319725D9F7859784E
:1009F000DB783F0447EA0127174347EA0367E369C7
:100A00009F4205F1040504D9B900606A05F0E6FCCF
:100A10006062E7610027B846E3699F421AD2711904
:100A200001A8FFF7FFFE2B1D019DF2181D44911B2D
:100A3000A94204D212F8011B02F8021CF7E772194E
:100A4000013B02F8018C626A3344236242F827308A
:100A50000137E1E7284602B0BDE8F08110B500F2A9
:100A60009C42002352F8044B44B900EB83027D33CF
:100A7000C2F89C14C8608B60012010BD0133192B93
:100A8000F0D1002010BD10B500F5A062002352F88F
:100A9000044B3CB903F5A072643340F822104B605C
:100AA000012010BD0133192BF1D1002010BD70B50C
:100AB0000C4614310646FFF7D1FF21460546304665
:100AC000FFF7E1FF002D08BF002070BD30B585B0F5
:100AD0000446094B019300230293039354F87C3B93
:100AE00001AA1B680A2105469847204604F097F999
:100AF000C5F88C0005B030BDF06800082DE9F04164
:100B000086B02B4B009300222A4BADF804200546FB
:100B1000029303930493059200F29C4400F5A066AF
:100B20004FF400772368BBB158689A68ADF8042089
:100B30001A68036802929B68984723680390586874
:100B40000368DB68984721682B68049005971B6849
:100B500009696A46284698470434B442E2D105F24E
:100B600064564FF400772068C8B14368ADF804308C
:100B70008368029303689B68984703902068036822
:100B8000DB6898472B6804902068D3F800800368DE
:100B900005975B6898476A4601462846C047043473
:100BA000A642E0D1012385F8783506B0BDE8F08192
:100BB00008690008116D0008F0B585B000F17C05EA
:100BC0001E4B0193044600232846029303930E46CE
:100BD00004F025F9D4F88C203146871A01A8FFF7D4
:100BE0001DFB029B4FF47A76B7FBF6F21344029397
:100BF00006FB1272039B124F284607FB0232039238
:100C000004F00DF9029AB0FBF6F3013AD21AC4F8D7
:100C1000902003990B4A06FB13030A44214607FB65
:100C2000132341F8943F04F1900000F003FB2846A1
:100C300004F0F5F8C4F8800505B0F0BDF0680008D0
:100C400040420F0000CA9A3BF7B56C4C6C4F0C2227
:100C50000B21204604F0BAF920466A4C6A493A460C
:100C600004F01AFC1C220021204605F046F920461B
:100C7000664C132100F045FE2046654B40F8043BCE
:100C8000002504238DE828000F22022104F17C06B0
:100C90004FF4807300F0A2FB304604F0D6F84FF416
:100CA0006143A36730464FF4007604F08CF8324677
:100CB000294604F19C00C4F88C50C4F89050C4F844
:100CC0009450C4F8985005F018F932462946642625
:100CD00004F5277005F011F93246294604F29C40CC
:100CE00005F00BF93246294604F5A06005F005F938
:100CF000484BC4F88C3504F5B4630026C4F890550D
:100D0000C4F89455C4F89855C4F89C551E60C4F8AE
:100D1000A455C4F8A855C4F8AC55C4F8B0553A4623
:100D20003D49C4F864552046C4F86855C4F86C556C
:100D3000C4F87055C4F8745584F87855C4F87C55D7
:100D4000C4F88055C4F8845584F8885504F0A4FB91
:100D5000324B334A1A603349334ADE609E601E616B
:100D600082E80A001D71314B1561314A1A60314A1F
:100D7000DA60314A9A620122DA62304A1D749E6159
:100D8000DE611E625E629A605E612D4B2D4A1A60C2
:100D90002D4ADA60002000212C4A1A61C3E90601BD
:100DA000C3E90801C3E90A0103F1100228491963E4
:100DB0005A639960022227491A645964264B274CCA
:100DC00027482849284D1C60D86003F11006196196
:100DD0005D619D60254D5A629E619D62244B196143
:100DE0005A622449244AD86003F110001C605961FA
:100DF000986199609A6203B0F0BD00BF4402002080
:100E000088010020C4030020554F0008E0030020A3
:100E1000E069000838690008F51100089C0300200B
:100E2000C8690008406A0008B00300206C03002075
:100E3000F4690008B0690008550500084C6A00080C
:100E4000F80200200C6A0008806900089869000810
:100E5000566A0008ED05000840030020246A0008D7
:100E60005069000868690008696A0008D50400082C
:100E7000940900207B6A0008E1040008F0B56329AA
:100E800085B004460E4603DD90F87855002D4DD010
:100E9000136804F2A3211B6810469847FF2384F8C7
:100EA0009C32FE23C0F3072284F89D32C3B284F83B
:100EB0009E321344DB4384F8A16246F3072684F88C
:100EC0009F2284F8A03284F8A26204F2A1210522B4
:100ED0000023861DB24204DC11F8015B01322B4471
:100EE000F8E700F108052044DB43B5F5007F80F802
:100EF000A3320CDC04F527773E460434F31B9D42F5
:100F000014DD16F8011B204600F0D5FAF6E7094B70
:100F1000019303238DF80830074B0393236801AA3C
:100F20001B680721204698474FF0FF35284605B03B
:100F3000F0BD00BF20690008F86B00082DE9F047FC
:100F400000F17C080446404603F069FFD4F8803580
:100F500042F6F822C31A934284BF002384F87835FE
:100F6000D4F86435054633B1D4F8843583423CBFA8
:100F70000023C4F8643504F10409002604F19C0739
:100F8000D4F89830ABB9484600F062F9E8B994F863
:100F9000780560B1D4F87C3540F6C412EB1A934260
:100FA00004D92046FFF792FDC4F87C550020BDE827
:100FB000F087404603F033FFD4F89830401B984246
:100FC000E1D96FF00100BDE8F087484600F048F92C
:100FD0000028DCDBD4F87435D4F864A50344BAF1F6
:100FE000070FC4F8743512D1D4F870355A1C234455
:100FF000C4F8702583F89C00D4F86835013BC4F828
:101000006835002BBCD10823C4F86435B8E7BAF1C1
:10101000000F14D1FF2807D10123C4F8643505F16E
:101020001403C4F88435ABE7404603F0F8FE41F200
:101030008833401B9842A3D984F878A5C1E7BAF158
:10104000010F0DD1FE2801D10223DDE794F8783598
:10105000C4F86465002B93D12046FFF737FD8FE776
:10106000BAF1020F09D1C4F86805C4F8706503230A
:10107000C4F86435C4F8740582E7BAF1030F07D1E8
:10108000D4F8683503EB0020C4F868050423BBE7F7
:10109000BAF1040F0BD15A42D2B2DBB258BF53425D
:1010A000FF2B01D10523AFE7C4F8646568E7BAF107
:1010B000050F03D1C4F86C050623D9E7BAF1060F72
:1010C0000BD1D4F86C3503EB00200723C4F864354A
:1010D000C4F86C05D4F8683593E7BAF1080F7FF4CB
:1010E0004FAF5A42D2B2DBB258BF5342FF2BC4F8C3
:1010F00064657FF445AFD4F86C356BB92046FFF7D3
:10110000E5FC2046FFF7FAFCC4F87C55C4F880558E
:101110004FF0FF30BDE8F0870A2B04D13946204656
:10112000FFF74AFD2CE7062B08D1394604F28C5014
:10113000FFF7FDFB012384F8883521E70B2B02D153
:1011400084F878651CE7DC3354F8230000283FF46A
:1011500017AF036839461B68984711E708B51B4B62
:101160001B4CDA681B6813604FF4E131201DA16746
:1011700003F0A8FF00231749C4F864352046C4F8DB
:101180006835C4F87035C4F86C35FFF767FC124950
:101190002046FFF778FC11492046FFF788FC1049EC
:1011A0002046FFF784FC0F492046FFF757FC0E4905
:1011B0002046FFF768FC0D490D4803F083FE2046EA
:1011C000FFF7BCFE0A2004F065F8F8E7C40300202E
:1011D000E003002028030020F80200204003002044
:1011E00094090020B00300206C03002040420F004F
:1011F0004402002010B5044B044640F8043B00F0C4
:1012000079F8204610BD00BFE06900080748084A89
:1012100008B5121A002104F070FE04F0FBF804F087
:10122000BFFD04F0FEF804F039F900BF28020020E9
:101230000C1F002030B502680D68044CB5FBF4F3B8
:101240001A4404FB135302600B6030BD00CA9A3B82
:10125000026D406D101A18BF0120704701207047C1
:1012600010B5426DC16C0346501C5865885C9A6D80
:101270005C6D013AB4FBF2F102FB11425A6510BDFC
:10128000034610B107C983E80700704770474268FA
:101290008168036812F0010F4FEA62021CBF885890
:1012A000C35888181847C36810B504460BB19B682B
:1012B0009847204610BD000070B50546074B45F81D
:1012C000283B064645B100F14804AC4204D0103C2E
:1012D0002046FFF7E8FFF8E7304670BD9870000839
:1012E00010B50446FFF7E8FF204604F0F3F8204667
:1012F00010BD000030B5134B036085B000252A46B1
:1013000069460446039503F035FF6846FFF7CBFFB7
:10131000012269462046039503F02CFF6846FFF73B
:10132000C2FF04F15C0000F045F904F14C0000F04C
:1013300041F9054B23602046FFF7BEFF204605B06C
:1013400030BD00BF1C6D00086870000810B5044671
:10135000FFF7D0FF204604F0BDF8204610BD30B5A1
:10136000044685B0051D284602F024FDF0B1226E2A
:10137000636E9A4210D0636EE26D591C6166D15C57
:10138000A36E606E013BB0FBF3F203FB12036366D6
:10139000284602F01BFDE6E70023204601226946AD
:1013A000039303F0E7FE6846FFF77DFF05B030BD0D
:1013B00010B586B08DE80C00019B02920393049156
:1013C000054B9DF82020059302A903F0D3FE02A847
:1013D000FFF769FF06B010BD906C00087FB50446AA
:1013E0001D464FF41653089E03F052FD20460E4B47
:1013F00040F84C3B294600F0ECF806FB05F104F1FF
:101400005C0000F0E6F8094B02930023039300937D
:1014100004AB204613E90C002146FFF7C9FF204624
:10142000E566266704B070BD1C6D000897140008BF
:1014300070B5044686B0043002F0BCFCC0B102AD09
:101440000122294600262046059603F093FE2846F1
:10145000FFF729FF2046FFF782FF064B0293012387
:101460000396009395E80C0021462046FFF7A0FF65
:1014700006B070BD5F1300084368026810B55C1CBD
:101480004460D154C3684168013BB1FBF3F203FBF4
:101490001213436010BD38B5051D0446284602F0FE
:1014A00067FC38B1284602F06FFCC1B204F14C0071
:1014B000FFF7E2FF38BD38B505460C465C30C9B2CF
:1014C000FFF7DAFF2846FFF7B3FF204638BD2DE9C6
:1014D000F04107460C46B1B10D4600F15C082E46BE
:1014E00016F8011B21B14046FFF7C6FF3546F6E767
:1014F0000A214046FFF7C0FF2C1B3846FFF798FF34
:10150000601CBDE8F0810846BDE8F0812DE9F0419E
:1015100007460D4691B1A2B18C180E4600F15C0849
:10152000B44205D016F8011B4046FFF7A5FFF7E7C8
:101530003846FFF77DFF601BBDE8F0810846BDE837
:10154000F0811046BDE8F0810EB42DE9F04185B080
:10155000C26E02AFD31D23F0070307F12404ADEBE5
:10156000030D54F8048B02AE05460021304604F00A
:10157000C4FC2246414630467C6004F0ABFFEB6E73
:10158000834202460CD200905D220848084900F0D0
:1015900067FA00200C37BD46BDE8F04103B0704744
:1015A00031462846FFF7B2FFF4E700BFD86C0008C9
:1015B0009C6C000810B50446006808B103F086FF73
:1015C000204610BD00214160C2688160006804F0BF
:1015D00094BC38B5044608460D4603F06BFFE56041
:1015E00020602046FFF7EEFF204638BD70B586B07C
:1015F00002AC054620460E46FEF79FFF08238DF8F5
:101600001430FF238DF80C308DF80D308DF80E302E
:101610008DF80F308DF810308DF811308DF81230B4
:10162000FC238DF81330059B0296009394E80E007E
:10163000284603F05AFC06B070BD70B586B002AC07
:10164000054620460E46FEF778FF08238DF8143035
:10165000FF238DF80C308DF80D308DF80E308DF89D
:101660000F308DF810308DF811308DF81230FD23C9
:101670008DF81330059B0296009394E80E002846DF
:1016800003F033FC06B070BD70B586B002AC054601
:1016900020460E46FEF751FF08238DF81430FF2335
:1016A0008DF80C308DF80D308DF80E308DF80F3030
:1016B0008DF810308DF811308DF81230FE238DF832
:1016C0001330059B0296009394E80E00284603F021
:1016D0000CFC06B070BD00002DE9F74F334F0446F7
:1016E00038461E46154605F09DF8314A01921146CE
:1016F00005F0B6F8294683462E4805F093F82E49A2
:1017000005F0AEF8002531462C4E8246284605F0FD
:1017100089F8314605F0A4F80C998146284605F071
:1017200081F8274905F09CF80D998046254805F079
:1017300079F8254905F094F8019A0090394610236C
:10174000584600F085F80C2307461B4A19495046B5
:1017500000F07EF83246824629460C23484600F0C7
:1017600077F8294606460C23154A404600F070F8E3
:101770000C230546144A1349009800F069F83B12FF
:1017800023714FEA2A13A371331243EA0A13E37158
:101790002B116372031243EA0513E0720120677193
:1017A0002672A37203B0BDE8F08F00BF0000BFC275
:1017B0000000BF420000F0C10000F0410000FA4309
:1017C0000000A040000090C1000090417FB504AC33
:1017D00004E90F00089A9DF808309DF80410117074
:1017E0009DF805609DF807209DF8060012491D111F
:1017F0001C029DF8093004F4706445EA02151C438C
:101800000E4A102340EA062000F03DF8099B0C4ADE
:1018100018600C490C23284600F035F80A9B0A4A48
:1018200018600A490C23204600F02DF80B9B186025
:10183000012004B070BD00BF0000BFC20000BF4265
:101840000000F0410000F0C100009041000090C194
:1018500007EE101A012101FA03F3013B07EE903A5B
:1018600006EE900AF8EEE77A76EEC76A67EEA67A99
:1018700006EE902A36EEC77AC7EE876AFDEEE67A64
:1018800017EE900A704706EE901A07EE902A37EE90
:10189000E67A07EE900A0122F8EEE77A02FA03F3FD
:1018A000013B27EE277A07EE903AF8EEE77A87EECB
:1018B000276A76EE267A17EE900A704738B5044606
:1018C0000D4603685AB1826813602046012101F079
:1018D000EFFC29462046BDE8384001F0E5BCC2686F
:1018E000F2E770B50E460446154601F0BBFC013622
:1018F00006D02A4620460021BDE87040FFF7DEBF33
:1019000070BD0022FFF7EDBF00487047486D00082A
:10191000014800F003B800BF486D0008036870B5C7
:10192000DB680446984763685A6823681AB99B685D
:10193000BDE8704018475B68156898476368281AC7
:1019400000285A6807DC916859601B68002BEAD0B0
:1019500050689847E7E7236810681B69BDE8704046
:10196000184703685B68184710B5044601300DD16D
:1019700010BD9C4209D12046896801F0A3FF204692
:101980000021BDE8104002F01FB80C31B1F9003061
:101990005A1CEED10248BDE8104000F061B800BF0B
:1019A000956D0008884208B508D0431C06D0013167
:1019B00006D0044800F054F84FF0FF31084608BD47
:1019C0000146FBE7646D0008B1F900305A1C01D1F3
:1019D00018467047834201D1486870470C31F3E7DD
:1019E000421C10B5044607D0FFF7EEFF431C044627
:1019F00002D1024800F034F8204610BD756D000891
:101A0000EFF31080C04300F00100704708B5FFF706
:101A1000F7FF72B6064B1A6822B980F00100054A3A
:101A2000C0B210701A681A6801321A6008BD00BF8F
:101A3000CC090020C809002008B5074B1A6852B12C
:101A4000FFF7DEFF1A68013A1A601B681BB9034BE7
:101A50001B7803B962B608BDCC090020C809002074
:101A60000FB4012008B503F019FD08B5FFF7CEFF4C
:101A7000962003F00FFC962003F00CFCF8E701F031
:101A800040BC000008B5024C23689847FCE700BF43
:101A90008C01002008B50B4800F0AAFD0A4B186025
:101AA0000A4800F0A5FD0A4B18600A4800F0A0FDA6
:101AB000094B186004F074F900210846BDE808409D
:101AC00003F0AFBCF46D000814190020F06D00089D
:101AD000D8090020EC6D0008D0090020FFF7D2BF24
:101AE00010B5044600F0E4FC21460246BDE8104073
:101AF0000148FFF7B5BF00BFB46D000803F0ECBCB0
:101B00000B4A0C4B0C4830B41A60C2F1005303F579
:101B10004053B3F5E07F194628BF4FF4E071074DFD
:101B2000074C01605B1A1A442A60236030BC70477E
:101B30000C1F00204C160020DC090020E0090020CA
:101B40004816002000F038FEFFF7DAFF03480021B6
:101B500000F0D6FD00F02EFCFEE700009001002012
:101B6000024B4FF0FF31186800F060BDD80900202B
:101B7000014B186800F082BDD809002030B502780A
:101B80008C784368013AD2B213B19D78A54207D24E
:101B9000022A4B60416006D803B19960886030BD6D
:101BA00018465B68F0E700238B6030BD027843681D
:101BB000013A59684160022A4FF0000205D809B184
:101BC00088605A609A60184670475A60FBE70000C8
:101BD000034B5A684260002282605860704700BF21
:101BE000081E0020104BDA6810B58AB19A8ADC68AA
:101BF0008A420CD3C460D860C468036104B1206118
:101C0000521A92B28282998A8A1A9A8210BD3CB97B
:101C100000248A1AC460D86003619A82848210BD4D
:101C2000A38A1A442346E2E7201E00202DE9F04152
:101C3000174DEB6853B1AB8A164FDFF85C80013B60
:101C4000AB820026AA8A0AB9EC680CB9BDE8F0811B
:101C5000A36833B161685960616809B18B606260E3
:101C6000A66021463846FFF789FFA38AAB826378D6
:101C7000042B01BFD8F80030E28A9B18A38201230D
:101C80006370E368EB600BB11D61E6602661D9E724
:101C9000201E0020081E00209C1E002083682BB1FF
:101CA00042685A6042685AB193607047054B5A685F
:101CB000904202D142685A6070471346002AF6D11A
:101CC000704700BF081E002010B5846801462CB97B
:101CD0004378012B0DD1074C03E0A4682378002B37
:101CE000FBD00846FFF7DAFF2046BDE81040FFF7BB
:101CF00045BF10BD081E0020036910B563B1C2685E
:101D0000DA60C2684AB1998A848A2144998213614F
:101D10000023C3600023036110BD9A82FAE700002C
:101D200070B4114BDD78EFF31086EFF3108272B6CA
:101D30009A78954211D901329A701A78541CA542AA
:101D400008BF00241C7006B962B6954207D903EBA0
:101D5000C20370BC586099607047002EF4D0022016
:101D600070BCFFF7BDBE00BF8C180020054B1B7870
:101D700023B9054B4FF080521A607047034B012284
:101D80001A7070473412002004ED00E03512002074
:101D900038B51A4B1A4C186801234370FFF718FF27
:101DA0006578A3783BB917486570FFF7FFFEBDE87B
:101DB000384000F0DBBD04EBC503586802789AB9DF
:101DC000198900F01BFAE37801359D4208BF002510
:101DD000EFF31083EFF3108272B6A278013AA2708B
:101DE000002BDED162B6DCE7012A03D1996800F04E
:101DF00093F9E8E701F018F9E5E700BF541E002069
:101E00008C180020081E0020084B1A68084B1A6026
:101E100000225A60072243F8042C064A136843F054
:101E20007F4313604FF0FF30704700BF146E00080F
:101E300014E000E020ED00E07047000008B50B4B17
:101E4000186801234370FFF7C3FE00F00DFA084A3B
:101E5000136801331360FFF7E9FE00F00FFD05483A
:101E6000FFF7A4FEBDE8084000F080BD541E00202E
:101E70009C1E0020081E0020064B1A68136BD26AB5
:101E8000934203D81A68044B9A4202D00120FFF70C
:101E900027BE7047541E0020A52E5AE2836A9B0875
:101EA00004BF224B1B88F0B5056B08BF9B0805EBF0
:101EB0008302540748BF043A4FF0807602E942009B
:101EC000A2F14004A2F14406A2F10C074FF0000E6B
:101ED00046F804EFBE42FBD1C66942F8206C41636C
:101EE0001249C4620968C90017D5112B15D9103BD6
:101EF0006FF007015B084B43A3F138010A444FF030
:101F0000CC30214691420BD108331C44231F9D4203
:101F10003CBF4FF0CC3344F8043C054B2B60F0BD84
:101F200041F8040C41F8080DECE700BFFC6D000817
:101F3000A52E5AE290F82520C36A12B160331960C9
:101F400070472033FBE710B590F82540C36A1CB1F9
:101F5000603383E8060010BD2033FAE7002ABBBFD8
:101F600022F000420732033222F00702A8BF22F01B
:101F7000030210B5B4BF10230C2392B1D4188C42C5
:101F80000FD80144034454424160036082602144FD
:101F90009818814202D300510346F9E700201860E7
:101FA00010BD012010BDEFF3108372B6026803F07C
:101FB00001030AB11168016003B962B610467047A7
:101FC00081420DD3436899420AD2EFF3108372B66F
:101FD00002680A60016013F0010003D162B6704725
:101FE00001207047002070470123103903708908D1
:101FF0000023437083704360038143818381C181E7
:102000007047000070B5858904461646002D38D00B
:1020100043891A1D013350F822200A60C2899BB2FD
:102020009A42438104BF002343814368F3B143785C
:10203000022B1BD1FFF7BAFD00210546FFF77AFFFF
:102040002389E9691A1D013344F82210E2899BB201
:102050009A42238108BF0023284608BF2381FFF747
:102060004BFE284600F09CFC002070BDEFF3108072
:10207000EFF3108372B6013DA5810028F4D162B65A
:1020800070BD4AB14268094B42B11968FFF776FD4D
:102090000821304600F0A8FC012070BD1B68436099
:1020A0005A60986001234370F2E700BF541E00207D
:1020B000C2898089101A704708B5FFF731FEBDE864
:1020C0000840FFF753BE838910B504460BB343891C
:1020D000043350F823300B604378022B04D10021E5
:1020E000FFF71EFEFFF742FEEFF31083EFF31082BF
:1020F00072B6A289013AA28103B962B66389E28904
:1021000001339BB29A42638101D100236381042091
:1021100010BD184610BD0000436870B504460E4659
:10212000002B4BD04578022D20D0032D0AD0012D55
:1021300061D1FFF73BFD044632461021FFF703FF54
:1021400065700EE00846FFF72EFF0546002852D0C6
:102150002046FFF72BFD29460446FFF7EBFE01233F
:1021600063702046FFF7C8FD214622E0FFF71EFD01
:1021700000210546FFF7DEFE2389E9691A1D44F8B0
:102180002210EFF31082EFF3108172B6A1890131B2
:10219000A18102B962B6E28901339BB29A422381DE
:1021A00004BF0023238101236B702846FFF7A4FDA1
:1021B00029461148BDE87040FFF7E0BC8089E189FD
:1021C000884213D223891A1D44F82260EFF310824B
:1021D000EFF3108572B60130A08102B962B6013307
:1021E0009BB2994208BF0023238170BD0320BDE844
:1021F0007040FFF775BC70BD081E002010B5038B42
:1022000042781943062A04460183438B15D133EAE9
:10221000010219D121EA030121832046FFF76CFD59
:10222000012320466370628B0821FFF78CFE214654
:102230000648BDE81040FFF7A1BC052A04D111EA09
:10224000030201D04283E5E710BD00BF081E002055
:10225000034B00221A60034A1268DA80704700BFFD
:10226000401E0020F86D000808B50E4B5A680E4B52
:10227000196891420D4905D01A60DA880868013A58
:1022800002449A8098880A8890420AD10022054820
:102290001A60FFF78BFCBDE8084001460148FFF7D4
:1022A0006DBC08BD081E0020401E00209C1E0020A2
:1022B0000B4A136830B5002443B90360816013B141
:1022C0009D68691A996044B1206030BD9D68A9423B
:1022D000F3D31C46491B1B68EEE7106030BD00BFFE
:1022E000501E0020C0B1431C11D00C4B984211D895
:1022F0000B4B1B684FF47A715A1E01FB0020B0FB98
:10230000F3F34FF6FE70834206D898B270474FF64B
:10231000FF7070474FF6FE70704700BF00093D0028
:10232000B06D000838B1830704D10378002B18BFC3
:102330000020704700207047B0B50E4D287800AFE0
:10234000A8B90D4C236893F8241000F06FFB2368A4
:10235000DA78FF2A03D1DA6A203282F309886268C8
:102360000AB984E80C0000F019FD01232B7000204D
:10237000B0BD00BF4D1E0020541E0020014B187838
:10238000704700BF4D1E002010B5EFF3108434B924
:10239000EFF305841CB9EFF31484E40702D4034B74
:1023A000187810BDDFF808C000DF10BD4D1E0020FA
:1023B0007D23000890B589B000AFEFF31083002BA8
:1023C00037D1EFF30583002B33D1FFF7DDFF28B9B9
:1023D000194C246814B1646804B1A047EFF3148465
:1023E00004F00304022C18D0032C1CD0012C1ED0A6
:1023F00007F1200484F30988104C2478E40710D5F1
:10240000022484F31488BFF34F8FBFF36F8FDFF87C
:1024100030C000DF2437BD4690BD084C2478E40767
:10242000F5D40324EDE7054C2478E407EFD5FF202D
:10243000F0E78220EEE700BF3C1E0020DE6D0008C2
:102440003923000870B50B461646024610B9002421
:10245000204670BD00680028F9D0B2F90440E51CA0
:10246000ADB2062DF3D8D168C1B11269043444EA83
:10247000012100F019FB0028E9D00A4B0A4A013873
:1024800053F82040E36A5A63084B1B6843B19B68CA
:1024900033B13146E0789847E063D9E70A46E5E78B
:1024A000E663D5E7701800204D2600083C1E00208A
:1024B00008B500F0B3FA18B10138024B53F8200008
:1024C00008BD00BF7018002010B5FFF72BFF0446B1
:1024D00070B1084B1B681BB1DB680BB1C06B984730
:1024E000E07800F037FBFF280CBF8120002010BDF2
:1024F000802010BD3C1E002008B528B1FFF7F2FE79
:1025000000F08EFD402008BD08BD000010B5EFF3BF
:10251000108434B9EFF305841CB9DFF80CC000DF78
:1025200010BD822010BD0000F9240008830705D1EA
:1025300038B1436901691B68184670470023194682
:10254000FAE70346FBE7000010B504460846DFF84B
:102550000CC000DF84E80300204610BD2D250008D4
:1025600010B548B1046824B1237823B9204600F09F
:102570005BFC204610BD002010BD70B510F00304B8
:1025800005460E4611D180B10378032B0DD10846C4
:10259000FFF7A8FE0146284600F014FD012806D1E9
:1025A000002E14BFC120812070BD802070BD204648
:1025B00070BD820708B50AD148B10378032B06D154
:1025C00000F090FCFF280CBF8120002008BD802077
:1025D00008BD10B510F0030407D130B10378032B08
:1025E00003D100F029FC204610BD802010BD000062
:1025F00070B50546EFF3108494B9EFF305867EB904
:10260000EFF31484E40706D4064C24781CB9BDE823
:102610007040FFF7A5BF2846DFF80CC000DF70BD93
:10262000002070BD4D1E00206125000810B5EFF39D
:10263000108434B9EFF305841CB9DFF80CC000DF57
:1026400010BD822010BD00007B250008084808B599
:102650004FF0FF310068FFF7E9FFDFF818C000DF37
:102660000446FFF74BFA2046DFF80CC000DFFEE718
:10267000481E0020B1240008C924000810B5EFF35B
:10268000108434B9EFF305841CB9DFF80CC000DF07
:1026900010BD822010BD0000B32500082DE9F041D7
:1026A00080460F461646EFF3108404BBEFF3058314
:1026B000D3B9EFF31483DB0706D40E4B1B781BB999
:1026C000BDE8F041FFF7BEBE0B4D4FF0FF3128686B
:1026D000FFF7ACFF404639463246DFF820C000DF46
:1026E00004462868FFF7CAFF2046BDE8F0810024B1
:1026F000FAE700BF4D1E0020481E002045240008B8
:102700000022FFF7CBBF000010B5EFF3108434B9FF
:10271000EFF305841CB9DFF80CC000DF10BD822088
:1027200010BD0000D325000810B5044660B1016853
:1027300051B1406848B1037833B90431890089B296
:10274000FFF752FC606810BD002010BD38B5114C79
:1027500023780BB900F0A8FA0F4B25781B68FF22ED
:102760009A708DB929460D48FFF7DEFF0C4B2A46BB
:10277000186029460B48FFF765FE0B4B18600B48A5
:10278000FFF736FF0A4B186001232370094B002026
:10279000187038BD4C1E0020541E0020E46D000847
:1027A00010190020006E0008041E0020186E00089A
:1027B000481E00204D1E002010B5EFF3108474B9A0
:1027C000EFF305845CB9EFF31484E40703D4BDE8A8
:1027D0001040FFF7BBBFDFF80CC000DF10BD822048
:1027E00010BD00004D2700082DE9FF410C46804632
:1027F00018B30378012B25D10846FFF773FD02A912
:1028000002464046FFF7FEFB012811D10020002CB4
:102810000246034618BF4020029904460D4616465C
:102820001F462046294632463B4604B0BDE8F081AB
:102830000020024603461020EEE7802405460646A7
:102840000746EEE7002580242E462F46E9E770B5BF
:102850000E461446054660B15AB90378012B08D1DB
:10286000FFF726FC38B128463146FFF725FC204605
:1028700070BD802070BD812070BD0000F8B5114E84
:1028800034682CB1A368104F013BA360A26802B169
:10289000F8BD2568386835602146FFF7D8FF10B1CC
:1028A0000420FFF71DF96379012B07D1E168204669
:1028B000FFF7FEFC002DEBD02C46E7E70123237148
:1028C000F8E700BF501E0020101900207FB5044615
:1028D0001646084601B122B180232360204604B089
:1028E00070BD0B78012BF7D102A9FFF7ECFB042890
:1028F00008BF102301AD14BF0196019395E80700AE
:1029000084E80700EAE7000038B504461546EFF30F
:10291000108010B9EFF3058028B12A462046FFF752
:10292000D5FF204638BD08461146DFF80CC000DF51
:1029300084E80700F5E70000E92700087FB50A4CA6
:1029400021684FF0FF3203A8FFF7DEFF039B102B37
:10295000F6D1049901A8FFF7F7FD019B002BEFD0FA
:1029600002989847ECE700BF10190020054B58600B
:1029700002234370044B1B681BB11B690BB1C06B76
:1029800018477047541E00203C1E002008B503481D
:10299000FFF70CF9BDE80840FFF7E8BF081E00206C
:1029A00070B5044618B9BDE87040FFF7EFBF0C4E94
:1029B000A278306883789A424FF0010508D9FFF772
:1029C00007F933685D702046BDE87040FFF7CEBF61
:1029D000657021460348BDE87040FFF7CFB800BFDF
:1029E000541E0020081E002038B50D46014680B157
:1029F0004FF6FF739842074C02D02068FFF7F2F8B9
:102A0000236805485D70FFF7D1F8BDE83840FFF74F
:102A1000ADBF38BD541E0020081E0020024B1868B0
:102A200000B1C078704700BF541E002010B5A8B98F
:102A3000194B1B68997083F82410184843689B78D9
:102A40008B4201D8002010BD134C2168FFF796F887
:102A5000236801225A70FFF799FFF3E7104B1B8898
:102A6000984217D801380F4B53F8204094B10A4BC5
:102A7000A1701B6884F824109C42DED02046FFF72A
:102A800023F96378012BDDD10448FFF78FF8FFF7B6
:102A900087FFD7E7FF2010BD541E0020081E00202E
:102AA000E06D0008701800202DE9F04711F0FF0FCD
:102AB0000D468046234816469A4608BF0135FFF763
:102AC00072FA044620B94FF000094846BDE8F08785
:102AD0001D4B06631B881D4E280AA06200218B42F5
:102AE00001F10109EFD006EB89020F4652F8042CE0
:102AF0004946002AF3D1EDB2012384F80390C4F8CB
:102B00001CA0C4F838A022706370A57084F824500B
:102B10006260A260E26022612262A282E28222837B
:102B2000628384F8252018B90948FFF73CFA20632E
:102B300020464146FFF7B2F9204646F82740FFF706
:102B40002FFFC2E7381C0020E06D0008701800203D
:102B5000601600202DE9F84F4D4D18B12B68DB7839
:102B6000984241D12C68DFF83C810023637002F069
:102B7000E6FCE062FFF780F92B681C6A0127A4B924
:102B80002A684449D3784448013B41F82340116BFB
:102B9000FFF716FA296841480C63FFF711FA2C6019
:102BA000FFF7F4FE2046BDE8F88F6368B3B1204616
:102BB000FEF7FCFF00210646FFF7BCF93046FFF7A1
:102BC0009BF8777031464046FEF7D8FFE368326ADB
:102BD0006780A660E26034621C46D0E7E2686380EA
:102BE000A360E3601446CAE72D4B1B8898424DD87A
:102BF000284B471E994653F82760002E46D0304692
:102C0000FFF74CF83046FFF777F8DFF898B0346AF2
:102C10004FF0010AB4B9316B1F4849F82740FFF75C
:102C2000CFF9314634631D48FFF7CAF91D482968BA
:102C300043689A788B789A42B4D901234B70FEF797
:102C40009DFFADE76368DBB12046FEF7AFFF0021D3
:102C50008046FFF76FF94046FFF74EF888F801A06D
:102C600041465846FEF78AFFE368D8F82020A4F8CA
:102C700002A0C4F80880E260C8F820401C46C9E7FA
:102C8000E2686380A360E3601446C3E7FF2489E73A
:102C9000541E00207018002060160020381C0020F0
:102CA000E06D0008081E002038B52C4B2C491A880E
:102CB0000023184693424DD32A4B2B4819882B4C9E
:102CC0004022FFF74BF92A4B2A481A882A4B42F038
:102CD00000421968FFF742F9284B1988284B08224F
:102CE0001868FFF73BF9FF230025E3702148A56230
:102CF000012363702570A57084F824506560A56079
:102D0000E56025612562A582E5822583658384F8D7
:102D10002550FFF748F91B4920632046FFF7BEF80E
:102D2000194B04221A705D60184B1A70DD601D612A
:102D30009D82174B20461C6002236370FFF716FE2E
:102D4000144A154B12781D705D70DA70BDE838407A
:102D5000FFF77EBA41F823000133ABE7E06D0008CE
:102D600070180020AC6D0008381C00205C1E00208C
:102D7000FC6D000860160020A86D0008AE6D00080C
:102D8000D4090020DD1A0008081E0020201E0020A3
:102D9000541E0020DD6D00088C18002008B51E4B65
:102DA0001A6842F47F021A601B681B0203F07F431B
:102DB000DB43B3FA83F3194A194812680168DBB29E
:102DC000C3F10803C2F30222934298BF531C6FF071
:102DD000807202FA03F303F07F4321F07F42134332
:102DE0000360FFF711F80F4B0028186012DB00F1A9
:102DF000604000F56440FF2202701A6853099B008E
:102E000003F1604303F5614302F01F02012101FA5F
:102E100002F21A6008BD00BF20ED00E00CED00E0FA
:102E20001CED00E0381E00200323037000234380C4
:102E300043608360C3607047F8B5438804469BB124
:102E40008068036A9C4228D1E368036290F82430CA
:102E5000026A52BB82789A4206D083701F4B1B686D
:102E6000984201D0FEF730FF1D4F0126656825BB53
:102E70001B4843686BB1194E9A7831688B789A4237
:102E800007D9FEF77BFE336801225A702846FFF708
:102E900087FD00202070F8BD1346002BD6D0DA68DD
:102EA0009442F9D1E268DA60D0E7516819B18978C3
:102EB0008B4238BF0B46D268CBE72046FEF776FE42
:102EC00000210546FFF736F82846FEF715FF6E701D
:102ED00029463846FEF752FEC8E700BF541E0020C0
:102EE000081E00202DE9F84343880546002B63D0D7
:102EF000324F81683A6891425ED1013B9BB2438078
:102F00001BB100242046BDE8F8830B6A984229D102
:102F1000C3680B6291F824300C6A5CBB8B706A68E2
:102F2000DFF89C80002A3BD02846FEF73FFE214672
:102F30000646FEF7FFFF3046FEF7DEFE336AEB6023
:102F40004FF001093968D8F80430A5F80290AE6056
:102F500035628A789B789A4214D33046FFF720FD79
:102F6000D0E71346002BD5D0DA689542F9D1EA684C
:102F7000DA60CFE762681AB19278934238BF13469D
:102F8000E468CAE74046FEF7F9FD31464046FEF7E1
:102F9000F5FD3B6883F8019086F801902046DDE757
:102FA000D8F8042092789A42ABD94046FEF7E6FD65
:102FB0003B6801225A70F1E7FF24A3E7541E00206A
:102FC000081E0020438870B504460E46134D43B9D1
:102FD0002A688260116AC160106201336380002038
:102FE00070BD80682A689042F7D081B1937882786A
:102FF0009A4202D28370FEF767FE62684AB129687E
:103000002046FEF7BBFD09213046FFF7EDFC01200D
:1030100070BD2B6863605A609C60F4E7541E00200A
:103020000321FFF7E1BC0000426810B57AB1FEF75A
:10303000BDFD0446FEF760FE012161702046FEF7EB
:1030400079FF21460448BDE81040FEF797BD42884D
:103050000132428010BD00BF081E002070B5134C25
:1030600023681A69950707D5DA68900704D56FF0C9
:1030700002021A61FEF74CFC23681A69510713D546
:10308000DA68520710D56FF00402094E1A615D6AC2
:103090003368EB1AB3F57A7F06D301F057FB236848
:1030A00005F57A729A63356070BD00BFA01E0020DE
:1030B0004812002030B589B001A903A801F014FB23
:1030C00001F0E2FA244B0190DA69244C42F001024B
:1030D000DA61DA6902F001020292029A1A6942F098
:1030E00001021A611A6922F001021A61069A4FF070
:1030F000804323604FF0FF33E360194B4ABBB0FBC2
:10310000F3F001380025606014482561A560656111
:1031100001F07EFC13491C2000F020FF124B0F48E9
:103120004FF080521A60294601F0BAFC04210B4886
:1031300001F0B6FC23680D4A596A1160126802F565
:103140007A729A63DA68284642F00402DA6009B0BB
:1031500030BD4000D3E700BF00100240A01E002099
:1031600040420F005D30000800E100E048120020FE
:103170004FF08043034A1360DA6822F00402DA60F9
:10318000704700BFA01E00204FF08043034A136029
:10319000DA6842F00402DA60704700BFA01E002027
:1031A0007FB5052843D8DFE800F003121E2A423617
:1031B000214B5A6942F400325A615B6903F40033CF
:1031C0000193019B4FF0904007B05DF804FB1A4B50
:1031D0001A485A6942F480225A615B6903F48023D9
:1031E0000293029BF0E7144B15485A6942F40022FF
:1031F0005A615B6903F400230393039BE4E70E4BDE
:1032000010485A6942F480125A615B6903F48013D2
:103210000493049BD8E7084B0B485A6942F4800298
:103220005A615B6903F480030593059BCCE707486B
:10323000FEF716FC0020C7E700100240000400481B
:1032400000080048000C0048001400481C6E0008EC
:1032500010B50021044604F00F0400F033FB0120F8
:10326000A04010BD70B504464B1C0E46218218D0FC
:10327000C1F30310FFF794FF05463046FFF7E8FF60
:10328000238A084A656103F00F03206052F8233057
:10329000A36105F11003636005F118032835A360ED
:1032A000E56070BD0C6F0008B0F9100000F08CBB39
:1032B00010B58369446971B9216893FAA3F2B2FA2F
:1032C00082F20320520000FA02F221EA020293FA8B
:1032D000A3F3226010BD226893FAA3F1B1FA81F141
:1032E00093FAA3F30320490000FA01F1B3FA83F340
:1032F00022EA01025B00012101FA03F31343236078
:1033000010BD08B5FFF734FF0121002000F046FE94
:10331000BDE80840FFF738BF384B5A692DE9F04146
:10332000374CD20723602AD59868364F9968364EB5
:103330009A68364D3840B84201EA060104BF0127B9
:103340009F60B14208BF2D4B02EA050204BF4FF453
:1033500080769E60AA4202BF284B4FF480359D6064
:10336000284B984205D0284B994202D0274B9A42CD
:1033700005D1274B274A1B6810680121984723680D
:10338000DA685B69970707D09E0705D5204B214A6D
:103390001B68106800219847236899695A695B691E
:1033A0008D0709D5900507D5190405D5184B194A7D
:1033B0001B6810680521984722689669556952690B
:1033C00016F0040605F4806508D03DB1120405D559
:1033D0000F4B104A1B6810680721984723685B69E8
:1033E00056B14DB11B0407D5094B0A4A1B6810683A
:1033F0000221BDE8F0411847BDE8F08100640040BB
:103400004C12002003000004000300080000031019
:10341000901200208C120020FFF77EBFFFF77CBFC8
:10342000034B19604168034B43F82120704700BFEC
:10343000901200208C1200200268536923F4064386
:1034400023F013035361024B002143F8221070470D
:103450008C1200200268094B9A420DD103F5D63335
:103460001A6942F000721A611A6922F000721A6138
:10347000DA6922F00072DA61704700BF0064004030
:10348000F8B50D46044601F0FFF81823B0FBF5F03F
:103490001921B0FBF3F386089BB2B34215D34FF06A
:1034A000FF33002B22681CDD116841F0010111601F
:1034B0005168C907FCD5D361136823F00103136079
:1034C0005368DB07FCD40120F8BD01339BB2DF4316
:1034D00003FB01121625904205D0013D3A44FAD172
:1034E000DBE70020F8BD084901EBC50251F83510B3
:1034F00052680904120502F4E00201F470210A4343
:10350000C3F309031343CCE7546E000884B030B50D
:1035100004AC84E80E0004689DF81E20A3685801DE
:103520003AD4A3681B0139D4A06810F080502FD082
:10353000022000012318D3F8805105F00105C3F8DB
:1035400080519DF81D505DBBD3F8805142EA415136
:103550002943C3F88011D3F8841121F00F01C3F877
:1035600084119DF81C10D3F8842101F00F01114340
:103570002218C3F884110599C2F888110699C2F877
:103580008C11D3F8802142F00102C3F88021012080
:10359000BDE8304004B070470020CAE70120C8E70A
:1035A00042EAC101D3F8805141F00401D0E730B5BF
:1035B0000468E06810F003003AD01301E018D0F876
:1035C000B051C5F380054D739DBBD0F8B0516D0D62
:1035D0000D60D0F8B051D0F8B401234400F00F00D2
:1035E0000873D3F8B8010871D3F8B801000A48711C
:1035F000D3F8B801000C8871D3F8B801000EC87177
:10360000D3F8BC010872D3F8BC01000A4872D3F8A1
:10361000BC01000C8872D3F8BC31C5F340051B0E09
:103620008D73CB724AB9E36843F02003E360012055
:1036300030BDD0F8B051ED08CAE7236943F020034C
:103640002361F4E730B58BB0012B0E9C2BD80568B5
:1036500016480594056000200690012007909BB94C
:1036600049018DE80A00520102920393002304935A
:1036700001230893694604F10E030C48099301F0F5
:1036800085F820460BB030BD4B0B0093C900530B9F
:10369000D200C9B2D2B241F0040142F00402019159
:1036A00002930392E2E70020ECE700BF4C120020F7
:1036B000F0B50E4685B004462F4930461546FEF754
:1036C0008FF92E4907462846FEF78AF90146384603
:1036D000FEF768F92A4B206098424BD103F5D633A8
:1036E0002549DA6942F00072DA61DB6903F00073A0
:1036F0000393039B002363603046FEF735F91F49AF
:103700002846FEF731F9721C03D00121304600F043
:103710005BF96B1C03D00121284600F055F91948CC
:103720002368036000238361C36103624362836291
:10373000C3628360C3604FF4A02303614FF4E003CE
:1037400043610223436001F082F810B10E48FEF796
:1037500087F90E492046FFF793FE094A23689342F2
:1037600014BF0E230023009300231A461946204657
:10377000FFF768FF05B0F0BD646F00087C6F0008BC
:10378000006400404C1200203D6E0008A08601003D
:10379000194B0068984210B5184616D1072914D85D
:1037A000DFE801F004141813131D13211349022339
:1037B0001424E2B1426913434361204600F0CEFB7A
:1037C000012303FA04F40E4B1C6010BD0D490123C4
:1037D0001324EEE70C494FF400431624E9E70A49A5
:1037E0004FF40073F9E708494FF48063F5E7426945
:1037F00022EA0303E0E700BF006400401D34000834
:1038000000E100E01934000819330008054B18687E
:1038100038B901221A60044B4FF080421A60FFF75A
:1038200049BC704794120020A01E002008B5044B2C
:103830001B680BB9FFF7EAFF4FF08043586A08BDD9
:10384000941200204FF08043034A13605863DA68F3
:1038500042F00202DA607047A01E00204FF0804361
:10386000034A1360DA6822F00202DA60704700BF90
:10387000A01E0020034A4FF0804313606FF0020245
:103880001A617047A01E002030B5C36891FAA1F4F8
:10389000B4FA84F491FAA1F10325B1FA81F164003C
:1038A00005FA04F4490023EA040302FA01F119437A
:1038B000C16030BD012A02D0022A18BF0022FFF7E2
:1038C000E3BF00002DE9F0413E4B00F00F08C0F3CC
:1038D00003100E4601F0070553F82840FFF760FC7F
:1038E000826894FAA4F3B3FA83F394FAA4F1032759
:1038F0005B00B1FA81F107FA03F322EA03034A00FD
:1039000007FA02F21343022D836028D0BD4241D052
:10391000012D3FD00023026894FAA4F7B7FA87F785
:1039200094FAA4F14FF0030EB1FA81F17F000EFA80
:1039300007F7490022EA07028B40013D1343012D9E
:10394000036005D8436832074CBF2343A343436059
:10395000C6F301122146BDE8F041FFF7ABBFB8F155
:10396000070FC6F3032717D9426A230A93FAA3F174
:10397000B1FA81F193FAA3F34FF00F0EB3FA83F388
:1039800089000EFA01F19B0022EA010207FA03F313
:10399000134343622B46BEE7026A94FAA4F3B3FAD8
:1039A00083F394FAA4F14FF00F0EB1FA81F19B006A
:1039B0000EFA03F3890022EA030207FA01F3134324
:1039C0000362E7E70C6F000800F00F021C4B70B5B4
:1039D000C0F303100D4653F82240FFF7E1FB0668E1
:1039E00094FAA4F1B1FA81F394FAA4F259000323F2
:1039F000B2FA82F28B4033405200D340013B012B9C
:103A000005D8EB1E022B436809D823434360032DDE
:103A100008D101222146BDE87040FFF74BBF23EAE1
:103A200004034360012DF4D0052D01D0022D01D1F6
:103A30000222EFE721460022BDE87040FFF724BFD5
:103A40000C6F00084368184970225A4310B58B1850
:103A500004688C5082685A60C2689A600269DA60B1
:103A600042691A61C2699A610022A3F85220A3F840
:103A70005020A3F85A20A3F85820B0F91A20013298
:103A80000AD108225A61184601F06BF958B107486B
:103A9000BDE81040FDF7E4BFB0F9182001320CBFBB
:103AA00004220C22EEE710BDB41200204C6F000877
:103AB000F7B51C4F054657F8200000282FD0702678
:103AC000194C6E43A359DA69520609D51B68590689
:103AD00006D5164B01211B689847A35940221A624C
:103AE00070266E43A359DA6992060DD51B689806B5
:103AF0000AD50E4B57F825001B6800219847A3599B
:103B00009B8C9BB20193019B70235D436359DA69DF
:103B1000110704D59A68D20744BF08221A6203B07D
:103B2000F0BD00BF9C120020B412002098120020AB
:103B30000020FFF7BDBF0120FFF7BABF0220FFF74B
:103B4000B7BF0000F0B50E4685B00446494930467F
:103B50001546FDF745FF484907462846FDF740FF53
:103B600001463846FDF71EFF444B2060984251D174
:103B700003F55843DA6842F48042DA60DA6822F4E6
:103B80008042DA609A6942F480429A619A6902F44A
:103B900080420192019A1A6B22F0030242F0010264
:103BA0001A630023636033493046FDF7DDFE324976
:103BB0002846FDF7D9FE721C03D001213046FFF7DD
:103BC00003FF6B1C03D001212846FFF7FDFE4FF4D5
:103BD0001653A3600023E36023616361E3612683DE
:103BE00065832046FFF72EFF2268254B9A420FD1AE
:103BF000244B01221A60244B04F1200520686168DF
:103C00001A4603C20834AC421346F7D1206810604C
:103C100005B0F0BD1A4B984214D103F5E6331A698A
:103C200042F400321A611A6922F400321A61DA6928
:103C300042F40032DA61DB6903F400330293029B41
:103C40000123AFE7114B9842ADD103F5E4331A6974
:103C500042F480221A611A6922F480221A61DA6918
:103C600042F48022DA61DB6903F480230393039B2F
:103C7000022397E7DC6F0008946F000800380140CA
:103C800000440040B0120020E01E00200048004028
:103C90008160FFF7D7BE0000034B19604168034BFA
:103CA00043F82120704700BF981200209C1200208A
:103CB00070B590E828000E4625498B4218D1254959
:103CC0002524702324486B431AB3C2581368EEB9F5
:103CD00043F020031360204600F040F962090123FD
:103CE00004F0070403FA04F41C4B43F8224070BDAF
:103CF0001B498B4202D11B492624E2E71A498B4219
:103D000013BF0021194927240C46DAE743F040038A
:103D1000E0E7C3581A6836B922F020021A601B681F
:103D20001A0606D570BD22F040021A601B689B0679
:103D30000DD46309012204F0070402FA04F42033CD
:103D4000064A42F82340BFF34F8FBFF36F8F70BD19
:103D500000380140313B0008B412002000E100E0CF
:103D600000440040373B0008004800403D3B00084D
:103D7000426870235343034AD358D869C0F34010B4
:103D8000704700BFB412002010B5446801460846D1
:103D9000FFF7EEFF0028FAD07023054AC968634395
:103DA000D358988C09B9C0B210BDC0F3080010BD3B
:103DB000B4120020426870235343034AD358D86991
:103DC000C0F3C010704700BFB412002038B545687A
:103DD00004462046FFF7EEFF0028FAD07023054A7C
:103DE000E0686B43D35810B9C9B2198538BDC1F327
:103DF0000801FAE7B412002008B500F005F8BDE8A4
:103E0000084000F091BC0000144A1549536803F0C3
:103E10000C03042B10B501D0082B0AD0114B0B60FA
:103E20005368114AC3F30313D25C0B68D3400B6091
:103E300010BD53685068C00349BFD06A0B48094C95
:103E400000F00F00C3F3834348BF013003F10203C6
:103E500048BFB4FBF0F04343E1E700BF001002406D
:103E6000A401002000127A002470000800093D001F
:103E700030B591B00323069301230A931023002445
:103E80000B9302254FF4601306A807940D950E942A
:103E90000F9300F093F880B90F23019303904FF430
:103EA00080630590294601A80295049300F02AFB3F
:103EB000B0FA80F0400911B030BD2046FBE708B5EC
:103EC000FFF7D6FF00B9FEE708BD00001D4AD2F893
:103ED000883010B543F470031B4CC2F88830236857
:103EE00043F0010323606168184B0B406360236853
:103EF00023F0847323F480332360236823F4802326
:103F00002360636823F4FE036360E36A23F00F0316
:103F1000E362216B0E4B0B4023630023A3604FF041
:103F2000006393600B4B0C4A1A6000F0FDFBFFF737
:103F3000C6FF236943F001032361236923F00103D2
:103F4000236110BD00ED00E0001002400CC07FF8BE
:103F5000CCFC00FFA401002000127A0030B50C4C0C
:103F6000A268A468B4F1006F13460CD1131F094C6A
:103F7000094A53F8045F42F8045FA242F9D1044AA7
:103F80004FF000539360103043F8201030BD00BF55
:103F900000ED00E084010020FCFFFF1F064A1369CA
:103FA000012923F00403136101D130BF704740BFE2
:103FB00020BF20BF704700BF00ED00E00368DA07B4
:103FC0002DE9F347054611D42B689B0700F1888043
:103FD0002B681C0700F1F8802B68580700F141811D
:103FE000EA69002A40F0D781002021E0BA4C6368DA
:103FF00003F00C03042B07D0636803F00C03082BB9
:1040000019D16368DF0316D54FF4003393FAA3F296
:10401000216893FAA3F3B3FA83F303F01F03012299
:1040200002FA03F30B42CFD06B68002BCCD10120F6
:1040300002B0BDE8F0876A68B2F5803F25D12368F9
:1040400043F480332360E36AA96823F00F030B4332
:10405000E36252B300F082FB4FF400368046012742
:1040600096FAA6F3226896FAA6F3B3FA83F303F05E
:104070001F0307FA03F31342A6D100F06FFBA0EB76
:1040800008006428ECD90320D2E7236832B923F46E
:1040900080332360236823F48023D3E7B2F5A02F75
:1040A000F5D143F480232360C9E700F057FB4FF4B8
:1040B00000368046012796FAA6F3226896FAA6F300
:1040C000B3FA83F303F01F0307FA03F313423FF439
:1040D0007BAF00F043FBA0EB08006428EBD9D2E7EC
:1040E0007D4C636813F00C0F07D0636803F00C037A
:1040F000082B21D16368DE031ED4022393FAA3F2B6
:10410000216893FAA3F3B3FA83F303F01F030122A8
:1041100002FA03F30B4202D02B69934287D1216844
:10412000F82393FAA3F3B3FA83F26B69934021F077
:10413000F802134323604BE72A6901260AB396FA73
:10414000A6F3B3FA83F303F1845303F584139B00BE
:1041500002271E6000F002FB804697FAA7F3226850
:1041600097FAA7F3B3FA83F303F01F0306FA03F3F6
:104170001342D4D100F0F2FAA0EB08000228ECD9E7
:1041800081E796FAA6F3B3FA83F303F1845303F5B8
:1041900084139B0002271A6000F0E0FA804697FA29
:1041A000A7F3226897FAA7F3B3FA83F303F01F0388
:1041B00006FA03F313423FF40BAF00F0CFFAA0EB83
:1041C00008000228EBD95EE7AA69434E434901245F
:1041D0001AB394FAA4F3B3FA83F30B449B000227B7
:1041E0001C6000F0BBFA804697FAA7F397FAA7F392
:1041F00097FAA7F3726A97FAA7F3B3FA83F303F077
:104200001F0304FA03F313427FF4E6AE00F0A6FAAC
:10421000A0EB08000228E7D935E794FAA4F3B3FA33
:1042200083F30B449B0002271A6000F097FA804644
:1042300097FAA7F397FAA7F397FAA7F3726A97FA90
:10424000A7F3B3FA83F303F01F0304FA03F3134253
:104250003FF4C2AE00F082FAA0EB08000228E7D9D2
:1042600011E71D4CE369D90034D4E36943F080536E
:10427000E361E36903F080530193019B0126184F2A
:104280003B68DA052ED5EB68012B3CD1236A43F05D
:104290000103236200F062FA02278246B9464FF01A
:1042A000010897FAA7F397FAA7F3002B6BD0226ABD
:1042B00099FAA9F3B3FA83F303F01F0308FA03F39F
:1042C000134257D0002E3FF48BAEE36923F08053A6
:1042D000E36185E60026D2E70010024020819010BD
:1042E000007000403B6843F480733B6000F036FA96
:1042F00080463B68DB05C6D400F030FAA0EB08002E
:104300006428F6D9BFE63BBB236A23F0010323628E
:10431000236A23F00403236200F020FA0227824676
:10432000B9464FF0010897FAA7F397FAA7F373B3CA
:10433000226A99FAA9F3B3FA83F303F01F0308FA88
:1043400003F31342BED000F009FA41F28833A0EB28
:104350000A009842E7D996E6052B236A03D143F079
:104360000403236292E723F001032362236A23F00C
:1043700004038EE700F0F2F941F28833A0EB0A0063
:1043800098428ED97FE697FAA7F3626A90E797FA88
:10439000A7F3626ACDE7414C636803F00C03082B76
:1043A0003FF445AE022A4FF0807352D193FAA3F343
:1043B000B3FA83F303F1845303F584139B000022C3
:1043C0001A6000F0CBF94FF000778046012697FA8B
:1043D000A7F3226897FAA7F3B3FA83F303F01F0356
:1043E00006FA03F313422DD162686B6A296A22F43C
:1043F00074120B43134363604FF0807393FAA3F37B
:10440000B3FA83F303F1845303F584139B004FF055
:1044100000751E6000F0A2F90126074695FAA5F383
:10442000226895FAA5F3B3FA83F303F01F0306FAA3
:1044300003F313427FF4D8AD00F090F9C01B0228BB
:10444000ECD920E600F08AF9A0EB08000228BED9DA
:1044500019E693FAA3F3B3FA83F303F1845303F554
:1044600084139B0000221A6000F078F94FF0007569
:104470000746012695FAA5F3226895FAA5F3B3FA43
:1044800083F303F01F0306FA03F313423FF4ACADCA
:1044900000F064F9C01B0228ECD9F4E500100240DA
:1044A00010B5134C616801F00C03082B1ED14FF4BA
:1044B000701393FAA3F301F47012B3FA83F322FAA0
:1044C00003F30C4AD05CE36A0F2292FAA2F2B2FA2A
:1044D00082F203F00F03D340074AD25CCB034ABFFA
:1044E000064B074BB3FBF2F3584310BD034810BD16
:1044F000001002403C7000084C70000800127A0066
:1045000000093D005C4A136803F007038B422DE964
:10451000F04106460D4630D3326891073AD4D207AF
:1045200040D4554A136803F007039D42C0F09280BF
:104530003268524C12F0040F40F09780130706D5F2
:104540006368326923F4605343EAC2036360FFF790
:10455000A7FF6368F02292FAA2F2B2FA82F203F0A5
:10456000F003D340464AD35CD840464B18600F2036
:10457000FEF7A0FD0020BDE8F081136823F00703DB
:104580000B431360136803F007039942C4D0012062
:10459000BDE8F0813949B0684B6823F0F00303436C
:1045A0004B60BCE77268354C012A28D14FF40033C8
:1045B00093FAA3F1216893FAA3F3B3FA83F303F018
:1045C0001F0302FA03F30B42E1D0636823F00303F5
:1045D0001A43626000F0C2F87368012B074641F28B
:1045E00088381FD1636803F00C03042B99D000F0C6
:1045F000B5F8C01B4045F5D90320BDE8F081022A7B
:104600000CBF4FF00073022393FAA3F1206893FAD2
:10461000A3F3B3FA83F303F01F03012101FA03F3B9
:104620000342D1E7022B10D1636803F00C03082B7F
:104630003FF477AF00F092F8C01B4045F4D9DBE7B8
:1046400000F08CF8C01B4045D6D8636813F00C0FFF
:10465000F6D166E7136823F007032B431360136852
:1046600003F007039D4292D162E76368F16823F487
:10467000E0630B43636061E70020024000100240EA
:1046800024700008A4010020084B4FF4E0625B682E
:1046900092FAA2F2B2FA82F203F4E063D340044A3F
:1046A000D35C044A1068D840704700BF0010024035
:1046B00034700008A4010020084B4FF460525B687E
:1046C00092FAA2F2B2FA82F203F46053D340044A9F
:1046D000D35C044A1068D840704700BF0010024005
:1046E00034700008A40100200F2303600B4B5A68AC
:1046F00002F0030242605A6802F0F00282605A68D7
:1047000002F4E062C2605B68DB0803F4E06303610B
:10471000034B1B6803F007030B6070470010024057
:104720000020024070470000074A08B5136843F0B4
:1047300010031360032000F017F80F20FEF7BAFCF7
:10474000FFF7F0FF002008BD00200240024A136876
:1047500001331360704700BF041F0020014B18682D
:10476000704700BF041F0020074AD36823F4E063AA
:104770001B041B0C43F0BF63000243F4003300F43E
:10478000E0600343D360704700ED00E00368D3F8B6
:10479000000270B540F001004C69C3F8000201222C
:1047A000D3F81C52A240D0430540C3F81C52CD6937
:1047B00085BBD3F80C52CE680540C3F80C528D88E7
:1047C00003EBC40445EA0645C4F840528E680D88E0
:1047D00045EA0645C4F844528C696CBBD3F80442E0
:1047E0000440C3F804420C6954BBD3F8144220407F
:1047F000C3F81402096A012902BFD3F81C120A4344
:10480000C3F81C22D3F8002222F00102C3F80022D0
:10481000002070BD012DDFD1D3F80C520E68154376
:10482000C3F80C528D8803EBC40445EA0645C4F86E
:1048300040528E688D89CBE7D3F804421443D0E709
:10484000012CD7D1D3F814021043D1E7704770B5CB
:104850000446002872D090F8393003F0FF021BB9EB
:1048600080F83820FFF7F2FF022384F839302368FC
:104870001A6822F002021A601A6842F001021A60F5
:10488000FFF76CFF064623685D6815F0010557D0F9
:104890005A68D1074FD5A269012A1A680CBF42F0A5
:1048A000800222F080021A60E269012A1A680CBFB5
:1048B00042F0400222F040021A60226A012A1A687D
:1048C0000CBF42F0200222F020021A60626A012A24
:1048D0001A680CBF42F0100222F010021A60A26A9D
:1048E000012A1A680CBF42F0080222F008021A607E
:1048F000E26A012A1A680CBF42F0040222F00402A4
:104900001A60E168A2680A4321690A4361690A439F
:10491000616801390A43DA611A6822F001021A60FB
:10492000FFF71CFF054623685A68D20713D458685E
:1049300010F001001BD0042384F83930012070BD31
:10494000FFF70CFF801B0A289DD9032084F839004B
:1049500084F8385070BDFFF701FF401B0A28E2D9E8
:104960000320002384F8390084F8383070BD012317
:10497000E06384F8393070BD70470000214A036855
:10498000904210B505D0B0F1804F02D01E4CA0422D
:104990000CD14C6823F07003904243EA040310D01A
:1049A000B0F1804F0DD0184A90420AD0174A904279
:1049B00007D002F58062904203D002F580629042F7
:1049C00003D1CA6823F4407313434A6923F0800378
:1049D000134303608B68C3620B688362094B984280
:1049E0000BD003F5A053984207D003F5806398429B
:1049F00003D003F58063984201D10B69036301235F
:104A0000436110BD002C0140000400400040014003
:104A100010B50446A0B190F83D3003F0FF021BB979
:104A200080F83C20FFF7A8FF022384F83D3020687F
:104A3000211DFFF7A3FF012384F83D30002010BDA6
:104A4000012010BD036A10B501248C4023EA040341
:104A50000362036A8A401A43026210BD10B504461D
:104A600001220068FFF7EEFF23680C4A93420BD047
:104A700002F5A052934207D002F58062934203D020
:104A800002F58062934203D15A6C42F400425A64A8
:104A90001A6842F001021A60002010BD002C01408B
:104AA000FFF7DCBF7047000038B504460568216990
:104AB000A368C26928680B4361690B4349491343E2
:104AC00001400B432B606B68E168206A23F440537C
:104AD0000B436B60A968A36921F4306103430B4366
:104AE000AB60414B9D4212D103F558433F491B6BCC
:104AF00003F00303B2F5004FCB5C3BD1082B36D853
:104B0000DFE803F00F2124352D3535353000384BE3
:104B10009D4203D003F580639D425ED1B2F5004F04
:104B200031D1FFF7B1FD61684A0802EB4003B3FBE6
:104B3000F1F39BB2002023F00F022168C3F342037C
:104B40001343CB6038BDFFF7B7FDECE7606843085F
:104B500003F5740303F51053B3FBF0F3E9E7FFF734
:104B60009FFCE0E76068430803F58033F4E7012029
:104B70000023E0E7082B33D8DFE803F005101B32F1
:104B8000273232322A00FFF77FFD636800EB5300C3
:104B9000B0FBF3F080B2E860002038BDFFF78CFD79
:104BA000636800EB5300B0FBF3F00F4B80B2D860AA
:104BB000F2E76268530803F5F40303F59053B3FB7F
:104BC000F2F3094A9BB2D360E6E7FFF769FCE7E737
:104BD0006268530803F50043F1E7B2F5004FC6D011
:104BE000012038BDF369FFEF003801405C70000818
:104BF00000440040436ADA0710B506D50168846AAC
:104C00004A6822F4003222434A609C0706D50168B4
:104C1000C46A4A6822F4803222434A60590706D5A2
:104C20000168046B4A6822F4802222434A601A0712
:104C300006D50168446B4A6822F4004222434A6068
:104C4000DC0606D50168846B8A6822F48052224310
:104C50008A60990606D50168C46B8A6822F40052FE
:104C600022438A605A060FD50168046C4A6822F410
:104C700080122243B4F5801F4A6005D14A68446C13
:104C800022F4C00222434A601B0606D50268816CEA
:104C9000536823F400230B43536010BD2DE9F0410A
:104CA000069D04460F46164698462168CA6937EAAB
:104CB00002030CBF01220022B24202D00020BDE854
:104CC000F0816B1CF2D09DB923681A6822F4D0726F
:104CD0001A609A6822F001029A60202384F86930F1
:104CE00084F86A30002384F868300320BDE8F0813E
:104CF000FFF734FDA0EB08008542D6D2E4E773B598
:104D000004460026C666FFF729FD23681B681A07BC
:104D1000054617D423681B685B070AD56FF07E43EE
:104D2000009300222B464FF480012046FFF7B6FF88
:104D3000A0B92023002084F8693084F8680084F842
:104D40006A300CE06FF07E430093324603464FF426
:104D500000112046FFF7A2FF0028DBD0032002B09D
:104D600070BD10B5044660B390F8693003F0FF02DF
:104D70001BB980F86820FFF795FE2268242384F889
:104D80006930136823F0010313602046FFF78CFE9F
:104D9000012816D0636A13B12046FFF72BFF236862
:104DA0005A6822F490425A609A6822F02A029A6065
:104DB0001A6842F0010220461A60BDE81040FFF771
:104DC0009EBF012010BD10B50446FCF71FFE2368EE
:104DD0002BB9E068FCF7C5FD012360602360BDE8E6
:104DE0001040FCF729BE38B50546FCF70FFE2C68CD
:104DF00024B1E868FCF7B5FD6C68041BFCF71CFEE9
:104E0000204638BD38B50546FCF700FE2846AC689C
:104E1000FFF7E9FF0444FCF70FFE204638BD08B554
:104E2000FFF7F0FF4FF47A7390FBF3F008BD10B575
:104E30000446FCF7EBFDE068FCF793FD002360609F
:104E4000A360BDE81040FCF7F7BD002310B5036078
:104E5000436083600446FCF757FDE0602046FFF79F
:104E6000E6FF204610BD704710B5034B03600446B3
:104E7000FCF722FA204610BD6870000810B5044601
:104E8000FFF7F2FF204600F025FB204610BD000092
:104E900010B5044600F02AF9014B2360204610BDEE
:104EA00068700008704700EB011202F10C00936972
:104EB0001B6818474FF0FF319C3000F02FBB9C302F
:104EC00000F02FBB70B505460E4655F8043B9B68B5
:104ED0000446984731462846FEF7D2FA236805462D
:104EE000DB6820469847284670BD84B073B50646F7
:104EF00007AC84E80E0056F8043B9B6805469847CB
:104F0000002301930A9B009394E80E003046FEF7BD
:104F1000FDFA2B680446DB6828469847204602B015
:104F2000BDE8704004B07047F8B505460E4655F828
:104F3000043B17469B68044698473A463146284644
:104F4000FEF735FB23680546DB6820469847284670
:104F5000F8BD000070B504460D4B44F8043B05460F
:104F60002046FEF769FA204605F19C04FEF772FA26
:104F7000204600F0D9FA15F10C0606D0B44204D050
:104F8000103C2046FCF78FF9F8E7284670BD00BFBB
:104F90008070000810B50446FFF7DCFF204600F0E3
:104FA00099FA204610BD884238B504460D460AD00D
:104FB000FCF779F93CB1EB681BB15B6829462046E8
:104FC0009847EB68E360204638BD00002DE9FF47B5
:104FD0001A4B0360174600F10C03002204460E46EC
:104FE0004260826000F19C081D46DA601033434540
:104FF000FBD1404600F07AFADFF848A0DFF848908D
:1050000045450CD069462846CDF800A0CDF80C9057
:10501000FFF7C9FF6846FCF746F91035F0E7251D94
:105020003A4631462846FEF743FB284622460449C5
:10503000FEF7F6F9204604B0BDE8F087807000085E
:10504000A74E0008A54E0008346A00082DE9FF416C
:105050000546884655F8043B9B6804461646984723
:10506000D8F80C70300187B10C3041462044FFF76E
:105070009AFF012231462846FEF78AFB2368204624
:10508000DB68984704B0BDE8F081074B00930C3013
:10509000064B039369462044FFF785FF6846FCF7FB
:1050A00002F93A46E6E700BFA54E0008346A000858
:1050B00070477047704700EB011202F12800536BF4
:1050C0001B68184770B50546044655F8043B0E4664
:1050D0001B68984728463146FEF7DAFD2368A66428
:1050E00020465B68BDE87040184700002DE9F0439A
:1050F00005461E461B4B45F8043B85B004468846D2
:10510000914600212422284600F0F7FE0022626327
:1051100062646946A664144F144E009704F1280097
:105120000396FFF740FF6846FCF7BDF8694604F1B7
:10513000380000970396FFF736FF6846FCF7B3F890
:105140004A4641462846FEF7FDFCA16C2846FEF77C
:105150009FFD284622460649FEF79EFD204605B0E3
:10516000BDE8F08398700008B1500008346A000868
:10517000B75000082DE9FF410546884655F8043B25
:105180001B68044616469847FCF740FCD8F80C709C
:10519000300197B1283041462044FFF704FF012237
:1051A00031462846FEF784FDFCF746FC236820467E
:1051B0005B68984704B0BDE8F081074B0093283046
:1051C000064B039369462044FFF7EDFE6846FCF763
:1051D0006AF83A46E4E700BFB1500008346A0008B4
:1051E000C36810B504460BB19B689847204610BDB4
:1051F00038B5044648B15830A04206D0A0F12C057D
:105200001438FFF7EDFF2846F6E7204638BD0000CA
:1052100070B50E4C2046002528263246294640F817
:10522000045B00F06AFE3246294604F13000E56274
:1052300000F063FEA5652046E565054A84F86050E8
:105240000449BDE8704000F027B900BFE414002015
:1052500088010020F151000800F0A6BE00F002BF56
:1052600000F054BE70B50546FEF7E0FA4FF47A74CC
:1052700095FBF4F4002C064602DDFCF7C1FB28B9CF
:10528000FEF7D4FA801BA842FAD370BD204600F086
:105290002BF9F5E74FF47A735843FFF7E3BF0000AB
:1052A00008B5084B1B685BB9022107480F22FEF7BF
:1052B00049FC4FF416510448BDE80840FEF7E8BC2D
:1052C00008BD00BFB0120020E01E0020022810B56B
:1052D000044601DC002010BD00F0CEFB0923036072
:1052E000033C094B53F82400002243F8242040B12A
:1052F00003681B699847041EECDA00F0BDFB6442AA
:1053000004604FF0FF3010BD48150020F8B5054689
:105310000E46144600F0B0FB0923022D03600FDC9B
:10532000124B1B680BB9FFF7BBFF35463719104E00
:10533000BD4215D015F8011B3046FEF747FDF7E7D3
:10534000033D0C4B53F8250060B103682246DB682F
:1053500031469847041E03DA00F08EFB6342036077
:105360002046F8BD4FF0FF34FAE700BFB01200202E
:10537000E01E00204815002070B504460D46164674
:1053800000F07AFB0923022C03600BDC0F4B1B6837
:105390000BB9FFF785FF0E48FEF7F6FC01242870D5
:1053A000204670BD033C0B4B53F8240058B10368F2
:1053B00032469B6829469847041EF1DA00F05CFBF0
:1053C00063420360ECE74FF0FF34E9E7B0120020DE
:1053D000E01E00204815002070B504460D46164614
:1053E00000F04AFB0923022C03600BDD033C084B51
:1053F00053F8240040B1036832462946DB69BDE812
:1054000070401847002070BD4FF0FF3070BD00BFE6
:105410004815002008B5FEF7EFFCFCF793FB08BD2C
:10542000704708B5FFF7FCFFBDE80840FBF796BEE4
:105430000C4A136810B51844EFF30881884205D36D
:10544000094B0C221A604FF0FF3010BD07490C6861
:1054500024B10749096821448842F1D210601846F6
:1054600010BD00BFA8010020081F00204816002022
:105470004C160020074C08B523680546986800F0D4
:10548000B3FB2368D86800F0AFFB0DB1FCF7EDFA71
:10549000FEE700BFAC0100200120704708B5FFF710
:1054A000E9FF08B5FCF75CFB08BD08B5FCF760FB3D
:1054B00008BD000010B500F097FC044610B9024882
:1054C000FCF7CEFA204610BDA870000808B100F025
:1054D00093BC7047FFF7FABF024B1B6803B1184734
:1054E000704700BF50160020FDF710B838B500F126
:1054F0000805044610220021284600F0FEFC204644
:1055000040F8045FFDF774F8206010B90248FCF71A
:10551000A7FA204638BD00BFC77000080068FDF735
:1055200085B80068FDF7AAB810B504460068FDF715
:10553000EBF8204610BD000080F309887047EFF3B8
:1055400009807047684680F309885A480078C00788
:1055500014BF0220032080F314887047DFF858C17D
:10556000EFF305831B0618BF6047EFF31483DB07D7
:1055700008BF604700DF7047DFF840C1EFF30583E5
:105580001B0618BF6047EFF31483DB0708BF6047B3
:1055900000DF7047EFF30980816911F8021CE1BB5D
:1055A00090E80F1010B5E047BDE81040EFF3098C0C
:1055B0008CE80700424B93E80600914208BF704711
:1055C00041B91EF0100F16D13E49086820F00100C5
:1055D000086010E01EF0100F06BF2CED108A0120AD
:1055E000002081F825002CE9F00FC1F82CC00CB484
:1055F000FCF742FC0CBC1A60D2F82CC0BCE8F00FDF
:1056000092F8250000280EBF6FF0020E6FF0120E08
:10561000BCEC108A8CF30988704710B52A4A1268CE
:10562000914209D8294C54F8214090E80F10A04726
:10563000EFF3098C8CE80F0010BD10B5FCF7A8FB48
:10564000BDE810401E4B93E80600914208BF70472A
:10565000EFF3098C1EF0100F06BF2CED108A01200D
:10566000002081F825002CE9F00FC1F82CC00CB403
:10567000FCF702FC0CBC1A60D2F82CC0BCE8F00F9E
:1056800092F8250000280EBF6FF0020E6FF0120E88
:10569000BCEC108A8CF30988704710B5FCF7CEFB80
:1056A000FFF7CEBF10B5FCF7C7FBFCF7C7FBFFF752
:1056B000C7BF0000DE6D0008A71F0008C11F00085B
:1056C000541E002034EF00E000000000FCFFFFFF4C
:1056D000DFF820D0002103E0074B5B584350043132
:1056E0000648074B42189A42F6D3FEF7EFFBFBF74A
:1056F0008DFDFEE700300020907100088801002039
:1057000024020020FEE7000081F0004102E000BF1B
:1057100083F0004330B54FEA41044FEA430594EA71
:10572000050F08BF90EA020F1FBF54EA000C55EAAC
:10573000020C7FEA645C7FEA655C00F0E2804FEA7D
:105740005454D4EB5555B8BF6D420CDD2C4480EA5F
:10575000020281EA030382EA000083EA010180EA8F
:10576000020281EA0303362D88BF30BD11F0004FDD
:105770004FEA01314FF4801C4CEA113102D0404213
:1057800061EB410113F0004F4FEA03334CEA13334E
:1057900002D0524263EB430394EA050F00F0A78066
:1057A000A4F10104D5F1200E0DDB02FA0EFC22FA61
:1057B00005F2801841F1000103FA0EF2801843FA55
:1057C00005F359410EE0A5F120050EF1200E012A46
:1057D00003FA0EFC28BF4CF0020C43FA05F3C01884
:1057E00051EBE37101F0004507D54FF0000EDCF1FD
:1057F000000C7EEB00006EEB0101B1F5801F1BD3A6
:10580000B1F5001F0CD349085FEA30004FEA3C0CA9
:1058100004F101044FEA445212F5800F80F09A809F
:10582000BCF1004F08BF5FEA500C50F1000041EBA3
:10583000045141EA050130BD5FEA4C0C404141EBA7
:10584000010111F4801FA4F10104E9D191F0000FCE
:1058500004BF01460020B1FA81F308BF2033A3F151
:105860000B03B3F120020CDA0C3208DD02F1140C48
:10587000C2F10C0201FA0CF021FA02F10CE002F183
:105880001402D8BFC2F1200C01FA02F120FA0CFC7C
:10589000DCBF41EA0C019040E41AA2BF01EB0451C5
:1058A000294330BD6FEA04041F3C1CDA0C340EDCC3
:1058B00004F11404C4F1200220FA04F001FA02F306
:1058C00040EA030021FA04F345EA030130BDC4F1C4
:1058D0000C04C4F1200220FA02F001FA04F340EAB9
:1058E0000300294630BD21FA04F0294630BD94F06A
:1058F000000F83F4801306BF81F480110134013D51
:105900004EE77FEA645C18BF7FEA655C29D094EAC1
:10591000050F08BF90EA020F05D054EA000C04BF3F
:105920001946104630BD91EA030F1EBF002100202A
:1059300030BD5FEA545C05D14000494128BF41F0C9
:10594000004130BD14F580043CBF01F5801130BD2D
:1059500001F0004545F0FE4141F470014FF00000B8
:1059600030BD7FEA645C1ABF194610467FEA655C69
:105970001CBF0B46024650EA013406BF52EA03350B
:1059800091EA030F41F4002130BD00BF90F0000FF9
:1059900004BF0021704730B54FF4806404F1320435
:1059A0004FF000054FF0000150E700BF90F0000FEE
:1059B00004BF0021704730B54FF4806404F1320415
:1059C00010F0004548BF40424FF000013EE700BFE5
:1059D00042004FEAE2014FEA31014FEA02701FBF75
:1059E00012F07F4393F07F4F81F06051704792F047
:1059F000000F14BF93F07F4F704730B54FF46074C1
:105A000001F0004521F0004120E700BF50EA01020B
:105A100008BF704730B54FF000050AE050EA0102B8
:105A200008BF704730B511F0004502D5404261EB28
:105A300041014FF4806404F132045FEA915C3FF469
:105A4000DCAE4FF003025FEADC0C18BF03325FEA02
:105A5000DC0C18BF033202EBDC02C2F1200300FAB7
:105A600003FC20FA02F001FA03FE40EA0E0021FADC
:105A700002F11444C1E600BF014B1868704700BF33
:105A8000AC0100208A892DE9F041054610070C463B
:105A90005AD44B68002B05DC0B6C002B02DC002079
:105AA000BDE8F081E66A002EF9D0002312F480529E
:105AB0002F682B6033D0606DA3895A0705D56368C2
:105AC000C01A636B0BB1236CC01A00230246E66A4E
:105AD000216A2846B047431CA38906D129681D299D
