:020000040800F2
:1000000000300020B9450008ED450008ED45000826
:10001000ED450008ED450008ED4500080000000032
:100020000000000000000000000000007D44000807
:10003000ED45000800000000234500088345000846
:10004000ED450008ED450008ED450008ED450008C8
:10005000ED450008ED450008ED450008ED450008B8
:10006000ED450008ED450008ED450008ED450008A8
:10007000ED450008ED450008ED450008ED45000898
:10008000ED450008ED450008ED450008411F00085A
:10009000451F0008ED450008411E0008ED45000819
:1000A000ED450008ED450008ED450008ED45000868
:1000B000ED450008ED45000800000000ED45000892
:1000C000ED4500080000000000000000ED450008BC
:1000D00000000000ED450008ED450008ED45000872
:1000E000ED450008ED45000800000000000000009C
:1000F0000000000000000000000000000000000000
:1001000000000000000000000000000000000000EF
:100110000000000000000000ED450008ED4500086B
:1001200000000000000000000000000000000000CF
:1001300000000000000000000000000000000000BF
:10014000ED450008ED45000800000000000000003B
:10015000000000000000000000000000000000009F
:10016000000000000000000000000000000000008F
:10017000000000000000000000000000000000007F
:1001800000000000ED45000810B5054C237833B998
:10019000044B13B10448AFF300800123237010BD5A
:1001A0009003002000000000706A00080C4B43B16F
:1001B0000C480D4910B5AFF300800C48036823B913
:1001C00010BD0A48036833B97047094B002BF7D0BC
:1001D000BDE810401847064B002BF5D0184700BF6C
:1001E00000000000706A0008940300208C030020C7
:1001F000000000000368184708B10B6803607047EF
:10020000704710B510220446002104F0CEFD0823EB
:10021000237300236360A360204610BD7FB502A84E
:10022000FFF7EFFF002202A9134803F03FFC00B3E1
:10023000029A012A1DD1114B9DF812101A719DF8D6
:100240000C205A719DF80D209A719DF80E20DA71DC
:100250009DF80F20084801F00F0122F00F020A4319
:100260001A729DF813205A72DA6800920ECB03F0CE
:10027000FEFB07B05DF804FBBC030020AC030020CC
:10028000C36810B504460BB19B689847204610BD63
:1002900070B50546074B45F8283B064645B100F1C9
:1002A0004804AC4204D0103C2046FFF7E9FFF8E7D1
:1002B000304670BDA067000810B50446FFF7E8FFA0
:1002C000204603F0A0FF204610BD0000084B10B5EB
:1002D000036020330446C364603004F099F804F1ED
:1002E0004C0003F08FFB2046FFF7D2FF204610BDE5
:1002F00068660008A0F14C00E8E700BF1FB50E4B90
:100300000E490F48062200241A731C6003F09CFB60
:100310000C4B0B48DA681B6813600B4B00932246AA
:100320000A4B0393694603F053FC6846FFF7A8FFA6
:10033000012003F003FEFBE7AC03002040420F0066
:10034000BC030020700400201D0200083C6300086C
:1003500010B50446FFF7BAFF204603F054FF2046CD
:1003600010BDA0F14C00F3E738B5134C134D1C221F
:100370000021204604F019FD2046114C132100F005
:100380006DF80C220B21204603F0E2FB20460D4CB9
:100390000D492A4603F00EFF4FF461430F2202215C
:1003A000204603F01FFA2A460849204603F002FFC0
:1003B0000748FFF726FF38BD7004002088010020A1
:1003C000BC0300208C040020D93A0008CD020008AC
:1003D000AC0300200748084A08B5121A002104F0AF
:1003E000E4FC03F0A4FE04F0CDFB03F0A7FE03F051
:1003F000E3FE00BF900300208C1A0020022801DDDC
:1004000003F048BE0120704708B5012003F0D4FE78
:1004100008B5FFF7F9FF38B504460D4603685AB131
:10042000826813602046012101F0D6FC294620464F
:10043000BDE8384001F0CCBCC268F2E770B50E46AA
:100440000446154601F0A2FC013606D02A46204695
:100450000021BDE87040FFF7DEBF70BD0022FFF74E
:10046000EDBF0000014800F003B800BF486300087A
:10047000036870B5DB680446984763685A68236868
:100480001AB99B68BDE8704018475B6815689847C3
:100490006368281A00285A6807DC916859601B684D
:1004A000002BEAD050689847E7E7236810681B697B
:1004B000BDE870401847000010B5044601300DD16A
:1004C00010BD9C4209D12046896801F08FFF20466B
:1004D0000021BDE8104002F00BB80C31B1F900303A
:1004E0005A1CEED10248BDE8104000F04DB800BFE4
:1004F00095630008884208B508D0431C06D0013136
:1005000006D0044800F040F84FF0FF31084608BD1F
:100510000146FBE764630008B1F900305A1C01D1C1
:1005200018467047834201D1486870470C31F3E7A1
:10053000421C10B5044607D0FFF7EEFF431C0446EB
:1005400002D1024800F020F8204610BD7563000873
:10055000EFF31080C04300F00100704708B5FFF7CB
:10056000F7FF72B6064B1A6822B980F00100054AFF
:10057000C0B210701A681A6801321A6008BD00BF54
:10058000100500200C0500200FB4012008B503F071
:1005900013FE08B5FFF7E2FF962003F0CFFC96208C
:1005A00003F0CCFCF8E701F040BC000008B5024CB9
:1005B00023689847FCE700BF8C01002008B50B4872
:1005C00000F0AAFD0A4B18600A4800F0A5FD0A4B8E
:1005D00018600A4800F0A0FD094B186004F0D2FA38
:1005E00000210846BDE8084003F0A8BDF4630008F8
:1005F00094140020F06300081C050020EC63000840
:1006000014050020FFF7D2BF10B5044600F0E4FC4B
:1006100021460246BDE810400148FFF7B5BF00BFC4
:10062000B463000803F0CCBE0B4A0C4B0C4830B44A
:100630001A60C2F1005303F54053B3F5E07F194649
:1006400028BF4FF4E071074D074C01605B1A1A4454
:100650002A60236030BC70478C1A0020CC11002027
:100660002005002024050020C811002000F038FEDD
:10067000FFF7DAFF0348002100F0D6FD00F02EFC62
:10068000FEE7000090010020024B4FF0FF31186898
:1006900000F060BD1C050020014B186800F082BD11
:1006A0001C05002030B502788C784368013AD2B23C
:1006B00013B19D78A54207D2022A4B60416006D84B
:1006C00003B19960886030BD18465B68F0E700238D
:1006D0008B6030BD02784368013A59684160022A54
:1006E0004FF0000205D809B188605A609A60184638
:1006F00070475A60FBE70000034B5A6842600022D3
:1007000082605860704700BF88190020104BDA687B
:1007100010B58AB19A8ADC688A420CD3C460D8606A
:10072000C468036104B12061521A92B28282998A2C
:100730008A1A9A8210BD3CB900248A1AC460D86013
:1007400003619A82848210BDA38A1A442346E2E799
:10075000A01900202DE9F041174DEB6853B1AB8A89
:10076000164FDFF85C80013BAB820026AA8A0AB9EB
:10077000EC680CB9BDE8F081A36833B161685960D9
:10078000616809B18B606260A66021463846FFF758
:1007900089FFA38AAB826378042B01BFD8F80030AD
:1007A000E28A9B18A38201236370E368EB600BB1BC
:1007B0001D61E6602661D9E7A01900208819002094
:1007C0001C1A002083682BB142685A6042685AB1F3
:1007D00093607047054B5A68904202D142685A6054
:1007E00070471346002AF6D1704700BF88190020D1
:1007F00010B5846801462CB94378012B0DD1074C04
:1008000003E0A4682378002BFBD00846FFF7DAFF4B
:100810002046BDE81040FFF745BF10BD88190020F5
:10082000036910B563B1C268DA60C2684AB1998AD7
:10083000848A2144998213610023C36000230361E9
:1008400010BD9A82FAE7000070B4114BDD78EFF327
:100850001086EFF3108272B69A78954211D9013260
:100860009A701A78541CA54208BF00241C7006B95F
:1008700062B6954207D903EBC20370BC5860996019
:100880007047002EF4D0022070BCFFF7BDBE00BF41
:100890000C140020054B1B7823B9054B4FF08052F8
:1008A0001A607047034B01221A707047780D0020C0
:1008B00004ED00E0790D002038B51A4B1A4C186889
:1008C00001234370FFF718FF6578A3783BB91748F9
:1008D0006570FFF7FFFEBDE8384000F0DBBD04EBBC
:1008E000C503586802789AB9198900F01BFAE378B1
:1008F00001359D4208BF0025EFF31083EFF310820E
:1009000072B6A278013AA270002BDED162B6DCE7A3
:10091000012A03D1996800F093F9E8E701F018F98A
:10092000E5E700BFD41900200C140020881900202E
:10093000084B1A68084B1A6000225A60072243F8D5
:10094000042C064A136843F07F4313604FF0FF30D6
:10095000704700BF1464000814E000E020ED00E0E0
:100960007047000008B50B4B186801234370FFF770
:10097000C3FE00F00DFA084A136801331360FFF755
:10098000E9FE00F00FFD0548FFF7A4FEBDE80840B2
:1009900000F080BDD41900201C1A00208819002006
:1009A000064B1A68136BD26A934203D81A68044B39
:1009B0009A4202D00120FFF727BE7047D4190020C9
:1009C000A52E5AE2836A9B0804BF224B1B88F0B510
:1009D000056B08BF9B0805EB8302540748BF043A28
:1009E0004FF0807602E94200A2F14004A2F14406F1
:1009F000A2F10C074FF0000E46F804EFBE42FBD107
:100A0000C66942F8206C41631249C4620968C90092
:100A100017D5112B15D9103B6FF007015B084B431D
:100A2000A3F138010A444FF0CC30214691420BD15A
:100A300008331C44231F9D423CBF4FF0CC3344F885
:100A4000043C054B2B60F0BD41F8040C41F8080D47
:100A5000ECE700BFFC630008A52E5AE290F82520C1
:100A6000C36A12B16033196070472033FBE710B5D9
:100A700090F82540C36A1CB1603383E8060010BDBE
:100A80002033FAE7002ABBBF22F0004207320332CC
:100A900022F00702A8BF22F0030210B5B4BF102352
:100AA0000C2392B1D4188C420FD801440344544211
:100AB00041600360826021449818814202D3005152
:100AC0000346F9E70020186010BD012010BDEFF3C8
:100AD000108372B6026803F001030AB11168016065
:100AE00003B962B61046704781420DD343689942FC
:100AF0000AD2EFF3108372B602680A60016013F045
:100B0000010003D162B67047012070470020704792
:100B100001231039037089080023437083704360F8
:100B2000038143818381C1817047000070B585894D
:100B300004461646002D38D043891A1D013350F85B
:100B400022200A60C2899BB29A42438104BF0023DB
:100B500043814368F3B14378022B1BD1FFF7BAFD01
:100B600000210546FFF77AFF2389E9691A1D013341
:100B700044F82210E2899BB29A42238108BF0023E5
:100B8000284608BF2381FFF74BFE284600F09CFC57
:100B9000002070BDEFF31080EFF3108372B6013DBB
:100BA000A5810028F4D162B670BD4AB14268094BF4
:100BB00042B11968FFF776FD0821304600F0A8FC25
:100BC000012070BD1B6843605A6098600123437028
:100BD000F2E700BFD4190020C2898089101A70473B
:100BE00008B5FFF731FEBDE80840FFF753BE838923
:100BF00010B504460BB34389043350F823300B601F
:100C00004378022B04D10021FFF71EFEFFF742FEBE
:100C1000EFF31083EFF3108272B6A289013AA2813A
:100C200003B962B66389E28901339BB29A42638158
:100C300001D100236381042010BD184610BD0000BF
:100C4000436870B504460E46002B4BD04578022D04
:100C500020D0032D0AD0012D61D1FFF73BFD0446C2
:100C600032461021FFF703FF65700EE00846FFF7DC
:100C70002EFF0546002852D02046FFF72BFD2946BF
:100C80000446FFF7EBFE012363702046FFF7C8FD23
:100C9000214622E0FFF71EFD00210546FFF7DEFE9C
:100CA0002389E9691A1D44F82210EFF31082EFF34B
:100CB000108172B6A1890131A18102B962B6E289BF
:100CC00001339BB29A42238104BF00232381012375
:100CD0006B702846FFF7A4FD29461148BDE8704017
:100CE000FFF7E0BC8089E189884213D223891A1D6D
:100CF00044F82260EFF31082EFF3108572B60130F2
:100D0000A08102B962B601339BB2994208BF0023A9
:100D1000238170BD0320BDE87040FFF775BC70BD36
:100D20008819002010B5038B42781943062A04461F
:100D30000183438B15D133EA010219D121EA030162
:100D400021832046FFF76CFD012320466370628BF0
:100D50000821FFF78CFE21460648BDE81040FFF74A
:100D6000A1BC052A04D111EA030201D04283E5E7C0
:100D700010BD00BF88190020034B00221A60034AEF
:100D80001268DA80704700BFC0190020F8630008BD
:100D900008B50E4B5A680E4B196891420D4905D0A3
:100DA0001A60DA880868013A02449A8098880A88AA
:100DB00090420AD1002205481A60FFF78BFCBDE87B
:100DC000084001460148FFF76DBC08BD88190020A6
:100DD000C01900201C1A00200B4A136830B50024EB
:100DE00043B90360816013B19D68691A996044B189
:100DF000206030BD9D68A942F3D31C46491B1B6887
:100E0000EEE7106030BD00BFD0190020C0B1431C18
:100E100011D00C4B984211D80B4B1B684FF47A71D0
:100E20005A1E01FB0020B0FBF3F34FF6FE70834225
:100E300006D898B270474FF6FF7070474FF6FE70B5
:100E4000704700BF00093D00B063000838B1830758
:100E500004D10378002B18BF002070470020704792
:100E6000B0B50E4D287800AFA8B90D4C236893F8A3
:100E7000241000F06FFB2368DA78FF2A03D1DA6AC6
:100E8000203282F3098862680AB984E80C0000F015
:100E900019FD01232B700020B0BD00BFCD1900202B
:100EA000D4190020014B1878704700BFCD190020DD
:100EB00010B5EFF3108434B9EFF305841CB9EFF3E8
:100EC0001484E40702D4034B187810BDDFF808C07F
:100ED00000DF10BDCD190020A50E000890B589B027
:100EE00000AFEFF31083002B37D1EFF30583002B16
:100EF00033D1FFF7DDFF28B9194C246814B16468B9
:100F000004B1A047EFF3148404F00304022C18D0BA
:100F1000032C1CD0012C1ED007F1200484F3098877
:100F2000104C2478E40710D5022484F31488BFF30E
:100F30004F8FBFF36F8FDFF830C000DF2437BD461F
:100F400090BD084C2478E407F5D40324EDE7054C64
:100F50002478E407EFD5FF20F0E78220EEE700BF1A
:100F6000BC190020DE630008610E000870B50B4656
:100F70001646024610B90024204670BD00680028BD
:100F8000F9D0B2F90440E51CADB2062DF3D8D16812
:100F9000C1B11269043444EA012100F019FB0028B0
:100FA000E9D00A4B0A4A013853F82040E36A5A63F1
:100FB000084B1B6843B19B6833B13146E0789847D2
:100FC000E063D9E70A46E5E7E663D5E7F0130020DA
:100FD00075110008BC19002008B500F0B3FA18B16B
:100FE0000138024B53F8200008BD00BFF013002069
:100FF00010B5FFF72BFF044670B1084B1B681BB1FF
:10100000DB680BB1C06B9847E07800F037FBFF2836
:101010000CBF8120002010BD802010BDBC19002015
:1010200008B528B1FFF7F2FE00F08EFD402008BDA4
:1010300008BD000010B5EFF3108434B9EFF3058458
:101040001CB9DFF80CC000DF10BD822010BD00000D
:1010500021100008830705D138B1436901691B6875
:101060001846704700231946FAE70346FBE70000DD
:1010700010B504460846DFF80CC000DF84E8030022
:10108000204610BD5510000810B548B1046824B1C1
:10109000237823B9204600F05BFC204610BD0020D9
:1010A00010BD70B510F0030405460E4611D180B195
:1010B0000378032B0DD10846FFF7A8FE014628460A
:1010C00000F014FD012806D1002E14BFC12081209C
:1010D00070BD802070BD204670BD820708B50AD162
:1010E00048B10378032B06D100F090FCFF280CBF19
:1010F0008120002008BD802008BD10B510F0030439
:1011000007D130B10378032B03D100F029FC20462E
:1011100010BD802010BD000070B50546EFF31084AF
:1011200094B9EFF305867EB9EFF31484E40706D48F
:10113000064C24781CB9BDE87040FFF7A5BF2846CF
:10114000DFF80CC000DF70BD002070BDCD1900209D
:101150008910000810B5EFF3108434B9EFF305845B
:101160001CB9DFF80CC000DF10BD822010BD0000EC
:10117000A3100008084808B54FF0FF310068FFF7DA
:10118000E9FFDFF818C000DF0446FFF74BFA2046FE
:10119000DFF80CC000DFFEE7C8190020D90F0008F7
:1011A000F10F000810B5EFF3108434B9EFF30584A4
:1011B0001CB9DFF80CC000DF10BD822010BD00009C
:1011C000DB1000082DE9F04180460F461646EFF38C
:1011D000108404BBEFF30583D3B9EFF31483DB076B
:1011E00006D40E4B1B781BB9BDE8F041FFF7BEBE1D
:1011F0000B4D4FF0FF312868FFF7ACFF40463946F2
:101200003246DFF820C000DF04462868FFF7CAFF37
:101210002046BDE8F0810024FAE700BFCD19002088
:10122000C81900206D0F00080022FFF7CBBF000097
:1012300010B5EFF3108434B9EFF305841CB9DFF86F
:101240000CC000DF10BD822010BD0000FB100008A4
:1012500010B5044660B1016851B1406848B10378E7
:1012600033B90431890089B2FFF752FC606810BDC0
:10127000002010BD38B5114C23780BB900F0A8FA46
:101280000F4B25781B68FF229A708DB929460D48AF
:10129000FFF7DEFF0C4B2A46186029460B48FFF784
:1012A00065FE0B4B18600B48FFF736FF0A4B1860C2
:1012B00001232370094B0020187038BDCC19002081
:1012C000D4190020E4630008901400200064000892
:1012D0008419002018640008C8190020CD190020C6
:1012E00010B5EFF3108474B9EFF305845CB9EFF334
:1012F0001484E40703D4BDE81040FFF7BBBFDFF858
:101300000CC000DF10BD822010BD00007512000867
:101310002DE9FF410C46804618B30378012B25D1F7
:101320000846FFF773FD02A902464046FFF7FEFBA1
:10133000012811D10020002C0246034618BF40208E
:10134000029904460D4616461F4620462946324657
:101350003B4604B0BDE8F081002002460346102061
:10136000EEE78024054606460746EEE70025802482
:101370002E462F46E9E770B50E461446054660B185
:101380005AB90378012B08D1FFF726FC38B128465B
:101390003146FFF725FC204670BD802070BD8120BE
:1013A00070BD0000F8B5114E34682CB1A368104F21
:1013B000013BA360A26802B1F8BD256838683560BA
:1013C0002146FFF7D8FF10B10420FFF71DF963791C
:1013D000012B07D1E1682046FFF7FEFC002DEBD082
:1013E0002C46E7E701232371F8E700BFD01900205E
:1013F000901400207FB504461646084601B122B17C
:1014000080232360204604B070BD0B78012BF7D1F8
:1014100002A9FFF7ECFB042808BF102301AD14BF9D
:101420000196019395E8070084E80700EAE70000C9
:1014300038B504461546EFF3108010B9EFF3058078
:1014400028B12A462046FFF7D5FF204638BD08467A
:101450001146DFF80CC000DF84E80700F5E7000064
:10146000111300087FB50A4C21684FF0FF3203A822
:10147000FFF7DEFF039B102BF6D1049901A8FFF7BD
:10148000F7FD019B002BEFD002989847ECE700BFD7
:1014900090140020054B586002234370044B1B68D6
:1014A0001BB11B690BB1C06B18477047D4190020E2
:1014B000BC19002008B50348FFF70CF9BDE8084047
:1014C000FFF7E8BF8819002070B5044618B9BDE8D9
:1014D0007040FFF7EFBF0C4EA278306883789A42D5
:1014E0004FF0010508D9FFF707F933685D70204612
:1014F000BDE87040FFF7CEBF657021460348BDE8E8
:101500007040FFF7CFB800BFD41900208819002021
:1015100038B50D46014680B14FF6FF739842074C2F
:1015200002D02068FFF7F2F8236805485D70FFF7E6
:10153000D1F8BDE83840FFF7ADBF38BDD419002061
:1015400088190020024B186800B1C078704700BFAE
:10155000D419002010B5A8B9194B1B68997083F8ED
:101560002410184843689B788B4201D8002010BD96
:10157000134C2168FFF796F8236801225A70FFF791
:1015800099FFF3E7104B1B88984217D801380F4B8F
:1015900053F8204094B10A4BA1701B6884F82410C2
:1015A0009C42DED02046FFF723F96378012BDDD182
:1015B0000448FFF78FF8FFF787FFD7E7FF2010BD3C
:1015C000D419002088190020E0630008F0130020DF
:1015D0002DE9F04711F0FF0F0D46804623481646CF
:1015E0009A4608BF0135FFF772FA044620B94FF05A
:1015F00000094846BDE8F0871D4B06631B881D4E59
:10160000280AA06200218B4201F10109EFD006EB0C
:1016100089020F4652F8042C4946002AF3D1EDB254
:10162000012384F80390C4F81CA0C4F838A02270E9
:101630006370A57084F824506260A260E260226149
:101640002262A282E2822283628384F8252018B972
:101650000948FFF73CFA206320464146FFF7B2F9FC
:10166000204646F82740FFF72FFFC2E7B8170020B3
:10167000E0630008F0130020E01100202DE9F84F8E
:101680004D4D18B12B68DB78984241D12C68DFF8BA
:101690003C810023637002F0C6FEE062FFF780F930
:1016A0002B681C6A0127A4B92A684449D3784448A6
:1016B000013B41F82340116BFFF716FA29684148B6
:1016C0000C63FFF711FA2C60FFF7F4FE2046BDE82B
:1016D000F88F6368B3B12046FEF7FCFF0021064691
:1016E000FFF7BCF93046FFF79BF87770314640466C
:1016F000FEF7D8FFE368326A6780A660E260346272
:101700001C46D0E7E2686380A360E3601446CAE742
:101710002D4B1B8898424DD8284B471E994653F8AD
:101720002760002E46D03046FFF74CF83046FFF7D2
:1017300077F8DFF898B0346A4FF0010AB4B9316B2A
:101740001F4849F82740FFF7CFF9314634631D4859
:10175000FFF7CAF91D48296843689A788B789A423E
:10176000B4D901234B70FEF79DFFADE76368DBB191
:101770002046FEF7AFFF00218046FFF76FF9404695
:10178000FFF74EF888F801A041465846FEF78AFF59
:10179000E368D8F82020A4F802A0C4F80880E2602A
:1017A000C8F820401C46C9E7E2686380A360E36094
:1017B0001446C3E7FF2489E7D4190020F013002062
:1017C000E0110020B8170020E0630008881900200D
:1017D00038B52C4B2C491A880023184693424DD318
:1017E0002A4B2B4819882B4C4022FFF74BF92A4BE8
:1017F0002A481A882A4B42F000421968FFF742F93A
:10180000284B1988284B08221868FFF73BF9FF235B
:101810000025E3702148A562012363702570A5703F
:1018200084F824506560A560E56025612562A58285
:10183000E5822583658384F82550FFF748F91B4925
:1018400020632046FFF7BEF8194B04221A705D6032
:10185000184B1A70DD601D619D82174B20461C607D
:1018600002236370FFF716FE144A154B12781D70A1
:101870005D70DA70BDE83840FFF77EBA41F82300AA
:101880000133ABE7E0630008F0130020AC6300080D
:10189000B8170020DC190020FC630008E0110020CC
:1018A000A8630008AE6300081805002005060008BC
:1018B00088190020A0190020D4190020DD63000839
:1018C0000C14002008B51E4B1A6842F47F021A60FF
:1018D0001B681B0203F07F43DB43B3FA83F3194A0F
:1018E000194812680168DBB2C3F10803C2F302228F
:1018F000934298BF531C6FF0807202FA03F303F017
:101900007F4321F07F4213430360FFF711F80F4B31
:101910000028186012DB00F1604000F56440FF22EF
:1019200002701A6853099B0003F1604303F5614399
:1019300002F01F02012101FA02F21A6008BD00BF85
:1019400020ED00E00CED00E01CED00E0B8190020F7
:10195000032303700023438043608360C3607047A8
:10196000F8B5438804469BB18068036A9C4228D13D
:10197000E368036290F82430026A52BB82789A428C
:1019800006D083701F4B1B68984201D0FEF730FFD2
:101990001D4F0126656825BB1B4843686BB1194E76
:1019A0009A7831688B789A4207D9FEF77BFE3368C4
:1019B00001225A702846FFF787FD00202070F8BDED
:1019C0001346002BD6D0DA689442F9D1E268DA6087
:1019D000D0E7516819B189788B4238BF0B46D2687D
:1019E000CBE72046FEF776FE00210546FFF736F8E6
:1019F0002846FEF715FF6E7029463846FEF752FE60
:101A0000C8E700BFD4190020881900202DE9F84349
:101A100043880546002B63D0324F81683A68914273
:101A20005ED1013B9BB243801BB100242046BDE840
:101A3000F8830B6A984229D1C3680B6291F824306D
:101A40000C6A5CBB8B706A68DFF89C80002A3BD014
:101A50002846FEF73FFE21460646FEF7FFFF3046CA
:101A6000FEF7DEFE336AEB604FF001093968D8F803
:101A70000430A5F80290AE6035628A789B789A426D
:101A800014D33046FFF720FDD0E71346002BD5D006
:101A9000DA689542F9D1EA68DA60CFE762681AB18C
:101AA0009278934238BF1346E468CAE74046FEF78F
:101AB000F9FD31464046FEF7F5FD3B6883F801909D
:101AC00086F801902046DDE7D8F8042092789A4203
:101AD000ABD94046FEF7E6FD3B6801225A70F1E7BC
:101AE000FF24A3E7D419002088190020438870B58B
:101AF00004460E46134D43B92A688260116AC160DC
:101B0000106201336380002070BD80682A689042B3
:101B1000F7D081B1937882789A4202D28370FEF72F
:101B200067FE62684AB129682046FEF7BBFD0921BD
:101B30003046FFF7EDFC012070BD2B6863605A60F2
:101B40009C60F4E7D41900200321FFF7E1BC0000FA
:101B5000426810B57AB1FEF7BDFD0446FEF760FE9F
:101B6000012161702046FEF779FF21460448BDE857
:101B70001040FEF797BD42880132428010BD00BF81
:101B80008819002070B5134C23681A69950707D58A
:101B9000DA68900704D56FF002021A61FEF762FC62
:101BA00023681A69510713D5DA68520710D56FF008
:101BB0000402094E1A615D6A3368EB1AB3F57A7F45
:101BC00006D301F0ADFA236805F57A729A633560A1
:101BD00070BD00BF201A00208C0D002030B589B0E8
:101BE00001A903A801F06AFA01F038FA244B019028
:101BF000DA69244C42F00102DA61DA6902F001028A
:101C00000292029A1A6942F001021A611A6922F0DC
:101C100001021A61069A4FF0804323604FF0FF33B0
:101C2000E360194B4ABBB0FBF3F00138002560605C
:101C300014482561A560656101F0D4FB13491C209F
:101C400000F076FE124B0F484FF080521A60294682
:101C500001F010FC04210B4801F00CFC23680D4A34
:101C6000596A1160126802F57A729A63DA68284636
:101C700042F00402DA6009B030BD4000D3E700BF93
:101C800000100240201A002040420F00851B00086F
:101C900000E100E08C0D00204FF08043034A136008
:101CA000DA6822F00402DA60704700BF201A0020D0
:101CB0004FF08043034A1360DA6842F00402DA60AE
:101CC000704700BF201A00207FB5052843D8DFE801
:101CD00000F003121E2A4236214B5A6942F40032A8
:101CE0005A615B6903F400330193019B4FF090400C
:101CF00007B05DF804FB1A4B1A485A6942F4802277
:101D00005A615B6903F480230293029BF0E7144B52
:101D100015485A6942F400225A615B6903F40023B2
:101D20000393039BE4E70E4B10485A6942F4801278
:101D30005A615B6903F480130493049BD8E7084B52
:101D40000B485A6942F480025A615B6903F48003CC
:101D50000593059BCCE70748FEF716FC0020C7E774
:101D6000001002400004004800080048000C004831
:101D7000001400481C64000810B50021044604F05B
:101D80000F0400F033FB0120A04010BD70B50446E5
:101D90004B1C0E46218218D0C1F30310FFF794FFAD
:101DA00005463046FFF7E8FF238A084A656103F0DD
:101DB0000F03206052F82330A36105F11003636024
:101DC00005F118032835A360E56070BD0C650008B7
:101DD000B0F9100000F08CBB10B58369446971B98B
:101DE000216893FAA3F2B2FA82F20320520000FAB9
:101DF00002F221EA020293FAA3F3226010BD2268E4
:101E000093FAA3F1B1FA81F193FAA3F30320490005
:101E100000FA01F1B3FA83F322EA01025B00012127
:101E200001FA03F31343236010BD08B5FFF734FF35
:101E30000121002000F09CFDBDE80840FFF738BFFD
:101E4000384B5A692DE9F041374CD20723602AD527
:101E50009868364F9968364E9A68364D3840B84281
:101E600001EA060104BF01279F60B14208BF2D4B64
:101E700002EA050204BF4FF480769E60AA4202BFC8
:101E8000284B4FF480359D60284B984205D0284B55
:101E9000994202D0274B9A4205D1274B274A1B680B
:101EA0001068012198472368DA685B69970707D0B3
:101EB0009E0705D5204B214A1B68106800219847D2
:101EC000236899695A695B698D0709D5900507D51B
:101ED000190405D5184B194A1B6810680521984745
:101EE000226896695569526916F0040605F4806502
:101EF00008D03DB1120405D50F4B104A1B6810687D
:101F00000721984723685B6956B14DB11B0407D57B
:101F1000094B0A4A1B6810680221BDE8F0411847C6
:101F2000BDE8F08100640040900D00200300000433
:101F30000003000800000310D40D0020D00D002085
:101F4000FFF77EBFFFF77CBF034B19604168034B6F
:101F500043F82120704700BFD40D0020D00D002091
:101F60000268536923F4064323F013035361024BC1
:101F7000002143F822107047D00D00200268094B61
:101F80009A420DD103F5D6331A6942F000721A61F4
:101F90001A6922F000721A61DA6922F00072DA61BD
:101FA000704700BF00640040F8B50D46044601F0DC
:101FB00055F81823B0FBF5F01921B0FBF3F38608B0
:101FC0009BB2B34215D34FF0FF33002B22681CDDC8
:101FD000116841F0010111605168C907FCD5D36156
:101FE000136823F0010313605368DB07FCD401205E
:101FF000F8BD01339BB2DF4303FB0112162590426B
:1020000005D0013D3A44FAD1DBE70020F8BD08498C
:1020100001EBC50251F8351052680904120502F4AB
:10202000E00201F470210A43C3F309031343CCE730
:102030005464000884B030B504AC84E80E00046831
:102040009DF81E20A36858013AD4A3681B0139D417
:10205000A06810F080502FD0022000012318D3F880
:10206000805105F00105C3F880519DF81D505DBBFE
:10207000D3F8805142EA41512943C3F88011D3F883
:10208000841121F00F01C3F884119DF81C10D3F8BE
:10209000842101F00F0111432218C3F8841105991E
:1020A000C2F888110699C2F88C11D3F8802142F049
:1020B0000102C3F880210120BDE8304004B0704720
:1020C0000020CAE70120C8E742EAC101D3F88051E5
:1020D00041F00401D0E730B50468E06810F0030077
:1020E0003AD01301E018D0F8B051C5F380054D7314
:1020F0009DBBD0F8B0516D0D0D60D0F8B051D0F847
:10210000B401234400F00F000873D3F8B80108713C
:10211000D3F8B801000A4871D3F8B801000C8871EF
:10212000D3F8B801000EC871D3F8BC010872D3F817
:10213000BC01000A4872D3F8BC01000C8872D3F8C5
:10214000BC31C5F340051B0E8D73CB724AB9E368F1
:1021500043F02003E360012030BDD0F8B051ED081A
:10216000CAE7236943F020032361F4E730B58BB05D
:10217000012B0E9C2BD8056816480594056000209D
:102180000690012007909BB949018DE80A00520191
:10219000029203930023049301230893694604F1F8
:1021A0000E030C48099300F0DBFF20460BB030BD56
:1021B0004B0B0093C900530BD200C9B2D2B241F00D
:1021C000040142F00402019102930392E2E700202D
:1021D000ECE700BF900D0020F0B50E4685B0044638
:1021E0002F4930461546FEF7A3F92E4907462846E3
:1021F000FEF79EF901463846FEF77CF92A4B20602F
:1022000098424BD103F5D6332549DA6942F0007282
:10221000DA61DB6903F000730393039B00236360BF
:102220003046FEF749F91F492846FEF745F9721C6A
:1022300003D00121304600F05BF96B1C03D0012173
:10224000284600F055F9194823680360002383618C
:10225000C361036243628362C3628360C3604FF4FD
:10226000A02303614FF4E00343610223436000F0C5
:10227000D8FF10B10E48FEF787F90E492046FFF748
:1022800093FE094A2368934214BF0E230023009350
:1022900000231A4619462046FFF768FF05B0F0BD37
:1022A000646500087C65000800640040900D002013
:1022B0003D640008A0860100194B0068984210B5E3
:1022C000184616D1072914D8DFE801F004141813B2
:1022D000131D1321134902231424E2B1426913434D
:1022E0004361204600F024FB012303FA04F40E4B63
:1022F0001C6010BD0D4901231324EEE70C494FF477
:1023000000431624E9E70A494FF40073F9E7084946
:102310004FF48063F5E7426922EA0303E0E700BF78
:1023200000640040451F000800E100E0411F000874
:10233000411E0008054B186838B901221A60044B89
:102340004FF080421A60FFF749BC7047D80D00205B
:10235000201A002008B5044B1B680BB9FFF7EAFFF1
:102360004FF08043586A08BDD80D00204FF08043DD
:10237000034A13605863DA6842F00202DA60704779
:10238000201A00204FF08043034A1360DA6822F0DD
:102390000202DA60704700BF201A0020034A4FF0A3
:1023A000804313606FF002021A617047201A002008
:1023B00030B5C36891FAA1F4B4FA84F491FAA1F1AA
:1023C0000325B1FA81F1640005FA04F4490023EA17
:1023D000040302FA01F11943C16030BD012A02D0A1
:1023E000022A18BF0022FFF7E3BF00002DE9F041E9
:1023F0003E4B00F00F08C0F303100E4601F0070536
:1024000053F82840FFF760FC826894FAA4F3B3FA0B
:1024100083F394FAA4F103275B00B1FA81F107FA80
:1024200003F322EA03034A0007FA02F21343022DE0
:10243000836028D0BD4241D0012D3FD000230268E7
:1024400094FAA4F7B7FA87F794FAA4F14FF0030EC1
:10245000B1FA81F17F000EFA07F7490022EA07027C
:102460008B40013D1343012D036005D843683207BB
:102470004CBF2343A3434360C6F301122146BDE88A
:10248000F041FFF7ABBFB8F1070FC6F3032717D929
:10249000426A230A93FAA3F1B1FA81F193FAA3F302
:1024A0004FF00F0EB3FA83F389000EFA01F19B008F
:1024B00022EA010207FA03F3134343622B46BEE705
:1024C000026A94FAA4F3B3FA83F394FAA4F14FF0F6
:1024D0000F0EB1FA81F19B000EFA03F3890022EA94
:1024E000030207FA01F313430362E7E70C650008F0
:1024F00000F00F021C4B70B5C0F303100D4653F8EB
:102500002240FFF7E1FB066894FAA4F1B1FA81F3E7
:1025100094FAA4F259000323B2FA82F28B403340BA
:102520005200D340013B012B05D8EB1E022B436820
:1025300009D823434360032D08D101222146BDE879
:102540007040FFF74BBF23EA04034360012DF4D032
:10255000052D01D0022D01D10222EFE721460022F4
:10256000BDE87040FFF724BF0C65000843681849B8
:1025700070225A4310B58B1804688C5082685A60D8
:10258000C2689A600269DA6042691A61C2699A6136
:102590000022A3F85220A3F85020A3F85A20A3F851
:1025A0005820B0F91A2001320AD108225A6118467F
:1025B00001F0C1F858B10748BDE81040FDF7E4BF8D
:1025C000B0F9182001320CBF04220C22EEE710BD36
:1025D000F80D00204C650008F0B50E4685B00446A5
:1025E000494930461546FDF7A3FF484907462846A6
:1025F000FDF79EFF01463846FDF77CFF444B206007
:10260000984251D103F55843DA6842F48042DA60C7
:10261000DA6822F48042DA609A6942F480429A6170
:102620009A6902F480420192019A1A6B22F0030225
:1026300042F001021A630023636033493046FDF71C
:102640003BFF32492846FDF737FF721C03D00121BA
:102650003046FFF74DFF6B1C03D001212846FFF7E2
:1026600047FF4FF41653A3600023E36023616361C7
:10267000E361268365832046FFF778FF2268254BB8
:102680009A420FD1244B01221A60244B04F12005F9
:10269000206861681A4603C20834AC421346F7D179
:1026A0002068106005B0F0BD1A4B984214D103F5B4
:1026B000E6331A6942F400321A611A6922F40032D0
:1026C0001A61DA6942F40032DA61DB6903F400333B
:1026D0000293029B0123AFE7114B9842ADD103F562
:1026E000E4331A6942F480221A611A6922F48022C2
:1026F0001A61DA6942F48022DA61DB6903F480232B
:102700000393039B022397E7DC65000894650008A8
:102710000038014000440040F40D0020601A002001
:10272000004800408160FFF721BF0000034B1960A3
:102730004168034B43F82120704700BFDC0D0020A7
:10274000E00D0020426870235343034AD358D869F0
:10275000C0F34010704700BFF80D002010B544686A
:1027600001460846FFF7EEFF0028FAD07023054A1D
:10277000C9686343D358988C09B9C0B210BDC0F37F
:10278000080010BDF80D0020426870235343034A2F
:10279000D358D869C0F3C010704700BFF80D0020AF
:1027A00038B5456804462046FFF7EEFF0028FAD00A
:1027B0007023054AE0686B43D35810B9C9B2198534
:1027C00038BDC1F30801FAE7F80D002008B500F0A4
:1027D00005F8BDE8084000F091BC0000144A154916
:1027E000536803F00C03042B10B501D0082B0AD05A
:1027F000114B0B605368114AC3F30313D25C0B688F
:10280000D3400B6010BD53685068C00349BFD06A05
:102810000B48094C00F00F00C3F3834348BF01305D
:1028200003F1020348BFB4FBF0F04343E1E700BF0C
:1028300000100240A401002000127A002466000863
:1028400000093D0030B591B00323069301230A939C
:10285000102300240B9302254FF4601306A807945D
:102860000D950E940F9300F093F880B90F23019308
:1028700003904FF480630590294601A802950493C4
:1028800000F02AFBB0FA80F0400911B030BD2046BC
:10289000FBE708B5FFF7D6FF00B9FEE708BD00006B
:1028A0001D4AD2F8883010B543F470031B4CC2F8AF
:1028B0008830236843F0010323606168184B0B40A4
:1028C0006360236823F0847323F4803323602368D8
:1028D00023F480232360636823F4FE036360E36AC8
:1028E00023F00F03E362216B0E4B0B4023630023A5
:1028F000A3604FF0006393600B4B0C4A1A6000F02A
:10290000FDFBFFF7C6FF236943F001032361236941
:1029100023F00103236110BD00ED00E00010024030
:102920000CC07FF8CCFC00FFA401002000127A004C
:1029300030B50C4CA268A468B4F1006F13460CD1FA
:10294000131F094C094A53F8045F42F8045FA2427E
:10295000F9D1044A4FF000539360103043F820102F
:1029600030BD00BF00ED00E084010020FCFFFF1F30
:10297000064A1369012923F00403136101D130BF12
:10298000704740BF20BF20BF704700BF00ED00E090
:102990000368DA072DE9F347054611D42B689B0736
:1029A00000F188802B681C0700F1F8802B6858071D
:1029B00000F14181EA69002A40F0D781002021E03E
:1029C000BA4C636803F00C03042B07D0636803F070
:1029D0000C03082B19D16368DF0316D54FF40033BD
:1029E00093FAA3F2216893FAA3F3B3FA83F303F003
:1029F0001F03012202FA03F30B42CFD06B68002BB6
:102A0000CCD1012002B0BDE8F0876A68B2F5803F02
:102A100025D1236843F480332360E36AA96823F057
:102A20000F030B43E36252B300F082FB4FF4003616
:102A30008046012796FAA6F3226896FAA6F3B3FA1F
:102A400083F303F01F0307FA03F31342A6D100F048
:102A50006FFBA0EB08006428ECD90320D2E72368C1
:102A600032B923F480332360236823F48023D3E72F
:102A7000B2F5A02FF5D143F480232360C9E700F01D
:102A800057FB4FF400368046012796FAA6F32268DA
:102A900096FAA6F3B3FA83F303F01F0307FA03F3DE
:102AA00013423FF47BAF00F043FBA0EB0800642827
:102AB000EBD9D2E77D4C636813F00C0F07D0636845
:102AC00003F00C03082B21D16368DE031ED402231C
:102AD00093FAA3F2216893FAA3F3B3FA83F303F012
:102AE0001F03012202FA03F30B4202D02B69934227
:102AF00087D12168F82393FAA3F3B3FA83F26B69C1
:102B0000934021F0F802134323604BE72A69012622
:102B10000AB396FAA6F3B3FA83F303F1845303F5E9
:102B200084139B0002271E6000F002FB804697FA88
:102B3000A7F3226897FAA7F3B3FA83F303F01F030E
:102B400006FA03F31342D4D100F0F2FAA0EB080026
:102B50000228ECD981E796FAA6F3B3FA83F303F1DE
:102B6000845303F584139B0002271A6000F0E0FAF7
:102B7000804697FAA7F3226897FAA7F3B3FA83F38C
:102B800003F01F0306FA03F313423FF40BAF00F008
:102B9000CFFAA0EB08000228EBD95EE7AA69434E02
:102BA000434901241AB394FAA4F3B3FA83F30B4410
:102BB0009B0002271C6000F0BBFA804697FAA7F33F
:102BC00097FAA7F397FAA7F3726A97FAA7F3B3FAFB
:102BD00083F303F01F0304FA03F313427FF4E6AE1A
:102BE00000F0A6FAA0EB08000228E7D935E794FA2E
:102BF000A4F3B3FA83F30B449B0002271A6000F09E
:102C000097FA804697FAA7F397FAA7F397FAA7F3EC
:102C1000726A97FAA7F3B3FA83F303F01F0304FA77
:102C200003F313423FF4C2AE00F082FAA0EB0800B7
:102C30000228E7D911E71D4CE369D90034D4E369D0
:102C400043F08053E361E36903F080530193019BF8
:102C50000126184F3B68DA052ED5EB68012B3CD1D5
:102C6000236A43F00103236200F062FA02278246DE
:102C7000B9464FF0010897FAA7F397FAA7F3002B8C
:102C80006BD0226A99FAA9F3B3FA83F303F01F0316
:102C900008FA03F3134257D0002E3FF48BAEE369DA
:102CA00023F08053E36185E60026D2E7001002405E
:102CB00020819010007000403B6843F480733B60BB
:102CC00000F036FA80463B68DB05C6D400F030FAE7
:102CD000A0EB08006428F6D9BFE63BBB236A23F0CB
:102CE00001032362236A23F00403236200F020FA25
:102CF00002278246B9464FF0010897FAA7F397FAE0
:102D0000A7F373B3226A99FAA9F3B3FA83F303F032
:102D10001F0308FA03F31342BED000F009FA41F290
:102D20008833A0EB0A009842E7D996E6052B236A80
:102D300003D143F00403236292E723F001032362EB
:102D4000236A23F004038EE700F0F2F941F288339E
:102D5000A0EB0A0098428ED97FE697FAA7F3626A41
:102D600090E797FAA7F3626ACDE7414C636803F0F6
:102D70000C03082B3FF445AE022A4FF0807352D16A
:102D800093FAA3F3B3FA83F303F1845303F58413A3
:102D90009B0000221A6000F0CBF94FF000778046CC
:102DA000012697FAA7F3226897FAA7F3B3FA83F3F9
:102DB00003F01F0306FA03F313422DD162686B6A16
:102DC000296A22F474120B43134363604FF080733B
:102DD00093FAA3F3B3FA83F303F1845303F5841353
:102DE0009B004FF000751E6000F0A2F90126074617
:102DF00095FAA5F3226895FAA5F3B3FA83F303F0E5
:102E00001F0306FA03F313427FF4D8AD00F090F9E4
:102E1000C01B0228ECD920E600F08AF9A0EB0800DC
:102E20000228BED919E693FAA3F3B3FA83F303F1A8
:102E3000845303F584139B0000221A6000F078F994
:102E40004FF000750746012695FAA5F3226895FA1A
:102E5000A5F3B3FA83F303F01F0306FA03F3134257
:102E60003FF4ACAD00F064F9C01B0228ECD9F4E5E6
:102E70000010024010B5134C616801F00C03082BE0
:102E80001ED14FF4701393FAA3F301F47012B3FA46
:102E900083F322FA03F30C4AD05CE36A0F2292FA1E
:102EA000A2F2B2FA82F203F00F03D340074AD25CD7
:102EB000CB034ABF064B074BB3FBF2F3584310BD9D
:102EC000034810BD001002403C6600084C66000834
:102ED00000127A0000093D005C4A136803F0070302
:102EE0008B422DE9F04106460D4630D332689107FA
:102EF0003AD4D20740D4554A136803F007039D42E1
:102F0000C0F092803268524C12F0040F40F097806B
:102F1000130706D56368326923F4605343EAC2039A
:102F20006360FFF7A7FF6368F02292FAA2F2B2FA99
:102F300082F203F0F003D340464AD35CD840464BBC
:102F400018600F20FEF74AFE0020BDE8F0811368EC
:102F500023F007030B431360136803F00703994240
:102F6000C4D00120BDE8F0813949B0684B6823F036
:102F7000F00303434B60BCE77268354C012A28D14B
:102F80004FF4003393FAA3F1216893FAA3F3B3FA51
:102F900083F303F01F0302FA03F30B42E1D06368EB
:102FA00023F003031A43626000F0C2F87368012B38
:102FB000074641F288381FD1636803F00C03042BE5
:102FC00099D000F0B5F8C01B4045F5D90320BDE805
:102FD000F081022A0CBF4FF00073022393FAA3F191
:102FE000206893FAA3F3B3FA83F303F01F030121DC
:102FF00001FA03F30342D1E7022B10D1636803F017
:103000000C03082B3FF477AF00F092F8C01B40454B
:10301000F4D9DBE700F08CF8C01B4045D6D86368D4
:1030200013F00C0FF6D166E7136823F007032B4368
:103030001360136803F007039D4292D162E763684F
:10304000F16823F4E0630B43636061E70020024012
:103050000010024024660008A4010020084B4FF431
:10306000E0625B6892FAA2F2B2FA82F203F4E063E1
:10307000D340044AD35C044A1068D840704700BF6C
:103080000010024034660008A4010020084B4FF4F1
:1030900060525B6892FAA2F2B2FA82F203F46053D1
:1030A000D340044AD35C044A1068D840704700BF3C
:1030B0000010024034660008A40100200F230360C2
:1030C0000B4B5A6802F0030242605A6802F0F002A9
:1030D00082605A6802F4E062C2605B68DB0803F455
:1030E000E0630361034B1B6803F007030B60704749
:1030F000001002400020024070470000074A08B557
:10310000136843F010031360032000F017F80F203A
:10311000FEF764FDFFF7F0FF002008BD002002402D
:10312000024A136801331360704700BF841A0020FD
:10313000014B1868704700BF841A0020074AD36803
:1031400023F4E0631B041B0C43F0BF63000243F451
:10315000003300F4E0600343D360704700ED00E00B
:103160000368D3F8000270B540F001004C69C3F861
:1031700000020122D3F81C52A240D0430540C3F8FC
:103180001C52CD6985BBD3F80C52CE680540C3F8FC
:103190000C528D8803EBC40445EA0645C4F840523E
:1031A0008E680D8845EA0645C4F844528C696CBBAC
:1031B000D3F804420440C3F804420C6954BBD3F86A
:1031C00014422040C3F81402096A012902BFD3F84F
:1031D0001C120A43C3F81C22D3F8002222F0010279
:1031E000C3F80022002070BD012DDFD1D3F80C52AE
:1031F0000E681543C3F80C528D8803EBC40445EAEE
:103200000645C4F840528E688D89CBE7D3F8044256
:103210001443D0E7012CD7D1D3F814021043D1E7DF
:10322000704770B50446002872D090F8393003F02A
:10323000FF021BB980F83820FFF7F2FF022384F861
:10324000393023681A6822F002021A601A6842F0C4
:1032500001021A60FFF76CFF064623685D6815F0EF
:10326000010557D05A68D1074FD5A269012A1A68BB
:103270000CBF42F0800222F080021A60E269012A4B
:103280001A680CBF42F0400222F040021A60226A23
:10329000012A1A680CBF42F0200222F020021A60B4
:1032A000626A012A1A680CBF42F0100222F0100272
:1032B0001A60A26A012A1A680CBF42F0080222F0C2
:1032C00008021A60E26A012A1A680CBF42F004027E
:1032D00022F004021A60E168A2680A4321690A43E5
:1032E00061690A43616801390A43DA611A6822F0A8
:1032F00001021A60FFF71CFF054623685A68D207CF
:1033000013D4586810F001001BD0042384F839301E
:10331000012070BDFFF70CFF801B0A289DD90320F8
:1033200084F8390084F8385070BDFFF701FF401B66
:103330000A28E2D90320002384F8390084F83830C1
:1033400070BD0123E06384F8393070BD7047000020
:10335000214A0368904210B505D0B0F1804F02D0E9
:103360001E4CA0420CD14C6823F07003904243EAFB
:10337000040310D0B0F1804F0DD0184A90420AD00B
:10338000174A904207D002F58062904203D002F5BE
:103390008062904203D1CA6823F4407313434A69A0
:1033A00023F08003134303608B68C3620B6883625E
:1033B000094B98420BD003F5A053984207D003F570
:1033C0008063984203D003F58063984201D10B6972
:1033D00003630123436110BD002C01400004004041
:1033E0000040014010B50446A0B190F83D3003F014
:1033F000FF021BB980F83C20FFF7A8FF022384F8E6
:103400003D302068211DFFF7A3FF012384F83D30E4
:10341000002010BD012010BD036A10B501248C40AE
:1034200023EA04030362036A8A401A43026210BD5E
:1034300010B5044601220068FFF7EEFF23680C4A2E
:1034400093420BD002F5A052934207D002F580625E
:10345000934203D002F58062934203D15A6C42F446
:1034600000425A641A6842F001021A60002010BD3E
:10347000002C0140FFF7DCBF7047000038B5044660
:1034800005682169A368C26928680B4361690B4319
:103490004949134301400B432B606B68E168206A84
:1034A00023F440530B436B60A968A36921F4306196
:1034B00003430B43AB60414B9D4212D103F558438C
:1034C0003F491B6B03F00303B2F5004FCB5C3BD1CC
:1034D000082B36D8DFE803F00F2124352D3535359C
:1034E0003000384B9D4203D003F580639D425ED18E
:1034F000B2F5004F31D1FFF7B1FD61684A0802EB28
:103500004003B3FBF1F39BB2002023F00F022168CC
:10351000C3F342031343CB6038BDFFF7B7FDECE7BD
:103520006068430803F5740303F51053B3FBF0F32D
:10353000E9E7FFF79FFCE0E76068430803F58033A5
:10354000F4E701200023E0E7082B33D8DFE803F09D
:1035500005101B32273232322A00FFF77FFD6368E5
:1035600000EB5300B0FBF3F080B2E860002038BD00
:10357000FFF78CFD636800EB5300B0FBF3F00F4BDB
:1035800080B2D860F2E76268530803F5F40303F5EC
:103590009053B3FBF2F3094A9BB2D360E6E7FFF71F
:1035A00069FCE7E76268530803F50043F1E7B2F509
:1035B000004FC6D0012038BDF369FFEF003801404D
:1035C0005C66000800440040436ADA0710B506D57F
:1035D0000168846A4A6822F4003222434A609C07E8
:1035E00006D50168C46A4A6822F4803222434A60E0
:1035F000590706D50168046B4A6822F480222243E9
:103600004A601A0706D50168446B4A6822F40042F2
:1036100022434A60DC0606D50168846B8A6822F47E
:10362000805222438A60990606D50168C46B8A6875
:1036300022F4005222438A605A060FD50168046CB6
:103640004A6822F480122243B4F5801F4A6005D1F3
:103650004A68446C22F4C00222434A601B0606D525
:103660000268816C536823F400230B43536010BD40
:103670002DE9F041069D04460F46164698462168FE
:10368000CA6937EA02030CBF01220022B24202D00B
:103690000020BDE8F0816B1CF2D09DB923681A6848
:1036A00022F4D0721A609A6822F001029A602023F4
:1036B00084F8693084F86A30002384F86830032085
:1036C000BDE8F081FFF734FDA0EB08008542D6D2BB
:1036D000E4E773B504460026C666FFF729FD2368B4
:1036E0001B681A07054617D423681B685B070AD5B1
:1036F0006FF07E43009300222B464FF4800120465A
:10370000FFF7B6FFA0B92023002084F8693084F8C1
:10371000680084F86A300CE06FF07E430093324614
:1037200003464FF400112046FFF7A2FF0028DBD02C
:10373000032002B070BD10B5044660B390F8693044
:1037400003F0FF021BB980F86820FFF795FE22689E
:10375000242384F86930136823F0010313602046A2
:10376000FFF78CFE012816D0636A13B12046FFF7DD
:103770002BFF23685A6822F490425A609A6822F01C
:103780002A029A601A6842F0010220461A60BDE8D7
:103790001040FFF79EBF012010BD0368DB6918478A
:1037A00003685B69184703689B6A184700F091BA81
:1037B000A0F14C00FFF7FABF00F08EBAA0F14C0068
:1037C000FFF7FABF4FF0FF31603000F01BBEA0F1F1
:1037D0004C00FFF7F7BF603000F017BEA0F14C00BF
:1037E000FFF7F9BF10B5044600F07EFA002104F19E
:1037F0004C0000F0E9F8064B03F108022833226080
:10380000E36404F1600000F0E5FD204610BD00BF58
:1038100060660008007B7047036870B5044683B992
:10382000094D4FF0FF312868FDF794FC23682BB950
:10383000261D02D0304600F0CDFD26602868FDF739
:10384000B1FC206870BD00BF9414002038B5044658
:103850000D4B036000234360A16002730B480D46CB
:10386000FFF7DAFF4FF0FF3100F0CCFD55B1084B08
:103870001A6862601C600548FFF7CEFF00F0C5FDC6
:10388000204638BD6560F6E7D86600082C10002099
:1038900028100020124B10B5036004461148FFF7B2
:1038A000BBFF4FF0FF3100F0ADFDA3682BB10E4A16
:1038B00013689C420ED1636813600A48FFF7ACFF9F
:1038C00000F0A3FD237B13B9204600F09FFC2046A7
:1038D00010BD13465A689442FBD162685A60ECE707
:1038E000D86600082C1000202810002010B50446CF
:1038F000FFF7D0FF204600F086FC204610BD0000F8
:10390000F8B5074610480E46FFF786FF4FF0FF3127
:1039100000F078FD0D4B1C6864B1A5688DB132468E
:103920003946284601F0B7FF58B9284601F0ABFFE9
:10393000864206D10448FFF76FFF00F066FD20467F
:10394000F8BD6468E8E700BF2C10002028100020B4
:1039500070477047F8B503689B6B0E4604468F1896
:1039600098473546BD4207D0236815F8011B1B6CEC
:10397000204698470130F5D123682046DB6B9847F5
:10398000A81BF8BDF8B503689B6B0E4604468F185C
:1039900098473546BD4208D0236820465B6C98475F
:1039A000431C02D005F8010BF4E723682046DB6BCB
:1039B0009847A81BF8BD002070470020704770474B
:1039C00000207047002070471FB504460022FFF713
:1039D0003DFF094B2360002323612246074901A8CC
:1039E00001F0B4FE064901A801F014F8206100F0CE
:1039F000E6FB204604B010BD3867000828670008C1
:103A00002C67000810B5064B03600446006900F0FF
:103A100047FE044B23602046FFF73CFF204610BDC5
:103A200038670008E8660008704700EB011202F1F1
:103A30000C0093691B6818474FF0FF319C3000F071
:103A4000E1BC9C3000F0E1BC70B505460E4655F86F
:103A5000043B9B680446984731462846FEF7A4FA83
:103A600023680546DB6820469847284670BD84B029
:103A700073B5064607AC84E80E0056F8043B9B6815
:103A800005469847002301930A9B009394E80E0093
:103A90003046FEF7CFFA2B680446DB682846984785
:103AA000204602B0BDE8704004B07047F8B5054646
:103AB0000E4655F8043B17469B68044698473A461D
:103AC00031462846FEF707FB23680546DB6820469B
:103AD00098472846F8BD000070B504460D4B44F8E1
:103AE000043B05462046FEF73BFA204605F19C04C0
:103AF000FEF744FA204600F08BFC15F10C0606D0C8
:103B0000B44204D0103C2046FCF7BAFBF8E7284644
:103B100070BD00BF8867000810B50446FFF7DCFFE2
:103B2000204600F070FB204610BD884238B50446A0
:103B30000D460AD0FCF7A4FB3CB1EB681BB15B68F7
:103B4000294620469847EB68E360204638BD0000D0
:103B50002DE9FF471A4B0360174600F10C030022C2
:103B600004460E464260826000F19C081D46DA6001
:103B700010334345FBD1404600F02CFCDFF848A051
:103B8000DFF8489045450CD069462846CDF800A09E
:103B9000CDF80C90FFF7C9FF6846FCF771FB1035B4
:103BA000F0E7251D3A4631462846FEF715FB284624
:103BB00022460449FEF7C8F9204604B0BDE8F08764
:103BC000886700082B3A0008293A00083C6300087F
:103BD0002DE9FF410546884655F8043B9B6804469D
:103BE00016469847D8F80C70300187B10C30414622
:103BF0002044FFF79AFF012231462846FEF75CFB7E
:103C000023682046DB68984704B0BDE8F081074B85
:103C100000930C30064B039369462044FFF785FF61
:103C20006846FCF72DFB3A46E6E700BF293A000854
:103C30003C63000810B50023036043600A782F2A14
:103C400004460DD14A785AB1481C206019462368B1
:103C50001A782F2A06D101332360FFF751FE6060E6
:103C6000204610BD002AF8D0013301312360EEE771
:103C700000687047406808B520B1FFF7CBFD431ED0
:103C80005842584108BD10B50446FFF7F3FF00B194
:103C9000606810BD406808B520B1FFF7BBFDB0FA01
:103CA00080F0400908BD10B50446FFF7F3FF00B1EE
:103CB000606810BD4068003018BF01207047704731
:103CC0007047704700EB011202F12800536B1B682C
:103CD00018470430FEF742BD10B504300C46FEF71D
:103CE0005FFD204610BD00002DE9F04305461E464D
:103CF0001B4B45F8043B85B004468846914600219D
:103D00002422284601F051F8002262636264694669
:103D1000A664144F144E009704F128000396FFF791
:103D200004FF6846FCF7ACFA694604F138000097D6
:103D30000396FFF7FAFE6846FCF7A2FA4A464146A8
:103D40002846FEF749FCA16C2846FEF7EBFC284606
:103D500022460649FEF7EAFC204605B0BDE8F0839E
:103D6000A0670008BF3C00083C630008C53C000891
:103D7000C36810B504460BB19B689847204610BD38
:103D800038B5044648B15830A04206D0A0F12C0501
:103D90001438FFF7EDFF2846F6E7204638BD00004F
:103DA00070B50E4C2046002528263246294640F89C
:103DB000045B00F0FAFF3246294604F13000E56268
:103DC00000F0F3FFA5652046E565054A84F86050DC
:103DD0000449BDE8704000F0EDB900BF4810002074
:103DE00088010020813D000810B50446006930B10B
:103DF000036861695B6A98470023236110BD6FF017
:103E0000150010BD30B40446006903689D6A13466E
:103E1000AC460A46616930BC604730B4044600696C
:103E20000368DD6A1346AC460A46616930BC6047E8
:103E3000036941691A681846126B104703694169A2
:103E40001A681846526B104730B40446006903687C
:103E50009D6B1346AC460A46616930BC60470369F6
:103E600041691A681846D26B1047036941691A689C
:103E70001846126C1047036941691A681846526C5B
:103E8000104770B50D460169044641B929680E6AAC
:103E900000F114012846B04718B9256170BD6FF0D4
:103EA000150070BD074B10B50360036904460BB1E4
:103EB000FFF79AFF044B23602046FFF7EBFC2046F8
:103EC00010BD00BFB8670008E866000810B50446DA
:103ED000FFF7E8FF204600F096F9204610BD0000ED
:103EE00010B5002204461146FFF7B0FC034B2360D7
:103EF000002323616361204610BD00BFB86700083E
:103F000000F0AABF01F006B800F058BF70B5054632
:103F1000FEF720FA4FF47A7495FBF4F4002C064671
:103F200002DDFCF715FB28B9FEF714FA801BA84246
:103F3000FAD370BD204600F04BFAF5E74FF47A73E0
:103F40005843FFF7E3BF0000034B10B5036004467E
:103F5000FFF7A8FF204610BD0468000808B5084B0D
:103F60001B685BB9022107480F22FEF735FB4FF4AF
:103F700016510448BDE80840FEF7D4BB08BD00BF99
:103F8000F40D0020601A0020022810B5044601DC60
:103F9000002010BD00F02CFB09230360033C094BFB
:103FA00053F82400002243F8242040B103681B6921
:103FB0009847041EECDA00F01BFB644204604FF0EB
:103FC000FF3010BDAC100020F8B505460E46144673
:103FD00000F00EFB0923022D03600FDC124B1B685F
:103FE0000BB9FFF7BBFF35463719104EBD4215D050
:103FF00015F8011B3046FEF7D3FBF7E7033D0C4BEA
:1040000053F8250060B103682246DB6831469847C3
:10401000041E03DA00F0ECFA634203602046F8BDA8
:104020004FF0FF34FAE700BFF40D0020601A0020C3
:10403000AC10002070B504460D46164600F0D8FAC4
:104040000923022C03600BDC0F4B1B680BB9FFF735
:1040500085FF0E48FEF782FB01242870204670BDC4
:10406000033C0B4B53F8240058B1036832469B685D
:1040700029469847041EF1DA00F0BAFA6342036059
:10408000ECE74FF0FF34E9E7F40D0020601A002060
:10409000AC10002010B5044600F0AAFA0923022C47
:1040A000036010DD033C0A4B53F8240040B1036861
:1040B0009B699847041E08DA00F09AFA644204608B
:1040C0004FF0FF3010BD012010BD002010BD00BF1B
:1040D000AC10002070B504460D46164600F088FA74
:1040E0000923022C03600BDD033C084B53F824002A
:1040F00040B1036832462946DB69BDE87040184785
:10410000002070BD4FF0FF3070BD00BFAC1000202C
:10411000022808B504DC4FF400534B60002008BDB2
:1041200000F066FA092303604FF0FF3008BD08B5C0
:10413000FEF74CFBFCF79AFA08BD704708B5FFF78D
:10414000FCFFBDE80840FCF7D9B800000C4A136832
:1041500010B51844EFF30881884205D3094B0C22AF
:104160001A604FF0FF3010BD07490C6824B10749B1
:10417000096821448842F1D21060184610BD00BF82
:10418000A8010020881A0020C8110020CC110020AE
:10419000074C08B523680546986800F03BFB236888
:1041A000D86800F037FB0DB1FCF7F3F9FEE700BF6C
:1041B000AC0100200120704708B5FFF7E9FF00219E
:1041C00001F00EBA08B5FCF75FFA08BD08B5FCF7B8
:1041D00063FA08BD10B500F05DFD044610B9024851
:1041E000FCF7D2F9204610BD4868000808B100F07D
:1041F00059BD704710B50446FFF7A6FE2046FFF7ED
:10420000F5FF204610BDFFF7F1BF000010B50446D2
:104210000C48FFF701FB4FF0FF3100F0F3F80023EB
:10422000094A194652F82300A04208BF42F8231059
:104230000133402BF6D10348FFF7EEFABDE81040FA
:1042400000F0E3B8AC110020AC1000202DE9F347DA
:1042500089464E49064601F00CFB044628B9FFF793
:104260007DFE204602B0BDE8F0874949304601F0A6
:1042700000FB18B9FFF772FE0124F2E7454930460A
:1042800001F0F7FA18B9FFF769FE0224E9E700F038
:10429000AFF9092303604048404FFFF7BDFA4FF0E4
:1042A000FF3100F0AFF80024B84657F82450002D35
:1042B00054D00134402CF8D100F09AF9182303604F
:1042C0003548FFF7A9FA00F0A0F80DE0314668463E
:1042D000FFF7B0FC6846FFF7EDFC40B947F8240053
:1042E00000F086F9022303604FF0FF34B9E7684617
:1042F000FFF7D0FC20B16846FFF7D5FC05463FE04C
:104300006846FFF7C0FC824630B900F071F902231D
:10431000036047F824A0E7E71820FFF75BFF064695
:10432000FFF7DEFD1E4B33606846FFF7A1FC29F462
:104330008033024651463046FFF7A3FD071E0BDAD5
:1043400000F056F97F4207601EB1336830465B6863
:10435000984748F82450C7E7354611E04FF0FF333F
:104360000D4847F82430FFF757FA00F04EF833783D
:104370003A2BABD16A460B49304601F00BFA009D4F
:10438000002DE6D048F8245003346AE76D68000831
:104390007468000865680008AC110020AC100020AB
:1043A000046800082867000838B50446FFF71CFDBC
:1043B00005461CB1236820465B689847284638BDEF
:1043C000024B1B6803B11847704700BFD011002093
:1043D000FCF730BE38B500F1080504461022002174
:1043E000284600F0E2FC204640F8045FFCF794FE0B
:1043F000206010B90248FCF7C7F8204638BD00BF5E
:104400007C6800080068FCF7A5BE0068FCF7CABE1F
:1044100010B504460068FCF70BFF204610BD0000F5
:1044200080F309887047EFF309807047684680F38E
:1044300009885A480078C00714BF0220032080F37F
:1044400014887047DFF858C1EFF305831B0618BFC7
:104450006047EFF31483DB0708BF604700DF704756
:10446000DFF840C1EFF305831B0618BF6047EFF389
:104470001483DB0708BF604700DF7047EFF3098054
:10448000816911F8021CE1BB90E80F1010B5E047FC
:10449000BDE81040EFF3098C8CE80700424B93E82D
:1044A0000600914208BF704741B91EF0100F16D1A7
:1044B0003E49086820F00100086010E01EF0100F6F
:1044C00006BF2CED108A0120002081F825002CE980
:1044D000F00FC1F82CC00CB4FCF762FA0CBC1A60E7
:1044E000D2F82CC0BCE8F00F92F8250000280EBFCF
:1044F0006FF0020E6FF0120EBCEC108A8CF309887C
:10450000704710B52A4A1268914209D8294C54F8CC
:10451000214090E80F10A047EFF3098C8CE80F00C2
:1045200010BD10B5FCF7C8F9BDE810401E4B93E86C
:104530000600914208BF7047EFF3098C1EF0100F80
:1045400006BF2CED108A0120002081F825002CE9FF
:10455000F00FC1F82CC00CB4FCF722FA0CBC1A60A6
:10456000D2F82CC0BCE8F00F92F8250000280EBF4E
:104570006FF0020E6FF0120EBCEC108A8CF30988FB
:10458000704710B5FCF7EEF9FFF7CEBF10B5FCF79A
:10459000E7F9FCF7E7F9FFF7C7BF0000DE630008A3
:1045A000CF0A0008E90A0008D419002034EF00E01F
:1045B00000000000FCFFFFFFDFF820D0002103E037
:1045C000074B5B58435004310648074B42189A4248
:1045D000F6D3FEF765F9FBF7FDFEFEE7003000209D
:1045E0007C6A00088801002090030020FEE700009C
:1045F000014B1868704700BFAC01002070B505463C
:104600000C4611B90026304670BD18B183690BB94C
:1046100000F052F91F4B9C4232D16C68B4F90C3057
:10462000002BEFD02146284600F042F8236B0646C7
:1046300033B1216A284698470028B8BF4FF0FF36AB
:10464000A3891B0603D521692846FFF75DFC616B32
:1046500041B104F14403994202D02846FFF754FCCB
:1046600000236363A16C21B12846FFF74DFC0023B2
:10467000A36400F08DF90023A38100F08AF9C2E75A
:10468000054B9C4201D1AC68C8E7044B9C4208BF73
:10469000EC68C3E7C4680008E4680008A468000880
:1046A000024B01461868FFF7A9BF00BFAC0100200C
:1046B0008A892DE9F041054610070C465AD44B680B
:1046C000002B05DC0B6C002B02DC0020BDE8F08128
:1046D000E66A002EF9D0002312F480522F682B6076
:1046E00033D0606DA3895A0705D56368C01A636B20
:1046F0000BB1236CC01A00230246E66A216A2846E1
:10470000B047431CA38906D129681D294BD82B4AE1
:10471000CA40D60747D500226260D90422692260C8
:1047200004D5421C01D12B6803B96065616B2F6011
:104730000029CAD004F14403994202D02846FFF769
:10474000E3FB00206063BDE8F081216A0123284675
:10475000B047411CC6D12B68002BC3D01D2B01D004
:10476000162B01D12F60B0E7A38943F04003A3814A
:10477000BDE8F0810F69002FA7D093070E6808BF2E
:104780004B690F6018BF0023A6EB07088B60B8F1D8
:10479000000F9ADD43463A46216AA66A2846B0478A
:1047A000002807DCA38943F04003A3814FF0FF30CA
:1047B000BDE8F0810744A8EB0008E8E701004020CD
:1047C00038B50B6905460C46DBB118B183690BB9E6
:1047D00000F072F80C4B9C4209D16C68B4F90C30B3
:1047E0007BB121462846BDE83840FFF761BF074B43
:1047F0009C4201D1AC68F1E7054B9C4208BFEC68D4
:10480000ECE7002038BD00BFC4680008E468000879
:10481000A4680008014620B9044B0549186800F057
:1048200093B9044B1868FFF7CBBF00BF04690008B9
:10483000C1470008AC010020014900F085B900BF64
:10484000C1470008002310B504460360436083603D
:1048500081814366C28103614361836119460822F5
:104860005C3000F0A2FA054B6362054BA362054B76
:10487000E362054B2462236310BD00BFE9570008C3
:104880000F580008475800086B58000870B54A1EBA
:10489000682555430E4605F17401FFF731FB0446C8
:1048A00040B1002180E842000C30A06005F16802B0
:1048B00000F07BFA204670BD836910B5044633BB17
:1048C0008364C3640365124B124A1B688262984278
:1048D00004BF0123836100F01FF86060204600F0F0
:1048E0001BF8A060204600F017F80022E0600421C9
:1048F0006068FFF7A7FF01220921A068FFF7A2FF68
:1049000002221221E068FFF79DFF0123A36110BD81
:104910000469000839480008F8B51C4B1E68B369E3
:10492000074613B93046FFF7C7FF4836B4687368C7
:10493000013B03D5336833B13668F7E7B4F90C505F
:104940006DB16834F4E704213846FFF79FFF30600B
:104950000028F1D10C233B6004462046F8BD4FF6F9
:10496000FF73E3810123A38165662560A56065600F
:1049700025616561A5610822294604F15C0000F00B
:1049800014FA6563A563A564E564E6E704690008B5
:1049900070477047F7B50F46114601AA054601F06A
:1049A0000DF9064618B90024204603B0F0BD28468C
:1049B000FFF7B2FF04460028F5D04FF4DB73019AED
:1049C0003946284600F0BAFD002806DA0025FFF730
:1049D000DFFFA581FFF7DDFFE5E70A4B63620A4BC6
:1049E000A3620A4BE3620A4B2363F305E081A681CD
:1049F0002462D9D5022300222146284600F012F86D
:104A0000D2E700BFE95700080F58000847580008D0
:104A10006B580008024B0A4601461868FFF7BABFF8
:104A2000AC01002000F000B82DE9F8430C46914697
:104A30001E46054618B183690BB9FFF73DFF3F4B92
:104A40009C4212D16C68A38903F48473B3F5847F0C
:104A500003D121462846FFF7B3FED4F82C80B8F1E5
:104A6000000F0CD11D232B6057E0354B9C4201D128
:104A7000AC68E8E7334B9C4208BFEC68E3E7012EE3
:104A800030D0022E01D0002E55D123691BB921460A
:104A9000284600F0BFF821462846FFF791FE07465A
:104AA00000283AD133464A46216A2846C047013099
:104AB00033D0616B41B104F14403994202D02846DE
:104AC000FFF722FA0023636323692360A38900218F
:104AD00023F402636160A381082204F15C0000F00A
:104AE00064F91CE021462846FFF76AFEA28912F409
:104AF00080520CD0606DA3895A0713D56368C01A21
:104B0000636B0BB1236CC01A81440026BDE7216A98
:104B100033462846C047411CEDD14FF0FF37384699
:104B2000BDE8F8831B07EFD52368002BECD0226982
:104B30009B1A1844E8E7162395E700BFC4680008ED
:104B4000E4680008A46800082DE9F8438046894617
:104B500000F14804002614B93046BDE8F883A56882
:104B60006768013F01D52468F5E7AB89012B07D9B8
:104B7000B5F90E30013303D029464046C8470643F5
:104B80006835EEE770B50D4E0D4CA41BA410002542
:104B9000A54209D10B4E0C4C01F0C4FBA41BA41080
:104BA0000025A54205D170BD56F82530984701353E
:104BB000EEE756F8253098470135F2E77C030020F0
:104BC0007C0300207C0300208803002070B50E4683
:104BD000B1F90E10002990B014461D4607DA0023E3
:104BE0002B60B3891A0610D44FF480630EE001AA3B
:104BF00001F01AF80028F2DB029A02F47042A2F5E2
:104C000000535A425A412A60EEE7402300202360B5
:104C100010B070BD8B8973B59D0706460C4607D54D
:104C200004F14703236023610123636102B070BD77
:104C300001AB6A46FFF7CAFF009905463046FFF709
:104C40005FF948B9B4F90C309A05EFD423F00303A7
:104C500043F00203A381E3E70D4BB362A389206015
:104C600043F08003A381009B6361019B20615BB1E2
:104C7000B4F90E10304600F0E9FF28B1A38923F003
:104C8000030343F00103A381A3891D43A581CDE75D
:104C900039480008024B01461868FFF731B900BFD8
:104CA000AC010020024B01461868FFF72DB900BF88
:104CB000AC01002000000000000000000000000027
:104CC00001F0FF01102A2BDB10F0070F08D010F8BD
:104CD000013B013A8B422DD010F0070F42B3F6D1C1
:104CE000F0B441EA012141EA014122F007047FF0DA
:104CF00000070023F0E80256083C85EA010586EA31
:104D0000010685FA47F5A3FA87F586FA47F6A5FA6C
:104D100087F68EB9EED1F0BC01F0FF0102F0070278
:104D200032B110F8013B013A83EA010313B1F8D123
:104D30000020704701387047002D06BF3546033804
:104D4000073815F0010F07D1013015F4807F02BF3D
:104D5000013015F4C03F0130F0BC0138704700BF8E
:104D600010B5431E0A44914200D110BD11F8014B09
:104D700003F8014FF7E7884210B501EB020303D8AF
:104D8000421E99420CD110BD9842F9D28118D21A14
:104D9000D34200D110BD13F8014D01F8014DF7E7E2
:104DA00011F8014B02F8014FEBE70244034693422E
:104DB00000D1704703F8011BF9E7000038B505463C
:104DC000002945D051F8043C0C1F002BB8BFE41853
:104DD000FFF7F8F91F4A1368104633B9636014608F
:104DE0002846BDE83840FFF7F1B9A3420CD9216845
:104DF0006218934204BF1A685B68636004BF52186C
:104E000022600460ECE713465A680AB1A242FAD95C
:104E100019685818A0420BD12068014458188242E2
:104E20001960DDD1106852685A6001441960D7E7F3
:104E300002D90C232B60D3E7206821188A4204BFD3
:104E400011685268626004BF091821605C60C7E79E
:104E500038BD00BFD411002070B5CD1C25F003056E
:104E600008350C2D38BF0C25002D064601DBA94264
:104E700003D90C233360002070BDFFF7A3F9234A48
:104E80001468214691B9224C23681BB9304600F0C2
:104E900067FB20602946304600F062FB431C26D1A8
:104EA0000C2333603046FFF791F9E4E70B685B1B96
:104EB0001AD40B2B0FD90B60CD50CC183046FFF70E
:104EC00085F904F10B00231D20F00700C31A1BD045
:104ED0005A42E25070BD8C420DBF63684B686360FC
:104EE000136018BF0C46E9E70C464968CAE7C41CC2
:104EF00024F00304A04205D0211A304600F030FB14
:104F00000130CDD02560D9E770BD00BFD41100209D
:104F1000D8110020F8B5074614460E4621B91146AF
:104F2000BDE8F840FEF7ECBF22B9FEF7EDFF2546DD
:104F30002846F8BD00F0D0FE84420FD921463846FD
:104F4000FEF7DEFF05460028F2D031462246FFF785
:104F500007FF31463846FEF7D7FFE9E73546E7E772
:104F60002DE9F04791461F468A680B69DDF82080DD
:104F70009342B8BF1346C9F8003091F84320064663
:104F80000C4612B10133C9F800302368990642BFBC
:104F9000D9F800300233C9F80030256815F006054D
:104FA00007D104F1190AE368D9F800209B1A9D4241
:104FB00029DB94F843302268003318BF012392069E
:104FC0002ED404F1430239463046C047013021D087
:104FD0002368E568D9F8002003F00603042B08BF16
:104FE000AD1AA36822690CBF25EAE5750025934236
:104FF000C4BF9B1AED184FF000091A344D451BD160
:105000000020BDE8F0870123524639463046C047AC
:10501000013003D14FF0FF30BDE8F0870135C2E722
:10502000E1185A1C302081F84300224494F84510BE
:1050300082F843100233C4E7012322463946304642
:10504000C0470130E6D009F10109D7E72DE9F04367
:1050500017460A7E85B06E2A984606460C460C9B7B
:1050600001F1430E00F0BC801AD8632A2ED00AD872
:10507000002A00F0C880582A00F08A8004F1420516
:1050800084F842202AE0642A01D0692AF6D12168F6
:105090001A6811F0800F23D0111D1960136827E0E2
:1050A000732A00F0B48008D86F2A2AD0702AE5D17C
:1050B0000A6842F020020A6003E0752A21D0782AAB
:1050C000DCD1782284F845206E4964E01A6801F149
:1050D0004205111D1960136884F842300123A3E0D2
:1050E00011F0400F02F104011960D7D0B2F900307D
:1050F000002B03DA2D225B4284F8432062490A2206
:1051000017E02068196810F0800F03D0081D1860A0
:105110000B6806E010F0400F01F104001860F7D0B2
:105120000B8859496F2A14BF0A220822002084F8EC
:1051300043006568A560002DC0F29C80206820F0C7
:1051400004002060002B3FD1002D40F09580754673
:10515000082A0BD12368DA0708D5236962689A42C6
:10516000DEBF302305F8013C05F1FF35AEEB05034A
:105170002361CDF800803B4603AA21463046FFF765
:10518000EFFE013055D14FF0FF3005B0BDE8F083A0
:1051900081F845203C492268186812F0800F00F120
:1051A00004051D6001D0036802E05506FBD50388A5
:1051B000D00744BF42F0200222601BB9226822F0CF
:1051C000200222601022B1E77546B3FBF2F002FB29
:1051D0001033CB5C05F8013D03460028F5D1B7E755
:1051E00008681A68496910F0800F04D0101D186013
:1051F0001368196007E010F0400F02F10400186016
:105200001368F6D01980002323617546B1E71A6848
:10521000111D19601568626800212846FFF750FDCE
:1052200008B1401B606063682361002384F8433049
:105230009FE723692A4639463046C0470130A2D04D
:1052400023689B0707D5002504F11909E368039A31
:105250009B1A9D4205DBE068039B9842B8BF184645
:1052600093E701234A4639463046C04701308AD089
:105270000135EBE7002BA7D10B7884F8423004F11D
:10528000420565E719690008086900082DE9F04141
:1052900015468A6880460C4632B98A69002A0CBFD6
:1052A00001224FF0FF328A602268D1065FBF1A6880
:1052B000111D196017680026A369DBB1012B07D106
:1052C0002B6862691B78D35CA3B9002E32D106E04B
:1052D000022B07D0002E2DD1A369012B2AD101204A
:1052E000BDE8F08100F0C6FC2B681B7818444378B9
:1052F0001B07EFD42368DA065EBF2B681B783B7070
:105300002A686B6802F101022A60A26803F1FF3388
:1053100002F1FF326B6006F1010658BF0137A2604F
:1053200042B1002BC8DCD4F880312946404698476A
:105330000028C1D0236813F0100305D1E2680132C0
:10534000E260A26902B13B7023691E44266100201D
:10535000BDE8F0812DE9F04F9A46744B0C46834628
:10536000164693E8070087B003ABA76883E80700F9
:105370006F4BA1696F4A032918BF1A467B1EB3F50C
:10538000AE7F84BF40F25D13A3602368009243F4B4
:10539000506388BF6FF4AE7504F11C0923608CBFA5
:1053A0007F1900274B464FF000080193316803AB8B
:1053B000022253F828000978FFF782FC019B28B3EA
:1053C000B8F1010F56D162682AB9082262602268DA
:1053D00042F400722260226822F4A0622260A26875
:1053E000511EA16092B13268511C316012781A705E
:1053F0005D1C7368013B002B736006DCD4F88031C0
:10540000314658469847002876D12B4608F10108C6
:10541000B8F1030FC9D162680AB90A2262606268F2
:10542000454960690193891A00F0AAF8019B4FF081
:1054300000081D46A368002B38D0316860690A78DF
:10544000805C002832D0302A226821D110051FD577
:1054500008F1010817B10133013FA3607368013BF4
:10546000002B73601BDD336801333360A368013B9D
:10547000A360DFE7B8F1020FB1D1226802F4C06186
:10548000B1F5007FC2D11021616042F48072A5E7BE
:1054900022F4106222600B782B700135DEE7D4F81D
:1054A00080313146584698470028DFD02368D90517
:1054B0000CD54D4508D915F8011CD4F87C3132467D
:1054C000584698476F1E3D464D452CD0226812F035
:1054D00010021ED12A706368009E49465846B047A4
:1054E0002268DAF8003012F0200F08D01A1DCAF82E
:1054F00000201B68186009E04FF00008D6E7D207CB
:10550000F4D51A1DCAF800201B681880E36801331F
:10551000E360A5EB0905A844256945442561002001
:1055200007B0BDE8F08F0120FAE700BF2C69000842
:10553000DD5A0008BD5900084869000838B5074C15
:10554000054608461146002222601A46FEF77EFEF6
:10555000431C02D1236803B12B6038BD881A002098
:1055600038B5064C0023054608462360FEF7EEFDDD
:10557000431C02D1236803B12B6038BD881A002078
:1055800070B50B785E2B13BF4A1C8A1C4B78002128
:1055900008BF0121441E00F1FF0504F8011FA542C8
:1055A000FBD113B9013A104670BD81F00104C45417
:1055B00011460D782D2D01F1010206D05D2DF2D09E
:1055C0000DB90A46EFE72B46F1E74E785D2EFAD08B
:1055D000B342F8DC023101339E42C454FBDCE8E7FD
:1055E00000294FF480630CBF0222002200F000B8B3
:1055F0002DE9F7431D46514B1E6804460F46904661
:1056000026B1B36913B93046FFF756F94C4B9C42AB
:1056100052D17468B8F1020F06D0B8F1010F00F250
:105620008980002DC0F2868021463046FFF7C8F8F9
:10563000616B41B104F14403994202D03046FEF758
:1056400063FC002363630023A3616360A3891B06DB
:1056500003D521693046FEF757FCA38923F44A633A
:1056600023F00303B8F1020FA3815DD001AB6A46BA
:1056700021463046FFF7AAFAA3891843A0812DBB23
:10568000009D2846FFF706FB074600284ED1DDF8AF
:105690000090A9453CD14FF0FF30A38943F00203AD
:1056A000A3810023A36004F1470323602361012346
:1056B000636103B0BDE8F083224B9C4201D1B46822
:1056C000A8E7214B9C4208BFF468A3E7002FD8D07D
:1056D000B36913B93046FFF7EFF8B8F1010F08BF0F
:1056E000A389276004BF43F00103A381A389276135
:1056F00013F0080065611BD013F0010018BF6D4264
:105700004FF000031DBFA360A5611846A560D0E758
:105710004846FFF7BFFA07460028BCD0A38943F0EC
:105720008003A3814D46D3E70020B6E7A946F5E7FD
:10573000A060BEE74FF0FF30BBE700BFAC01002028
:10574000C4680008E4680008A46800080EB400B546
:105750009CB04FF402711DABADF81410029006908E
:105760006FF000410A48049107914FF6FF7153F81A
:10577000042BADF816100068019302A900F010FB8D
:10578000029B00221A701CB05DF804EB03B0704756
:10579000AC0100200EB430B59CB01FAC4FF40172C8
:1057A00054F8045BADF814200290069000F06BF8FA
:1057B0000B4B039007900B930A48019400230F931F
:1057C00014934FF6FF73ADF816302A46234602A90C
:1057D000006800F033FC1CB0BDE8304003B07047F7
:1057E0000B580008AC01002010B50C46B1F90E10A2
:1057F00000F078FD0028ABBF636DA3891B1823F46C
:105800008053ACBF6365A38110BD002070472DE9B4
:10581000F0411F468B89DB0505460C46164605D52B
:1058200002230022B1F90E1000F032FAA389B4F974
:105830000E1023F48053A38132463B462846BDE830
:10584000F04100F099B910B50C46B1F90E1000F016
:105850001FFA431CA38915BF606523F4805343F4EA
:105860008053A38118BFA38110BDB1F90E1000F0C1
:1058700095B910F8012B11F8013B012A28BF9A4273
:10588000F7D0D01A7047034613F8012B002AFBD13A
:10589000181A0138704710B56AB10139841810F828
:1058A000013B11F8012F934203D1A04201D0002BFC
:1058B000F5D1981A10BD104610BD2DE9F84F80465D
:1058C000894692461F468B465D460A9815F8014B5D
:1058D00000F0CCF92044467816F008060BD12D2CA8
:1058E0000BD12C7801260BF1020567B1102F14D1D2
:1058F000302C0AD011E0AB46E6E72B2C04BF2C7805
:105900000BF10205F1E7302C27D12B7803F0DF03F0
:10591000582B4BD16C7810270235002E0CBF6FF03E
:1059200000414FF000410022B1FBF7FE104607FB9B
:105930001E1CA4F13003092B11D81C46A7421DDD03
:10594000531C07D0864516D301D1A44513DB00FBB9
:105950000740012215F8014BEBE70A27DDE7A4F128
:105960004103192B01D8373CE8E7A4F16103192B57
:1059700004D8573CE2E74FF0FF32EBE7531C08D165
:105980002223C8F800300846BAF1000F07D1BDE85D
:10599000F88F06B14042BAF1000F0CD022B1013DA0
:1059A000CAF80050BDE8F88F4D46F9E73024002FC3
:1059B000B3D10827B1E7BDE8F88F000037B5064C32
:1059C000064D2468246A002C08BF2C460094FFF77B
:1059D00074FF03B030BD00BFAC01002010020020F6
:1059E0002DE9F0478046894692461E460F463D46C1
:1059F000089815F8014B00F039F92044437813F06A
:105A000008030AD12D2C0AD12C780123BD1C5EB1CC
:105A1000102E13D1302C09D010E02F46E7E72B2CA5
:105A200004BF2C78BD1CF2E7302C25D12A7802F077
:105A3000DF02582A4AD16C78102602354FF0FF3128
:105A40000027B1FBF6F106FB01FE6FEA0E0E3846A9
:105A5000A4F13002092A11D81446A6421DDD002FF8
:105A600018DB814216D301D1A64513DB00FB0640AB
:105A7000012715F8014BEBE70A26DFE7A4F1410205
:105A8000192A01D8373CE8E7A4F16102192A04D8A1
:105A9000573CE2E74FF0FF37EBE7002F09DA22230C
:105AA000C8F800304FF0FF30BAF1000F07D1BDE861
:105AB000F08703B14042BAF1000F0CD027B1013D8D
:105AC000CAF80050BDE8F0874D46F9E73024002EB3
:105AD000B4D10826B2E7BDE8F087000037B5064C20
