:020000040800F2
:1000000000000220197300084D7300084D730008AA
:100010004D7300084D7300084D7300080000000088
:10002000000000000000000000000000DD7100087A
:100030004D7300080000000083720008E37200089E
:100040004D7300084D7300084D7300084D73000890
:100050004D7300084D7300084D7300084D73000880
:100060004D7300084D7300084D7300084D73000870
:100070004D7300084D7300084D7300084D73000860
:100080004D7300084D7300084D7300083146000899
:10009000354600084D730008254600084D730008DA
:1000A0004D7300084D7300084D7300084D73000830
:1000B0004D7300084D7300084D7300084D73000820
:1000C0004D7300084D7300084D7300084D73000810
:1000D0004D7300084D7300084D7300084D73000800
:1000E0004D7300084D7300084D7300084D730008F0
:1000F0004D7300084D7300084D7300084D730008E0
:100100004D7300084D7300084D7300084D730008CF
:100110004D7300084D7300084D7300084D730008BF
:100120004D7300084D7300084D7300084D730008AF
:100130004D73000800000000000000004546000864
:10014000494600084D730008394600084D73000801
:100150004D7300084D7300084D7300084D7300087F
:100160004D7300084D7300084D7300084D7300086F
:100170004D7300084D7300084D7300080000000027
:10018000000000004D7300080000000000000000A7
:100190004D73000800000000000000004D730008CF
:1001A0000000000000000000000000004D73000887
:1001B0004D7300084D7300084D7300084D7300081F
:1001C0004D73000810B5054C237833B9044B13B1B7
:1001D0000448AFF300800123237010BD700200209B
:1001E00000000000EC9200080C4B43B10C480D4994
:1001F00010B5AFF300800C48036823B910BD0A485E
:10020000036833B97047094B002BF7D0BDE81040A5
:100210001847064B002BF5D0184700BF0000000020
:10022000EC92000874020020680200200000000028
:1002300043680B7043681B0A4B70C3888B70C3798B
:10024000CB7083680B7183681B0A4B7143898B7178
:10025000C37ACB71082070470B7843604A7843EA31
:10026000022343608A7843EA02434360CA7843EA40
:10027000026343600B7983604A7943EA0223836017
:100280008A7943EA02438360CA7943EA026383605E
:100290000820704700487047E1890008004870470F
:1002A000C08900080048704752890008004870471C
:1002B00031890008004870471E89000800487047CF
:1002C000FD880008004870476B89000800487047A7
:1002D000DC88000890F8E80570470138002321FA0F
:1002E00003F20833202B00F8012FF8D17047436840
:1002F0002DE9F0410B7043681B0A4B70C3888B706B
:10030000C379CB700D460A1D044600216068814206
:10031000A2EB050302F104020FD2E36853F8213087
:1003200002F8043C180A02F8030C180C1B0E02F821
:10033000020C02F8013C0131E8E72269EA54216924
:10034000EA18090A5170618A9170E17CD170043316
:100350002B44002122699142A3EB050603F104031B
:100360000FD2A26952F8212003F8042C100A03F8D6
:10037000030C100C120E03F8020C03F8012C0131CF
:10038000E8E7E369AB55E269AB19120A5A70E28BF0
:100390009A70E27FDA7004360027E3699F4214D234
:1003A000636A53F8270008F034F880460146A8191C
:1003B000FFF793FF636A043653F82710A8194246E3
:1003C00007F036FD46440137E7E73046BDE8F081E7
:1003D000F8B50E46037906F8013B054680680F46DE
:1003E00008F017F8044601463046FFF776FF22462C
:1003F000A968781D07F01CFD601DF8BD83882DE9F4
:10040000F0410B7083881B0A4B70054680680C46D0
:1004100007F0FFFF07460146A01CFFF75EFF3A46C4
:10042000A968A01D07F004FDE86807F0F2FF07F1D6
:100430000608064601460A3704EB0800FFF74DFFA1
:100440003246E968E01907F0F3FC286907F0E1FF9C
:100450003E4401460746A0190436FFF73EFF3A46E0
:10046000A01929693E4407F0E3FC6B69A3553444A5
:100470001A0A62701A0C1B0EA270E370301DBDE8E0
:10048000F08110B500230360013911F8012F02FA41
:1004900003F4026808332243202B0260F5D110BD1B
:1004A00037B50C4611F8013B0371054601A8FFF76B
:1004B000E8FF019B621D581D111B884204D912F8E8
:1004C000011B02F8021CF7E72344002204341A71CE
:1004D000AC6003B030BD2DE9F34143680D689D4227
:1004E00004460E4604D9A900C06807F037FFE06053
:1004F0006560321D002160688142A2EB060302F1B3
:10050000040213D212F8023C12F8030C1B0443EA53
:10051000002312F8040C034312F8010C43EA0063B1
:10052000E068A36040F821300131E4E7F218F15CA3
:1005300095785078D2782D0445EA00250D431F1D8B
:10054000236945EA02659D4204D9A900A06907F024
:1005500005FFA0612561F319002122699142A3EBF7
:10056000060503F1040313D213F8022C13F8030C4D
:10057000120442EA002213F8040C024313F8010C9F
:1005800042EA0062A069626140F821200131E4E79B
:100590007319725D9F785978DB783F0447EA012729
:1005A000174347EA0367E3699F4205F1040504D94D
:1005B000B900606A07F0D2FE6062E7610027B846C2
:1005C000E3699F421AD2711901A8FFF75AFF2B1D48
:1005D000019DF2181D44911BA94204D212F8011B7F
:1005E00002F8021CF7E77219013B02F8018C626AFB
:1005F0003344236242F827300137E1E7284602B04E
:10060000BDE8F081F0B50B7883804A7885B043EA85
:10061000022383800C460646023101A8FFF731FF12
:10062000019FA31DBD1D1A1B954204D913F8012B70
:1006300003F8022CF7E7E31900225A71631DB36037
:10064000611902A8FFF71DFF2B1D029D07F10A0289
:100650001D442244111B8D4204D912F8011B02F8DB
:10066000021CF7E76119013B2344002201F8012C29
:1006700003A8F360FFF705FF0398043528446319C6
:100680001A1B904204D913F8012B03F8022CF7E748
:100690002218013D0023254402F8013C356193787E
:1006A0005178D2781B0443EA0123215C0B4343EACF
:1006B00002630430736105B0F0BD000030B585B051
:1006C0000446094B019300230293039354F8EC3B37
:1006D00001AA1B680A2105469847204606F089FAB8
:1006E000C5F8FC0005B030BD708800082DE9F04168
:1006F00086B02B4B009300222A4BADF80420054610
:10070000029303930493059200F20C5400F5AE6635
:100710004FF400772368BBB158689A68ADF804209D
:100720001A68036802929B68984723680390586888
:100730000368DB68984721682B68049005971B685D
:1007400009696A46284698470434B442E2D105F262
:10075000D4564FF400772068C8B14368ADF8043030
:100760008368029303689B68984703902068036836
:10077000DB6898472B6804902068D3F800800368F2
:1007800005975B6898476A4601462846C047043487
:10079000A642E0D1012385F8E83506B0BDE8F08136
:1007A00088880008768A0008F0B585B000F1EC056D
:1007B0001F4B0193044600232846029303930E46E1
:1007C00006F017FAD4F8FC203146871A01A8FFF783
:1007D00043FD029B4FF47A76B7FBF6F21344029383
:1007E00006FB1272039B134F284607FB023203924B
:1007F00006F0FFF9029AB0FBF6F3013AD21A039918
:10080000C4F800210C4A06FB13030A4407FB132318
:10081000C4F8043104F5827104F5807000F01CFA0C
:10082000284606F0E6F9C4F8F00505B0F0BD00BFB3
:100830007088000840420F0000CA9A3BF0B5632957
:1008400085B004460E4603DD90F8E855002D4DD0E6
:10085000136804F213311B6810469847FF2384F88D
:100860000C33FE23C0F3072284F80D33C3B284F89F
:100870000E331344DB4384F8116346F3072684F8F0
:100880000F2384F8103384F8126304F21131052227
:100890000023861DB24204DC11F8015B01322B44B7
:1008A000F8E700F108052044DB43B5F5007F80F848
:1008B00013330CDC04F543773E460434F31B9D42AE
:1008C00014DD16F8011B204600F02CFBF6E7094B5F
:1008D000019303238DF80830074B0393236801AA83
:1008E0001B680721204698474FF0FF35284605B082
:1008F000F0BD00BFA0880008878900082DE9F047F7
:1009000000F1EC080446404606F073F9D4F8F035DF
:1009100042F6F822C31A934284BF002384F8E835D4
:10092000D4F8D435054633B1D4F8F43583423CBF0E
:100930000023C4F8D43504F10409002604F58677B1
:10094000D4F80831ABB9484600F094F9E8B994F806
:10095000E80560B1D4F8EC3540F6C412EB1A9342C6
:1009600004D92046FFF7AAFEC4F8EC550020BDE8E4
:10097000F087404606F03DF9D4F80831401B984214
:10098000E1D96FF00100BDE8F087484600F07CF93E
:100990000028DCDBD4F8E435D4F8D4A50344BAF15C
:1009A000070FC4F8E43512D1D4F8E0355A1C2344BB
:1009B000C4F8E02583F80C01D4F8D835013BC4F81D
:1009C000D835002BBCD10823C4F8D435B8E7BAF128
:1009D000000F14D1FF2807D10123C4F8D43505F145
:1009E0001403C4F8F435ABE7404606F002F941F2CF
:1009F0008833401B9842A3D984F8E8A5C1E7BAF12F
:100A0000010F0DD1FE2801D10223DDE794F8E8356E
:100A1000C4F8D465002B93D12046FFF74FFE8FE733
:100A2000BAF1020F09D1C4F8D805C4F8E065032370
:100A3000C4F8D435C4F8E40582E7BAF1030F07D14E
:100A4000D4F8D83503EB0020C4F8D8050423BBE75D
:100A5000BAF1040F0BD15A42D2B2DBB258BF5342A3
:100A6000FF2B01D10523AFE7C4F8D46568E7BAF1DD
:100A7000050F03D1C4F8DC050623D9E7BAF1060F48
:100A80000BD1D4F8DC3503EB00200723C4F8D435B0
:100A9000C4F8DC05D4F8D83593E7BAF1080F7FF431
:100AA0004FAF5A42D2B2DBB258BF5342FF2BC4F809
:100AB000D4657FF445AFD4F8DC356BB92046FFF739
:100AC000FDFD2046FFF712FEC4F8EC55C4F8F055C2
:100AD0004FF0FF30BDE8F0870A2B04D1394620469D
:100AE000FFF762FE2CE7062B08D1394604F2FC50D2
:100AF000FFF7F1FC012384F8F83521E70B2B02D135
:100B000084F8E8651CE7F83354F8230000283FF424
:100B100017AF036839461B68984711E700B5ADF673
:100B2000241D3F4BBF9300240423032202218DE8A0
:100B30001800C0A84FF4807300F084F9FAA806F0FA
:100B40006EF84FF46143FAA8F99306F026F84FF4D3
:100B5000007221460DF58160FE94FF94CDF80044AB
:100B6000CDF8044407F089F94FF4007221460DF5E1
:100B7000C16007F082F9642221460DF6080007F0F3
:100B80007CF9642221460DF66C0007F076F90DF62B
:100B90000C12244BCDF8F83800234FF4E1311360E8
:100BA000C0A8F991CDF8D048CDF8D448CDF8D848B0
:100BB000CDF8DC48CDF8E0488DF8E448CDF8E848B9
:100BC000CDF8EC48CDF8F0488DF8F448CDF8FC4865
:100BD000CDF80049CDF80449CDF80849CDF81049C1
:100BE000CDF81449CDF81849CDF81C4905F0F2FEAE
:100BF000BFA902A8CDF8D048CDF8D448CDF8DC483C
:100C0000CDF8D84801F0BEFA4FF4FA7006F05AF960
:100C100002A801F02DF8BFA8FFF770FE0A20F5E743
:100C2000D0880008B88800080748084A08B5121A92
:100C3000002107F022F906F005FA07F06FF806F038
:100C400008FA06F043FA00BF700200209C22002040
:100C500008B5012006F03AFA30B502680D68044C78
:100C6000B5FBF4F31A4404FB135302600B6030BD70
:100C700000CA9A3BD0F8C020D0F8C400101A18BFA0
:100C8000012070470120704710B5D0F8C420D0F87B
:100C9000BC100346501CC3F8C400885CD3F8C820BD
:100CA000D3F8C440013AB4FBF2F102FB1142C3F89D
:100CB000C42010BD034610B107C983E80700704780
:100CC000704742688168036812F0010F4FEA6202C0
:100CD0001CBF8858C35888181847C36810B5044605
:100CE0000BB19B689847204610BD30B5044685B0CF
:100CF00000F14C05284604F035FA30B3D4F8D02082
:100D0000D4F8D4309A4216D0D4F8D430D4F8CC20C9
:100D1000591CC4F8D410D15CD4F8D830D4F8D4001D
:100D2000013BB0FBF3F203FB1203C4F8D4302846B6
:100D300004F022FADEE700232046012269460393ED
:100D400005F0D6FE6846FFF7C8FF05B030BDC368A2
:100D500010B504460BB19B689847204610BD0000B3
:100D600070B506460B4B46F8983B044646B100F179
:100D7000B805B54204D0103D2846FFF7AEFFF8E7AE
:100D800004F13800FFF7E3FF04F12800FFF7DFFF6D
:100D9000204670BDB091000810B50446FFF7E0FF93
:100DA000204606F0BBF9204610BD000030B5134BBD
:100DB000036085B000252A4669460446039505F080
:100DC00097FE6846FFF789FF012269462046039592
:100DD00005F08EFE6846FFF780FF04F1CC0000F0BE
:100DE00023F904F1BC0000F01FF9054B23602046F5
:100DF000FFF7B6FF204605B030BD00BF808A00086F
:100E0000C891000810B50446FFF7D0FF204606F051
:100E100085F9204610BD000010B586B08DE80C00A5
:100E2000019B029203930491054B9DF820200593AA
:100E300002A905F05DFE02A8FFF74FFF06B010BD46
:100E4000F08900087FB504461D464FF41653089EEE
:100E500005F086FE20460F4B40F8BC3B294600F0CB
:100E6000F2F806FB05F104F1CC0000F0ECF80A4BB7
:100E7000029300230393009304AB204613E90C0074
:100E80002146FFF7C9FF2046C4F8DC50C4F8E060F3
:100E900004B070BD808A0008030F000870B50446D6
:100EA00086B04C3004F05EF9C0B102AD0122294693
:100EB00000262046059605F01BFE2846FFF70DFF8D
:100EC0002046FFF712FF064B02930123039600937F
:100ED00095E80C0021462046FFF79EFF06B070BD46
:100EE000EB0C00084368026810B55C1C4460D154E8
:100EF000C3684168013BB1FBF3F203FB121343608B
:100F000010BD38B500F14C050446284604F00EF932
:100F100038B1284604F014F9C1B204F1BC00FFF75F
:100F2000E1FF38BD38B505460C46CC30C9B2FFF7F5
:100F3000D9FF2846FFF7B2FF204638BD2DE9F04122
:100F400007460C46B1B10D4600F1CC082E4616F806
:100F5000011B21B14046FFF7C5FF3546F6E70A21E0
:100F60004046FFF7BFFF2C1B3846FFF797FF601C7A
:100F7000BDE8F0810846BDE8F0812DE9F041074663
:100F80000D4691B1A2B18C180E4600F1CC08B442C6
:100F900005D016F8011B4046FFF7A4FFF7E73846D7
:100FA000FFF77CFF601BBDE8F0810846BDE8F081DB
:100FB0001046BDE8F08100000EB42DE9F04185B087
:100FC000D0F8DC2002AFD31D23F0070307F124047F
:100FD000ADEB030D54F8048B02AE054600213046FC
:100FE00006F04BFF2246414630467C6007F032FA5D
:100FF000D5F8DC30834202460CD200905D220848CE
:10100000084901F003FE00200C37BD46BDE8F04161
:1010100003B0704731462846FFF7AFFFF4E700BF43
:101020003D8A0008FC89000810B50446006808B134
:1010300006F070F8204610BD00214160C268816052
:10104000006806F01ABF38B5044608460D4606F09B
:1010500055F8E56020602046FFF7EEFF204638BDDA
:10106000002070470020704700487047DB8D000863
:1010700000487047BA8D0008002070470020704774
:1010800000487047DB8D000800487047BA8D0008A3
:10109000436870B50B7043681B0A4B70C3888B7034
:1010A000C379CB700A1D00254468A542A2EB010359
:1010B00002F108021DD2036953F8354003EBC5065F
:1010C0000135736802F8084C260A02F8076C260CF2
:1010D000240E02F8054C1C0A02F8043C02F8034CEA
:1010E0001C0C1B0E02F8066C02F8024C02F8013CC4
:1010F000DAE74269CA544469CA18240A5470C48A97
:101100009470C47DD47004330B4400254469A54217
:10111000A3EB010203F108031DD2026A52F8354025
:1011200002EBC5060135726803F8084C260A03F87D
:10113000076C260C240E03F8054C140A03F8042C43
:1011400003F8034C140C120E03F8066C03F8024C5F
:1011500003F8012CDAE7436A8B54446A8B18240A9B
:101160005C70C48C9C7090F82740DC7004320A4498
:101170000025446AA542A2EB010302F108021DD238
:10118000036B53F8354003EBC5060135736802F86D
:10119000084C260A02F8076C260C240E02F8054CAF
:1011A0001C0A02F8043C02F8034C1C0C1B0E02F84B
:1011B000066C02F8024C02F8013CDAE7426BCA54B2
:1011C000446BCA18240A5470C48E947090F8374047
:1011D000D47004330B440025446BA542A3EB0102F9
:1011E00003F108031DD2026C52F8354002EBC5062C
:1011F0000135726803F8084C260A03F8076C260CC0
:10120000240E03F8054C140A03F8042C03F8034CCD
:10121000140C120E03F8066C03F8024C03F8012CB0
:10122000DAE7436C8B54436C11441B124B70B0F9DA
:1012300046308B7090F84730CB70836C0B71836CA9
:101240001B124B71B0F94A308B7190F84B30CB7157
:1012500002F1080070BD000000487047898C00084A
:1012600000487047688C000838B5044608300D46C1
:10127000FFF70EFFA36D2B54A26D2B18120A5A70A4
:10128000B4F85A209A7094F85B20DA70043028443D
:101290000022A16D8A42A0EB050300F104000FD2E9
:1012A000236E53F8223000F8043C190A00F8031C9E
:1012B000190C1B0E00F8021C00F8013C0132E8E793
:1012C000626EEA54616EEA18090A5170B4F8661049
:1012D000917094F86710D17004332B440021626E32
:1012E0009142A3EB050003F104030FD2E26E52F822
:1012F000212003F8042C100A03F8030C100C120E22
:1013000003F8020C03F8012C0131E8E738BD0000B6
:1013100000487047508D0008004870472F8D000826
:1013200000487047AA8D000800487047898D000862
:1013300000487047ED8B000800487047CC8B0008D0
:1013400000487047CF8C000800487047AE8C0008FA
:1013500003790B70012070470B78037101207047EF
:10136000004870476C8D000800487047ED8C0008FD
:10137000004870476C8D0008004870470E8D0008CB
:101380002DE9F04790F8609007460E46002404F1DE
:101390000108E4B24C4525DAB369D7F838514FEA71
:1013A000C40A5344D3E9000106F0D4FAB36A05EB4A
:1013B000441553446860D3E9000106F0CBFAB36CDE
:1013C000E8605344D3E9000106F0C4FA336E686163
:1013D000A40023441B68AB61F36E1C442368EB61DB
:1013E0004446D4E7BDE8F0870320704700487047C3
:1013F000DB8D000800487047BA8D00080320704755
:10140000004870476C8D000800487047ED8C00085C
:10141000D0F88C007047000000487047508D0008DD
:10142000004870472F8D00082DE9F04F43680E6883
:101430009E42B7B004460D4604D9F100006906F09B
:101440008DFF20616660291D002004F1080E62688E
:101450009042A1EB050301F1080162D211F8072CBB
:10146000130211F8062C069300261304099607961A
:101470000893DDE90823DDE90667164311F8082C17
:101480001F4342EA0608002311F8056C43EA0709E6
:1014900000230B9333060A93DDE90A2346461643DD
:1014A000324611F8046C01964F4600261F43009601
:1014B0003B46DDE900671643324611F8036C3602FD
:1014C0001F9600261F431E963B46DDE91E67164306
:1014D000324611F8026C3604219600261F432096EE
:1014E0003B46DDE920671643324611F8016C3606AB
:1014F000239600261F4322963B46DDE922671643CA
:101500001F4332463B46C4E902232269DEF800301D
:1015100042F8303002EBC006DEF804307360013070
:1015200095E7E918E85C8A784E78120442EA0626C4
:10153000CA7806431F1D636946EA02669E4204D9C3
:10154000F100206A06F00AFF20626661EB190022B2
:1015500004F1180E61698A42A3EB050003F1080348
:1015600060D213F8070C010213F8060C0C91002648
:1015700001040F960D960E91DDE90E01DDE90C6771
:10158000064313F8080C0F4340EA0608002113F83D
:10159000056C41EA070900211191310613F8046C2A
:1015A000039610910026DDE910010296DDE902673D
:1015B00040EA08000643304613F8036C36022596CD
:1015C00041EA090100260F4324963946DDE92467E4
:1015D0000643304613F8026C3604279600260F4364
:1015E00026963946DDE926670643304613F8016C36
:1015F0003606299600260F4328963946DDE92867E6
:1016000006430F4330463946C4E90601206ADEF836
:10161000001040F8321000EBC206DEF804107160D2
:10162000013297E72A18295C937856781B0443EA1D
:101630000626D3780E4346EA0366636A9E4200F1AB
:10164000040704D9F100206B06F088FE206366626F
:10165000EB19002204F1280E616A8A42A3EB05000F
:1016600003F1080360D213F8070C010213F8060C0B
:10167000129100260104159613961491DDE91401C8
:10168000DDE91267064313F8080C0F4340EA060829
:10169000002113F8056C41EA070900211791310672
:1016A00013F8046C059616910026DDE916010496E0
:1016B000DDE9046740EA08000643304613F8036C8E
:1016C00036022B9641EA090100260F432A96394635
:1016D000DDE92A670643304613F8026C36042D967E
:1016E00000260F432C963946DDE92C670643304629
:1016F00013F8016C36062F9600260F432E963946B6
:10170000DDE92E6706430F4330463946C4E90A0136
:10171000206BDEF8001040F8321000EBC206DEF855
:1017200004107160013297E72A18295C9378567883
:101730001B0443EA0626D3780E4346EA0366636B2E
:101740009E4200F1040704D9F100206C06F006FE69
:1017500020646663EB19002204F1380E616B8A4243
:10176000A3EB050003F108035DD213F8070C13F88F
:1017700004BC010213F8060C1891002601041B9604
:1017800019961A91DDE91A01DDE91867064313F885
:10179000080C0F4340EA0608002113F8056C41EAE3
:1017A000070900211D91310613F8036C1C914FF0BD
:1017B000000ADDE91C0136023196CDF8C0A0DDE952
:1017C000306740EA080040EA0A000643304613F852
:1017D000026CCDF8C8A041EA090141EA0B013604C8
:1017E0000F4333963946DDE932670643304613F836
:1017F000016CCDF8D0A036060F4335963946DDE9A9
:10180000346706430F4330463946C4E90E01206C65
:10181000DEF8001040F8321000EBC206DEF80410CB
:10182000716001329AE72B5C6364054408306A7882
:1018300043EA02236364AA7843EA02436364EA78D2
:1018400043EA026363642B79A3646A7943EA02235F
:10185000A364AA7943EA0243A364EA7943EA0263F0
:10186000A36437B0BDE8F08FF8B5044608300E46E3
:10187000FFF7DAFD3318325C9D785978DB782D0458
:1018800045EA0125154345EA0365A36D9D4200F134
:10189000040704D9A900206E06F060FD2066A56546
:1018A000F0190022A16D8A42A0EB060300F10400AA
:1018B00013D210F8023C10F8031C1B0443EA012366
:1018C00010F8041C0B4310F8011C43EA0163216E5D
:1018D000E36541F822300132E4E7F218F15C9578D3
:1018E0005078D2782D0445EA00250D431F1D636E04
:1018F00045EA02659D4204D9A900E06E06F02EFD7E
:10190000E0666566F3190021626E9142A3EB060062
:1019100003F1040313D213F8022C13F8030C12047E
:1019200042EA002213F8040C024313F8010C42EAC5
:101930000062E06EA26640F821200131E4E7F8BDC4
:1019400070B5044600F110052846FFF78DFFD4F866
:101950008420D4F88800D4F8803012F0010F4FEAC8
:10196000620218BF8158104418BFCB582946BDE801
:1019700070401847436870B50B7043681B0A4B7082
:10198000C3888B70C379CB7083680B7183681B0A23
:101990004B7143898B71C37ACB71C3680B72C36877
:1019A0001B0A4B72C3898B72C37BCB7205460069DD
:1019B0000C4606F02EFD030A6373030CA373030E9B
:1019C0002073E37306460246296904F1100006F00D
:1019D0002FFA06F1100070BD70B50546002400F125
:1019E000800695F86020E3B2934204F1010407DA1F
:1019F0003046E1B200F0CAFE0A2005F063FAF0E7D3
:101A000070BD70B50446002500F1800694F8602092
:101A1000EBB2934205F1010507DA3046E9B200F076
:101A20008EFE0A2005F04EFAF0E7636E226F1B046B
:101A3000136070BD2DE9F047044604300E46FFF7F1
:101A400099FFA3693354A2693318120A5A70628B42
:101A50009A70E27EDA70051D4FF00008A369984580
:101A600006EB05071BD2236A53F8280006F0D1FCC9
:101A70004FEA880A8146002329FA03F20833202B13
:101A800007F8012BF8D1236A043570194A4653F838
:101A90000A1006F0CDF94D4408F10108DEE7636A4B
:101AA0007355636A1B0A7B70E38CBB7094F8273014
:101AB000FB70281D30440021626A9142A0EB0603AE
:101AC00000F108001DD2236B53F8312003EBC10550
:101AD00001316B6800F8082C150A00F8075C150C3A
:101AE000120E00F8052C1A0A00F8043C00F8032C2A
:101AF0001A0C1B0E00F8065C00F8022C00F8013CE2
:101B0000DAE7626BF254616BF218090A5170E18EE8
:101B1000917094F83710D1700433F1180020626B83
:101B20009042A1EB060301F108011DD2226C02EBE9
:101B3000C00352F830205B6801F8082C150A01F840
:101B4000075C150C120E01F8052C1A0A01F8043C6A
:101B500001F8032C1A0C1B0E01F8065C01F8022C8C
:101B600001F8013C0130DAE7626CF254616CF21862
:101B7000090A5170B4F84610917094F84710D1706A
:101B80000433F1180025636C9D42A1EB060001F1BE
:101B900008011DD2226D02EBC50352F835205B68A7
:101BA00001F8082C100A01F8070C100C120E01F8AD
:101BB000052C1A0A01F8043C01F8032C1A0C1B0E20
:101BC00001F8060C01F8022C01F8013C0135DAE7B6
:101BD000BDE8F08708B50830FFF72CFF08BD08B551
:101BE0000830FFF727FF08BDC3681A6810B41468EF
:101BF0000A468168184623465DF8044B184770B5BD
:101C00000B7803740446D0F89000D4F89460D4F8AC
:101C10008C3010F0010F4FEA600004F1180518BF76
:101C2000325804F10C0118BFD35830442A46984763
:101C3000294604F17800FFF7D7FF70BD70B500F1B9
:101C40000C010446C06A266BA36A10F0010F4FEA2C
:101C5000600004F1100518BF3258304418BFD35843
:101C60002A469847294604F11400FFF7BDFF70BDCE
:101C70002DE9F84390F844310446002B31D000237D
:101C800000F18008DEB25D1C94F860309E4223DAD9
:101C900072B63146404600F02FFE62B6D4F83831B5
:101CA000F70003EB4616A36B306803EB070905F05A
:101CB000FDFDA36CC9E90001B06803EB070905F05D
:101CC000F5FDA36DC9E9000130691F4405F0EEFD83
:101CD0002B46C7E90001D5E7214604F5A670FFF7BA
:101CE00083FFBDE8F88337B50B7843604A7843EA51
:101CF000022343608A7843EA02434360CA7843EA96
:101D0000026343600B7983604A7943EA022383606C
:101D10008A7943EA02438360CA7943EA02638360B3
:101D20000B7AC3604A7A43EA0223C3608A7A43EAA1
:101D30000243C360CA7A43EA0263C3600C460546A5
:101D40000C3101A8FEF79DFB019B04F1100203F189
:101D50001000111B884204D912F8011B02F8021C62
:101D6000F7E7234400220F34DA732C6103B030BD4F
:101D70002DE9F04F0446ADB004300D46FFF7B3FF38
:101D80002A18295C937857781B0443EA0727D378ED
:101D90000F4347EA0367A3699F4200F1040604D991
:101DA000B900206A06F0DAFA2062A7610022A3696E
:101DB00029929A4205EB060106F104071BD22BA8D3
:101DC000FEF75FFB2B9E299A3E44EB19591B8E426E
:101DD00004D913F8011B03F8021CF7E7AB194FF005
:101DE000000103F8011C216A7B1E2B44E36141F8CA
:101DF00022300132DBE7AB5D8E784A78360446EA62
:101E000002261E43CB7846EA0366636A9E4204D9E3
:101E1000F100206B06F0A2FA20636662EB19002243
:101E200004F1280E616A8A42A3EB050003F108035E
:101E300062D213F8070C010213F8060C0491002675
:101E40000104079605960691DDE90601DDE90467C0
:101E5000064313F8080C0F4340EA0608002113F864
:101E6000056C41EA07090021099131060891DDE975
:101E7000080146460643304613F8046C01964F4667
:101E800000260F4300963946DDE9006706433046D9
:101E900013F8036C3602179600260F431696394640
:101EA000DDE916670643304613F8026C36041996CE
:101EB00000260F4318963946DDE918670643304679
:101EC00013F8016C36061B9600260F431A96394606
:101ED000DDE91A6706430F4330463946C4E90A0173
:101EE000206BDEF8001040F8321000EBC206DEF87E
:101EF00004107160013295E72A18295C93785678AE
:101F00001B0443EA0626D3780E4346EA0366636B56
:101F10009E4200F1040704D9F100206C06F01EFA7D
:101F200020646663EB19002204F1380E616B8A426B
:101F3000A3EB050003F108035DD213F8070C13F8B7
:101F400004BC010213F8060C0A91002601040D9648
:101F50000B960C91DDE90C01DDE90A67064313F8E5
:101F6000080C0F4340EA0608002113F8056C41EA0B
:101F7000070900210F91310613F8036C0E914FF001
:101F8000000ADDE90E0136021D96CDF870A0DDE9EC
:101F90001C6740EA080040EA0A000643304613F88E
:101FA000026CCDF878A041EA090141EA0B01360440
:101FB0000F431F963946DDE91E670643304613F886
:101FC000016CCDF880A036060F4321963946DDE935
:101FD000206706430F4330463946C4E90E01206CA2
:101FE000DEF8001040F8321000EBC206DEF80410F4
:101FF000716001329AE72A18295C937856781B049D
:1020000043EA0626D3780E4346EA0366636C9E4293
:1020100000F1040704D9F100206D06F09FF9206556
:102020006664EB19002204F1480E616C8A42A3EB4E
:10203000050003F1080360D213F8070C010213F83E
:10204000060C109100260104139611961291DDE9F9
:102050001201DDE91067064313F8080C0F4340EA4C
:102060000608002113F8056C41EA070900211591C3
:10207000310613F8046C039614910026DDE914016F
:102080000296DDE9026740EA08000643304613F88D
:10209000036C3602239641EA090100260F4322967B
:1020A0003946DDE922670643304613F8026C3604F0
:1020B000259600260F4324963946DDE9246706431A
:1020C000304613F8016C3606279600260F432696F5
:1020D0003946DDE9266706430F4330463946C4E9F1
:1020E0001201206DDEF8001040F8321000EBC2063D
:1020F000DEF804107160013297E72DB0BDE8F08F73
:1021000008B50830FFF734FE08BD08B50830FFF702
:102110002FFE08BD10B500F20C52002352F8044BFC
:1021200044B900EB83027D33C2F80C15C8608B60A4
:10213000012010BD0133192BF0D1002010BD10B5C6
:1021400000F5AE62002352F8044B3CB903F5AE72C1
:10215000643340F822104B60012010BD0133192B6D
:10216000F1D1002010BD70B50C4614310646FFF7C2
:10217000D1FF214605463046FFF7E1FF002D08BF9D
:10218000002070BD2DE9F74F944B03600025002619
:10219000002700F16403DFF890B2DFF890A2DFF8C7
:1021A0009092C0F808B004468846C0E90C67C0E9C0
:1021B0001067C0E914671C22C0F80CA005614561D6
:1021C0008561C0F81C90056245628562C5628563C1
:1021D000C5638564C564856580F8605029461846E6
:1021E000019305F04AFE019B0521184600F049FCC9
:1021F00004F1800000F04CFA794BC4F84C31794B73
:10220000C4F86031784BC4F87031784BC4F8783139
:102210000023C4F8CC31C4F8D831754BC4F8E03190
:102220000123C4F8EC31734BC4F86831724BC4F825
:10223000F031724BC4F85C51C4E96067C4E964676B
:10224000C4E96867C4E96C67C4F87C51C4F8885174
:10225000C4F88C51C4F89851C4F89C51C4F8A851E2
:10226000C4F8AC51C4F8B851C4F8BC51C4F8C0515A
:10227000C4F8C851C4F8D051C4F8D451C4F8DC51E2
:10228000C4F8E4515E4AC4F85041C4F8E841C4F8C7
:10229000FC315C4BC4F80832C4F8682204F50273C0
:1022A000C4F8F821584AC4F86C3204F5267EC4E913
:1022B0008E67C4E99267C4E996670223C4F87C225A
:1022C00052485349534A544EC4F8A0E284F800528D
:1022D000C4F81852C4F81C52C4F82052C4F824920E
:1022E000C4F82852C4F82C52C4F83052C4F83452FE
:1022F000C4F84052C4F84452C4F85052C4F854527E
:10230000C4F86052C4F87832C4F88052C4F8880225
:10231000C4F89412C4F89822C4F89C62C4F810B2AD
:10232000C4F814A2C4F88442C4F8AC32C4F8906271
:10233000C4F8C812C4F8CC2204F53371374AC4F883
:10234000E032374E374BC4F8B062C4F8B452C4F828
:10235000BC02C4F8D022C4F8D412C4F8C422C4F811
:10236000E432C4F8E852C4F8B842C4F8EC420A2097
:1023700004F0A8FD636E226FC4F848811B0413604B
:1023800004F5A6714046FFF7C5FE04F5B071D4F818
:102390004801FFF7D4FED4F8485104F51A7104F54A
:1023A000F8792846FFF7B6FE04F522774946284615
:1023B000FFF7C5FE04F52F763946D4F84801FFF73C
:1023C000D2FE3146D4F84801FFF7CDFE0A2004F0D2
:1023D00079FD204603B0BDE8F08F00BF448B0008B4
:1023E000048C00088C8B0008FC8A0008E48A000832
:1023F00081130008188C0008A48B00085C8B00086F
:10240000278C0008748B000809250008BC8B000885
:10241000B48A0008CC8A00083F8C0008568C00085B
:10242000031A0008D91900082C8B0008148B000827
:10243000768A00082DE9F04389B08046894620223B
:102440000021684605F019FD47464E46203756B133
:102450006D460FCDA7F120040FC495E80F00013E93
:1024600084E80F00F2E708EB491009B0BDE8F083FB
:102470002DE9F04106468846002940D04068B368FF
:102480001B1AB1EB631F04D8FFF7D4FF7060BDE8DF
:10249000F0813368C01A40116FF078431A1A9142E4
:1024A00002D9184804F053FF81422CBF4418041885
:1024B000A04202D8B4F1006F1DD31C46600104F0A5
:1024C00011FE054696E882007F1A7B0903D03A4642
:1024D000284605F0B8FCE8194146FFF7ABFF074670
:1024E000306808B104F01AFE05EB441486E8A00039
:1024F000B460BDE8F081002CE0D12546E2E7BDE8FC
:10250000F08100BFEA8D00082DE9F8430B7980F8CF
:102510006030D36290F86030D36390F86030D36459
:10252000044690F86000C000154605F01BFCA86347
:1025300094F86000C00005F015FCA86494F86000F1
:10254000C00005F00FFCA86594F86060E6620FFA21
:1025500086F84FEAC807E663E664384605F002FCF1
:10256000A063384605F0FEFBA064384605F0FAFB90
:10257000D4F83821D4F83C31A0659B1A5B119E42F7
:102580001FD9F11A04F59C70FFF772FF0023002099
:10259000002194F860205E1CDBB2934217DB00261A
:1025A00004F1800794F86020F3B2934206F101062B
:1025B0001CDA3846F1B200F09BF8322004F082FCBD
:1025C000F0E73CBF02EB4812C4F83C21DEE7AA6BFF
:1025D000DB001A44C2E90001AA6C1A44C2E90001F6
:1025E000AA6D1344C3E900013346D2E74FF4FA70F1
:1025F00004F068FC002394F8602003F10108DBB2CA
:1026000093421DDAD4F8386106EB4316DF00AB6B5A
:10261000306803EB070905F049F9AB6CC9E9000123
:10262000B06803EB070905F041F9AB6DC9E900019A
:1026300030691F4405F03AF94346C7E90001DAE77B
:10264000012384F84431E36E626E1A60BDE8F883BA
:10265000034610B107C983E8070070477047426816
:102660008168036812F0010F4FEA62021CBF8858AC
:10267000C3588818184710B510220446002105F0E9
:10268000FCFB0823237300236360A360204610BD76
:1026900030B5044685B000251922182104F04EFB00
:1026A000104984F8B450C4F8B850C4F8BC50C4F809
:1026B000C050204604F0D1FA0B4B02948DE828005C
:1026C0002A460A4B03936946204604F077FB039B96
:1026D00013B19B6868469847204684F8C45005B0FB
:1026E00030BD00BF40420F00A9290008048E000839
:1026F00070B586B002AC054620460E46FFF7BBFF1C
:1027000008238DF81430FF238DF80C308DF80D3030
:102710008DF80E308DF80F308DF810308DF81130A7
:102720008DF81230FC238DF81330059B0296009330
:1027300094E80E00284604F0A3FA06B070BD70B508
:1027400086B002AC054620460E46FFF794FF0823EC
:102750008DF81430FF238DF80C308DF80D308DF886
:102760000E308DF80F308DF810308DF811308DF857
:102770001230FD238DF81330059B0296009394E8E8
:102780000E00284604F07CFA06B070BD70B586B025
:1027900002AC054620460E46FFF76DFF08238DF874
:1027A0001430FF238DF80C308DF80D308DF80E307D
:1027B0008DF80F308DF810308DF811308DF8123003
:1027C000FE238DF81330059B0296009394E80E00CB
:1027D000284604F055FA06B070BD00002DE9F84314
:1027E0000A68D0F8B8303C4E3C4F03EB42130C461D
:1027F000054653F81C1C304605F0D4FF394605F059
:10280000EFFF3A463146102300F0E1F82268D5F890
:10281000B830334F03EB4213814653F8141C314850
:1028200005F0C0FF304905F0DBFF0C232E4A2D498F
:1028300000F0CDF82268D5F8B83003EB421300263B
:1028400053F8081C8046304605F0ACFF394605F0C9
:10285000C7FF3A4631460C2300F0B9F82268D5F894
:10286000B83003EB4213074653F8041C304605F01A
:1028700099FF1E4905F0B4FF31460C231B4A00F0B6
:10288000A6F82268D5F8B83003EB4213064653F891
:102890000C1C174805F086FF164905F0A1FF0C2314
:1028A000144A134900F093F84FEA292323714FEAA1
:1028B0002813A3713B1243EA0813E37133116372C7
:1028C000031243EA0613E07284F805902772A3729C
:1028D0000120BDE8F88300BF0000BFC20000BF4276
:1028E0000000FA430000F0C10000F0410000A040E9
:1028F000000090C10000904170B586B002AC064661
:102900000D462046FFF7B7FE0135214630460295B9
:10291000FFF764FF059B009394E80E00304604F037
:10292000AFF906B070BD0000F8B5064691F805E0B5
:102930000D79D0F8B8708879154A0C4610231549DE
:1029400040EA0E20013D00F05DF86D012F440C239C
:102950003860207A94F807E0D6F8B8700E4A0F492C
:10296000001140EA0E1000F04DF82F44D6F8B830B0
:10297000B860207A647A0A4A0A49000200F470605A
:102980001D4420430C2300F03DF828610120F8BDD0
:102990000000BF420000BFC20000F0410000F0C1D3
:1029A00000009041000090C11FB504466846FFF743
:1029B00062FE00226946204604F081F928B1009B9E
:1029C0001BB969462046FFF7AFFF04B010BD07EE04
:1029D000101A012101FA03F3013B07EE903A06EECB
:1029E000900AF8EEE77A76EEC76A67EEA67A06EE08
:1029F000902A36EEC77AC7EE876AFDEEE67A17EEC2
:102A0000900A704706EE901A07EE902A37EEE67AA3
:102A100007EE900A0122F8EEE77A02FA03F3013B8F
:102A200027EE277A07EE903AF8EEE77A87EE276AE4
:102A300076EE267A17EE900A704738B504460D46B2
:102A400003685AB1826813602046012101F032FD0B
:102A500029462046BDE8384001F028BDC2681B0465
:102A6000F1E770B50E460446154601F0FFFC01364D
:102A700006D02A4620460021BDE87040FFF7DDBFA2
:102A800070BD0022FFF7EDBF00487047108E0008B0
:102A9000014800F003B800BF108E0008036870B54D
:102AA000DB680446984763685A6823681AB99B68CC
:102AB000BDE8704018475B68156898476368281A36
:102AC00000285A6807DC916859601B68002BEAD01F
:102AD00050689847E7E7236810681B69BDE87040B5
:102AE000184703685B68184710B5044601300DD1DC
:102AF00010BD9C4209D12046896802F06DF820463D
:102B00000021BDE8104002F0EBB80C31B1F9003003
:102B10005A1CEED10248BDE8104000F077B800BF63
:102B20005D8E0008884208B508D0431C06D00131EC
:102B300006D0044800F06AF84FF0FF31084608BD9F
:102B40000146FBE72C8E0008B1F900305A1C01D178
:102B500018467047834201D1486870470C31F3E74B
:102B6000421C10B5044607D0FFF7EEFF431C044695
:102B700002D1024800F04AF8204610BD3D8E000800
:102B800000B589B000F018F8052101A8FFF779FF1A
:102B9000039B019A1A60962004F094F9019B049A11
:102BA0001B041360962004F08DF9F1E7EFF3108019
:102BB000C04300F00100704708B5FFF7F7FF72B699
:102BC000064B1A6822B980F00100054AC0B21070A5
:102BD0001A681A6801321A6008BD00BF9802002006
:102BE0009402002008B5074B1A6852B1FFF7DEFFC8
:102BF0001A68013A1A601B681BB9034B1B7803B9AA
:102C000062B608BD98020020940200200FB4012093
:102C100008B504F05BFA01F076BC000008B5024C80
:102C200023689847FCE700BFC801002030B5027850
:102C30008C784368013AD2B213B19D78A54207D28D
:102C4000022A4B60416006D803B19960886030BDAC
:102C500018465B68F0E700238B6030BD027843685C
:102C6000013A59684160022A4FF0000205D809B1C3
:102C700088605A609A60184670475A60FBE7000007
:102C8000034B5A684260002282605860704700BF60
:102C9000A8170020104BDA6810B58AB19A8ADC6850
:102CA0008A420CD3C460D860C468036104B1206157
:102CB000521A92B28282998A8A1A9A8210BD3CB9BB
:102CC00000248A1AC460D86003619A82848210BD8D
:102CD000A38A1A442346E2E7C01700202DE9F041F9
:102CE000174DEB6853B1AB8A164FDFF85C80013BA0
:102CF000AB820026AA8A0AB9EC680CB9BDE8F0815B
:102D0000A36833B161685960616809B18B60626022
:102D1000A66021463846FFF789FFA38AAB82637815
:102D2000042B01BFD8F80030E28A9B18A38201234C
:102D30006370E368EB600BB11D61E6602661D9E763
:102D4000C0170020A81700200822002083682BB19C
:102D500042685A6042685AB193607047054B5A689E
:102D6000904202D142685A6070471346002AF6D159
:102D7000704700BFA817002010B5846801462CB921
:102D80004378012B0DD1074C03E0A4682378002B76
:102D9000FBD00846FFF7DAFF2046BDE81040FFF7FA
:102DA00045BF10BDA8170020036910B563B1C26804
:102DB000DA60C2684AB1998A848A2144998213618F
:102DC0000023C3600023036110BD9A82FAE700006C
:102DD00070B4114BDD78EFF31086EFF3108272B60A
:102DE0009A78954211D901329A701A78541CA542EA
:102DF00008BF00241C7006B962B6954207D903EBE0
:102E0000C20370BC586099607047002EF4D0022055
:102E100070BC00F029B800BF481D002008B50B4861
:102E200000F0B2FC0A4B18600A4800F0ADFC0A4BF7
:102E300018600A4800F0A8FC094B186004F06EFF07
:102E400000210846BDE8084004F003B9BC8E000824
:102E50009C210020B88E0008A4020020B48E000837
:102E60009C020020FFF7DABE10B5044600F0ECFB30
:102E700021460246BDE810400148FFF7C7BE00BF2B
:102E80007C8E000804F04CB90B4A0C4B0C4830B453
:102E90001A60C2F1005303F50033B3F5806F194691
:102EA00028BF4FF48061074D074C01605B1A1A443C
:102EB0002A60236030BC70479C220020F816002056
:102EC000A8020020AC020020F416002000F040FD13
:102ED000FFF7DAFF0348002100F0DEFC00F036FBCC
:102EE000FEE70000CC010020024B4FF0FF311868D4
:102EF00000F068BCA4020020014B186800F08ABCF6
:102F0000A4020020836A9B0804BF224B1B88F0B5F3
:102F1000056B08BF9B0805EB8302540748BF043AC2
:102F20004FF0807602E94200A2F14004A2F144068B
:102F3000A2F10C074FF0000E46F804EFBE42FBD1A1
:102F4000C66942F8206C41631249C4620968C9002D
:102F500017D5112B15D9103B6FF007015B084B43B8
:102F6000A3F138010A444FF0CC30214691420BD1F5
:102F700008331C44231F9D423CBF4FF0CC3344F820
:102F8000043C054B2B60F0BD41F8040C41F8080DE2
:102F9000ECE700BFC48E0008A52E5AE290F8252069
:102FA000C36A12B16033196070472033FBE710B574
:102FB00090F82540C36A1CB1603383E8060010BD59
:102FC0002033FAE7054B1B7823B9054B4FF08052AD
:102FD0001A607047034B01221A70704700130020DB
:102FE00004ED00E00113002038B51A4B1A4C1868A4
:102FF00001234370FFF744FE6578A3783BB9174877
:103000006570FFF72BFEBDE8384000F07BBD04EB98
:10301000C503586802789AB9198900F0BBF9E378BA
:1030200001359D4208BF0025EFF31083EFF31082B6
:1030300072B6A278013AA270002BDED162B6DCE74C
:10304000012A03D1996800F033F9E8E701F0B8F8F4
:10305000E5E700BFC0210020481D0020A817002080
:10306000084B1A68084B1A6000225A60072243F87E
:10307000042C064A136843F07F4313604FF0FF307F
:10308000704700BFDC8E000814E000E020ED00E097
:103090007047000008B50B4B186801234370FFF719
:1030A000EFFD00F0ADF9084A136801331360FFF734
:1030B00015FE00F0AFFC0548FFF7D0FDBDE8084065
:1030C00000F020BDC021002008220020A817002009
:1030D000064B1A68136BD26A934203D81A68044BE2
:1030E0009A4202D00120FFF7BFBE7047C0210020E6
:1030F000A52E5AE2002ABBBF22F00042073203325B
:1031000022F00702A8BF22F0030210B5B4BF1023BB
:103110000C2392B1D4188C420FD80144034454427A
:1031200041600360826021449818814202D30051BB
:103130000346F9E70020186010BD012010BDEFF331
:10314000108372B6026803F001030AB111680160CE
:1031500003B962B61046704781420DD34368994265
:103160000AD2EFF3108372B602680A60016013F0AE
:10317000010003D162B670470120704700207047FC
:103180000123103903708908002343708370436062
:10319000038143818381C1817047000070B58589B7
:1031A00004461646002D38D043891A1D013350F8C5
:1031B00022200A60C2899BB29A42438104BF002345
:1031C00043814368F3B14378022B1BD1FFF746FDDF
:1031D00000210546FFF7E2FE2389E9691A1D013344
:1031E00044F82210E2899BB29A42238108BF00234F
:1031F000284608BF2381FFF7D7FD284600F09CFC36
:10320000002070BDEFF31080EFF3108372B6013D24
:10321000A5810028F4D162B670BD4AB14268094B5D
:1032200042B11968FFF702FD0821304600F0A8FC02
:10323000012070BD1B6843605A6098600123437091
:10324000F2E700BFC0210020C2898089101A7047B0
:1032500008B5FFF7BDFDBDE80840FFF7B3BE8389A1
:1032600010B504460BB34389043350F823300B6088
:103270004378022B04D10021FFF7AAFDFFF7A2FE3D
:10328000EFF31083EFF3108272B6A289013AA281A4
:1032900003B962B66389E28901339BB29A426381C2
:1032A00001D100236381042010BD184610BD000029
:1032B000436870B504460E46002B4BD04578022D6E
:1032C00020D0032D0AD0012D61D1FFF7C7FC0446A1
:1032D00032461021FFF76BFE65700EE00846FFF7DF
:1032E0002EFF0546002852D02046FFF7B7FC29469E
:1032F0000446FFF753FE012363702046FFF754FD99
:10330000214622E0FFF7AAFC00210546FFF746FE12
:103310002389E9691A1D44F82210EFF31082EFF3B4
:10332000108172B6A1890131A18102B962B6E28928
:1033300001339BB29A42238104BF002323810123DE
:103340006B702846FFF730FD29461148BDE87040F4
:10335000FFF76CBC8089E189884213D223891A1D4A
:1033600044F82260EFF31082EFF3108572B601305B
:10337000A08102B962B601339BB2994208BF002313
:10338000238170BD0320BDE87040FFF76DBD70BDA7
:10339000A817002010B5038B42781943062A04466B
:1033A0000183438B15D133EA010219D121EA0301CC
:1033B00021832046FFF7F8FC012320466370628BCF
:1033C0000821FFF7F4FD21460648BDE81040FFF74D
:1033D0002DBC052A04D111EA030201D04283E5E79E
:1033E00010BD00BFA8170020034B00221A60034A3B
:1033F0001268DA80704700BFA8210020C08E000844
:1034000008B50E4B5A680E4B196891420D4905D00C
:103410001A60DA880868013A02449A8098880A8813
:1034200090420AD1002205481A60FFF717FCBDE858
:10343000084001460148FFF7F9BB08BDA817002066
:10344000A8210020082200200B4A136830B5002470
:1034500043B90360816013B19D68691A996044B1F2
:10346000206030BD9D68A942F3D31C46491B1B68F0
:10347000EEE7106030BD00BFB8210020C0B1431C92
:1034800011D00C4B984211D80B4B1B684FF47A713A
:103490005A1E01FB0020B0FBF3F34FF6FE7083428F
:1034A00006D898B270474FF6FF7070474FF6FE701F
:1034B000704700BF00093D00788E000838B18307CF
:1034C00004D10378002B18BF0020704700207047FC
:1034D000B0B50E4D287800AFA8B90D4C236893F80D
:1034E000241000F06FFB2368DA78FF2A03D1DA6A30
:1034F000203282F3098862680AB984E80C0000F07F
:1035000019FD01232B700020B0BD00BFBC2100209D
:10351000C0210020014B1878704700BFBC2100205B
:1035200010B5EFF3108434B9EFF305841CB9EFF351
:103530001484E40702D4034B187810BDDFF808C0E8
:1035400000DF10BDBC2100201535000890B589B002
:1035500000AFEFF31083002B37D1EFF30583002B7F
:1035600033D1FFF7DDFF28B9194C246814B1646822
:1035700004B1A047EFF3148404F00304022C18D024
:10358000032C1CD0012C1ED007F1200484F30988E1
:10359000104C2478E40710D5022484F31488BFF378
:1035A0004F8FBFF36F8FDFF830C000DF2437BD4689
:1035B00090BD084C2478E407F5D40324EDE7054CCE
:1035C0002478E407EFD5FF20F0E78220EEE700BF84
:1035D000A4210020A68E0008D134000870B50B4647
:1035E0001646024610B90024204670BD0068002827
:1035F000F9D0B2F90440E51CADB2062DF3D8D1687C
:10360000C1B11269043444EA012100F019FB002819
:10361000E9D00A4B0A4A013853F82040E36A5A635A
:10362000084B1B6843B19B6833B13146E07898473B
:10363000E063D9E70A46E5E7E663D5E7FC1A002030
:10364000E5370008A421002008B500F0B3FA18B14E
:103650000138024B53F8200008BD00BFFC1A0020BF
:1036600010B5FFF72BFF044670B1084B1B681BB168
:10367000DB680BB1C06B9847E07800F037FBFF28A0
:103680000CBF8120002010BD802010BDA42100208F
:1036900008B528B1FFF7F2FE00F08EFD402008BD0E
:1036A00008BD000010B5EFF3108434B9EFF30584C2
:1036B0001CB9DFF80CC000DF10BD822010BD000077
:1036C00091360008830705D138B1436901691B6849
:1036D0001846704700231946FAE70346FBE7000047
:1036E00010B504460846DFF80CC000DF84E803008C
:1036F000204610BDC536000810B548B1046824B195
:10370000237823B9204600F05BFC204610BD002042
:1037100010BD70B510F0030405460E4611D180B1FE
:103720000378032B0DD10846FFF7A8FE0146284673
:1037300000F014FD012806D1002E14BFC120812005
:1037400070BD802070BD204670BD820708B50AD1CB
:1037500048B10378032B06D100F090FCFF280CBF82
:103760008120002008BD802008BD10B510F00304A2
:1037700007D130B10378032B03D100F029FC204698
:1037800010BD802010BD000070B50546EFF3108419
:1037900094B9EFF305867EB9EFF31484E40706D4F9
:1037A000064C24781CB9BDE87040FFF7A5BF284639
:1037B000DFF80CC000DF70BD002070BDBC21002010
:1037C000F936000810B5EFF3108434B9EFF305842F
:1037D0001CB9DFF80CC000DF10BD822010BD000056
:1037E00013370008084808B54FF0FF310068FFF7AD
:1037F000E9FFDFF818C000DF0446FFF743FB20466F
:10380000DFF80CC000DFFEE7B421002049360008D5
:103810006136000810B5EFF3108434B9EFF3058476
:103820001CB9DFF80CC000DF10BD822010BD000005
:103830004B3700082DE9F04180460F461646EFF35E
:10384000108404BBEFF30583D3B9EFF31483DB07D4
:1038500006D40E4B1B781BB9BDE8F041FFF7BEBE86
:103860000B4D4FF0FF312868FFF7ACFF404639465B
:103870003246DFF820C000DF04462868FFF7CAFFA1
:103880002046BDE8F0810024FAE700BFBC210020FB
:10389000B4210020DD3500080022FFF7CBBF000077
:1038A00010B5EFF3108434B9EFF305841CB9DFF8D9
:1038B0000CC000DF10BD822010BD00006B37000877
:1038C00010B5044660B1016851B1406848B1037851
:1038D00033B90431890089B2FFF752FC606810BD2A
:1038E000002010BD38B5114C23780BB900F0A8FAB0
:1038F0000F4B25781B68FF229A708DB929460D4819
:10390000FFF7DEFF0C4B2A46186029460B48FFF7ED
:1039100065FE0B4B18600B48FFF736FF0A4B18602B
:1039200001232370094B0020187038BDB0210020FE
:10393000C0210020AC8E0008F81A0020C88E0008B4
:10394000CC1D0020E08E0008B4210020BC21002006
:1039500010B5EFF3108474B9EFF305845CB9EFF39D
:103960001484E40703D4BDE81040FFF7BBBFDFF8C1
:103970000CC000DF10BD822010BD0000E53800083B
:103980002DE9FF410C46804618B30378012B25D161
:103990000846FFF773FD02A902464046FFF7FEFB0B
:1039A000012811D10020002C0246034618BF4020F8
:1039B000029904460D4616461F46204629463246C1
:1039C0003B4604B0BDE8F0810020024603461020CB
:1039D000EEE78024054606460746EEE700258024EC
:1039E0002E462F46E9E770B50E461446054660B1EF
:1039F0005AB90378012B08D1FFF726FC38B12846C5
:103A00003146FFF725FC204670BD802070BD812027
:103A100070BD0000F8B5114E34682CB1A368104F8A
:103A2000013BA360A26802B1F8BD25683868356023
:103A30002146FFF7D8FF10B10420FFF715FA63798C
:103A4000012B07D1E1682046FFF7FEFC002DEBD0EB
:103A50002C46E7E701232371F8E700BFB8210020D7
:103A6000F81A00207FB504461646084601B122B177
:103A700080232360204604B070BD0B78012BF7D162
:103A800002A9FFF7ECFB042808BF102301AD14BF07
:103A90000196019395E8070084E80700EAE7000033
:103AA00038B504461546EFF3108010B9EFF30580E2
:103AB00028B12A462046FFF7D5FF204638BD0846E4
:103AC0001146DFF80CC000DF84E80700F5E70000CE
:103AD000813900087FB50A4C21684FF0FF3203A8F6
:103AE000FFF7DEFF039B102BF6D1049901A8FFF727
:103AF000F7FD019B002BEFD002989847ECE700BF41
:103B0000F81A0020054B586002234370044B1B68D1
:103B10001BB11B690BB1C06B18477047C021002057
:103B2000A421002008B50348FFF798F8BDE8084035
:103B3000FFF7E8BFA817002070B5044618B9BDE824
:103B40007040FFF7EFBF0C4EA278306883789A423E
:103B50004FF0010508D9FFF793F833685D702046F0
:103B6000BDE87040FFF7CEBF657021460348BDE851
:103B70007040FFF75BB800BFC0210020A8170020ED
:103B800038B50D46014680B14FF6FF739842074C99
:103B900002D02068FFF77EF8236805485D70FFF7C4
:103BA0005DF8BDE83840FFF7ADBF38BDC02100204B
:103BB000A8170020024B186800B1C078704700BFFA
:103BC000C021002010B5A8B9194B1B68997083F863
:103BD0002410184843689B788B4201D8002010BD00
:103BE000134C2168FFF722F8236801225A70FFF76F
:103BF00099FFF3E7104B1B88984217D801380F4BF9
:103C000053F8204094B10A4BA1701B6884F824102B
:103C10009C42DED02046FFF7AFF86378012BDDD160
:103C20000448FFF71BF8FFF787FFD7E7FF2010BD19
:103C3000C0210020A8170020A88E0008FC1A002030
:103C40002DE9F04711F0FF0F0D4680462348164638
:103C50009A4608BF0135FFF772FA044620B94FF0C3
:103C600000094846BDE8F0871D4B06631B881D4EC2
:103C7000280AA06200218B4201F10109EFD006EB76
:103C800089020F4652F8042C4946002AF3D1EDB2BE
:103C9000012384F80390C4F81CA0C4F838A0227053
:103CA0006370A57084F824506260A260E2602261B3
:103CB0002262A282E2822283628384F8252018B9DC
:103CC0000948FFF73CFA206320464146FFF71AF9FE
:103CD000204646F82740FFF72FFFC2E7D01D0020FF
:103CE000A88E0008FC1A0020381B00202DE9F84F90
:103CF0004D4D18B12B68DB78984241D12C68DFF824
:103D00003C810023637003F03EFAE062FFF7E0F9C4
:103D10002B681C6A0127A4B92A684449D37844480F
:103D2000013B41F82340116BFFF716FA296841481F
:103D30000C63FFF711FA2C60FFF7F4FE2046BDE894
:103D4000F88F6368B3B12046FEF788FF002106466E
:103D5000FFF724F93046FFF727F8777031464046E1
:103D6000FEF764FFE368326A6780A660E26034624F
:103D70001C46D0E7E2686380A360E3601446CAE7AC
:103D80002D4B1B8898424DD8284B471E994653F817
:103D90002760002E46D03046FEF7D8FF3046FFF7AA
:103DA00003F8DFF898B0346A4FF0010AB4B9316B08
:103DB0001F4849F82740FFF7CFF9314634631D48C3
:103DC000FFF7CAF91D48296843689A788B789A42A8
:103DD000B4D901234B70FEF729FFADE76368DBB16F
:103DE0002046FEF73BFF00218046FFF7D7F840460C
:103DF000FEF7DAFF88F801A041465846FEF716FFA5
:103E0000E368D8F82020A4F802A0C4F80880E26093
:103E1000C8F820401C46C9E7E2686380A360E360FD
:103E20001446C3E7FF2489E7C0210020FC1A0020C4
:103E3000381B0020D01D0020A88E0008A8170020E5
:103E400038B52C4B2C491A880023184693424DD381
:103E50002A4B2B4819882B4C4022FFF74BF92A4B51
:103E60002A481A882A4B42F000421968FFF742F9A3
:103E7000284B1988284B08221868FFF73BF9FF23C5
:103E80000025E3702148A562012363702570A570A9
:103E900084F824506560A560E56025612562A582EF
:103EA000E5822583658384F82550FFF748F91B498F
:103EB00020632046FFF726F8194B04221A705D6034
:103EC000184B1A70DD601D619D82174B20461C60E7
:103ED00002236370FFF716FE144A154B12781D700B
:103EE0005D70DA70BDE83840FFF77EBA41F8230014
:103EF0000133ABE7A88E0008FC1A0020748E00087E
:103F0000D01D0020C8210020C48E0008381B0020CE
:103F1000708E0008768E0008A0020020652E000832
:103F2000A8170020C0170020C0210020A58E00087F
:103F3000481D002008B51E4B1A6842F47F021A6023
:103F40001B681B0203F07F43DB43B3FA83F3194A78
:103F5000194812680168DBB2C3F10803C2F30222F8
:103F6000934298BF531C6FF0807202FA03F303F080
:103F70007F4321F07F4213430360FFF771F80F4B3B
:103F80000028186012DB00F1604000F56440FF2259
:103F900002701A6853099B0003F1604303F5614303
:103FA00002F01F02012101FA02F21A6008BD00BFEF
:103FB00020ED00E00CED00E01CED00E0A021002071
:103FC000032303700023438043608360C360704712
:103FD000F8B5438804469BB18068036A9C4228D1A7
:103FE000E368036290F82430026A52BB82789A42F6
:103FF00006D083701F4B1B68984201D0FEF7BCFEB1
:104000001D4F0126656825BB1B4843686BB1194EDF
:104010009A7831688B789A4207D9FEF707FE3368A1
:1040200001225A702846FFF787FD00202070F8BD56
:104030001346002BD6D0DA689442F9D1E268DA60F0
:10404000D0E7516819B189788B4238BF0B46D268E6
:10405000CBE72046FEF702FE00210546FEF79EFF55
:104060002846FEF7A1FE6E7029463846FEF7DEFDB3
:10407000C8E700BFC0210020A81700202DE9F843A1
:1040800043880546002B63D0324F81683A689142DD
:104090005ED1013B9BB243801BB100242046BDE8AA
:1040A000F8830B6A984229D1C3680B6291F82430D7
:1040B0000C6A5CBB8B706A68DFF89C80002A3BD07E
:1040C0002846FEF7CBFD21460646FEF767FF304641
:1040D000FEF76AFE336AEB604FF001093968D8F8E1
:1040E0000430A5F80290AE6035628A789B789A42D7
:1040F00014D33046FFF720FDD0E71346002BD5D070
:10410000DA689542F9D1EA68DA60CFE762681AB1F5
:104110009278934238BF1346E468CAE74046FEF7F8
:1041200085FD31464046FEF781FD3B6883F80190EE
:1041300086F801902046DDE7D8F8042092789A426C
:10414000ABD94046FEF772FD3B6801225A70F1E799
:10415000FF24A3E7C0210020A8170020438870B5E2
:1041600004460E46134D43B92A688260116AC16045
:10417000106201336380002070BD80682A6890421D
:10418000F7D081B1937882789A4202D28370FEF799
:10419000F3FD62684AB129682046FEF747FD092110
:1041A0003046FFF7EDFC012070BD2B6863605A605C
:1041B0009C60F4E7C02100200321FFF7E1BC000070
:1041C000426810B57AB1FEF749FD0446FEF7ECFDF2
:1041D000012161702046FEF7E1FE21460448BDE85A
:1041E0001040FEF723BD42880132428010BD00BF5F
:1041F000A817002070B5134C23681A69950707D5D6
:10420000DA68900704D56FF002021A61FEF740FCED
:1042100023681A69510713D5DA68520710D56FF071
:104220000402094E1A615D6A3368EB1AB3F57A7FAE
:1042300006D302F099FB236805F57A729A6335601C
:1042400070BD00BF0C2200201413002030B589B0CF
:1042500001A903A802F004FB02F0D2FA00230293A2
:10426000244B01901A6C244C42F008021A641A6C18
:1042700002F008020292029A1A6A42F008021A62D6
:104280001A6A22F008021A62069AA3F50B33236019
:104290004FF0FF33E360194B4ABBB0FBF3F001383A
:1042A0000025606014482561A560656102F054F93D
:1042B0001349322001F0B6F8124B0F484FF4802218
:1042C0005A60294602F088F904210B4802F084F96B
:1042D00023680D4A596A1160126802F57A729A636E
:1042E000DA68284642F00402DA6009B030BD4000C6
:1042F000D3E700BF003802400C22002040420F00EC
:10430000F541000800E100E014130020034B044ACB
:104310001360DA6822F00402DA607047000C004093
:104320000C220020034B044A1360DA6842F00402B6
:10433000DA607047000C00400C22002000B500231A
:1043400089B007286FD8DFE800F00413202D3A4722
:1043500054610093364B37481A6B42F001021A63DE
:104360001B6B03F001030093009B09B05DF804FB95
:1043700001932F4B30481A6B42F002021A631B6BF9
:1043800003F002030193019BEFE70293284B2B48B4
:104390001A6B42F004021A631B6B03F004030293CE
:1043A000029BE2E70393224B25481A6B42F0080276
:1043B0001A631B6B03F008030393039BD5E7049375
:1043C0001B4B20481A6B42F010021A631B6B03F060
:1043D00010030493049BC8E70593154B1A481A6B06
:1043E00042F020021A631B6B03F020030593059B28
:1043F000BBE706930E4B15481A6B42F040021A6356
:104400001B6B03F040030693069BAEE70793084B34
:104410000F481A6B42F080021A631B6B03F0800393
:104420000793079BA1E70B48FEF7F0FB00209CE7F2
:104430000038024000000240000402400008024030
:10444000000C02400010024000140240001802401C
:10445000001C0240E48E000810B50021044604F060
:104460000F0400F0B9FB0120A04010BD70B5044658
:104470004B1C0E46218216D0C1F30310FFF75EFFDE
:1044800005463046FFF7E8FF238A074A656103F0D7
:104490000F03206052F82330A36105F11003183593
:1044A0006360A560E56070BDD48F0008B0F91000AE
:1044B00000F016BC10B58369446971B9216893FA9C
:1044C000A3F2B2FA82F20320520000FA02F221EAC9
:1044D000020293FAA3F3226010BD226893FAA3F1BB
:1044E000B1FA81F193FAA3F30320490000FA01F134
:1044F000B3FA83F322EA01025B00012101FA03F31C
:104500001343236010BD08B5FFF700FF0121002011
:1045100002F064F8BDE80840FFF704BF43692DE9E5
:10452000F0413A4C0D46D90720602CD58168DFF860
:10453000E8E08268364F8368364E01EA0E01714525
:1045400002EA070204BF4FF0010EC0F808E0BA42C9
:1045500003EA060304BF4FF480778760B34204BFC9
:104560004FF4803686602C48814205D028498A4223
:1045700002D0284A934206D1284B294A1B6852F898
:104580002500012198472368DA685B69920708D003
:104590009F0706D5214B224A1B6852F825000021AF
:1045A0009847236899695A695B698E070AD590050F
:1045B00008D5190406D5194B194A1B6852F825006D
:1045C00005219847226897695669526917F00407D0
:1045D00006F4806609D046B1120406D50F4B104A86
:1045E0001B6852F825000721984723685B695FB173
:1045F00056B11B0408D5094B094A1B6852F825001F
:104600000221BDE8F0411847BDE8F08118130020F1
:1046100000030008000003100300000460130020E2
:104620005813002000210148FFF778BF00640040C4
:10463000FFF7F8BFFFF7F6BF01210148FFF76EBF94
:1046400000680040FFF7F8BFFFF7F6BF034B1960A3
:104650004168034B43F82120704700BF60130020DE
:10466000581300200268536923F4064323F0130310
:104670005361024B002143F8221070475813002069
:104680000368104A93420DD10F4B1A6A42F0007230
:104690001A621A6A22F000721A621A6C22F0007210
:1046A0001A647047094A9342FBD1074B1A6A42F0D9
:1046B00080621A621A6A22F080621A621A6C22F010
:1046C0008062EDE70064004000380240006800406E
:1046D000F8B50D46044602F093F81823B0FBF5F048
:1046E0001921B0FBF3F386089BB2B34215D34FF008
:1046F000FF33002B22681CDD116841F001011160BD
:104700005168C907FCD5D361136823F00103136016
:104710005368DB07FCD40120F8BD01339BB2DF43B3
:1047200003FB01121625904205D0013D3A44FAD10F
:10473000DBE70020F8BD084901EBC50251F8351050
:1047400052680904120502F4E00201F470210A43E0
:10475000C3F309031343CCE71C8F000884B030B5C2
:1047600004AC84E80E0004689DF81E20A36858017C
:104770003AD4A3681B0139D4A06810F080502FD020
:10478000022000012318D3F8805105F00105C3F879
:1047900080519DF81D505DBBD3F8805142EA4151D4
:1047A0002943C3F88011D3F8841121F00F01C3F815
:1047B00084119DF81C10D3F8842101F00F011143DE
:1047C0002218C3F884110599C2F888110699C2F815
:1047D0008C11D3F8802142F00102C3F8802101201E
:1047E000BDE8304004B070470020CAE70120C8E7A8
:1047F00042EAC101D3F8805141F00401D0E730B55D
:104800000468E06810F003003AD01301E018D0F813
:10481000B051C5F380054D739DBBD0F8B0516D0DFF
:104820000D60D0F8B051D0F8B401234400F00F006F
:104830000873D3F8B8010871D3F8B801000A4871B9
:10484000D3F8B801000C8871D3F8B801000EC87114
:10485000D3F8BC010872D3F8BC01000A4872D3F83F
:10486000BC01000C8872D3F8BC31C5F340051B0EA7
:104870008D73CB724AB9E36843F02003E3600120F3
:1048800030BDD0F8B051ED08CAE7236943F02003EA
:104890002361F4E730B58BB0012B0E9C2BD8056853
:1048A00016480594056000200690012007909BB9EA
:1048B00049018DE80A0052010292039300230493F8
:1048C00001230893694604F10E030C48099301F093
:1048D0007DFB20460BB030BD4B0B0093C900530B42
:1048E000D200C9B2D2B241F0040142F004020191F7
:1048F00002930392E2E70020ECE700BF18130020C8
:10490000F0B50E4687B004463E4930461546FEF7E0
:1049100027F93D4907462846FEF722F90146384661
:10492000FEF700F9394B206098424ED103F5EA3387
:10493000002103911A6C42F000721A641B6C6160D2
:1049400003F000730393039B2E493046FEF7CCF827
:104950002D492846FEF7C8F8721C03D001213046C5
:1049600000F0BEF96B1C03D00121284600F0B8F915
:1049700027482368036000238361C36103624362A5
:104980008362C3628360C3604FF4A02303614FF46A
:10499000E00343610223436001F099FB10B11D481D
:1049A000FEF734F91C492046FFF792FE174A2368A8
:1049B000934214BF0E230023009300231A46194686
:1049C0002046FFF767FF07B0F0BD144B9842FAD1BD
:1049D00003F5E833002104911A6C42F000721A6466
:1049E0001A6C02F000720492049A05911A6C42F05B
:1049F00080621A641B6C03F080630593059B01239E
:104A00006360A1E72C9000086890000800640040F3
:104A100018130020058F0008A086010000680040E0
:104A20000068324B984210B52DD1072919D8DFE81C
:104A300001F004191D18182218262D4902231424E8
:104A4000002A4ED0426913434361204600F0EAFC3D
:104A50006209012304F01F0403FA04F4254B43F810
:104A6000224010BD244901231324E9E723494FF4D0
:104A700000431624E4E721494FF40073F9E71F4986
:104A80004FF48063F5E71E4B9842EAD10729E8D836
:104A900001A353F821F000BFB94A0008C14A000839
:104AA000C94A0008634A0008634A0008D34A00085C
:104AB000634A0008DB4A0008124902234024BFE78A
:104AC000114901233F24BBE710494FF4004342241E
:104AD000B6E70E494FF40073F9E70C494FF48063D1
:104AE000F5E7426922EA0303AEE700BF0064004035
:104AF0003546000800E100E0314600082546000880
:104B0000006800404946000845460008394600084C
:104B1000054B186830B901221A60044B044A1A6028
:104B2000FFF794BB704700BF641300200C220020E5
:104B3000000C004008B5044B1B680BB9FFF7E8FFF9
:104B4000024B586A08BD00BF64130020000C0040EF
:104B5000044B054A13605863DA6842F00202DA60D7
:104B6000704700BF000C00400C220020034B044A99
:104B70001360DA6822F00202DA607047000C00402D
:104B80000C220020034A044B13606FF002021A61EA
:104B9000704700BF0C220020000C004030B5C368F5
:104BA00091FAA1F4B4FA84F491FAA1F10325B1FACF
:104BB00081F1640005FA04F4490023EA040302FACF
:104BC00001F11943C16030BD012A02D0022A18BF89
:104BD0000022FFF7E3BF00002DE9F0413F4B00F05A
:104BE0000F08C0F3031053F828400E4601F00705E4
:104BF000FFF7A4FB836894FAA4F1B1FA81F194FA67
:104C0000A4F20327490007FA01F1B2FA82F223EA7B
:104C100001035200022101FA02F213438D42836024
:104C200028D0BD4241D0012D3FD00023026894FA24
:104C3000A4F7B7FA87F794FAA4F14FF0030EB1FA8C
:104C400081F17F000EFA07F7490022EA07028B4044
:104C5000013D1343012D036005D8436832074CBF63
:104C60002343A3434360C6F301122146BDE8F0414C
:104C7000FFF7AABFB8F1070FC6F3032717D9426A97
:104C8000230A93FAA3F1B1FA81F193FAA3F34FF057
:104C90000F0EB3FA83F389000EFA01F19B0022EAAA
:104CA000010207FA03F3134343622B46BEE7026A8D
:104CB00094FAA4F3B3FA83F394FAA4F14FF00F0E2D
:104CC000B1FA81F19B000EFA03F3890022EA030294
:104CD00007FA01F313430362E7E700BFD48F00082C
:104CE00038B500F00F02194BC0F3031053F82240FF
:104CF0000D46FFF723FB04FB04F2016802EB4203BD
:104D00000B40B3FBF2F3013B012B05D8EB1E022B4A
:104D1000436809D823434360032D08D1012221466B
:104D2000BDE83840FFF750BF23EA04034360012D7C
:104D3000F4D0052D01D0022D01D10222EFE721464A
:104D40000022BDE83840FFF729BF00BFD48F00081C
:104D50004309012200F01F0002FA00F02033044A48
:104D600042F82300BFF34F8FBFF36F8F704700BF30
:104D700000E100E042681649920110B58B18046802
:104D80008C5082685A60C2689A600269DA6042692F
:104D90001A61026A9A610022DA61DA849A84DA85F9
:104DA0009A85B0F91A2001320AD108225A611846B0
:104DB00001F03FFB58B10748BDE81040FDF726BFA2
:104DC000B0F9182001320CBF04220C22EEE710BD0E
:104DD0009013002014900008F7B5194E074656F8B6
:104DE000200000282AD0174CBD0163591A685206CA
:104DF0000AD5DB68590607D5134B01211B68984774
:104E000063596FF040021A6063591A6892060CD514
:104E1000DB68980609D50C4B56F827001B68002163
:104E2000984763596FF020021A6063591A68110796
:104E300004D55A69D20744BF5B68019303B0F0BD43
:104E40006C13002090130020681300200020FFF74F
:104E5000C3BF0120FFF7C0BF0220FFF7BDBF032083
:104E6000FFF7BABF0420FFF7B7BF0520FFF7B4BFB5
:104E7000F0B50E4687B004466D4930461546FDF73D
:104E80006FFE6C4907462846FDF76AFE0146384624
:104E9000FDF748FE684B2060984200F09C8036D8B1
:104EA000A3F50063984269D003F5806398427CD0F3
:104EB0005F493046FDF718FE5E492846FDF714FEAF
:104EC000721C03D001213046FFF70AFF6B1C03D090
:104ED00001212846FFF704FF4FF41653A360002377
:104EE000E360236163612362268365832046FFF7C5
:104EF00041FF2268514B9A4207D1514B5148012240
:104F00001A6021464C2202F093FF07B0F0BD4E4BD1
:104F100098421DD003F58063984272D0A3F54443B4
:104F20009842C5D1494B1A6A42F480121A621A6A31
:104F300022F480121A62002204921A6C42F4801247
:104F40001A641B6C03F480130493049B04232AE06B
:104F50003E4B5A6A42F010025A625A6A002122F00D
:104F600010025A6200915A6C42F010025A645B6C53
:104F7000616003F010030093009B99E7334B1A6ABA
:104F800042F400321A621A6A22F400321A620022D3
:104F900001921A6C42F400321A641B6C03F4003361
:104FA0000193019B0123636082E7284B1A6A42F454
:104FB00080221A621A6A22F480221A620022029265
:104FC0001A6C42F480221A641B6C03F4802302934F
:104FD000029B0223E7E71D4B1A6A42F400221A6281
:104FE0001A6A22F400221A62002203921A6C42F416
:104FF00000221A641B6C03F400230393039B032316
:10500000D1E7124B5A6A42F020025A625A6A22F0E1
:1050100020025A62002205925A6C42F020025A6421
:105020005B6C03F020030593059B0523BBE700BFE2
:1050300010910008A4900008004C0040004400407B
:105040008C1300204822002000100140003802404C
:105050008160FFF78FBE0000034B19604168034B6E
:1050600043F82120704700BF681300206C13002014
:1050700038B543680D46052B2BD8DFE803F0031B3A
:105080001E2124272149252421489B013AB3C258D7
:10509000D3680DBB43F02003D360204600F0C2F973
:1050A0006209012304F0170403FA04F4194B43F8CE
:1050B000224038BD18492624E6E718492724E3E7AB
:1050C00017493424E0E717493524DDE7164947241A
:1050D000DAE700210C46D7E743F04003DCE7C3588A
:1050E000DA6835B922F02002DA60DB681A0606D5E4
:1050F00038BD22F04002DA60DB689B0604D420460B
:10510000BDE83840FFF724BE38BD00BF4D4E000853
:105110009013002000E100E0534E0008594E0008B3
:105120005F4E0008654E00086B4E00084368034A56
:105130009B01D3581868C0F34010704790130020AB
:10514000416810B504462046FFF7F0FF0028FAD06A
:105150008901034B5B585868C0F3080010BD00BFBD
:10516000901300204368034A9B01D3581868C0F38A
:10517000C01070479013002038B544680546284693
:10518000FFF7F0FF0028FAD0A401034B1B59C1F32D
:105190000801596038BD00BF9013002008B500F029
:1051A00005F8BDE8084001F0C7BB0000174A1849E0
:1051B000936803F00C03042B10B50DD0082B0DD011
:1051C000144B0B60114B144A9B68C3F30313D25C5E
:1051D0000B68D3400B6010BD104BF2E75468506869
:1051E00052686302C2F3881200F03F004CBF0B4BC1
:1051F000084BB3FBF0F35343044A5268C2F3014235
:1052000001325200B3FBF2F3DBE700BF003802408B
:10521000E00100200024F4007C91000800127A00D4
:105220002DE9F041ACB0304B002101911A6C42F0F5
:1052300080521A641B6C03F080530193019B2B4B2B
:1052400002911A6842F440421A601B6803F440431A
:105250000293029B012308930746C0B909934FF4B8
:10526000B47302244FF480050826119308A807237D
:105270000E940F95109612941393149400F0E2FB81
:1052800018B901F00DFB804618B1002028E0052375
:10529000E4E74FF4C0731C934FF48073159315A883
:1052A0004FF000632A931B961D9600F0DBF80F2346
:1052B00003934FF4A053069305214FF4805303A8A2
:1052C0000494CDF81480079301F0E4F90246002815
:1052D000DBD10FB94FF08062294601F08FF9012030
:1052E0002CB0BDE8F08100BF0038024000700040E3
:1052F000F0B595B00024234B00941A6C42F0805214
:105300001A641B6C03F080530093009B1E4B0194A6
:105310001A6842F440421A601B68089403F4404340
:105320000193019B0E940323079310230B930F9378
:105330004FF4B473022610930127062307A80A9797
:105340000D961196129300F07DFB0546B8B90F2318
:1053500002934FF4A0530490059305214FF480531A
:1053600002A80396069301F095F9024628B9014672
:1053700001F044F9384615B0F0BD2846FBE7204659
:10538000F9E700BF003802400070004008B5012076
:10539000FFF746FF18B9FFF7ABFF00B9FEE74FF084
:1053A000C06200210120BDE8084001F027B90000DB
:1053B000174AD2F8883010B543F47003154CC2F880
:1053C00088302368002143F001032360A160236833
:1053D00023F0847323F4803323600F4B63602368CE
:1053E00023F4802323604FF00063E16093600B4B54
:1053F0000B4A1A6001F0A0FAFFF7C8FF236A43F0D6
:1054000008032362236A23F00803236210BD00BF50
:1054100000ED00E00038024010300024E0010020E0
:1054200080A8120130B50C4CA268A468B4F1006FDA
:1054300013460CD1131F094C094A53F8045F42F874
:10544000045FA242F9D1044A4FF000539360103038
:1054500043F8201030BD00BF00ED00E0C001002087
:10546000FCFFFF1F2DE9F04F036813F0010685B024
:1054700004460BD0C849866BD1F88C2022F0C0625C
:105480003243B6FA86F6C1F88C20760999070BD517
:10549000C148E16BD0F88C2022F0C0520A430029A9
:1054A000C0F88C2008BF012613F0040512D0BA49B9
:1054B000256BD1F88C20B5F5801F22F4401242EA0A
:1054C000050218BFB5FA85F5C1F88C2012BF6D0929
:1054D000002501261A070FD5AF48616BD0F88C2044
:1054E00022F440020A43B1F5800FC0F88C2000F08E
:1054F000BF81002908BF01259F0633D500230393F0
:10550000A54BA64F1A6C42F080521A641B6C03F034
:1055100080530393039B3B6843F480733B6001F02B
:105520002BFA80463B68D80540F1A4819A4F3B6F27
:1055300013F4407340F0A981236C03F44072B2F578
:10554000407F954A40F0C481916823F0704021F477
:10555000F81120F4407001439160116FC3F30B0305
:105560000B4313672368DB0642BF8D4B94F858202A
:105570001A6023681F0608D58749E06CD1F894208B
:1055800022F440020243C1F89420580608D582490B
:10559000A06CD1F8942022F080620243C1F89420DC
:1055A000D9050CD57C48616DD0F8942022F00062BA
:1055B0000A43B1F1006FC0F8942008BF01259A0595
:1055C00008D57549606CD1F8942022F080520243CE
:1055D000C1F894205F0500F17F81012E40F08A819F
:1055E000704E6D4F0023336001F0C6F9019680467E
:1055F0003B68180100F10B822068C10701D5A36B3D
:1056000023B1820746D5E36B002B43D1624F4FF4A1
:105610004031D7F8842091FAA1FE4FF0706CBEFAA9
:105620008EFED7F884309CFAACF847F6C07BB8FA07
:1056300088F89BFAABFBBBFA8BFB91FAA1F1B1FAAC
:1056400081F19CFAACFC4FF0E04ABCFA8CFC9AFA6F
:10565000AAFAA66802F4403206FA0BF96669BAFAA9
:105660008AFA22FA0EF206FA0AFA03F07063666802
:10567000013249EA0A0923FA08F322F0004249EA12
:10568000060903FA0CF3013A49EA03038A4013437B
:10569000C7F88430430703D5236BB3F5801F05D0CB
:1056A000070750D5636BB3F5800F4CD13A4F4FF4D9
:1056B0004031D7F8842091FAA1FE4FF0E04CBEFAB9
:1056C0008EFED7F884309CFAACF847F6C07BB8FA67
:1056D00088F89BFAABFBBBFA8BFB91FAA1F14FF078
:1056E000706AB1FA81F19AFAAAFABAFA8AFA9CFABD
:1056F000ACFCA66802F4403206FA0BF9266922FADD
:105700000EF206FA0AFA03F0E04366680132BCFAC8
:105710008CFC49EA0A0923FA08F322F0004249EA1C
:10572000060903FA0CF3013A8A4049EA03031343DA
:10573000C7F88430D7F88C20A36A22F01F02013BFF
:105740001343C7F88C30460553D5236DB3F1005F82
:105750004FD1DFF844C04FF4403BDCF884209BFA83
:10576000ABF84FF0E047B8FA88F8DCF8841097FA05
:10577000A7F947F6C07AB9FA89F99AFAAAFABAFAF1
:105780008AFA9BFAABFB4FF0706EBBFA8BFB9EFA6A
:10579000AEFEBEFA8EFE07E0003802400070004008
:1057A000E01147426800474297FAA7F7E368A66806
:1057B0005B08013B02F4403206FA0AFA03FA0BF3E3
:1057C000666801F0E04122FA08F8B7FA87F743EA81
:1057D0000A0321FA09F908F10108334309FA07F726
:1057E0004FEA48081F4308FA0EFE47EA0E07CCF8B6
:1057F000847001052CD547F6C07797FAA7F74FF4C8
:105800004033B7FA87F793FAA3F34FF07060B3FA17
:1058100083F290FAA0F04FF0E041B0FA80F091FAF4
:10582000A1F1E3685B08013B9340A26802FA07F725
:1058300062683B431343226902FA00F06269B1FADD
:1058400081F102FA01F103437B4A0B43C2F8843031
:10585000019A794E0123136001F08EF807463368F0
:105860001A014BD401F088F8C01B0228F7D908E0D0
:10587000012641E601F080F8A0EB080002287FF63F
:1058800051AE032005B0BDE8F08F226C02F44072E7
:1058900093423FF451AE3B6F684A0121116023F4FB
:1058A0004073002111603B673B6FD9077FF544AE21
:1058B00001F062F841F2883980463B6F9A073FF564
:1058C0003BAE01F059F8A0EB08004845F5D9D8E700
:1058D000916821F4F8113FE65748216DD0F89420E3
:1058E00022F000520A43B1F1005FC0F894207FF427
:1058F00074AE75E6B3F5006F3FF472AE012D40F063
:1059000084804F4D4C4E00232B6001F035F8074644
:1059100033689B0000F183802068460701D5236B24
:105920001BB1010738D5636BB3BB43494FF4403615
:10593000D1F8883096FAA6FE47F6C072BEFA8EFEFF
:1059400092FAA2F2B2FA82F796FAA6F64FF0706CCB
:10595000B6FA86F69CFAACFCE26903F44033BA402E
:10596000676ABCFA8CFC23FA0EF307FA0CF70133D2
:105970003A4323F00043A769013B3A43B340134342
:10598000C1F88830D1F88C30E26A23F4F853013A38
:1059900043EA0223C1F88C30C2052DD5636DB3F103
:1059A000006F29D124494FF07060D1F8882090FA17
:1059B000A0F647F6C07EB6FA86F69EFAAEFE4FF423
:1059C0004033BEFA8EFE93FAA3F3B3FA83F790FA4C
:1059D000A0F0236A5B08013BBB40E769A46907FAB2
:1059E0000EF702F07062B0FA80F03B43F2402343BE
:1059F00082401343C1F8883001232B6000F0BCFFC4
:105A00000D4C054623689B0010D500203AE700F0B6
:105A1000B3FFA0EB080002287FF6EAAD31E700F003
:105A2000ABFFC01B02287FF673AF2AE700F0A4FF8C
:105A3000401B0228E6D924E700380240400E4742C6
:105A4000700047420368F7B5DF07044638D423687F
:105A50009E077AD423681E0700F1CF8023685D0774
:105A600028D500230193AF4BAF4D1A6C42F0805202
:105A70001A641B6C03F080530193019B2B6843F461
:105A800080732B6000F078FF06462B68DA0540F142
:105A9000D680A64B227A1A70A368002B00F0DD8016
:105AA00000F06AFF9F4D064641F288372B6F9B0737
:105AB00040F1CC80A269002A40F0DF8000201EE087
:105AC000984B9A6802F00C02042A10D09A6802F0EF
:105AD0000C02082A02D15B685D0208D4914A9368DF
