:020000040800F2
:1000000000000220C15D0008F55D0008F55D0008F4
:10001000F55D0008F55D0008F55D000800000000D2
:10002000000000000000000000000000855C0008E7
:10003000F55D0008000000002B5D00088B5D0008E6
:10004000F55D0008F55D0008F55D0008F55D000848
:10005000F55D0008F55D0008F55D0008F55D000838
:10006000F55D0008F55D0008F55D0008F55D000828
:10007000F55D0008F55D0008F55D0008F55D000818
:10008000F55D0008F55D0008F55D0008FD3000082D
:1000900001310008F55D0008F1300008F55D000849
:1000A000F55D0008F55D0008F55D0008F55D0008E8
:1000B000F55D0008F55D0008F55D0008F55D0008D8
:1000C000F55D0008F55D0008F55D0008F55D0008C8
:1000D000F55D0008F55D0008F55D0008F55D0008B8
:1000E000F55D0008F55D0008F55D0008F55D0008A8
:1000F000F55D0008F55D0008F55D0008F55D000898
:10010000F55D0008F55D0008F55D0008F55D000887
:10011000F55D0008F55D0008F55D0008F55D000877
:10012000F55D0008F55D0008F55D0008F55D000867
:10013000F55D00080000000000000000113100081B
:1001400015310008F55D000805310008F55D00086F
:10015000F55D0008F55D0008F55D0008F55D000837
:10016000F55D0008F55D0008F55D0008F55D000827
:10017000F55D0008F55D0008F55D00080000000071
:1001800000000000F55D0008000000000000000015
:10019000F55D00080000000000000000F55D0008AB
:1001A000000000000000000000000000F55D0008F5
:1001B000F55D0008F55D0008F55D0008F55D0008D7
:1001C000F55D000810B5054C237833B9044B13B125
:1001D0000448AFF300800123237010BD60020020AB
:1001E00000000000E87300080C4B43B10C480D49B7
:1001F00010B5AFF300800C48036823B910BD0A485E
:10020000036833B97047094B002BF7D0BDE81040A5
:100210001847064B002BF5D0184700BF0000000020
:10022000E8730008640200205C0200200000000067
:1002300043680B7043681B0A4B70C3888B70C3798B
:10024000CB7083680B7183681B0A4B7143898B7178
:10025000C37ACB71082070470B7843604A7843EA31
:10026000022343608A7843EA02434360CA7843EA40
:10027000026343600B7983604A7943EA0223836017
:100280008A7943EA02438360CA7943EA026383605E
:100290000820704700487047726E00080048704799
:1002A000516E000800487047306D000800487047E4
:1002B0000F6D000800487047FC6C0008004870474C
:1002C000DB6C000800487047496D00080048704723
:1002D000BA6C000800487047346E00080048704748
:1002E000136E0008F8B543680B7043681B0A4B7027
:1002F000C3888B70C379CB7004460D460027042653
:1003000063689F4205EB060108D23B01A069C25811
:1003100018441268904701370644F1E7E369AB558A
:10032000E3691B0A4B70E38B8B70E37FCB70301D4E
:10033000F8BD000000487047F96D0008004870479C
:10034000D86D000838B5044604300D46FFF7CAFFE3
:10035000636A2B54626A2B18120A5A70E28C9A70E4
:1003600094F82720DA7004300023626A934205D2A1
:10037000E26AD25C2A5401330130F6E738BD00004E
:1003800000487047BF6D0008004870479E6D000828
:100390000368184708B10B68036070477047006C2A
:1003A0007047000000487047BF6D00080048704764
:1003B0009E6D000890F8E8057047000037B50B4BBC
:1003C000446A0022A24209D0C16A1AB909781960A8
:1003D0000132F7E78D5C9918CD70F9E7DA68009281
:1003E0000ECB034805F0C6F803B030BD8C020020E8
:1003F0009C02002010B50F4C0F482146002205F04A
:10040000D8F82146A8B123684BB90C4C0A7B9A4214
:1004100005DDCA181079E26AD0540133F6E7084BBB
:10042000D868996802681468044A2346BDE81040F9
:10043000184710BD7C0200209C0200208809002083
:100440007409002010B510220446002105F015FFA4
:100450000823237300236360A360204610BD013886
:10046000002321FA03F20833202B00F8012FF8D1E2
:10047000704770B5054640680C4606F0CAF9064656
:1004800001462046FFF7EBFF69683246201D05F064
:10049000CFFEA119AB680B71AB681B0A4B716B895E
:1004A0008B71EB7ACB71EB680B72EB681B0A4B72AA
:1004B000EB898B72EB7BCB7206F10C0070BD43684D
:1004C0002DE9F0410B7043681B0A4B70C3888B7099
:1004D000C379CB700D460A1D044600216068814235
:1004E000A2EB050302F104020FD2E36853F82130B6
:1004F00002F8043C180A02F8030C180C1B0E02F850
:10050000020C02F8013C0131E8E72269EA54216952
:10051000EA18090A5170618A9170E17CD170043344
:100520002B44002122699142A3EB050603F1040349
:100530000FD2A26952F8212003F8042C100A03F804
:10054000030C100C120E03F8020C03F8012C0131FD
:10055000E8E7E369AB55E269AB19120A5A70E28B1E
:100560009A70E27FDA7004360027E3699F4214D262
:10057000636A53F8270006F04CF980460146A81933
:10058000FFF76DFF636A043653F82710A819424637
:1005900005F04EFE46440137E7E73046BDE8F081FE
:1005A000F8B50E46037906F8013B054680680F460C
:1005B00006F02FF9044601463046FFF750FF224669
:1005C000A968781D05F034FE601DF8BD83882DE90B
:1005D000F0410B7083881B0A4B70054680680C46FF
:1005E00006F017F907460146A01CFFF738FF3A4608
:1005F000A968A01D05F01CFEE86806F00AF907F1DD
:100600000608064601460A3704EB0800FFF727FFF5
:100610003246E968E01905F00BFE286906F0F9F8A2
:100620003E4401460746A0190436FFF718FF3A4634
:10063000A01929693E4405F0FBFD6B69A3553444BC
:100640001A0A62701A0C1B0EA270E370301DBDE80E
:10065000F08110B500230360013911F8012F02FA6F
:1006600003F4026808332243202B0260F5D110BD49
:1006700037B50C4611F8013B0371054601A8FFF799
:10068000E8FF019B621D581D111B884204D912F816
:10069000011B02F8021CF7E72344002204341A71FC
:1006A000AC6003B030BD37B5044601A80D46FFF776
:1006B000D0FF01982B1D011D5A1B914204D913F83C
:1006C000012B03F8022CF7E72A180023D370EB1C48
:1006D00063606B5CA360517943EA0123A360917965
:1006E00043EA0143A360D17943EA0163A360137A2B
:1006F000E360517A43EA0123E360917A43EA0143DC
:10070000E360D27A0C3043EA0263E36003B030BDA9
:100710002DE9F84343680D689D4204460F4604D90D
:100720002901806906F01AF8A06165600026042599
:1007300004F1080804F1180963689E4207EB0501FB
:100740000FD24046FFF7AFFFA3690544424603EBD3
:10075000061352F8041B43F8041B4A45F9D101362D
:10076000EAE77B5DE3614A7843EA0223E3618A7842
:1007700043EA0243E361CA7843EA0263E361281D66
:10078000BDE8F883F8B5064604300F46FFF7C0FF12
:100790003B183A5C9C785978DB78240444EA0124BD
:1007A000144344EA0364736A9C4200F1040504D9CB
:1007B0002146F06A05F0D2FFF06274620023726A8B
:1007C000934207D2F16A7A5D86F828200135CA542F
:1007D0000133F4E72846F8BD70B5054600F10C0476
:1007E0002046FFF7CFFFEB6B2046BDE8704018476F
:1007F000F0B50B7883804A7885B043EA0223838082
:100800000C460646023101A8FFF723FF019FA31DF6
:10081000BD1D1A1B954204D913F8012B03F8022CB5
:10082000F7E7E31900225A71631DB360611902A84A
:10083000FFF70FFF2B1D029D07F10A021D44224402
:10084000111B8D4204D912F8011B02F8021CF7E7B4
:100850006119013B2344002201F8012C03A8F36035
:10086000FFF7F7FE03980435284463191A1B9042DA
:1008700004D913F8012B03F8022CF7E72218013DE5
:100880000023254402F8013C356193785178D278F1
:100890001B0443EA0123215C0B4343EA0263043057
:1008A000736105B0F0BD2DE9F34143680D689D42C9
:1008B00004460E4604D9A900C06805F04FFFE06069
:1008C0006560321D002160688142A2EB060302F1DF
:1008D000040213D212F8023C12F8030C1B0443EA80
:1008E000002312F8040C034312F8010C43EA0063DE
:1008F000E068A36040F821300131E4E7F218F15CD0
:1009000095785078D2782D0445EA00250D431F1DB7
:10091000236945EA02659D4204D9A900A06905F052
:100920001DFFA0612561F319002122699142A3EB0B
:10093000060503F1040313D213F8022C13F8030C79
:10094000120442EA002213F8040C024313F8010CCB
:1009500042EA0062A069626140F821200131E4E7C7
:100960007319725D9F785978DB783F0447EA012755
:10097000174347EA0367E3699F4205F1040504D979
:10098000B900606A05F0EAFE6062E7610027B846D8
:10099000E3699F421AD2711901A8FFF75AFE2B1D75
:1009A000019DF2181D44911BA94204D212F8011BAB
:1009B00002F8021CF7E77219013B02F8018C626A27
:1009C0003344236242F827300137E1E7284602B07A
:1009D000BDE8F08130B585B00446094B0193002392
:1009E0000293039354F8EC3B01AA1B680A210546C5
:1009F0009847204604F058FDC5F8FC0005B030BD0E
:100A0000C46B00082DE9F04186B02B4B0093002207
:100A10002A4BADF8042005460293039304930592F4
:100A200000F20C5400F5AE664FF400772368BBB1BA
:100A300058689A68ADF804201A68036802929B68A7
:100A400098472368039058680368DB6898472168D3
:100A50002B68049005971B6809696A4628469847E1
:100A60000434B442E2D105F2D4564FF40077206842
:100A7000C8B14368ADF804308368029303689B688B
:100A80009847039020680368DB6898472B680490B8
:100A90002068D3F80080036805975B6898476A462A
:100AA00001462846C0470434A642E0D1012385F818
:100AB000E83506B0BDE8F081DC6B0008016F000886
:100AC000F0B585B000F1EC051F4B019304460023FF
:100AD0002846029303930E4604F0E6FCD4F8FC206B
:100AE0003146871A01A8FFF7B7FB029B4FF47A76CD
:100AF000B7FBF6F21344029306FB1272039B134FEB
:100B0000284607FB0232039204F0CEFC029AB0FBA7
:100B1000F6F3013AD21A0399C4F800210C4A06FBF5
:100B200013030A4407FB1323C4F8043104F582714C
:100B300004F5807000F0E2FA284604F0B5FCC4F831
:100B4000F00505B0F0BD00BFC46B000840420F00C7
:100B500000CA9A3BF7B5574C574E584D0C220B2103
:100B6000204604F077FD32465549204605F00CF842
:100B70005448FFF767FC5448FFF764FC2846534B82
:100B800040F8043B002404230322022105F1EC0772
:100B90008DE818004FF4807300F0A6FB384604F08F
:100BA00099FC4FF46143C5F8E83038464FF40077BC
:100BB00004F04EFC3A46214605F58670C5F8FC4027
:100BC000C5F80041C5F80441C5F8084105F055FBDA
:100BD0003A462146642705F5437005F04EFB3A4638
:100BE000214605F20C5005F048FB3A46214605F532
:100BF000AE6005F042FB364BC5F8FC3505F5C26327
:100C00000022C5F80046C5F80446C5F80846C5F8F0
:100C10000C461A60C5F81446C5F81846C5F81C46B7
:100C2000C5F8204632462B49C5F8D4452846C5F8B4
:100C3000D845C5F8DC45C5F8E045C5F8E44585F874
:100C4000E845C5F8EC45C5F8F045C5F8F44585F824
:100C5000F84504F099FF204B204A214E214D2248AF
:100C600022491E609C60D86019615C619C61DC61F6
:100C70001C625C6283F82840DC6253605D601C4F3C
:100C80001C4B176014611C4A1A601C4ADA6301226B
:100C90001A641B4ADE601D615C619861D9611C6247
:100CA0005C629C62DC621C6383F834409C639A60E3
:100CB00003B0F0BD9C020020C401002050030020BE
:100CC000DD5500088C0200207C0200206C6C0008BE
:100CD0000C6C0008BD100008880900207409002071
:100CE000546C00083C6C0008246C0008016F00087C
:100CF0009C6C0008B8090020806C0008BD03000847
:100D0000AC6C0008F0B5632985B004460E4603DDDF
:100D100090F8E855002D4DD0136804F213311B688C
:100D200010469847FF2384F80C33FE23C0F30722B4
:100D300084F80D33C3B284F80E331344DB4384F8D4
:100D4000116346F3072684F80F2384F8103384F8E0
:100D5000126304F2113105220023861DB24204DC25
:100D600011F8015B01322B44F8E700F1080520443B
:100D7000DB43B5F5007F80F813330CDC04F54377D3
:100D80003E460434F31B9D4214DD16F8011B204639
:100D900000F01AFBF6E7094B019303238DF80830A6
:100DA000074B0393236801AA1B6807212046984735
:100DB0004FF0FF35284605B0F0BD00BFF46B0008CA
:100DC000656D00082DE9F04700F1EC080446404647
:100DD00004F06AFBD4F8F03542F6F822C31A9342C5
:100DE00084BF002384F8E835D4F8D435054633B100
:100DF000D4F8F43583423CBF0023C4F8D43504F161
:100E00000409002604F58677D4F80831ABB94846C2
:100E100000F082F9E8B994F8E80560B1D4F8EC354F
:100E200040F6C412EB1A934204D92046FFF7D2FDD4
:100E3000C4F8EC550020BDE8F087404604F034FBD0
:100E4000D4F80831401B9842E1D96FF00100BDE8A9
:100E5000F087484600F06AF90028DCDBD4F8E43576
:100E6000D4F8D4A50344BAF1070FC4F8E43512D17D
:100E7000D4F8E0355A1C2344C4F8E02583F80C016B
:100E8000D4F8D835013BC4F8D835002BBCD10823A1
:100E9000C4F8D435B8E7BAF1000F14D1FF2807D150
:100EA0000123C4F8D43505F11403C4F8F435ABE7D5
:100EB000404604F0F9FA41F28833401B9842A3D926
:100EC00084F8E8A5C1E7BAF1010F0DD1FE2801D1E0
:100ED0000223DDE794F8E835C4F8D465002B93D1FC
:100EE0002046FFF777FD8FE7BAF1020F09D1C4F86A
:100EF000D805C4F8E0650323C4F8D435C4F8E40584
:100F000082E7BAF1030F07D1D4F8D83503EB0020FC
:100F1000C4F8D8050423BBE7BAF1040F0BD15A4239
:100F2000D2B2DBB258BF5342FF2B01D10523AFE74A
:100F3000C4F8D46568E7BAF1050F03D1C4F8DC053D
:100F40000623D9E7BAF1060F0BD1D4F8DC3503EB51
:100F500000200723C4F8D435C4F8DC05D4F8D8350C
:100F600093E7BAF1080F7FF44FAF5A42D2B2DBB227
:100F700058BF5342FF2BC4F8D4657FF445AFD4F873
:100F8000DC356BB92046FFF725FD2046FFF73AFD1B
:100F9000C4F8EC55C4F8F0554FF0FF30BDE8F087C9
:100FA0000A2B04D139462046FFF78AFD2CE7062B91
:100FB00008D1394604F2FC50FFF775FC012384F890
:100FC000F83521E70B2B02D184F8E8651CE7F833EC
:100FD00054F8230000283FF417AF036839461B6814
:100FE000984711E71FB52B4C4FF4E131C4F8E810D6
:100FF000201D04F0C2FB0023C4F8D435C4F8D83552
:10100000C4F8E035C4F8DC3504F5A16252F8041FD9
:10101000002936D1204A04EB83017D33C1F80C2529
:101020009360D4601D4A002352F8041F69BB03F586
:10103000AE711B4A44F821206433536019491A48A1
:1010400004F085FA194B184808221A73184B0093BC
:101050000022184B0393694604F03CFB039B13B139
:101060009B6868469847144C0620606205F07CF83F
:10107000E062084C2046FFF7A5FE012004F082FC48
:10108000F8E70133192BC1D1CCE70133192BCBD1B0
:10109000D4E700BF5003002074090020BC080020E2
:1010A000B809002040420F009C0200208C02002062
:1010B000F5030008906C00088809002010B5044B67
:1010C000044640F8043B00F0C3F8204610BD00BFC2
:1010D0006C6C00080748084A08B5121A002105F090
:1010E000CCF804F00FFD05F01BF804F012FD04F03D
:1010F0004DFD00BF600200206829002030B5026865
:101100000D68044CB5FBF4F31A4404FB135302605E
:101110000B6030BD00CA9A3BD0F8C020D0F8C400A4
:10112000101A18BF012070470120704710B5D0F881
:10113000C420D0F8BC100346501CC3F8C400885C1F
:10114000D3F8C820D3F8C440013AB4FBF2F102FB53
:101150001142C3F8C42010BD034610B107C983E88B
:1011600007007047704742688168036812F0010FFA
:101170004FEA62021CBF8858C35888181847C368D2
:1011800010B504460BB19B689847204610BD30B59A
:10119000044685B000F14C05284602F049FD30B305
:1011A000D4F8D020D4F8D4309A4216D0D4F8D43021
:1011B000D4F8CC20591CC4F8D410D15CD4F8D83061
:1011C000D4F8D400013BB0FBF3F203FB1203C4F8E4
:1011D000D430284602F036FDDEE700232046012207
:1011E0006946039304F046FB6846FFF7C8FF05B065
:1011F00030BDC36810B504460BB19B6898472046C4
:1012000010BD000070B506460B4B46F8983B0446EF
:1012100046B100F1B805B54204D0103D2846FFF7AD
:10122000AEFFF8E704F13800FFF7E3FF04F1280010
:10123000FFF7DFFF204670BDFC72000810B50446C2
:10124000FFF7E0FF204604F0BDFC204610BD000083
:1012500030B5134B036085B000252A466946044625
:10126000039504F007FB6846FFF789FF01226946F2
:101270002046039504F0FEFA6846FFF780FF04F16C
:10128000CC0000F023F904F1BC0000F01FF9054B7D
:1012900023602046FFF7B6FF204605B030BD00BFF3
:1012A0000C6F0008CC72000810B50446FFF7D0FFA1
:1012B000204604F087FC204610BD000010B586B023
:1012C0008DE80C00019B029203930491054B9DF85D
:1012D0002020059302A904F0CDFA02A8FFF74FFFE2
:1012E00006B010BD806E00087FB504461D464FF461
:1012F0001653089E04F0FEF820460F4B40F8BC3B06
:10130000294600F0F2F806FB05F104F1CC0000F0EC
:10131000ECF80A4B029300230393009304AB20469E
:1013200013E90C002146FFF7C9FF2046C4F8DC5042
:10133000C4F8E06004B070BD0C6F0008A71300088B
:1013400070B5044686B04C3002F072FCC0B102ADFC
:101350000122294600262046059604F08BFA2846ED
:10136000FFF70DFF2046FFF712FF064B0293012304
:101370000396009395E80C0021462046FFF79EFF58
:1013800006B070BD8F1100084368026810B55C1C80
:101390004460D154C3684168013BB1FBF3F203FBE5
:1013A0001213436010BD38B500F14C0504462846C1
:1013B00002F022FC38B1284602F028FCC1B204F148
:1013C000BC00FFF7E1FF38BD38B505460C46CC3010
:1013D000C9B2FFF7D9FF2846FFF7B2FF204638BD54
:1013E0002DE9F04107460C46B1B10D4600F1CC089D
:1013F0002E4616F8011B21B14046FFF7C5FF3546C2
:10140000F6E70A214046FFF7BFFF2C1B3846FFF7DF
:1014100097FF601CBDE8F0810846BDE8F0812DE92A
:10142000F04107460D4691B1A2B18C180E4600F16D
:10143000CC08B44205D016F8011B4046FFF7A4FFC4
:10144000F7E73846FFF77CFF601BBDE8F0810846F0
:10145000BDE8F0811046BDE8F08100000EB42DE932
:10146000F04185B0D0F8DC2002AFD31D23F0070394
:1014700007F12404ADEB030D54F8048B02AE0546CE
:101480000021304604F0F9FE2246414630467C6099
:1014900005F0E0F9D5F8DC30834202460CD200902A
:1014A0005D220848084900F001F900200C37BD46CC
:1014B000BDE8F04103B0704731462846FFF7AFFF63
:1014C000F4E700BFC86E00088C6E000810B5044633
:1014D000006808B104F072FB204610BD0021416095
:1014E000C2688160006804F0C8BE38B5044608468A
:1014F0000D4604F057FBE56020602046FFF7EEFF45
:10150000204638BD38B504460D4603685AB1826896
:1015100013602046012101F033FD29462046BDE835
:10152000384001F029BDC2681B04F1E770B50E46D2
:101530000446154601F000FD013606D02A46204635
:101540000021BDE87040FFF7DDBF70BD0022FFF74E
:10155000EDBF000000487047386F0008014800F0F8
:1015600003B800BF386F0008036870B5DB68044635
:10157000984763685A6823681AB99B68BDE8704049
:1015800018475B68156898476368281A00285A68E6
:1015900007DC916859601B68002BEAD050689847B7
:1015A000E7E7236810681B69BDE8704018470368C7
:1015B0005B68184710B5044601300DD110BD9C4240
:1015C00009D12046896802F06DF820460021BDE867
:1015D000104002F0EBB80C31B1F900305A1CEED1DA
:1015E0000248BDE8104000F061B800BF856F0008F8
:1015F000884208B508D0431C06D0013106D0044803
:1016000000F054F84FF0FF31084608BD0146FBE7F3
:10161000546F0008B1F900305A1C01D118467047C8
:10162000834201D1486870470C31F3E7421C10B582
:10163000044607D0FFF7EEFF431C044602D10248E0
:1016400000F034F8204610BD656F0008EFF31080FD
:10165000C04300F00100704708B5FFF7F7FF72B60E
:10166000064B1A6822B980F00100054AC0B210701A
:101670001A681A6801321A6008BD00BF080A002003
:10168000040A002008B5074B1A6852B1FFF7DEFFC5
:101690001A68013A1A601B681BB9034B1B7803B91F
:1016A00062B608BD080A0020040A00200FB4012019
:1016B00008B504F06BFA00B589B0FFF7CDFF05213E
:1016C00001A8FFF743FF039B019A1A60962004F0DC
:1016D00059F9019B049A1B041360962004F052F9F7
:1016E000F1E701F076BC000008B5024C236898478A
:1016F000FCE700BFC801002008B50B4800F0AAFDB8
:101700000A4B18600A4800F0A5FD0A4B18600A4809
:1017100000F0A0FD094B186004F002FD002108460E
:10172000BDE8084004F0F5B9E46F0008001F002090
:10173000E06F0008140A0020DC6F00080C0A00208B
:10174000FFF7D2BF10B5044600F0E4FC2146024684
:10175000BDE810400148FFF7A9BF00BFA46F000813
:1017600004F032BA0B4A0C4B0C4830B41A60C2F188
:10177000005303F50033B3F5806F194628BF4FF4CB
:101780008061074D074C01605B1A1A442A60236090
:1017900030BC704768290020681E0020180A00200D
:1017A0001C0A0020641E002000F038FEFFF7DAFF5C
:1017B0000348002100F0D6FD00F02EFCFEE70000FB
:1017C000CC010020024B4FF0FF31186800F060BDE3
:1017D000140A0020014B186800F082BD140A002092
:1017E00030B502788C784368013AD2B213B19D7853
:1017F000A54207D2022A4B60416006D803B1996026
:10180000886030BD18465B68F0E700238B6030BD10
:1018100002784368013A59684160022A4FF0000299
:1018200005D809B188605A609A60184670475A60B6
:10183000FBE70000034B5A68426000228260586058
:10184000704700BF40280020104BDA6810B58AB1FD
:101850009A8ADC688A420CD3C460D860C468036189
:1018600004B12061521A92B28282998A8A1A9A82AB
:1018700010BD3CB900248A1AC460D86003619A8202
:10188000848210BDA38A1A442346E2E75828002028
:101890002DE9F041174DEB6853B1AB8A164FDFF8D5
:1018A0005C80013BAB820026AA8A0AB9EC680CB9BD
:1018B000BDE8F081A36833B161685960616809B11E
:1018C0008B606260A66021463846FFF789FFA38AD5
:1018D000AB826378042B01BFD8F80030E28A9B18F2
:1018E000A38201236370E368EB600BB11D61E660C6
:1018F0002661D9E75828002040280020D42800205D
:1019000083682BB142685A6042685AB1936070474D
:10191000054B5A68904202D142685A60704713469C
:10192000002AF6D1704700BF4028002010B5846817
:1019300001462CB94378012B0DD1074C03E0A46874
:101940002378002BFBD00846FFF7DAFF2046BDE8DE
:101950001040FFF745BF10BD40280020036910B5B7
:1019600063B1C268DA60C2684AB1998A848A214444
:10197000998213610023C3600023036110BD9A8222
:10198000FAE7000070B4114BDD78EFF31086EFF347
:10199000108272B69A78954211D901329A701A78EB
:1019A000541CA54208BF00241C7006B962B69542BB
:1019B00007D903EBC20370BC586099607047002ED2
:1019C000F4D0022070BCFFF7BDBE00BF781E00201F
:1019D000054B1B7823B9054B4FF080521A607047B6
:1019E000034B01221A707047701A002004ED00E0CA
:1019F000711A002038B51A4B1A4C1868012343702D
:101A0000FFF718FF6578A3783BB917486570FFF7B3
:101A1000FFFEBDE8384000F0DBBD04EBC5035868AD
:101A200002789AB9198900F01BFAE37801359D42D2
:101A300008BF0025EFF31083EFF3108272B6A2788F
:101A4000013AA270002BDED162B6DCE7012A03D195
:101A5000996800F093F9E8E701F018F9E5E700BFAD
:101A60008C280020781E002040280020084B1A688F
:101A7000084B1A6000225A60072243F8042C064AD9
:101A8000136843F07F4313604FF0FF30704700BF8F
:101A90000470000814E000E020ED00E07047000052
:101AA00008B50B4B186801234370FFF7C3FE00F025
:101AB0000DFA084A136801331360FFF7E9FE00F0DE
:101AC0000FFD0548FFF7A4FEBDE8084000F080BD0B
:101AD0008C280020D428002040280020064B1A68BB
:101AE000136BD26A934203D81A68044B9A4202D00D
:101AF0000120FFF727BE70478C280020A52E5AE250
:101B0000836A9B0804BF224B1B88F0B5056B08BF96
:101B10009B0805EB8302540748BF043A4FF08076D8
:101B200002E94200A2F14004A2F14406A2F10C072E
:101B30004FF0000E46F804EFBE42FBD1C66942F8F2
:101B4000206C41631249C4620968C90017D5112B82
:101B500015D9103B6FF007015B084B43A3F1380127
:101B60000A444FF0CC30214691420BD108331C443B
:101B7000231F9D423CBF4FF0CC3344F8043C054B3F
:101B80002B60F0BD41F8040C41F8080DECE700BFF4
:101B9000EC6F0008A52E5AE290F82520C36A12B116
:101BA0006033196070472033FBE710B590F825408B
:101BB000C36A1CB1603383E8060010BD2033FAE726
:101BC000002ABBBF22F000420732033222F0070294
:101BD000A8BF22F0030210B5B4BF10230C2392B1AA
:101BE000D4188C420FD8014403445442416003602E
:101BF000826021449818814202D300510346F9E7DC
:101C00000020186010BD012010BDEFF3108372B6E4
:101C1000026803F001030AB11168016003B962B6FA
:101C20001046704781420DD3436899420AD2EFF3C0
:101C3000108372B602680A60016013F0010003D1DC
:101C400062B67047012070470020704701231039A9
:101C500003708908002343708370436003814381CC
:101C60008381C1817047000070B58589044616469E
:101C7000002D38D043891A1D013350F822200A6004
:101C8000C2899BB29A42438104BF002343814368C7
:101C9000F3B14378022B1BD1FFF7BAFD00210546B3
:101CA000FFF77AFF2389E9691A1D013344F82210EE
:101CB000E2899BB29A42238108BF0023284608BFCD
:101CC0002381FFF74BFE284600F09CFC002070BDEE
:101CD000EFF31080EFF3108372B6013DA581002869
:101CE000F4D162B670BD4AB14268094B42B119687D
:101CF000FFF776FD0821304600F0A8FC012070BDFA
:101D00001B6843605A60986001234370F2E700BF8C
:101D10008C280020C2898089101A704708B5FFF707
:101D200031FEBDE80840FFF753BE838910B5044675
:101D30000BB34389043350F823300B604378022BF4
:101D400004D10021FFF71EFEFFF742FEEFF31083E0
:101D5000EFF3108272B6A289013AA28103B962B68A
:101D60006389E28901339BB29A42638101D10023E6
:101D70006381042010BD184610BD0000436870B593
:101D800004460E46002B4BD04578022D20D0032D63
:101D90000AD0012D61D1FFF73BFD044632461021E8
:101DA000FFF703FF65700EE00846FFF72EFF0546BC
:101DB000002852D02046FFF72BFD29460446FFF7A6
:101DC000EBFE012363702046FFF7C8FD214622E0A9
:101DD000FFF71EFD00210546FFF7DEFE2389E969B6
:101DE0001A1D44F82210EFF31082EFF3108172B63F
:101DF000A1890131A18102B962B6E28901339BB2A6
:101E00009A42238104BF0023238101236B7028465B
:101E1000FFF7A4FD29461148BDE87040FFF7E0BC7C
:101E20008089E189884213D223891A1D44F82260EF
:101E3000EFF31082EFF3108572B60130A08102B982
:101E400062B601339BB2994208BF0023238170BD63
:101E50000320BDE87040FFF775BC70BD402800202E
:101E600010B5038B42781943062A04460183438B3D
:101E700015D133EA010219D121EA03012183204659
:101E8000FFF76CFD012320466370628B0821FFF78A
:101E90008CFE21460648BDE81040FFF7A1BC052A8C
:101EA00004D111EA030201D04283E5E710BD00BF6F
:101EB00040280020034B00221A60034A1268DA808F
:101EC000704700BF78280020E86F000808B50E4B67
:101ED0005A680E4B196891420D4905D01A60DA888C
:101EE0000868013A02449A8098880A8890420AD188
:101EF000002205481A60FFF78BFCBDE80840014648
:101F00000148FFF76DBC08BD40280020782800205C
:101F1000D42800200B4A136830B5002443B903606D
:101F2000816013B19D68691A996044B1206030BD29
:101F30009D68A942F3D31C46491B1B68EEE710605D
:101F400030BD00BF88280020C0B1431C11D00C4B0D
:101F5000984211D80B4B1B684FF47A715A1E01FB43
:101F60000020B0FBF3F34FF6FE70834206D898B220
:101F700070474FF6FF7070474FF6FE70704700BF16
:101F800000093D00A06F000838B1830704D1037831
:101F9000002B18BF0020704700207047B0B50E4DD1
:101FA000287800AFA8B90D4C236893F8241000F0EE
:101FB0006FFB2368DA78FF2A03D1DA6A203282F3D2
:101FC000098862680AB984E80C0000F019FD012351
:101FD0002B700020B0BD00BF852800208C28002079
:101FE000014B1878704700BF8528002010B5EFF32B
:101FF000108434B9EFF305841CB9EFF31484E407BB
:1020000002D4034B187810BDDFF808C000DF10BD04
:1020100085280020E11F000890B589B000AFEFF3DC
:102020001083002B37D1EFF30583002B33D1FFF75B
:10203000DDFF28B9194C246814B1646804B1A047C5
:10204000EFF3148404F00304022C18D0032C1CD0EA
:10205000012C1ED007F1200484F30988104C247849
:10206000E40710D5022484F31488BFF34F8FBFF325
:102070006F8FDFF830C000DF2437BD4690BD084CBD
:102080002478E407F5D40324EDE7054C2478E4072D
:10209000EFD5FF20F0E78220EEE700BF7428002094
:1020A000CE6F00089D1F000870B50B46164602460D
:1020B00010B90024204670BD00680028F9D0B2F99C
:1020C0000440E51CADB2062DF3D8D168C1B1126948
:1020D000043444EA012100F019FB0028E9D00A4B3E
:1020E0000A4A013853F82040E36A5A63084B1B68D8
:1020F00043B19B6833B13146E0789847E063D9E754
:102100000A46E5E7E663D5E728220020B122000869
:102110007428002008B500F0B3FA18B10138024B5A
:1021200053F8200008BD00BF2822002010B5FFF79B
:102130002BFF044670B1084B1B681BB1DB680BB169
:10214000C06B9847E07800F037FBFF280CBF812078
:10215000002010BD802010BD7428002008B528B1D3
:10216000FFF7F2FE00F08EFD402008BD08BD000024
:1021700010B5EFF3108434B9EFF305841CB9DFF820
:102180000CC000DF10BD822010BD00005D210008E2
:10219000830705D138B1436901691B681846704748
:1021A00000231946FAE70346FBE7000010B5044692
:1021B0000846DFF80CC000DF84E80300204610BDAD
:1021C0009121000810B548B1046824B1237823B9DF
:1021D000204600F05BFC204610BD002010BD70B50D
:1021E00010F0030405460E4611D180B10378032B8D
:1021F0000DD10846FFF7A8FE0146284600F014FD61
:10220000012806D1002E14BFC120812070BD80207E
:1022100070BD204670BD820708B50AD148B1037869
:10222000032B06D100F090FCFF280CBF812000207A
:1022300008BD802008BD10B510F0030407D130B1EF
:102240000378032B03D100F029FC204610BD802029
:1022500010BD000070B50546EFF3108494B9EFF39C
:1022600005867EB9EFF31484E40706D4064C24787F
:102270001CB9BDE87040FFF7A5BF2846DFF80CC0C9
:1022800000DF70BD002070BD85280020C52100083A
:1022900010B5EFF3108434B9EFF305841CB9DFF8FF
:1022A0000CC000DF10BD822010BD0000DF2100083F
:1022B000084808B54FF0FF310068FFF7E9FFDFF885
:1022C00018C000DF0446FFF74BFA2046DFF80CC0C9
:1022D00000DFFEE780280020152100082D210008DE
:1022E00010B5EFF3108434B9EFF305841CB9DFF8AF
:1022F0000CC000DF10BD822010BD000017220008B6
:102300002DE9F04180460F461646EFF3108404BBDA
:10231000EFF30583D3B9EFF31483DB0706D40E4B39
:102320001B781BB9BDE8F041FFF7BEBE0B4D4FF067
:10233000FF312868FFF7ACFF404639463246DFF8E8
:1023400020C000DF04462868FFF7CAFF2046BDE82A
:10235000F0810024FAE700BF8528002080280020B3
:10236000A92000080022FFF7CBBF000010B5EFF353
:10237000108434B9EFF305841CB9DFF80CC000DF1A
:1023800010BD822010BD00003722000810B50446A1
:1023900060B1016851B1406848B1037833B9043184
:1023A000890089B2FFF752FC606810BD002010BDA3
:1023B00038B5114C23780BB900F0A8FA0F4B2578EB
:1023C0001B68FF229A708DB929460D48FFF7DEFF82
:1023D0000C4B2A46186029460B48FFF765FE0B4B4D
:1023E00018600B48FFF736FF0A4B18600123237073
:1023F000094B0020187038BD842800208C2800204C
:10240000D46F0008041F0020F06F0008FC1E00209D
:1024100008700008802800208528002010B5EFF300
:10242000108474B9EFF305845CB9EFF31484E40706
:1024300003D4BDE81040FFF7BBBFDFF80CC000DFDE
:1024400010BD822010BD0000B12300082DE9FF411E
:102450000C46804618B30378012B25D10846FFF7B8
:1024600073FD02A902464046FFF7FEFB012811D189
:102470000020002C0246034618BF40200299044663
:102480000D4616461F462046294632463B4604B0B6
:10249000BDE8F0810020024603461020EEE78024CC
:1024A000054606460746EEE7002580242E462F46C1
:1024B000E9E770B50E461446054660B15AB903788F
:1024C000012B08D1FFF726FC38B128463146FFF72B
:1024D00025FC204670BD802070BD812070BD0000AD
:1024E000F8B5114E34682CB1A368104F013BA360BE
:1024F000A26802B1F8BD2568386835602146FFF74B
:10250000D8FF10B10420FFF71DF96379012B07D123
:10251000E1682046FFF7FEFC002DEBD02C46E7E7F4
:1025200001232371F8E700BF88280020041F002042
:102530007FB504461646084601B122B180232360C8
:10254000204604B070BD0B78012BF7D102A9FFF72C
:10255000ECFB042808BF102301AD14BF01960193C2
:1025600095E8070084E80700EAE7000038B504466C
:102570001546EFF3108010B9EFF3058028B12A4615
:102580002046FFF7D5FF204638BD08461146DFF844
:102590000CC000DF84E80700F5E700004D240008C8
:1025A0007FB50A4C21684FF0FF3203A8FFF7DEFF2A
:1025B000039B102BF6D1049901A8FFF7F7FD019BAF
:1025C000002BEFD002989847ECE700BF041F0020D3
:1025D000054B586002234370044B1B681BB11B69F9
:1025E0000BB1C06B184770478C280020742800205E
:1025F00008B50348FFF70CF9BDE80840FFF7E8BF4E
:102600004028002070B5044618B9BDE87040FFF7B7
:10261000EFBF0C4EA278306883789A424FF00105E4
:1026200008D9FFF707F933685D702046BDE87040B0
:10263000FFF7CEBF657021460348BDE87040FFF745
:10264000CFB800BF8C2800204028002038B50D46A8
:10265000014680B14FF6FF739842074C02D02068C4
:10266000FFF7F2F8236805485D70FFF7D1F8BDE881
:102670003840FFF7ADBF38BD8C280020402800202F
:10268000024B186800B1C078704700BF8C2800204A
:1026900010B5A8B9194B1B68997083F82410184815
:1026A00043689B788B4201D8002010BD134C2168F1
:1026B000FFF796F8236801225A70FFF799FFF3E7B6
:1026C000104B1B88984217D801380F4B53F8204005
:1026D00094B10A4BA1701B6884F824109C42DED090
:1026E0002046FFF723F96378012BDDD10448FFF77B
:1026F0008FF8FFF787FFD7E7FF2010BD8C28002059
:1027000040280020D06F0008282200202DE9F04743
:1027100011F0FF0F0D468046234816469A4608BF23
:102720000135FFF772FA044620B94FF00009484618
:10273000BDE8F0871D4B06631B881D4E280AA0626A
:1027400000218B4201F10109EFD006EB89020F460F
:1027500052F8042C4946002AF3D1EDB2012384F843
:102760000390C4F81CA0C4F838A022706370A57050
:1027700084F824506260A260E26022612262A28238
:10278000E2822283628384F8252018B90948FFF782
:102790003CFA206320464146FFF7B2F9204646F84E
:1027A0002740FFF72FFFC2E764220020D06F000808
:1027B00028220020302600202DE9F84F4D4D18B179
:1027C0002B68DB78984241D12C68DFF83C810023EC
:1027D000637003F02CFAE062FFF780F92B681C6A43
:1027E0000127A4B92A684449D3784448013B41F8F9
:1027F0002340116BFFF716FA296841480C63FFF775
:1028000011FA2C60FFF7F4FE2046BDE8F88F6368EC
:10281000B3B12046FEF7FCFF00210646FFF7BCF9E6
:102820003046FFF79BF8777031464046FEF7D8FFF9
:10283000E368326A6780A660E26034621C46D0E7D3
:10284000E2686380A360E3601446CAE72D4B1B88EF
:1028500098424DD8284B471E994653F82760002EC2
:1028600046D03046FFF74CF83046FFF777F8DFF8F0
:1028700098B0346A4FF0010AB4B9316B1F4849F877
:102880002740FFF7CFF9314634631D48FFF7CAF9F7
:102890001D48296843689A788B789A42B4D90123F5
:1028A0004B70FEF79DFFADE76368DBB12046FEF796
:1028B000AFFF00218046FFF76FF94046FFF74EF863
:1028C00088F801A041465846FEF78AFFE368D8F829
:1028D0002020A4F802A0C4F80880E260C8F82040D4
:1028E0001C46C9E7E2686380A360E3601446C3E75F
:1028F000FF2489E78C280020282200203026002091
:1029000064220020D06F00084028002038B52C4BEE
:102910002C491A880023184693424DD32A4B2B4842
:1029200019882B4C4022FFF74BF92A4B2A481A886A
:102930002A4B42F000421968FFF742F9284B1988E8
:10294000284B08221868FFF73BF9FF230025E370A6
:102950002148A562012363702570A57084F8245076
:102960006560A560E56025612562A582E582258315
:10297000658384F82550FFF748F91B4920632046FA
:10298000FFF7BEF8194B04221A705D60184B1A70DD
:10299000DD601D619D82174B20461C600223637021
:1029A000FFF716FE144A154B12781D705D70DA7031
:1029B000BDE83840FFF77EBA41F823000133ABE7AA
:1029C000D06F0008282200209C6F0008642200209D
:1029D00094280020EC6F000830260020986F000833
:1029E0009E6F0008100A00204117000840280020B0
:1029F000582800208C280020CD6F0008781E002069
:102A000008B51E4B1A6842F47F021A601B681B024D
:102A100003F07F43DB43B3FA83F3194A1948126882
:102A20000168DBB2C3F10803C2F30222934298BFEC
:102A3000531C6FF0807202FA03F303F07F4321F01E
:102A40007F4213430360FFF711F80F4B0028186013
:102A500012DB00F1604000F56440FF2202701A684A
:102A600053099B0003F1604303F5614302F01F0229
:102A7000012101FA02F21A6008BD00BF20ED00E05A
:102A80000CED00E01CED00E0702800200323037033
:102A90000023438043608360C3607047F8B5438878
:102AA00004469BB18068036A9C4228D1E3680362B4
:102AB00090F82430026A52BB82789A4206D0837022
:102AC0001F4B1B68984201D0FEF730FF1D4F0126B7
:102AD000656825BB1B4843686BB1194E9A7831680D
:102AE0008B789A4207D9FEF77BFE336801225A7031
:102AF0002846FFF787FD00202070F8BD1346002B05
:102B0000D6D0DA689442F9D1E268DA60D0E7516849
:102B100019B189788B4238BF0B46D268CBE7204683
:102B2000FEF776FE00210546FFF736F82846FEF749
:102B300015FF6E7029463846FEF752FEC8E700BF03
:102B40008C280020402800202DE9F84343880546C2
:102B5000002B63D0324F81683A6891425ED1013BCD
:102B60009BB243801BB100242046BDE8F8830B6A6A
:102B7000984229D1C3680B6291F824300C6A5CBB7F
:102B80008B706A68DFF89C80002A3BD02846FEF7ED
:102B90003FFE21460646FEF7FFFF3046FEF7DEFE0B
:102BA000336AEB604FF001093968D8F80430A5F8B2
:102BB0000290AE6035628A789B789A4214D3304690
:102BC000FFF720FDD0E71346002BD5D0DA689542F9
:102BD000F9D1EA68DA60CFE762681AB19278934275
:102BE00038BF1346E468CAE74046FEF7F9FD3146B0
:102BF0004046FEF7F5FD3B6883F8019086F80190AA
:102C00002046DDE7D8F8042092789A42ABD94046B6
:102C1000FEF7E6FD3B6801225A70F1E7FF24A3E7C7
:102C20008C28002040280020438870B504460E46BA
:102C3000134D43B92A688260116AC1601062013382
:102C40006380002070BD80682A689042F7D081B10F
:102C5000937882789A4202D28370FEF767FE6268A8
:102C60004AB129682046FEF7BBFD09213046FFF72F
:102C7000EDFC012070BD2B6863605A609C60F4E736
:102C80008C2800200321FFF7E1BC0000426810B54A
:102C90007AB1FEF7BDFD0446FEF760FE01216170CA
:102CA0002046FEF779FF21460448BDE81040FEF7B4
:102CB00097BD42880132428010BD00BF40280020ED
:102CC00070B5134C23681A69950707D5DA68900721
:102CD00004D56FF002021A61FEF740FC23681A69FE
:102CE000510713D5DA68520710D56FF00402094E68
:102CF0001A615D6A3368EB1AB3F57A7F06D301F087
:102D0000BFFE236805F57A729A63356070BD00BF17
:102D1000D8280020841A002030B589B001A903A862
:102D200001F02CFE01F0FAFD00230293244B0190E8
:102D30001A6C244C42F008021A641A6C02F0080261
:102D40000292029A1A6A42F008021A621A6A22F081
:102D500008021A62069AA3F50B3323604FF0FF3383
:102D6000E360194B4ABBB0FBF3F00138002560600B
:102D700014482561A560656101F032FB13493220DA
:102D800001F0B6F8124B0F484FF480225A602946E2
:102D900001F066FB04210B4801F062FB23680D4A39
:102DA000596A1160126802F57A729A63DA682846E5
:102DB00042F00402DA6009B030BD4000D3E700BF42
:102DC00000380240D828002040420F00C12C0008E3
:102DD00000E100E0841A0020034B044A1360DA6823
:102DE00022F00402DA607047000C0040D82800206E
:102DF000034B044A1360DA6842F00402DA60704759
:102E0000000C0040D828002000B5002389B0072816
:102E10006FD8DFE800F00413202D3A475461009387
:102E2000364B37481A6B42F001021A631B6B03F0F2
:102E300001030093009B09B05DF804FB01932F4B45
:102E400030481A6B42F002021A631B6B03F0020354
:102E50000193019BEFE70293284B2B481A6B42F03A
:102E600004021A631B6B03F004030293029BE2E764
:102E70000393224B25481A6B42F008021A631B6B1E
:102E800003F008030393039BD5E704931B4B2048EF
:102E90001A6B42F010021A631B6B03F010030493C9
:102EA000049BC8E70593154B1A481A6B42F02002A1
:102EB0001A631B6B03F020030593059BBBE7069386
:102EC0000E4B15481A6B42F040021A631B6B03F05D
:102ED00040030693069BAEE70793084B0F481A6B17
:102EE00042F080021A631B6B03F080030793079B79
:102EF000A1E70B48FEF7DAFB00209CE70038024010
:102F0000000002400004024000080240000C0240A1
:102F1000001002400014024000180240001C024051
:102F20000C70000810B50021044604F00F0400F0F6
:102F3000B9FB0120A04010BD70B504464B1C0E46E5
:102F4000218216D0C1F30310FFF75EFF054630461D
:102F5000FFF7E8FF238A074A656103F00F0320604B
:102F600052F82330A36105F1100318356360A560A2
:102F7000E56070BDFC700008B0F9100000F016BCF0
:102F800010B58369446971B9216893FAA3F2B2FA62
:102F900082F20320520000FA02F221EA020293FABE
:102FA000A3F3226010BD226893FAA3F1B1FA81F174
:102FB00093FAA3F30320490000FA01F1B3FA83F373
:102FC00022EA01025B00012101FA03F313432360AB
:102FD00010BD08B5FFF700FF0121002001F042FA03
:102FE000BDE80840FFF704BF43692DE9F0413A4CC2
:102FF0000D46D90720602CD58168DFF8E8E08268AB
:10300000364F8368364E01EA0E01714502EA070227
:1030100004BF4FF0010EC0F808E0BA4203EA06030D
:1030200004BF4FF480778760B34204BF4FF480360B
:1030300086602C48814205D028498A4202D0284A1D
:10304000934206D1284B294A1B6852F825000121DA
:1030500098472368DA685B69920708D09F0706D50E
:10306000214B224A1B6852F825000021984723680B
:1030700099695A695B698E070AD5900508D51904C4
:1030800006D5194B194A1B6852F8250005219847A7
:10309000226897695669526917F0040706F480663A
:1030A00009D046B1120406D50F4B104A1B6852F8DE
:1030B00025000721984723685B695FB156B11B045F
:1030C00008D5094B094A1B6852F825000221BDE8C2
:1030D000F0411847BDE8F081881A0020000300087D
:1030E0000000031003000004D01A0020C81A0020BA
:1030F00000210148FFF778BF00640040FFF7F8BFE8
:10310000FFF7F6BF01210148FFF76EBF00680040DE
:10311000FFF7F8BFFFF7F6BF034B19604168034B99
:1031200043F82120704700BFD01A0020C81A0020A1
:103130000268536923F4064323F013035361024BDF
:10314000002143F822107047C81A00200368104A73
:1031500093420DD10F4B1A6A42F000721A621A6A3A
:1031600022F000721A621A6C22F000721A64704720
:10317000094A9342FBD1074B1A6A42F080621A62F5
:103180001A6A22F080621A621A6C22F08062EDE7FD
:10319000006400400038024000680040F8B50D4669
:1031A000044601F0BBFB1823B0FBF5F01921B0FB7E
:1031B000F3F386089BB2B34215D34FF0FF33002BD5
:1031C00022681CDD116841F0010111605168C907D6
:1031D000FCD5D361136823F0010313605368DB0748
:1031E000FCD40120F8BD01339BB2DF4303FB011285
:1031F0001625904205D0013D3A44FAD1DBE7002084
:10320000F8BD084901EBC50251F8351052680904B0
:10321000120502F4E00201F470210A43C3F309032A
:103220001343CCE74470000884B030B504AC84E8A4
:103230000E0004689DF81E20A36858013AD4A368C4
:103240001B0139D4A06810F080502FD0022000015B
:103250002318D3F8805105F00105C3F880519DF87B
:103260001D505DBBD3F8805142EA41512943C3F858
:103270008011D3F8841121F00F01C3F884119DF857
:103280001C10D3F8842101F00F0111432218C3F858
:1032900084110599C2F888110699C2F88C11D3F8E7
:1032A000802142F00102C3F880210120BDE83040B6
:1032B00004B070470020CAE70120C8E742EAC10114
:1032C000D3F8805141F00401D0E730B50468E068DC
:1032D00010F003003AD01301E018D0F8B051C5F354
:1032E00080054D739DBBD0F8B0516D0D0D60D0F8C9
:1032F000B051D0F8B401234400F00F000873D3F8A4
:10330000B8010871D3F8B801000A4871D3F8B801C0
:10331000000C8871D3F8B801000EC871D3F8BC0155
:103320000872D3F8BC01000A4872D3F8BC01000C43
:103330008872D3F8BC31C5F340051B0E8D73CB7278
:103340004AB9E36843F02003E360012030BDD0F8C0
:10335000B051ED08CAE7236943F020032361F4E785
:1033600030B58BB0012B0E9C2BD805681648059400
:10337000056000200690012007909BB949018DE867
:103380000A0052010292039300230493012308933D
:10339000694604F10E030C48099300F0A5FE20468F
:1033A0000BB030BD4B0B0093C900530BD200C9B218
:1033B000D2B241F0040142F004020191029303925F
:1033C000E2E70020ECE700BF881A0020F0B50E46C7
:1033D00087B004463E4930461546FEF727F93D4979
:1033E00007462846FEF722F901463846FEF700F95F
:1033F000394B206098424ED103F5EA330021039106
:103400001A6C42F000721A641B6C616003F0007366
:103410000393039B2E493046FEF7CCF82D492846EE
:10342000FEF7C8F8721C03D00121304600F0BEF947
:103430006B1C03D00121284600F0B8F92748236807
:10344000036000238361C361036243628362C362DA
:103450008360C3604FF4A02303614FF4E003436132
:103460000223436000F0C1FE10B11D48FEF71EF9B3
:103470001C492046FFF792FE174A2368934214BF67
:103480000E230023009300231A4619462046FFF717
:1034900067FF07B0F0BD144B9842FAD103F5E8334B
:1034A000002104911A6C42F000721A641A6C02F046
:1034B00000720492049A05911A6C42F080621A64B8
:1034C0001B6C03F080630593059B01236360A1E7F8
:1034D000547100089071000800640040881A0020B0
:1034E0002D700008A0860100006800400068324B83
:1034F000984210B52DD1072919D8DFE801F0041939
:103500001D18182218262D4902231424002A4ED0F3
:10351000426913434361204600F0EAFC620901233B
:1035200004F01F0403FA04F4254B43F8224010BDB5
:10353000244901231324E9E723494FF400431624C7
:10354000E4E721494FF40073F9E71F494FF4806322
:10355000F5E71E4B9842EAD10729E8D801A353F8B2
:1035600021F000BF853500088D350008953500082D
:103570002F3500082F3500089F3500082F3500082B
:10358000A7350008124902234024BFE7114901234F
:103590003F24BBE710494FF400434224B6E70E49ED
:1035A0004FF40073F9E70C494FF48063F5E7426983
:1035B00022EA0303AEE700BF0064004001310008C7
:1035C00000E100E0FD300008F13000080068004034
:1035D000153100081131000805310008054B186845
:1035E00030B901221A60044B044A1A60FFF794BBF9
:1035F000704700BFD41A0020D8280020000C0040DB
:1036000008B5044B1B680BB9FFF7E8FF024B586A7B
:1036100008BD00BFD41A0020000C0040044B054A2E
:1036200013605863DA6842F00202DA60704700BF44
:10363000000C0040D8280020034B044A1360DA68CD
:1036400022F00202DA607047000C0040D828002007
:10365000034A044B13606FF002021A61704700BF07
:10366000D8280020000C004030B5C36891FAA1F4BE
:10367000B4FA84F491FAA1F10325B1FA81F164005E
:1036800005FA04F4490023EA040302FA01F119439C
:10369000C16030BD012A02D0022A18BF0022FFF704
:1036A000E3BF00002DE9F0413F4B00F00F08C0F3ED
:1036B000031053F828400E4601F00705FFF7A4FB5E
:1036C000836894FAA4F1B1FA81F194FAA4F2032781
:1036D000490007FA01F1B2FA82F223EA010352002B
:1036E000022101FA02F213438D42836028D0BD42C9
:1036F00041D0012D3FD00023026894FAA4F7B7FA15
:1037000087F794FAA4F14FF0030EB1FA81F17F002C
:103710000EFA07F7490022EA07028B40013D1343E6
:10372000012D036005D8436832074CBF2343A343F0
:103730004360C6F301122146BDE8F041FFF7AABF7E
:10374000B8F1070FC6F3032717D9426A230A93FA81
:10375000A3F1B1FA81F193FAA3F34FF00F0EB3FA8C
:1037600083F389000EFA01F19B0022EA010207FAB5
:1037700003F3134343622B46BEE7026A94FAA4F3B1
:10378000B3FA83F394FAA4F14FF00F0EB1FA81F17A
:103790009B000EFA03F3890022EA030207FA01F301
:1037A00013430362E7E700BFFC70000838B500F080
:1037B0000F02194BC0F3031053F822400D46FFF7D8
:1037C00023FB04FB04F2016802EB42030B40B3FB52
:1037D000F2F3013B012B05D8EB1E022B436809D8FD
:1037E00023434360032D08D101222146BDE8384020
:1037F000FFF750BF23EA04034360012DF4D0052DE9
:1038000001D0022D01D10222EFE721460022BDE8BE
:103810003840FFF729BF00BFFC70000843090122B0
:1038200000F01F0002FA00F02033044A42F823009F
:10383000BFF34F8FBFF36F8F704700BF00E100E011
:1038400042681649920110B58B1804688C50826842
:103850005A60C2689A600269DA6042691A61026A53
:103860009A610022DA61DA849A84DA859A85B0F95D
:103870001A2001320AD108225A61184600F01DFFB1
:1038800058B10748BDE81040FDF710BFB0F9182047
:1038900001320CBF04220C22EEE710BD001B0020F9
:1038A0003C710008F7B5194E074656F8200000286D
:1038B0002AD0174CBD0163591A6852060AD5DB6835
:1038C000590607D5134B01211B68984763596FF0C0
:1038D00040021A6063591A6892060CD5DB68980694
:1038E00009D50C4B56F827001B68002198476359EF
:1038F0006FF020021A6063591A68110704D55A69DB
:10390000D20744BF5B68019303B0F0BDDC1A00200E
:10391000001B0020D81A00200020FFF7C3BF0120A1
:10392000FFF7C0BF0220FFF7BDBF0320FFF7BABFFC
:103930000420FFF7B7BF0520FFF7B4BFF0B50E4670
:1039400087B004466D4930461546FDF76FFE6C4959
:1039500007462846FDF76AFE01463846FDF748FE51
:10396000684B2060984200F09C8036D8A3F5006335
:10397000984269D003F5806398427CD05F49304615
:10398000FDF718FE5E492846FDF714FE721C03D0B1
:1039900001213046FFF70AFF6B1C03D001212846A6
:1039A000FFF704FF4FF41653A3600023E360236185
:1039B00063612362268365832046FFF741FF226807
:1039C000514B9A4207D1514B514801221A6021466E
:1039D0004C2202F02DFC07B0F0BD4E4B98421DD09A
:1039E00003F58063984272D0A3F544439842C5D151
:1039F000494B1A6A42F480121A621A6A22F480123F
:103A00001A62002204921A6C42F480121A641B6C2F
:103A100003F480130493049B04232AE03E4B5A6A68
:103A200042F010025A625A6A002122F010025A62D1
:103A300000915A6C42F010025A645B6C616003F0B2
:103A400010030093009B99E7334B1A6A42F400324B
:103A50001A621A6A22F400321A62002201921A6C67
:103A600042F400321A641B6C03F400330193019B8F
:103A70000123636082E7284B1A6A42F480221A62AB
:103A80001A6A22F480221A62002202921A6C42F40C
:103A900080221A641B6C03F480230293029B02238E
:103AA000E7E71D4B1A6A42F400221A621A6A22F4EE
:103AB00000221A62002203921A6C42F400221A6455
:103AC0001B6C03F400230393039B0323D1E7124BE6
:103AD0005A6A42F020025A625A6A22F020025A625E
:103AE000002205925A6C42F020025A645B6C03F08B
:103AF00020030593059B0523BBE700BF3872000830
:103B0000CC710008004C004000440040FC1A00202A
:103B10001429002000100140003802408160FFF7A6
:103B20008FBE0000034B19604168034B43F821200E
:103B3000704700BFD81A0020DC1A002038B543684F
:103B40000D46052B2BD8DFE803F0031B1E2124278D
:103B50002149252421489B013AB3C258D3680DBBA3
:103B600043F02003D360204600F0C2F9620901232C
:103B700004F0170403FA04F4194B43F8224038BD4B
:103B800018492624E6E718492724E3E7174934248F
:103B9000E0E717493524DDE716494724DAE7002135
:103BA0000C46D7E743F04003DCE7C358DA6835B981
:103BB00022F02002DA60DB681A0606D538BD22F052
:103BC0004002DA60DB689B0604D42046BDE838403A
:103BD000FFF724BE38BD00BF19390008001B0020C4
:103BE00000E100E01F390008253900082B390008E2
:103BF00031390008373900084368034A9B01D3581C
:103C00001868C0F340107047001B0020416810B5D1
:103C100004462046FFF7F0FF0028FAD08901034B45
:103C20005B585868C0F3080010BD00BF001B00209F
:103C30004368034A9B01D3581868C0F3C01070470B
:103C4000001B002038B5446805462846FFF7F0FF02
:103C50000028FAD0A401034B1B59C1F30801596095
:103C600038BD00BF001B002008B500F005F8BDE816
:103C7000084000F0EDBE0000174A1849936803F0B1
:103C80000C03042B10B50DD0082B0DD0144B0B607A
:103C9000114B144A9B68C3F30313D25C0B68D340E7
:103CA0000B6010BD104BF2E7546850685268630215
:103CB000C2F3881200F03F004CBF0B4B084BB3FB24
:103CC000F0F35343044A5268C2F3014201325200F6
:103CD000B3FBF2F3DBE700BF00380240E001002055
:103CE0000024F400A472000800127A002DE9F041CB
:103CF000ACB0304B002101911A6C42F080521A6432
:103D00001B6C03F080530193019B2B4B02911A68AB
:103D100042F440421A601B6803F440430293029B42
:103D2000012308930746C0B909934FF4B4730224E2
:103D30004FF480050826119308A807230E940F95C9
:103D4000109612941393149401F098F918B900F096
:103D500033FE804618B1002028E00523E4E74FF445
:103D6000C0731C934FF48073159315A84FF0006334
:103D70002A931B961D9600F091FE0F2303934FF498
:103D8000A053069305214FF4805303A80494CDF863
:103D90001480079300F00CFD02460028DBD10FB918
:103DA0004FF08062294600F0B7FC01202CB0BDE83E
:103DB000F08100BF0038024000700040F0B595B0BF
:103DC0000024234B00941A6C42F080521A641B6C3E
:103DD00003F080530093009B1E4B01941A6842F439
:103DE00040421A601B68089403F440430193019B0E
:103DF0000E940323079310230B930F934FF4B47384
:103E0000022610930127062307A80A970D961196FC
:103E1000129301F033F90546B8B90F2302934FF41A
:103E2000A0530490059305214FF4805302A80396F4
:103E3000069300F0BDFC024628B9014600F06CFC78
:103E4000384615B0F0BD2846FBE72046F9E700BF2D
:103E5000003802400070004008B50120FFF746FF1F
:103E600018B9FFF7ABFF00B9FEE74FF0C0620021C1
:103E70000120BDE8084000F04FBC0000174AD2F80E
:103E8000883010B543F47003154CC2F888302368AD
:103E9000002143F001032360A160236823F08473B1
:103EA00023F4803323600F4B6360236823F4802363
:103EB00023604FF00063E16093600B4B0B4A1A6084
:103EC00000F0C6FDFFF7C8FF236A43F00803236232
:103ED000236A23F00803236210BD00BF00ED00E059
:103EE0000038024010300024E001002080A81201B8
:103EF00030B50C4CA268A468B4F1006F13460CD125
:103F0000131F094C094A53F8045F42F8045FA242A8
:103F1000F9D1044A4FF000539360103043F8201059
:103F200030BD00BF00ED00E0C0010020FCFFFF1F1E
:103F30002DE9F04F85B00B68DFF8A081654ADFF806
:103F4000A091019300234FF0010E019C0EFA03FE95
:103F50000EEA0406B64540F0AA804C6824F010072B
:103F6000022F16D14FEAD30A00EB8A0A03F0070B9F
:103F7000DAF820504FEA8B0B4FF00F0C0CFA0BFCC9
:103F800025EA0C0C0D6905FA0BF545EA0C05CAF893
:103F900020504FEA430A0325D0F800B005FA0AF58D
:103FA000ED4304F0030C0BEA050B0CFA0AFC013F8D
:103FB0004CEA0B0C012FC0F800C011D8876807EA43
:103FC000050BCF6807FA0AFC4CEA0B0787604768C5
:103FD00027EA0E0EC4F300179F4047EA0E0747601A
:103FE000C7683D408F6807FA0AF73D43C560E500A2
:103FF0005DD54FF0000BCDF80CB0D8F84470364DBD
:1040000047F48047C8F84470D8F8447007F48047F4
:104010000397039F23F0030707F1804707F59C37B9
:1040200003F0030CD7F808A04FEA8C0C4FF00F0EEA
:104030000EFA0CFEA8422AEA0E0E3FD005F5806566
:10404000A8423DD005F58065A8423BD005F58065C6
:10405000A84239D005F58065A84237D0484537D009
:1040600005F50065A84214BF0825062505FA0CF5DC
:1040700045EA0E05BD601568F74314F4803F0CBF98
:104080003D4035431560556814F4003F0CBF3D407A
:1040900035435560956814F4801F0CBF3D4035438F
:1040A0009560D568A40254BF3D403543D5600133C7
:1040B000102B7FF448AF05B0BDE8F08F5D46D5E723
:1040C0000125D3E70225D1E70325CFE70425CDE776
:1040D0000525CBE7003C01400000024000380240CB
:1040E00000140240704700004A69012330B503FA0A
:1040F00002F53C4BD3F8000240F00100C3F8000287
:10410000D3F8000220F47C50C3F80002D3F8000278
:104110004C6A40EA0420C3F80002D3F81C02EC43C6
:104120002040C3F81C02C869002836D1D3F80C021D
:104130002040C3F80C02D200C8688B8802F180428C
:1041400002F5C84243EA0043C2F8403288680B884F
:1041500043EA0043C2F844328B692248002B35D130
:10416000D0F804322340C0F804320B691D4A8BBBDF
:10417000D0F814321C40C0F814420B6A012B02BF65
:10418000D2F81C322B43C2F81C32D2F8003223F092
:104190000103C2F80032002030BD0128DCD1D3F881
:1041A0000C022843C3F80C020B68888840EA0340DD
:1041B000D30003F1804303F5C8438A89C3F8400262
:1041C000886842EA0042C3F84422C5E7D0F80432C6
:1041D0002B43C8E7012B02BFD2F814322B43C2F89D
:1041E0001432CAE700640040704770B504460028E6
:1041F00000F08F8090F8383003F0FF021BB980F890
:104200003920FFF7F1FF022384F8383023681A6859
:1042100022F002021A601A6842F001021A6000F0ED
:1042200037FC064623685D6815F0010557D05A68CB
:10423000D1076BD5A269012A1A680CBF42F080022F
:1042400022F080021A60E269012A1A680CBF42F06B
:10425000400222F040021A60226A012A1A680CBF4A
:1042600042F0200222F020021A60626A012A1A68D3
:104270000CBF42F0100222F010021A60A26A012A5A
:104280001A680CBF42F0080222F008021A60E26AC3
:10429000012A1A680CBF42F0040222F004021A60DC
:1042A000E168A2680A4321690A4361690A436168B7
:1042B00001390A43DA611A6822F001021A6000F03B
:1042C000E7FB054623685A68D20713D4586810F0F4
:1042D00001001BD10123E06384F8383070BD00F089
:1042E000D7FB801B0A289DD9032084F8380084F866
:1042F000395070BD00F0CCFB401B0A28E2D90320E6
:10430000002384F8380084F8393070BD042384F821
:104310003830012070BD70472E4A0368904212D099
:10432000B0F1804F0FD0A2F57C4290420BD002F545
:104330008062904207D002F58062904203D002F57D
:10434000784290421DD14A6823F070031343214AFA
:10435000904204D1CA6823F44073134328E0B0F1BB
:10436000804FF7D01C4A9042F4D002F58062904210
:10437000F0D002F580629042ECD002F57842904293
:10438000E8D0164A9042E5D002F580629042E1D032
:1043900002F580629042DDD0A2F598329042D9D0E9
:1043A00002F580629042D5D002F580629042D1D071
:1043B00003608B68C3620B688362064B984206D029
:1043C00003F58063984202D00123436170470B6973
:1043D0000363F9E700000140000400400040014091
:1043E00010B50446A0B190F8393003F0FF021BB9B4
:1043F00080F83820FFF78FFF022384F839302068D7
:10440000211DFFF789FF012384F83930002010BDFA
:10441000012010BD036A10B501248C4023EA040377
:104420000362036A8A401A43026210BD10B5044653
:1044300001220068FFF7EEFF2368084A934203D089
:1044400002F58062934203D15A6C42F400425A64EE
:104450001A6842F001021A60002010BD00000140FD
:10446000FFF7E4BF064A1369012923F0040313612F
:1044700001D130BF704740BF20BF20BF704700BF91
:1044800000ED00E02DE9F0470668C2683369C169B4
:1044900023F4405313433361044683680069F26890
:1044A0000343606922F41642034322F00C020B43DB
:1044B0001343F3607369A26923F440731343B1F5A6
:1044C000004F73617A4B7CD19E4203D003F5806329
:1044D0009E4244D100F03AFA192505FB00F36068CA
:1044E0004FF064094000B3FBF0F3B3FBF9F34FEA7C
:1044F000031800F02BFA636868435B00B0FBF3F726
:1045000000F024FA636868435B00B0FBF3F3B3FB8D
:10451000F9F309FB1373DB003233B3FBF9F35B00F0
:1045200003F4F87700F012FA626868435200B0FBB7
:10453000F2FA00F00BFA636868435B00B0FBF3F338
:10454000B3FBF9F309FB13A3DB003233B3FBF9F33D
:1045500003F0070343443B44B360BDE8F08700F039
:10456000DDF9192505FB00F360684FF06409400090
:10457000B3FBF0F3B3FBF9F34FEA031800F0CEF905
:10458000636868435B00B0FBF3F700F0C7F963684A
:1045900068435B00B0FBF3F3B3FBF9F309FB137360
:1045A000DB003233B3FBF9F35B0003F4F87700F080
:1045B000B5F9626868435200B0FBF2FA00F0AEF958
:1045C000B9E79E4202D03B4B9E4240D100F0BEF97B
:1045D000676819254FF0640905FB00F3BF00B3FBC2
:1045E000F7F3B3FBF9F31F0100F0B0F96368684318
:1045F0009B00B0FBF3F800F0A9F9636868439B00E7
:10460000B0FBF3F3B3FBF9F309FB13831B01323364
:10461000B3FBF9F303F0F00800F098F9626868431F
:104620009200B0FBF2FA00F091F9636868439B00D6
:10463000B0FBF3F3B3FBF9F309FB13A31B01323314
:10464000B3FBF9F303F00F0343EA080383E700F039
:1046500065F9676819254FF0640905FB00F3BF0091
:10466000B3FBF7F3B3FBF9F31F0100F057F96368ED
:1046700068439B00B0FBF3F800F050F963686843AF
:104680009B00B0FBF3F3B3FBF9F309FB13831B01AE
:104690003233B3FBF9F303F0F00800F03FF962683E
:1046A00068439200B0FBF2FA00F038F9BDE700BFB2
:1046B0000010014000140140704710B5044640B39B
:1046C00090F8393003F0FF021BB980F83820FFF76B
:1046D000F3FF2268242384F83930D36823F400538D
:1046E000D3602046FFF7CEFE23681A6922F4904279
:1046F0001A615A6922F02A025A61DA6842F40052B9
:10470000DA6000202023E06384F8393084F83A30FE
:1047100010BD012010BD000070B50D4688B01646D2
:10472000204CF0B90190236B43F001032363236B0A
:10473000059003F001030193019B07904FF48073F0
:1047400003930223049303A9032317480693FFF757
:10475000EFFBA16821F0EC6131432943A16008B06F
:1047600070BD00230293226B104842F004022263C2
:10477000226B059302F004020292029A07934FF40F
:10478000007203920222049203A903220692FFF709
:10479000CFFBA36845EAC60123F078450D43A56029
:1047A000DDE700BF00380240000002400008024080
:1047B000564B1A6802F00F028A422DE9F041054675
:1047C0000E4630D32A68940737D4D0073DD44F4BD8
:1047D0001A6802F00F029642C0F088802A685107DA
:1047E00000F18C80130707D5494A2969936823F49F
:1047F000604343EAC103936000F0CCFD444BF022D8
:104800009B6892FAA2F2B2FA82F203F0F003D3406C
:10481000404AD35CD840404B18600F20FEF77CFA2A
:104820000020BDE8F081CAB21A701B6803F00F03C4
:104830009942C7D00120BDE8F0813549A8688B684E
:1048400023F0F00303438B60BFE76A68304B012A13
:104850001ED11B6813F4003FECD02D4CA36823F04D
:1048600003031343A36000F013F96B68012B0746A1
:1048700041F2883816D1A36803F00C03042BA6D0AC
:1048800000F006F9C01B4045F5D90320BDE8F081D2
:10489000911E01291B6802D813F0007FDCE713F09A
:1048A000020FD9E7022B0AD1A36803F00C03082BEF
:1048B0008DD000F0EDF8C01B4045F5D9E5E7032B9E
:1048C0000FD1A36803F00C030C2B80D000F0E0F8AC
:1048D000C01B4045F5D9D8E700F0DAF8C01B4045C9
:1048E000D3D8A36813F00C0FF6D170E7F2B21A70A8
:1048F0001B6803F00F039E429CD16FE70449E868F0
:104900008B6823F4E05303438B606BE7003C024069
:1049100000380240B4720008E0010020084B4FF458
:10492000E0529B6892FAA2F2B2FA82F203F4E053E8
:10493000D340044AD35C044A1068D840704700BF93
:1049400000380240B4720008E0010020084B4FF428
:1049500060429B6892FAA2F2B2FA82F203F46043D8
:10496000D340044AD35C044A1068D840704700BF63
:1049700000380240B4720008E00100200F230360F9
:104980000B4B9A6802F0030242609A6802F0F00250
:1049900082609A6802F4E052C2609B68DB0803F40C
:1049A000E0530361034B1B6803F00F030B60704778
:1049B00000380240003C024037B500230193224BEF
:1049C0001A6C42F080521A641B6C03F080530193FE
:1049D000019B4FF4803393FAA3F3B3FA83F303F10B
:1049E000845303F560339B0001221A6000F050F8F5
:1049F000164C05466368DA0315D54FF4003393FA75
:104A0000A3F3B3FA83F303F1845303F560339B00FC
:104A100001221A6000F03CF80C4C054663689B03C9
:104A20000AD5002006E000F033F8401BB0F57A7F8D
:104A3000E0D9032003B030BD00F02AF8401BB0F5E8
:104A40007A7FEBD9F5E700BF0038024000700040E4
:104A500008B50A4B1A6842F400721A601A6842F4E8
:104A600080621A601A6842F480721A600F20FEF7A2
:104A700053F9FFF737FB002008BD00BF003C0240A0
:104A8000024A136801331360704700BF6029002099
:104A9000014B1868704700BF602900202DE9F04FD6
:104AA000036813F0010685B004460BD0C849866B35
:104AB000D1F88C2022F0C0623243B6FA86F6C1F8F3
:104AC0008C20760999070BD5C148E16BD0F88C2072
:104AD00022F0C0520A430029C0F88C2008BF0126EA
:104AE00013F0040512D0BA49256BD1F88C20B5F526
:104AF000801F22F4401242EA050218BFB5FA85F57C
:104B0000C1F88C2012BF6D09002501261A070FD5A8
:104B1000AF48616BD0F88C2022F440020A43B1F513
:104B2000800FC0F88C2000F0BF81002908BF01254C
:104B30009F0633D500230393A54BA64F1A6C42F072
:104B400080521A641B6C03F080530393039B3B68F1
:104B500043F480733B60FFF79BFF80463B68D805BA
:104B600040F1A4819A4F3B6F13F4407340F0A98148
:104B7000236C03F44072B2F5407F954A40F0C48143
:104B8000916823F0704021F4F81120F44070014343
:104B90009160116FC3F30B030B4313672368DB06AC
:104BA00042BF8D4B94F858201A6023681F0608D521
:104BB0008749E06CD1F8942022F440020243C1F806
:104BC0009420580608D58249A06CD1F8942022F090
:104BD00080620243C1F89420D9050CD57C48616DF0
:104BE000D0F8942022F000620A43B1F1006FC0F8BF
:104BF000942008BF01259A0508D57549606CD1F845
:104C0000942022F080520243C1F894205F0500F105
:104C10007F81012E40F08A81704E6D4F00233360FA
:104C2000FFF736FF019680463B68180100F10B82C2
:104C30002068C10701D5A36B23B1820746D5E36B7A
:104C4000002B43D1624F4FF44031D7F8842091FAC2
:104C5000A1FE4FF0706CBEFA8EFED7F884309CFA3D
:104C6000ACF847F6C07BB8FA88F89BFAABFBBBFA06
:104C70008BFB91FAA1F1B1FA81F19CFAACFC4FF0F7
:104C8000E04ABCFA8CFC9AFAAAFAA66802F440320E
:104C900006FA0BF96669BAFA8AFA22FA0EF206FAED
:104CA0000AFA03F070636668013249EA0A0923FAD6
:104CB00008F322F0004249EA060903FA0CF3013A2C
:104CC00049EA03038A401343C7F88430430703D5F6
:104CD000236BB3F5801F05D0070750D5636BB3F581
:104CE000800F4CD13A4F4FF44031D7F8842091FADD
:104CF000A1FE4FF0E04CBEFA8EFED7F884309CFA4D
:104D0000ACF847F6C07BB8FA88F89BFAABFBBBFA65
:104D10008BFB91FAA1F14FF0706AB1FA81F19AFA26
:104D2000AAFABAFA8AFA9CFAACFCA66802F44032F3
:104D300006FA0BF9266922FA0EF206FA0AFA03F0CD
:104D4000E04366680132BCFA8CFC49EA0A0923FA9E
:104D500008F322F0004249EA060903FA0CF3013A8B
:104D60008A4049EA03031343C7F88430D7F88C20FC
:104D7000A36A22F01F02013B1343C7F88C3046059B
:104D800053D5236DB3F1005F4FD1DFF844C04FF42A
:104D9000403BDCF884209BFAABF84FF0E047B8FAD0
:104DA00088F8DCF8841097FAA7F947F6C07AB9FAC0
:104DB00089F99AFAAAFABAFA8AFA9BFAABFB4FF087
:104DC000706EBBFA8BFB9EFAAEFEBEFA8EFE07E05B
:104DD0000038024000700040E0114742680047423E
:104DE00097FAA7F7E368A6685B08013B02F4403234
:104DF00006FA0AFA03FA0BF3666801F0E04122FAB8
:104E000008F8B7FA87F743EA0A0321FA09F908F123
:104E10000108334309FA07F74FEA48081F4308FA25
:104E20000EFE47EA0E07CCF8847001052CD547F634
:104E3000C07797FAA7F74FF44033B7FA87F793FA9A
:104E4000A3F34FF07060B3FA83F290FAA0F04FF042
:104E5000E041B0FA80F091FAA1F1E3685B08013B10
:104E60009340A26802FA07F762683B431343226942
:104E700002FA00F06269B1FA81F102FA01F103432A
:104E80007B4A0B43C2F88430019A794E01231360A8
:104E9000FFF7FEFD074633681A014BD4FFF7F8FD14
:104EA000C01B0228F7D908E0012641E6FFF7F0FD14
:104EB000A0EB080002287FF651AE032005B0BDE844
:104EC000F08F226C02F4407293423FF451AE3B6F7C
:104ED000684A0121116023F44073002111603B678F
:104EE0003B6FD9077FF544AEFFF7D2FD41F2883919
:104EF00080463B6F9A073FF53BAEFFF7C9FDA0EB3D
:104F000008004845F5D9D8E7916821F4F8113FE643
:104F10005748216DD0F8942022F000520A43B1F195
:104F2000005FC0F894207FF474AE75E6B3F5006FAF
:104F30003FF472AE012D40F084804F4D4C4E002363
:104F40002B60FFF7A5FD074633689B0000F18380C7
:104F50002068460701D5236B1BB1010738D5636B69
:104F6000B3BB43494FF44036D1F8883096FAA6FED9
:104F700047F6C072BEFA8EFE92FAA2F2B2FA82F739
:104F800096FAA6F64FF0706CB6FA86F69CFAACFC70
:104F9000E26903F44033BA40676ABCFA8CFC23FA36
:104FA0000EF307FA0CF701333A4323F00043A769E5
:104FB000013B3A43B3401343C1F88830D1F88C30F9
:104FC000E26A23F4F853013A43EA0223C1F88C3031
:104FD000C2052DD5636DB3F1006F29D124494FF07F
:104FE0007060D1F8882090FAA0F647F6C07EB6FA35
:104FF00086F69EFAAEFE4FF44033BEFA8EFE93FA6A
:10500000A3F3B3FA83F790FAA0F0236A5B08013B9D
:10501000BB40E769A46907FA0EF702F07062B0FAC4
:1050200080F03B43F240234382401343C1F8883071
:1050300001232B60FFF72CFD0D4C054623689B00D8
:1050400010D500203AE7FFF723FDA0EB0800022867
:105050007FF6EAAD31E7FFF71BFDC01B02287FF6A4
:1050600073AF2AE7FFF714FD401B0228E6D924E7B7
:1050700000380240400E4742700047420368F7B5CF
:10508000DF07044638D423689E077AD423681E07B6
:1050900000F1CF8023685D0728D500230193AF4B33
:1050A000AF4D1A6C42F080521A641B6C03F08053AF
:1050B0000193019B2B6843F480732B60FFF7E8FC9E
:1050C00006462B68DA0540F1D680A64B227A1A7084
:1050D000A368002B00F0DD80FFF7DAFC9F4D064649
:1050E00041F288372B6F9B0740F1CC80A269002AE0
:1050F00040F0DF8000201EE0984B9A6802F00C021E
:10510000042A10D09A6802F00C02082A02D15B68C7
:105110005D0208D4914A936803F00C030C2B0CD168
:105120005368580209D58D4B1B689903ABD563684A
:10513000002BA8D1012003B0F0BD8B4B22791A704F
:1051400063687BB1FFF7A4FC844D064641F28837C3
:105150002B689A0397D4FFF79BFC801BB842F7D9C2
:105160000320E8E7FFF794FC7C4D064641F28837C0
:105170002B689B0387D5FFF78BFC801BB842F7D9C0
:10518000EEE7764B9A6812F00C0F10D09A6802F096
:105190000C02082A02D15B68580208D56F4A93684E
:1051A00003F00C030C2B16D15368590213D46B4B2C
:1051B0001A68920702D5E268012ABBD11868F82262
:1051C00092FAA2F2B2FA82F122698A4020F0F80142
:1051D0000A431A605AE7E268644BDAB101221A60A6
:1051E000FFF756FC5D4D06462B689B070CD52968DA
:1051F000F82393FAA3F3B3FA83F22369934021F0DF
:10520000F80213432B6041E7FFF742FC801B0228A2
:10521000EAD9A5E71A60FFF73BFC504D06462B681C
:105220009F077FF533AFFFF733FC801B0228F6D9C9
:1052300096E762694E4B7AB101221A60FFF728FCAB
:10524000464D06466B6F98073FF524AFFFF720FCED
:10525000801B0228F6D983E71A60FFF719FC3F4D3F
:1052600006466B6F99077FF515AFFFF711FC801BA2
:105270000228F6D974E7FFF70BFC801B02287FF6A3
:1052800020AF6DE7FFF704FC801BB8427FF62AAF22
:1052900066E7FFF7FDFB314D064641F288372B6F7D
:1052A00098077FF523AFFFF7F3FB801BB842F6D9D1
:1052B00056E72A4DAB6803F00C03082B3FF43AAFD6
:1052C0002C4E0023022A336056D1FFF7E1FB07463C
:1052D0002B6899013CD447F6C07E9EFAAEFE4FF48F
:1052E0004032BEFA8EFE92FAA2F24FF07060B2FA2D
:1052F00082F790FAA0F04FF0E041B0FA80F091FA16
:10530000A1F1226AE3691343626A02FA0EF21343BF
:10531000A26A5208013ABA401343E26A02FA00F064
:10532000226B0E4CB1FA81F1034302FA01F10B43F7
:105330006B6001233360FFF7ABFB054623689A01DE
:105340003FF5D8AEFFF7A4FB401B0228F6D907E7CC
:10535000FFF79EFBC01B0228BAD901E700380240C4
:10536000007000407038024002380240000047429E
:10537000800E474260004742FFF78AFB04462B68D5
:105380009B017FF5B7AEFFF783FB001B0228F6D920
:10539000E6E600BF2B4B9A6802F00C02082A07D001
:1053A0000C2A2CD0284B2948042A18BF18467047CD
:1053B0005A6859685B6811F4800F02F03F0247F6A3
:1053C000C07191FAA1F0B0FA80F003EA010323FA68
:1053D00000F314BF1D481C48B0FBF2F05843194BB2
:1053E0004FF440325B6892FAA2F2B2FA82F203F40E
:1053F0004033D34001335B00B0FBF3F070475A6891
:1054000059685B6811F4800F02F03F0247F6C071E3
:1054100091FAA1F0B0FA80F003EA010323FA00F355
:1054200014BF0A480848B0FBF2F05843054B4FF050
:10543000E0425B6892FAA2F2B2FA82F203F0E04331
:10544000D340D9E7003802400024F40000127A006B
:1054500010B50446FCF700F923682BB9E068FCF7A7
:10546000A6F8012360602360BDE81040FCF70AB98C
:1054700038B50546FCF7F0F82C6824B1E868FCF76D
:1054800096F86C68041BFCF7FDF8204638BD38B56B
:105490000546FCF7E1F82846AC68FFF7E9FF04444D
:1054A000FCF7F0F8204638BD08B5FFF7F0FF4FF4E1
:1054B0007A7390FBF3F008BD10B50446FCF7CCF806
:1054C000E068FCF774F800236060A360BDE810405A
:1054D000FCF7D8B8002310B503604360836004462E
:1054E000FCF738F8E0602046FFF7E6FF204610BDE5
:1054F0007047000010B5044600F054F9014B2360DA
:10550000204610BDCC72000810B5034B0360044662
:10551000FBF778FE204610BDCC72000810B504469B
:10552000FFF7F2FF204600F04DFB204610BD70470C
:1055300000EB011202F10C0093691B6818474FF051
:10554000FF319C3000F062BB9C3000F062BB70B554
:1055500005460E4655F8043B9B680446984731467D
:105560002846FDF71BFE23680546DB682046984762
:10557000284670BD84B073B5064607AC84E80E00BB
:1055800056F8043B9B6805469847002301930A9B05
:10559000009394E80E003046FDF746FE2B68044663
:1055A000DB6828469847204602B0BDE8704004B04A
:1055B0007047F8B505460E4655F8043B17469B68FC
:1055C000044698473A4631462846FDF77EFE236852
:1055D0000546DB68204698472846F8BD70B5044666
:1055E0000D4B44F8043B05462046FDF7A1FD20463F
:1055F00005F19C04FDF7AAFD204600F00DFB15F116
:105600000C0606D0B44204D0103C2046FBF7B7FD90
:10561000F8E7284670BD00BFE472000810B50446E4
:10562000FFF7DCFF204600F0CDFA204610BD88428F
:1056300038B504460D460AD0FBF7A1FD3CB1EB6836
:105640001BB15B68294620469847EB68E36020461B
:1056500038BD00002DE9FF471A4B0360174600F1E3
:105660000C03002204460E464260826000F19C0852
:105670001D46DA6010334345FBD1404600F0AEFAD8
:10568000DFF848A0DFF8489045450CD06946284629
:10569000CDF800A0CDF80C90FFF7C9FF6846FBF7E6
:1056A0006EFD1035F0E7251D3A4631462846FDF7D8
:1056B0008DFE284622460449FDF72EFD204604B003
:1056C000BDE8F087E4720008315500082F55000846
:1056D000906C00082DE9FF410546884655F8043BCB
:1056E0009B68044616469847D8F80C70300187B17D
:1056F0000C3041462044FFF79AFF012231462846EC
:10570000FDF7F4FE23682046DB68984704B0BDE847
:10571000F081074B00930C30064B039369462044FD
:10572000FFF785FF6846FBF72AFD3A46E6E700BF2C
:105730002F550008906C000870477047704700EBC9
:10574000011202F19800D2F8A4301B68184710B477
:1057500080B1146853680CB9DA070BD513F0010F48
:105760004FEA63031CBFC2581459184423465DF81E
:10577000044B18475DF8044B704770B50546044666
:1057800055F84C3B0E461B68984728463146FEF7B5
:10579000C5F92368C4F8B86020465B68BDE870406E
:1057A000184700002DE9F04387B000259146009589
:1057B00002460195044688461F469DE80300274B94
:1057C00042F8083B264B82E80300236148F20703B6
:1057D0006361244BE561A46122626362BFF36F8F52
:1057E000BFF34F8F04F14C064C226563656484F867
:1057F000485084F84950304600F03FFD02A9C4F8F3
:10580000A450C4F8B450C4F8B870174D174F02979D
:1058100004F198000595FFF70AFF02A8FBF7AFFC1B
:1058200002A904F1A80002970595FFF700FF02A85E
:10583000FBF7A5FC4A4641463046FEF77FF8D4F810
:10584000B8103046FEF76AF9304622460849FEF79E
:1058500069F9204607B0BDE8F08300BFFC7200087C
:1058600001A090E84F570008906C000839570008D5
:105870003F5700082DE9FF410546884655F84C3B47
:105880001B68044616469847FBF7E6FED8F80C70EE
:10589000300197B1983041462044FFF7C8FE0122FD
:1058A00031462846FEF74AF9FBF7ECFE236820460E
:1058B0005B68984704B0BDE8F081074B00939830CF
:1058C000064B039369462044FFF7B1FE6846FBF799
:1058D00056FC3A46E4E700BF39570008906C0008D0
:1058E00038B5044648B15830A04206D0A0F12C0586
:1058F0001438FBF77EFC2846F6E7204638BD00004A
:1059000070B50E4C2046002528263246294640F820
:10591000045B00F0B2FC3246294604F13000E56237
:1059200000F0ABFCA5652046E565054A84F86050AB
:105930000449BDE8704000F027B900BF001D0020F9
:10594000C4010020E158000800F0EEBC00F04ABDA0
:1059500000F09CBC70B50546FDF752FE4FF47A741A
:1059600095FBF4F4002C064602DDFBF76FFE28B928
:10597000FDF746FE801BA842FAD370BD204600F01A
:105980002BF9F5E74FF47A735843FFF7E3BF0000B4
:1059900008B5084B1B685BB9022107480322FDF7D5
:1059A000CDFF4FF416510448BDE80840FEF7B6B8E5
:1059B00008BD00BFFC1A002014290020022810B5E1
:1059C000044601DC002010BD00F016FA0923036034
:1059D000033C094B53F82400002243F8242040B133
:1059E00003681B699847041EECDA00F005FA64426C
:1059F00004604FF0FF3010BD641D0020F8B505466F
:105A00000E46144600F0F8F90923022D03600FDC5E
:105A1000124B1B680BB9FFF7BBFF35463719104E09
:105A2000BD4215D015F8011B3046FEF70BF9F7E71C
:105A3000033D0C4B53F8250060B103682246DB6838
:105A400031469847041E03DA00F0D6F9634203603A
:105A50002046F8BD4FF0FF34FAE700BFFC1A0020E3
:105A600014290020641D002070B504460D4616461A
:105A700000F0C2F90923022C03600BDC0F4B1B68FA
:105A80000BB9FFF785FF0E48FEF7C0F80124287018
:105A9000204670BD033C0B4B53F8240058B10368FB
:105AA00032469B6829469847041EF1DA00F0A4F9B3
:105AB00063420360ECE74FF0FF34E9E7FC1A002093
:105AC00014290020641D002070B504460D461646BA
:105AD00000F092F90923022C03600BDD033C084B14
